:100000000C9467060C94AE060C94AE060C94383231
:100010000C94AE060C94AE060C94AE060C94AE0690
:100020000C94AE060C94AE060C94BA1B0C94761B82
:100030000C94D1270C94AE060C94AE060C94AE062C
:100040000C94AE060C94AE060C94AE060C94AE0660
:100050000C94AE060C94921C0C94AE060C94AE0656
:100060000C94AE060C94AE060C94AE060C94AE0640
:100070000C94AE060C94AE060C94AE060C94AE0630
:100080000C94AE060C94AE060C94AE060C94AE0620
:100090000C94AE060C94AE060C94AE060C94AE0610
:1000A0000C94AE060C94AE060C94AE060501090243
:1000B000A10185020901A1000509190129081500FE
:1000C0002501950875018102050109300931158165
:1000D000257F95027508810609381581257F9501D0
:1000E00075088106050C0A38021581257F95017572
:1000F000088106C0C00660FF0961A1010962150000
:1001000026FF009520750881020963150026FF006F
:10011000952075089102C005010906A1010507197E
:10012000E029E71500250195087501810295017503
:100130000881010507190029FF150026FF00950613
:1001400075088100050819012905950575019102B9
:10015000950175039101C00000000000000000003F
:10016000000000000000000000000000000000008F
:1001700000000000000000000000007E0F00D4FF1F
:10018000FFFFC70000007800000000000000002A08
:100190002B2800000000000000000000000000000C
:1001A000000029000000002C1E34202122243426C7
:1001B00027252E362D3738271E1F202122232425C0
:1001C000263333362E37381F0405060708090A0B75
:1001D0000C0D0E0F101112131415161718191A1BE7
:1001E0001C1D2F3130232D350405060708090A0B85
:1001F0000C0D0E0F101112131415161718191A1BC7
:100200001C1D2F3130354C00DA0281FFD9F1DB2083
:10021000A4A62EAF00A0C000A1C800AED580A81F24
:10022000D300408D1420006162636465666768696D
:100230006A6B6C6D6E6F70717273747576777879A6
:100240007A31323334353637383930524542545F9B
:100250002D3D5B5D5C233B27602C2E2F202027004B
:10026000204B00202043004B6579203A202052008B
:100270002020440030302020530020202020204324
:1002800050490042616C6C3A004C617965723A00E9
:10029000808182838485868788898A8B8C8D8E8FE6
:1002A0009091929394A0A1A2A3A4A5A6A7A8A9AA5D
:1002B000ABACADAEAFB0B1B2B3B4C0C1C2C3C4C5D4
:1002C000C6C7C8C9CACBCCCDCECFD0D1D2D3D4002B
:1002D0000001010101010101010102020202020209
:1002E00002020203030303030303030404040404DC
:1002F00004040505050505060606060607070707A3
:100300000708080808090909090A0A0A0B0B0B0C57
:100310000C0C0D0D0D0E0E0E0F0F0F1010111111F4
:100320001212131314141515161617171818191975
:100330001A1A1B1B1C1D1D1E1E1F202021222223DA
:100340002424252626272829292A2B2C2D2D2E2F1B
:1003500030313232333435363738393A3B3C3D3E32
:100360003F404142434445464748494A4C4D4E4F21
:1003700050515354555658595A5B5D5E5F616264E3
:10038000656668696B6C6D6F7072737577787A7B70
:100390007D7E8082838587888A8C8E8F91939596C7
:1003A000989A9C9EA0A2A3A5A7A9ABADAFB1B3B5E7
:1003B000B7BABCBEC0C2C4C6C9CBCDCFD1D4D6D8C3
:1003C000DBDDDFE2E4E7E9EBEEF0F3F5F8FAFDFF61
:1003D00000AF00AE29001E001F0000002000210019
:1003E000220000004C0014001A0000000800150054
:1003F000170000002B000400160000000700090091
:100400000A00000001511D001B0000000600190039
:10041000050030000100E000E2000000E30091412F
:100420002C4290432D0027002600000025002400C8
:100430002300000089001300120000000C001800C7
:100440001C000000240233000F0000000E000D000D
:100450000B000000E50038003700000036001000F7
:10046000110032004600E60001000000E700914163
:1004700028422A0029021E022F0000002002210229
:10048000220200004C0214021A02000008021502A7
:10049000170200002B0204021602000007020902E4
:1004A0000A02000001001D021B02000006021902E0
:1004B000050230020100E002E2020000E302010056
:1004C00001000100870226022502000034022302F7
:1004D0002E00000089021302120200000C02180212
:1004E0001C0200001F0234000F0200000E020D0269
:1004F0000B020000E502380237020000360210024B
:10050000110232020100E60201000000E7020100D0
:100510000100010001003A003B0000003C003D00EA
:100520003E0000000100010024000000250026001C
:100530000100000001000100210000002200230052
:1005400033020000010001001E0000001F00200017
:100550002D022502010001002700000037000100E4
:10056000010001004400430042000000410040003F
:100570003F000000450001004F0000005200500005
:10058000010000000100F600F50000005100F40039
:100590004B0000000100010001000000010001000B
:1005A0004E002602010001000100000001000100D0
:1005B00001004C00C25C01000100000001000100CC
:1005C00001000000C35CC55CC75C0000C95C0100A1
:1005D00001000000C45CC65CC85C0000CA5C01008D
:1005E0000100000001000100AE5D0000AD5DAC5DEA
:1005F000AB5DDE5C005C0100500000005100520069
:100600004F000100D25CD15CD05C0000CF5CCE5CBE
:10061000CD5C0000010001005D5D0000D55CD45C94
:10062000D35C0000A55DA65DA95D0000A75DA85D87
:10063000AA5D0000010001004D0000004B004E00CB
:100640004A00DE5C005C01000100000001000100C6
:100650002A0001000100010001000000010001006A
:100660000100000001000100010000000100010084
:100670000100000001000100010000000100010074
:100680000100000001000100010000000100010064
:100690000100010001000100010000000100010053
:1006A0000100010001000100010000000100010043
:1006B0000100000001000100010000000100010034
:1006C0000100000001000100B05D00000100AF5D0D
:1006D0000100000001000100010000000100010014
:1006E0000100010001000100010000000100010003
:1006F0000100010009025B00030100A0FA090400E7
:10070000000103010100092111010001224000073D
:1007100005810308000A0904010002030000000922
:100720002111010001222200070582032000010798
:100730000503032000010904020001030000000971
:1007400021110100012249000705840320000A123B
:1007500001000200000008575900010100010200D9
:100760000114034B0065007900620061006C006CAD
:1007700000360031000000100359006F0077006B55
:100780000065006500730000000403090400000018
:100790000000003E5B4F5B3E003E6B4F6B3E001C1B
:1007A0003E7C3E1C00183C7E3C18001C577D571CAC
:1007B000001C5E7F5E1C0000183C180000FFE7C3B1
:1007C000E7FF00001824180000FFE7DBE7FF003018
:1007D000483A060E00262979292600407F0505079C
:1007E00000407F05253F005A3CE73C5A007F3E1CF5
:1007F0001C0800081C1C3E7F0014227F2214005F8E
:100800005F005F5F0006097F017F00006689956ACF
:100810000060606060600094A2FFA2940008047E03
:1008200004080010207E20100008082A1C08000878
:100830001C2A0808001E10101010000C1E0C1E0CA4
:100840000030383E383000060E3E0E060000000034
:1008500000000000005F0000000007000700001417
:100860007F147F1400242A7F2A1200231308646255
:1008700000364956205000000807030000001C22E3
:100880004100000041221C00002A1C7F1C2A000895
:10089000083E0808000080703000000808080808BA
:1008A000000000606000002010080402003E514972
:1008B000453E0000427F4000007249494946002100
:1008C00041494D33001814127F1000274545453922
:1008D000003C4A4949310041211109070036494984
:1008E000493600464949291E000000140000000056
:1008F00040340000000008142241001414141414A1
:10090000000041221408000201590906003E415D21
:10091000594E007C1211127C007F49494936003E35
:1009200041414122007F4141413E007F49494941C7
:10093000007F09090901003E41415173007F080809
:10094000087F0000417F4100002040413F01007FBF
:1009500008142241007F40404040007F021C027F7B
:10096000007F0408107F003E4141413E007F09099D
:100970000906003E4151215E007F091929460026E3
:10098000494949320003017F0103003F4040403F95
:10099000001F2040201F003F4038403F00631408E4
:1009A0001463000304780403006159494D430000B7
:1009B0007F41414100020408102000004141417F75
:1009C00000040201020400404040404000000307D0
:1009D0000800002054547840007F284444380038F0
:1009E0004444442800384444287F00385454541860
:1009F0000000087E0902001824241C78007F0804E7
:100A000004780000447D4000002040403D00007F0D
:100A1000102844000000417F4000007C04780478E6
:100A2000007C08040478003844444438007C1824CE
:100A3000241800182424187C007C080404080048AA
:100A4000545454240004043F4424003C4040207C7F
:100A5000001C2040201C003C4030403C004428103A
:100A60002844004C9090907C004464544C44000016
:100A70000836410000000077000000004136080001
:100A8000000201020402003C2623263C0000000074
:100A90000000000000000000000000000000000056
:100AA0000000000000C0F0F88C86C6E7FFFFFFFFE3
:100AB000FFFFFEFCFCF8E080000000F0F0F000001A
:100AC000C0E0F070700000000000000000000000B6
:100AD0000000000000000000000000F8F8F800002E
:100AE0000000000000000000000000000000000006
:100AF00000F8F8F80000F8F8F80000000000000026
:100B00000000000000000000000000E0F0F0F0E055
:100B1000ECEEF7F37020007C7C7C7E007E7E7E7F96
:100B20007F7F000080C0E07E5B4F5BFEC00000C0A6
:100B300000DCD7DEDEDED7DC00C0000000000000F5
:100B400000000000000000000000000000000000A5
:100B5000000000000000000000000000000080E035
:100B60007078686C64C7C7C7C7C7C7E73F1F0F3F28
:100B7000FFFFFFFFFFFF3F0F000000FFFFFF1E3FD3
:100B8000FFF3E1800000F8FCFE3636363EBCB800CC
:100B90000E3EFEF080F0FE3E0E0000FFFFFF060658
:100BA00006FEFEFC7000E6F6F63636FEFEFC0000A1
:100BB00000FFFFFF0000FFFFFF000000000000003B
:100BC00000000000000000000000000F1F3F7F7FBA
:100BD0007F7F7F3F1E0C001F1F1F3F003F3F3F7F57
:100BE0007F7F00307B7F7830202030787F3B000390
:100BF000000F7F0F0F0F7F0F0003000000000000A9
:100C000000000000000000000000000000000000E4
:100C1000000000000000000000000000003C7F63B6
:100C200060E0C0C0C0C0C0C0C0C0FFFFC06030181E
:100C30000F03030301000000000000030303000092
:100C40000003030303000103030303030303010081
:100C50007070393F1F070100000000010303030308
:100C60000303030100000103030303030301000066
:100C70000003030300000303030000000000000062
:100C80000000000000000000000000000000000064
:100C90000000000000000000000000000000000054
:100CA0000000000000000000000000000000000044
:100CB0000000000000000000000000000000000034
:100CC00000000000000000000000000000001124EF
:100CD0001FBECFEFDAE0DEBFCDBF04B603FE27C0F4
:100CE00080914B0690914C06A0914D06B0914E0616
:100CF0008730904BA740B04BD1F410924B06109226
:100D00004C0610924D0610924E0614BE84B7877F93
:100D100084BF0FB6F894A895809160008861809395
:100D20006000109260000FBEE0E0F8E3099511E06A
:100D3000A0E0B1E0E6E6F9E602C005900D92AC3B1A
:100D4000B107D9F726E0ACEBB1E001C01D92AB349E
:100D5000B207E1F70E94F8270C9477340C94000056
:100D6000FC01AC014B5F5F4F8FEF91E32191822734
:100D700028E030E087FF09C0880F8927215031091A
:100D8000C9F7E417F50791F70895880FF7CFE8ED55
:100D9000F0E080818E7F80831092E2001092DA0072
:100DA0001092E100A0EEB0E08C9181608C93808184
:100DB0008F77808319BCA7EDB0E08C918E7F8C93E8
:100DC00080818F7E80831092F80308952091E40043
:100DD0003091E50095E6A9012091EC00822F817009
:100DE00020FF06C08091E80080FF06C080E00895E3
:100DF0002091E80022FD1AC080910604882389F022
:100E0000853089F08091EB0085FD0FC02091E400D2
:100E10003091E50042175307F9F29150E1F684E072
:100E2000089582E0089583E0089581E00895EF92A7
:100E3000FF920F931F93CF937C018B010E94E606D4
:100E4000C82F811117C08091E80085FD0BC08091EB
:100E5000E8008E778093E8000E94E606882399F3E5
:100E6000C82F08C0F70181917F018093F1000150E4
:100E7000110949F78C2FCF911F910F91FF90EF909F
:100E800008958091080487FF13C08091E80082FFD5
:100E900006C08091E8008B778093E80004C08091C1
:100EA00006048111F2CF0895809106048823D9F3B6
:100EB0008091E80080FFF8CF8091E8008E77ECCF3A
:100EC000982F9093E900242F762F50E0891731F066
:100ED0007091EC002091ED005091F00021FD07C0D1
:100EE0009F5F973071F78093E90081E0089530911A
:100EF000EB003E7F3093EB003091ED003D7F30936F
:100F0000ED003091EB0031603093EB007093EC001A
:100F10002093ED005093F0002091EE0027FDE0CFEC
:100F200080E00895CF92DF92EF92FF920F931F938C
:100F3000CF93DF93C8EDD0E088818F7E8883E7ED83
:100F4000F0E080818160808384E082BF81E08093D3
:100F5000F80388818E7F888302EE10E0F80110820A
:100F60001092DA0081EEC82ED12CF6011082888111
:100F70008F77888388818068888388818F7D888344
:100F800019BC1092060410920704109205041092E6
:100F9000040490EEE92EF12CF70180818B7F808391
:100FA00088818160888342E060E080E00E94600781
:100FB000F60180818E7F8083F8018081816080834B
:100FC000808188608083F70180818E7F8083888123
:100FD00080618883DF91CF911F910F91FF90EF90F7
:100FE000DF90CF900895FC01CB0120910E04309149
:100FF0000F042617370790F0009729F42091E80096
:101000002E772093E80040E0009751F4411108C08A
:101010008091E80082FF31C080E00895C901F3CFDC
:10102000209106042223A9F12530A9F12091E8009E
:1010300023FD2DC02091E80022FDEACF2091E80099
:1010400020FFE2CF3091F3002091F200009719F0D9
:101050002830310558F041E02830310509F040E0F2
:101060002091E8002E772093E800CECF4191409365
:10107000F10001972F5F3F4FE9CF8091060488234D
:1010800041F0853041F08091E80083FFC1CF81E0DD
:10109000089582E0089583E00895089508950895DD
:1010A0008091FB03089587E797E790930108809369
:1010B000000888E19AE00FB6F894A8958093600044
:1010C0000FBE90936000FFCFCF93DF9300D000D08E
:1010D000CDB7DEB78FB7F8942091F4033091F503C4
:1010E0004091F6035091F70329833A834B835C8345
:1010F0008FBF69817A818B819C810F900F900F90B7
:101100000F90DF91CF9108959C01FC0132968FEFF3
:1011100090E04191461751F08F3F19F4411101C001
:10112000892F9F5F9630A9F78F3F09F40895280F04
:10113000311D87FD3A95F90162830895FA01811105
:101140000994FB01FDCF8091E603982F9E7F71F4F7
:101150008091E603817082608093E6038091E903C9
:10116000893718F088E78093E9030895843080F781
:10117000F5CFCF93DF93E1E1F4E083819481A58102
:10118000B681E90188839983AA83BB831482138281
:1011900016821582DF91CF91089580E00895E09145
:1011A0004D02EB30A4F48AE0E802F0011124E65F7E
:1011B000FE4F0084F185E02D309749F020E732E0C2
:1011C00040914F0260E572E080914E0209940895CB
:1011D000EBE3F2E0838980933E018489809355019B
:1011E00008959091A70292FF06C0282F28712830F9
:1011F000F9F4877F846093FF06C0282F2871283177
:10120000F1F4877E84612091A80220FF06C0382F68
:1012100038713830D9F4877F816021FF06C0282FCC
:1012200028712831D1F4877E816194FD877E0895ED
:10123000282F24712430F9F68B7F8860DCCF282F8B
:101240002471243101F78B7E8861DDCF382F317115
:10125000313019F78E7F8860E0CF282F217121313E
:1012600021F78E7E8861E1CFCF93DF93EC01803E42
:10127000910509F469C038F58133910509F4AFC0CF
:1012800078F48932910509F4A3C08A9709F4AEC0B5
:10129000C130D10509F46BC0209709F468C00BC0B8
:1012A0008933910509F449C08238910509F445C094
:1012B000C59709F486C0C53AD10590F4C430D1056C
:1012C00008F44EC054C0843E910509F45FC070F428
:1012D000823E910509F447C0833E910509F44BC055
:1012E000CE01805E91090897D8F541C0863E9105F0
:1012F00009F457C0873E910509F458C0811524E5CB
:10130000920708F09BC0811533E5930708F0EDC004
:10131000811541E5940708F079C0C11580E5D8072B
:1013200008F0C4C0C11590E2D90708F066C0CF3FED
:10133000D10509F008F4ACCF1AC08091A7028370E0
:10134000B1F0C0EED0E013C08091A70280FDF8C0DC
:101350009091A80290FF0BC0C3EED0E084FF07C0BD
:10136000D0E0C0E004C08091A70282FDF5CFCE019D
:10137000DF91CF9108958091A70282FDE4C0909102
:10138000A80290FDDECF84FFF2CFEACF8091A802C1
:1013900081FFEDCF8091A702C7EED0E084FDE0CFC2
:1013A000E6CF8091A70283FDF7CFE1CF8091A7021E
:1013B00083FDCCC09091A80291FFE5CFC4EED0E0B0
:1013C000D6CF8091A70285FFD2CFC9E2D0E0CFCFA0
:1013D0008091A70285FFCBCFC5E3D0E0C8CF809135
:1013E000A70286FFC4CFCAE2D0E0C1CF8091A70296
:1013F00086FFBDCFC1E3D0E0BACFCE0190548115B6
:10140000904108F0ADCFDF70D06AB1CF811532E5E1
:10141000930708F465C08370992721E030E002C08B
:10142000220F331F8A95E2F7C695C69540E2C49F06
:10143000E0011124C22BD32BDC6899CFC11589E5BB
:10144000D807E0F4C11598E5D90708F066C0C115C2
:1014500025E5D20708F45CC0CE0195558F3F910574
:1014600011F008F07DCF8C2F0E94F108C82FD0E03A
:10147000DC2FCC27CC27DF71D06279CFC1153AE5BC
:10148000D30708F44FC0CE0190568115904208F062
:1014900067CF8D2F8F710E94F10890E0982F8827D9
:1014A00088279F719C012C2BE901E6CFCE01E4E057
:1014B00096958795EA95E1F783702C2F26952695CA
:1014C000237090E2299F90011124382B8C2F837078
:1014D000C1E0D0E002C0CC0FDD1F8A95E2F7AACFB1
:1014E000D82FCC27C16FD06A42CF8370992721E0D3
:1014F00030E002C0220F331F8A95E2F7C695C695E9
:1015000040E2C49FE0011124C22BD32BDA682FCF15
:10151000DC2FCC27C46FD06A2ACFDC2FCC27C06F3A
:10152000D06A25CF8C2F8F700E94F10834E0D695B9
:10153000C7953A95E1F7CF70DC2FC82FD06917CF48
:10154000C9E3D0E014CFC2EED0E011CFC6EED0E0B8
:101550000ECF809138028111109238020895982F91
:1015600090958091F90389238093F90308958091E0
:10157000F90390913702892B90913602892B809341
:10158000BE0190913802992391F0892B8093BE017E
:1015900020E080EC91E0FC013081019631112F5F59
:1015A00031E0863C9307B9F721110E94A90AE09126
:1015B000F103F091F203309731F00280F381E02DD6
:1015C0008EEB91E00994089580913402909103028A
:1015D000981301C008958F5F8770FACFE92FEE0F3F
:1015E000EE0FEE0FE80F982F9770E695E695E695CB
:1015F00083E0E89FF0011124E152FE4F50E040E00B
:1016000080E0219130E0092E02C0369527950A949A
:10161000E2F721703327042E01C0220F0A94EAF763
:10162000822B4F5F5F4F4330510559F70895990F53
:10163000990F990FE92FE80F877041E001C0440F1F
:101640008A95EAF7E695E695E69583E0E89FF0014E
:101650001124E152FE4F30E020E070E05191DF01B3
:101660001197CB01022E02C0969587950A94E2F756
:10167000817081958527842385278C932F5F3F4F29
:101680002330310559F708958093390210923702BB
:10169000109236020C94B70A882321F00E94AF0AF8
:1016A0000C94B70A0895882339F09091F903892B97
:1016B0008093F9030C94B70A0895882309F452C063
:1016C0009CEF980F913A78F4E0ECF1E026EC31E0F1
:1016D0009191891303C0DF0111971C922E173F07C8
:1016E000B9F70C94B70A90E2980F983050F48770CD
:1016F00091E001C0990F8A95EAF7892F0E94AF0AFD
:10170000F0CF9BE5980F9330B0F48091DB0190917E
:10171000DC01892B39F11092DC011092DB01E091A0
:10172000F103F091F2033097E9F00680F781E02DA4
:1017300090E080E00994885A8731A0F48091DD011F
:101740009091DE01892B71F01092DE011092DD0183
:10175000E091F103F091F203309721F00084F185DC
:10176000E02DE6CF0895CF93C82F8823A1F18CEF09
:101770008C0F813AF8F4E0ECF1E0DF018D91C817AD
:1017800061F081E0A63CB807C9F76C2F8EEB91E0C1
:101790000E948408CF910C94B70A8191C81303C0AA
:1017A000DF0111971C9281E0E63CF807B1F70E9437
:1017B000B70AEBCF80E28C0F883068F4C77021E065
:1017C00030E001C0220FCA95EAF78091F903822B1D
:1017D0008093F903DFCFCF910895982F82958F7072
:1017E00011F0982F84E0292F2695269511F08E5F11
:1017F000922F969509F08F5F0895CF93C82F80910F
:101800001E048C1751F00E94640860931F047093AB
:1018100020048093210490932204C0931E04CF914E
:1018200008950F931F93CF93DF93FC01EB01209159
:101830002304211101C024E0608171812150CB017A
:10184000022E02C0959587950A94E2F7DC01022EDC
:1018500002C0AA0FBB1F0A94E2F76A1B7B0B7183BD
:101860006083628173818B01022E02C015950795FA
:101870000A94E2F7D80102C0AA0FBB1F2A95E2F72B
:101880006A1B7B0B7383628321E80138BFEF1B0760
:101890002CF0202F003811050CF02FE72D83813814
:1018A0003FEF930774F1803891056CF5982F91956F
:1018B0009C83442319F021952D838C830E94640816
:1018C000462F572FBC018D81811103C08C81882345
:1018D000E1F0409324045093250460932604709310
:1018E000270480912804982F97FD91959C3020F42F
:1018F000080F009328041D82DF91CF911F910F9153
:10190000089581E8D3CF8FE7D1CF809124049091BF
:101910002504A0912604B0912704481B590B6A0B9B
:101920007B0B4436510561057105D8F210922804ED
:10193000D8CFFC01DB012281338121388FEF3807BA
:1019400004F120383105FCF412962C931297808113
:10195000918181383FEF9307C4F080389105BCF442
:1019600013968C931397442339F0219512962C9358
:101970001297819513968C93118210821382128292
:10198000089521E8E1CF2FE7DFCF81E8E9CF8FE7A6
:10199000E7CF20E287FF02C081952DE23AE0632F76
:1019A0000E94D333905D9093D40181110BC020939A
:1019B000D30120E22093D20120E22093D10181EDD6
:1019C00091E00895632F0E94D333905D9093D301EB
:1019D000882381F3805D8093D201EFCFAC01860F25
:1019E000971F57FD07C077FD04C097FF02C08FEF18
:1019F0009FE7089577FFFDCF97FDFBCF80E090E84C
:101A00000895E82FE295EF70F0E031A1282F2F70B4
:101A100081E090E001C0880F2A95EAF7932F982B78
:101A200091A392A18095892382A30895E82FE2953E
:101A3000EF70F0E041A18F7021E030E0B90102C009
:101A4000660F771F8A95E2F7CB01962F9095942326
:101A500091A392A1892B82A30895CF92DF92EF9256
:101A6000FF920F931F93CF93DF93F82EE92E8B01F4
:101A700080913E06CC24C394D12C8A3018F48AE09D
:101A8000C82ED12CC1E0D0E0F89464E476E08F2D2C
:101A90009E2DF80109957894811104C02196CC16E9
:101AA000DD064CF4DF91CF911F910F91FF90EF90E5
:101AB000DF90CF900895CC9F9001CD9F300D300DD9
:101AC000112490E080E045E34A95F1F7000001968B
:101AD00082179307C1F7D8CF24E02093E9002FEFB6
:101AE0003091E800215035FD06C035ED3A95F1F70B
:101AF00000002111F5CF2091E80025FF0BC050E038
:101B000040E066E070E00E9417078091E8008E7761
:101B10008093E8000895CF93DF93D82FC92F81E0F9
:101B20008093E9008FEF9091E800815095FD06C009
:101B300095ED9A95F1F700008111F5CF8091E800BD
:101B400085FF16C050E040E068E070E08D2F9C2FCC
:101B50000E9417078091E8008E778093E80088E064
:101B6000ED2FFC2FACEFB3E001900D928A95E1F7D9
:101B7000DF91CF91089560918E018091E60380FFFF
:101B800020C080918D0143E0849FC0011124885FB3
:101B90009C4F539A2BB1277F3BB138605FB7F894C5
:101BA000FC01649FE00DF11D1124BF016817790746
:101BB000D1F45FBF8FE594E00197F1F700C000001A
:101BC000089580918F019091900123E0829FF00110
:101BD0001124E85FFC4F8917A0F61182108212824F
:101BE0008F5F3396F8CFFC014191CF01E8E03BB91C
:101BF000000000C047FF2BB9440F000000C000C028
:101C000000C02BB900C0EA9591F7D0CFE6EEF3E023
:101C100080818E7F8083E5E0F3E082818160828332
:101C20002FEF80E792E0215080409040E1F700C024
:101C300000000C94BB0D80913A02811118C082E320
:101C40009091E30097FD10C0EFE3FCE93197F1F7C5
:101C500000C000008150A1F782E080933A020E9408
:101C6000C7061092060403C081E080933A0281E027
:101C700090913A02913011F080E0089508950E9409
:101C80001B0E882351F0E091F103F091F20330979D
:101C900021F00190F081E02D099480E0089557989B
:101CA0005F9A879A8F9885E08A95F1F7000089B14D
:101CB00087988F9A90EA9A95F1F787FB882780F9A1
:101CC00091E089270895CF93DF9380911104C5E2B5
:101CD0008111C2E280911204D0E0882329F0809122
:101CE0001304D5E28111D2E20E944F0E81110FC080
:101CF0008D2F80938D01C0938E01CD0F10928F0197
:101D0000C0939001C0939101DF91CF91089580E03D
:101D1000F0CF80911104F90180830C94630E1F931E
:101D2000CF93DF93182FEB010E94B30B8FE99FE055
:101D30000197F1F700C000002197C1F7812FDF91D3
:101D4000CF911F910C945D0BE0ECF1E086E0DF0198
:101D50001D928A95E9F710923702109236020C9480
:101D6000B70A1F93CF93DF93CDB7DEB7AA970FB60D
:101D7000F894DEBF0FBECDBF88E094E0FC01019671
:101D80002091F100208324E080319207B9F78091FF
:101D90000904893009F458C0C8F4823009F4B5C088
:101DA000833009F484C0813081F18091E80083FFA1
:101DB00087C280910804909109049A3008F080C28B
:101DC000E92FF0E0E758FB4C0C9403348A3009F417
:101DD0008BC08B3051F780910804813231F78091AC
:101DE0000C0490910D04892B01F78091E800877F06
:101DF0008093E8000E94410780910A0480938C013F
:101E00001092F9030E94A40ED0CF80910804813A69
:101E100061F68091E800877F8093E80080910C0450
:101E200090910D04892B61F468E08CEF93E070E0F1
:101E30000E94F3078091E8008B778093E800B5CF8C
:101E400060E090E080E0F3CF80910804813209F0F7
:101E5000ACCF80910C0490910D048D7F892B09F0FB
:101E6000A4CF8091E800877F8093E8008091E8000C
:101E700082FF18C09091F3008091F200029731F434
:101E80008091F100813011F0863021F48091F100D1
:101E90008093FB038091E8008B778093E8000E9499
:101EA000410783CF809106048111E0CF7ECF8091DE
:101EB0000804813A09F079CF80910C0490910D04C7
:101EC000892B09F072CF8091E800877F8093E8002A
:101ED0008091E80080FFFCCF80918C018093F1001D
:101EE0008091E8008E77D9CF80910804813209F083
:101EF0005CCF8091E800877F8093E8000E944107D3
:101F000080910B048093FA0350CF80910804813AAA
:101F100009F04BCF8091E800877F8093E8008091A3
:101F2000E80080FFFCCF8091FA03D8CF803899F089
:101F3000823809F0C5C180910C048F70873008F099
:101F4000BFC18093E9008091EB0085FB882780F971
:101F50001092E90006C0809104049091050491114B
:101F600082609091E800977F9093E8008093F10061
:101F70001092F1008091E8008E779EC1882309F4C9
:101F80008CC1823009F09CC180910A0481118FC1FB
:101F900080910C048F702FEF280F263008F090C12D
:101FA0008093E9002091EB0020FF81C1933031F450
:101FB0008091EB0080628093EB0079C19091EB00FF
:101FC00090619093EB0021E030E001C0220F8A95F0
:101FD000EAF72093EA001092EA008091EB00886013
:101FE000EACF81116DC110910A041F778091E3003F
:101FF0008078812B8093E3008091E800877F809335
:10200000E8000E9441078091E80080FFFCCF8091AA
:10201000E30080688093E30082E0111183E0809305
:1020200006044EC18058823008F04AC140910A042B
:1020300050910B044C3D83E05807A1F583E08A835F
:102040008AE289834FB7F894DE01139620E03EE0E0
:1020500051E2E32FF0E050935700E49120FF03C0DA
:10206000E295EF703F5FEF708E2F90E0EA30C0F0A6
:10207000C7968D939D932F5F243159F74FBF809161
:10208000E800877F8093E8006AE270E0CE01019665
:102090000E94F3078091E8008B778093E80010C1DD
:1020A000C096E7CF80910C0490910D04252F332723
:1020B0002330310509F44AC078F52130310509F49F
:1020C00079C08BE590E0E4EFF6E02230310509F0CD
:1020D000F7C02091E800277F2093E80020910E04AC
:1020E00030910F048217930708F49C0140E02115FA
:1020F000310509F064C0411162C08091E80082FDA1
:10210000C9CF80910604882329F2853019F2809185
:10211000E80083FFF2CFBECF2132310509F43BC086
:102120002232310509F0CCC08330910508F0C8C0D7
:10213000FC01EE0FFF1FE055FE4F0190F081E02DF6
:1021400083559E4FDC018C9190E011C0CA01992704
:10215000413089F082309105B1F0892B09F0B0C08F
:10216000E9E8F7E0E4918E2F90E0E9E8F7E00097E6
:1021700009F4A6C0AECFE7E7F7E0E4918E2F90E038
:10218000E7E7F7E0F4CFE1E6F7E0E4918E2F90E0A7
:10219000E1E6F7E0ECCF8330910508F091C0880FBD
:1021A000991FFC01EA54FE4F0190F081E02D89E077
:1021B00090E08FCF82E190E0EFE4F7E08ACF80916A
:1021C0000604882309F466CF853009F463CF809133
:1021D000E80083FD5FCF8091E80082FD8ECF809183
:1021E000E80080FF84CF9091F3008091F2002115E8
:1021F000310519F08830910550F041E0089709F059
:1022000040E08091E8008E778093E80070CF4491A1
:102210004093F1003196215031090196E8CF803882
:1022200009F04EC08091E800877F8093E80080919C
:1022300007048093F1009ECE811142C010910A04E0
:102240001230F0F58091E800877F8093E8001093CA
:1022500007040E944107112311F084E005C080911A
:10226000E30087FDFACF81E08093060442E061EC51
:1022700081E00E94600742E261EC84E00E94600716
:1022800042E261EC82E00E94600742E260EC83E09F
:102290000E9460078091060413C080910A04813077
:1022A00079F481E0933009F080E080930504109286
:1022B000E9008091E800877F8093E8000E94410751
:1022C0008091E80083FF0AC08091E800877F8093B7
:1022D000E8008091EB0080628093EB00AA960FB635
:1022E000F894DEBF0FBECDBFDF91CF911F9108954F
:1022F000CF93DF93682F81E06A3019F06D3029F4B5
:1023000080E0DF91CF910C94071280913C06909170
:102310003D0626E0FC01A6E3B6E001900D922A9569
:10232000E1F7603E08F45AC026E0FC0111922A95BC
:10233000E9F7C0913C06D0913D0646E050E0BE0171
:1023400086E396E00E9419349E0126533440892B7F
:1023500041F1C90145E0969587954A95E1F741E03D
:1023600050E0BA0102C0660F771F8A95E2F7CB01F1
:102370006091340470913504862B972BB9016B5F03
:102380007F4FE5E076956795EA95E1F702C0440F47
:10239000551F6A95E2F7842B952B90933504809313
:1023A00034042A5F3F4F40913304642F70E0C90129
:1023B0000E94B333481B463010F4240F311D211501
:1023C00072E0370710F030E020E02A5C3B4F30939A
:1023D0003D0620933C06DF91CF910895F6E06F9F74
:1023E000B00111246357784F46E050E00E9410344A
:1023F000A0CFCF93DF93EC01FE018491811103C044
:10240000DF91CF9108950E9478112196F5CFCF9357
:10241000382FE0913C06F0913D06E653F4402091C0
:102420003304622F70E0CF010E94B333281B822F48
:10243000332361F066E00E94C733C82FC15010F407
:10244000CF91089580E20E947811F8CF9F01280F64
:10245000311D2115324018F080E0F0E0E0E08E0FF1
:102460009F2F911D8A5C9B4F90933D0680933C0665
:10247000E7CFCF93DF93CDB7DEB72C970FB6F894A5
:10248000DEBF0FBECDBF86E0EFEFF2E0DE011796B4
:1024900001900D928A95E1F786E0E4EFF2E0DE012B
:1024A000119601900D928A95E1F746E050E0BE0149
:1024B0006F5F7F4FCE0107960E941934892B79F008
:1024C000E091F103F091F203309749F082E08093BC
:1024D000FF020480F581E02D8FEF92E009951092C4
:1024E000010310920203109203031092040386E08A
:1024F000EFEFF2E0A4EFB2E001900D928A95E1F7E0
:102500002C960FB6F894DEBF0FBECDBFDF91CF91F2
:1025100008950F931F93CF93DF93EC01FC0101907B
:102520000020E9F78F0101501109C017D10728F0E9
:10253000DF91CF911F910F91089589910E94781199
:10254000F4CFCF92DF92EF92FF920F931F93CF932E
:10255000DF936C017B0164E670E088E70E948530C0
:10256000EC0197FD12C010E000E0F601E00FF11F52
:10257000849164E670E00E94FF30EC01892B29F41D
:102580000F5F1F4F0E151F0581F70E948C31CE0182
:10259000DF91CF911F910F91FF90EF90DF90CF903F
:1025A00008958091EF039091F003911103C091E0A1
:1025B00089270895882369F062E070E082ED93E056
:1025C0000E94A112892B19F08091EF0308951092B7
:1025D000EF038091EF03EBCFCF93DF9300D000D0D8
:1025E0000F92CDB7DEB78091EF038D838091F0031A
:1025F0008823F1F00E946408DC01CB01805A9541E8
:10260000AF4FBF4F8093EB039093EC03A093ED0388
:10261000B093EE038D81811108C062E070E080ED1F
:1026200093E00E94A112892B61F08091EF038D83CA
:102630008D810F900F900F900F900F90DF91CF91A1
:10264000089581E08093EF03F0CFCF93DF93C7E449
:10265000D3E060E0CE010E9443342196C11584E0AE
:10266000D807B9F7DF91CF9108956F927F928F923B
:102670009F92AF92BF92CF92DF92EF92FF920F9311
:102680001F93CF93DF93D12CC12C37EDA32EB12C08
:10269000E501C05AD10936011BC0F701859094901D
:1026A000692DC8010E944334682DC80101960E941B
:1026B000433422E0E20EF11C0E5F1F4FC017D1071A
:1026C00061F738E0630E711C6096CA15DB0559F09E
:1026D000C301880F991F9C012C523C4F79018E0138
:1026E00000511109DACFCE0180569F4F5C0190E571
:1026F000C90ED11CC735D34059F6DF91CF911F9138
:102700000F91FF90EF90DF90CF90BF90AF909F9090
:102710008F907F906F90089586E290E00C94433400
:10272000CF93C82F6FEF811163E283E290E00E94A4
:1027300043346FEFC11162E084E290E00E944334C1
:102740006FEFC11167E185E290E0CF910C944334C3
:1027500080E00E94901360E070E0CB010E948C1337
:102760000E9435130E94251381E00C9490130F935F
:102770001F93CF93DF9320E1629FE001112450E08B
:10278000440F551FC40FD51F30EA839FC00DD11DC4
:102790001124CE0187960E942F34082F10E0102FAD
:1027A0000027CE0188960E942F349801282BC9015A
:1027B000DF91CF911F910F910895462F672F85309C
:1027C00030F47A3020F4483010F40C94B71390E0D1
:1027D00080E00895DF92EF92FF920F931F93CF93C3
:1027E000DF937C010091100480913902082BC7E02F
:1027F000D0E010E0DC2EC8010C2E02C09595879524
:102800000A94E2F780FD0CC02197A0F7D12C8D2D02
:10281000DF91CF911F910F91FF90EF90DF9008957E
:10282000B7018C2F0E94DD130E943409019761F3D8
:10283000EECFCF93DF93D82FC92F0E94EA136D2FCD
:102840007C2F0E94DD13DF91CF910C943409FC01A1
:10285000808191810E941914282F892F8F70392F20
:1028600032953F70903C80F43A30B0F4343020F42C
:10287000323090F480E008953630E1F781E0283E70
:1028800088F0213FB9F70EC03C3011F03F3091F78E
:10289000869586958695089581E0203F39F018F455
:1028A000283E40F70895243F29F7FCCF089583E29E
:1028B00090E00E942F34833289F484E290E00E94F9
:1028C0002F34823059F485E290E00E942F3491E059
:1028D000873109F090E0892F8170089580E0FCCF66
:1028E0000F931F93CF93DF938B01D82FC92F0E9493
:1028F000A308A8016D2F7C2F88E090E0DF91CF9195
:102900001F910F910C9455348F929F92AF92BF926A
:10291000CF92DF92EF92FF920F931F93CF93DF93AB
:1029200000D000D00F92CDB7DEB7182F69834D834A
:10293000922E0091E60300FFE7C0E02FE695F0E05D
:10294000E555FE4F808180930503802F8E7F823076
:10295000F1F4E42F493708F0E8E7F0E0E053FD4FE9
:102960002981211153C0F4918F2EEF2F00FF0FC04A
:1029700080918F019091900123E0829FD0011124DA
:10298000A85FBC4F891708F4B5C00E94BB0D8091A9
:10299000E70381130AC08091E8039981891305C078
:1029A0008091E903AD818A1729F080910703826045
:1029B000809307031093E703B981B093E8032D8157
:1029C0002093E903992009F49FC08091E603909138
:1029D000E703A091E803B091E90389839A83AB836D
:1029E000BC83BC01CD010F900F900F900F900F9002
:1029F000DF91CF911F910F91FF90EF90DF90CF90DB
:102A0000BF90AF909F908F900C9470148981E82EA6
:102A1000F12CE49196E0199F600111242FEF30E032
:102A2000C601B9010E94B333812F90E0880F991F2E
:102A3000F5E5F69FA001F79F500D1124841B950B1F
:102A4000B82EBB0CB80EA9014E195F09E49FC00156
:102A5000E59F900D1124F92FA981AB9DA0011124B0
:102A6000452F5527D901A41BB50BEA9FA001EB9F69
:102A7000500D1124852ED901AB19B1095D01AE9C11
:102A8000D001AF9CB00DBE9CB00D1124AB2FBB2765
:102A90002A1B3B0BE29FD001E39FB00D1124633052
:102AA0007105D1F02CEFC21623E0D20670F461302C
:102AB0007105B1F062307105B9F02FEFC216D10483
:102AC00008F054CF892EFB2F51CF6430710579F077
:102AD00066307105B9F34ACFF52F8E2EE92F46CF18
:102AE000FE2FE52F892E42CF8B2EFE2FF7CF8E2E75
:102AF000EB2F3CCF1196EC931197FC9312968C928E
:102B000012978F5F13963ECF0F900F900F900F90FC
:102B10000F90DF91CF911F910F91FF90EF90DF9079
:102B2000CF90BF90AF909F908F900895E6EEF3E026
:102B300043812CE0421B08F440E021E06281818166
:102B40000C948414E6EEF3E043812CE0420F08F489
:102B50004FEF21E0628181810C948414E6EEF3E072
:102B6000628121E1621B08F460E021E04381818100
:102B70000C948414E6EEF3E0628121E1620F08F424
:102B80006FEF21E0438181810C948414E6EEF3E041
:102B9000818121E04381628181510C948414E6EEAD
:102BA000F3E0818121E0438162818F5E0C94841483
:102BB0000F931F93CF93C82F0E94ED0B982F81E0A6
:102BC000933009F080E00E94FD0B4C2F50E070E044
:102BD00060E0DB01CA01F4E0B695A795979587956B
:102BE000FA95D1F70097A105B10559F1AC01BD01E6
:102BF00094E08A019B01E2E03695279517950795A9
:102C0000EA95D1F7011511052105310519F09E5FEF
:102C1000B901A8017695679557954795452B462BA1
:102C2000472B09F09F5F21E04FEF943009F040E01F
:102C300060E080E00E9484148C2FCF911F910F914F
:102C4000089590E0D6CF0E94D8158093100410927A
:102C50003702109236020C94B70A80911004982F14
:102C60009670963019F488600C942316877FFCCFF9
:102C700021E030E001C0220F8A95EAF7209580918B
:102C8000100482230C942316909135028095892399
:102C900080933502282F277091F4282F082E000CDE
:102CA000330B9217130659F09091A80292FD07C0BA
:102CB0008595859585950E94381610923502089560
:102CC000CF93C091A802C2FB992790F9981799F069
:102CD00080FBC2F9C093A8026091A70284E090E053
:102CE0000E9443346C2F82E290E00E94433482E0E1
:102CF000CF910C944416CF91089521E030E001C0AB
:102D0000220F8A95EAF780911004822B0C942316E7
:102D1000CF93DF9300D000D0CDB7DEB78091EA0328
:102D2000882319F081508093EA038091E603909103
:102D3000E703A091E803B091E90389839A83AB8309
:102D4000BC83BC01CD010F900F900F900F90DF91CD
:102D5000CF910C947014CF93DF9300D000D0CDB7F7
:102D6000DEB78091EA03833018F48F5F8093EA0323
:102D70008091E6039091E703A091E803B091E90305
:102D800089839A83AB83BC83BC01CD010F900F90E4
:102D90000F900F90DF91CF910C947014CF93DF932D
:102DA00000D000D0CDB7DEB78091E60380FF2AC007
:102DB000817082608093E603809107038160809335
:102DC0000703662381F08091E6039091E703A091C9
:102DD000E803B091E90389839A83AB83BC83BC0188
:102DE000CD010E94701420E04091E9036091E80356
:102DF0008091E7030F900F900F900F90DF91CF918C
:102E00000C9484140F900F900F900F90DF91CF913E
:102E100008959091E60396958FEF890F913009F40C
:102E200081E061E00C94CE1661E081E00C94CE1656
:102E3000CF93DF9300D000D0CDB7DEB7E6EEF3E05E
:102E400083E0808311828FEF828388E783831482FB
:102E5000A5E0B3E012968C911297836012968C9342
:102E600080819181A281B38189839A83AB83BC8362
:102E7000BC01CD010F900F900F900F90DF91CF917B
:102E80000C94701469EE7EEF90E080E00E94613453
:102E900060E082E090E00E94433460E083E090E0F4
:102EA0000E9443341092390260E084E090E00E9476
:102EB000433460E082E290E00E94433460E085E0C9
:102EC00090E00E94433460E086E090E00E9443344A
:102ED0006FEF87E090E00E94433440E050E0BA0199
:102EE00088E090E00E94553460E08DE090E00E9420
:102EF000433440E050E0BA0188E190E00E9455344C
:102F000060E087E190E00E94433440E050E0BA0185
:102F10008CE190E00E94553470E060E080E290E047
:102F20000E94613440E050E0BA0188E190E00E94E4
:102F3000553480E00E9490130E94A81340E050E0B6
:102F4000BA018FE090E00E94553440E050E0BA01B1
:102F500083E190E00C945534CF92DF92EF92FF9290
:102F60000F931F93CF93DF93FA0169017801C82F64
:102F7000880FDD0B3097B9F08AE08C9FD0018D9FD0
:102F8000B00D1124A65FBE4F13968D919C9114979E
:102F9000855C9D4F12964C9150E0E417F50708F4BC
:102FA000AF010E942634CE010E94FF32892B11F519
:102FB000E114F104E9F08AE08C9FF0018D9FF00D9F
:102FC0001124E65FFE4F458150E0E416F50608F453
:102FD000A7018AE08C9FF0018D9FF00D1124E65F20
:102FE000FE4F66817781655C7D4FC6010E94263465
:102FF00081E001C080E0DF91CF911F910F91FF90A0
:10300000EF90DF90CF900895AF92BF92CF92DF9272
:10301000EF92FF920F931F93CF93DF9300D000D0D6
:10302000CDB7DEB78C83F62E5A01E22E680180916F
:103030003E068A3080F080E00F900F900F900F9046
:10304000DF91CF911F910F91FF90EF90DF90CF9084
:10305000BF90AF9008958C8188306CF389836A8328
:103060002B8360933E012093550110E000E030E097
:1030700020E043E050E0BE016F5F7F4F84E00E949C
:10308000AC178823C1F24F2D50E030E020E0B501AD
:1030900085E00E94AC17882371F230E020E041E027
:1030A00050E0BE016C5F7F4F86E00E94AC17882322
:1030B00011F20E2D10E0960150E040E070E060E06B
:1030C00087E00E94AC17B8CF0F931F93CF93DF9385
:1030D000CDB7DEB728970FB6F894DEBF0FBECDBFD1
:1030E00085E0E6EEF3E0DE01119601900D928A95FF
:1030F000E1F78091050390910603A09107038E8369
:103100009F83A887288540919D0250919E026091DF
:103110009F027091A0023FB7F8948091F4039091C0
:10312000F503A091F603B091F7033FBF841B950B05
:10313000A60BB70B84369105A105B10510F4222327
:10314000C1F010E000E030E020E048E050E0BE01D7
:103150006F5F7F4F83E00E94AC17882369F00E9465
:10316000640860939D0270939E0280939F029093E7
:10317000A0021092070381E028960FB6F894DEBFF4
:103180000FBECDBFDF91CF911F910F9108950F9387
:103190001F93CF93DF93CDB7DEB728970FB6F89480
:1031A000DEBF0FBECDBF4091990250919A0260914F
:1031B0009B0270919C022FB7F8948091F403909138
:1031C000F503A091F603B091F7032FBF841B950B75
:1031D000A60BB70B11E084369105A105B10550F19E
:1031E0000E941B0E882391F10E946408462F572FDE
:1031F000BC014E5F5F4F6F4F7F4F49835A836B8394
:103200007C8310E000E030E020E044E050E0BE01CC
:103210006F5F7F4F82E00E94AC17182F882351F018
:103220000E9464086093990270939A0280939B02B3
:1032300090939C02812F28960FB6F894DEBF0FBEA4
:10324000CDBFDF91CF911F910F9108950E94640827
:103250006D837E838F8398874091A1025091A20253
:103260006091A3027091A4028D819E81AF81B88587
:10327000480F591F6A1F7B1FBCCFEF92FF920F931D
:103280001F93CF93DF9300D000D000D0CDB7DEB72F
:103290007B0101E010E09E012A5F3F4F50E040E0DB
:1032A00070E060E080E00E94AC17182F882309F4DA
:1032B0004FC0409195025091960260919702709193
:1032C00098022FB7F8948091F4039091F503A091A0
:1032D000F603B091F7032FBF841B950BA60BB70B1A
:1032E00084369105A105B10538F48CE392E00E9483
:1032F000B0069E81891761F105E010E09E012F5F05
:103300003F4F50E040E070E060E081E00E94AC1789
:10331000182F8CE392E00E94B00691E02E812813D2
:1033200090E0192301F10E94640860939502709364
:103330009602809397029093980285E0FE01319661
:10334000A0E9B2E001900D928A95E1F711E00BC07F
:1033500085E0ECE3F2E0DE01119601900D928A9592
:10336000E1F71111EACF85E0E0E9F2E0D701019041
:103370000D928A95E1F7812F26960FB6F894DEBF5D
:103380000FBECDBFDF91CF911F910F91FF90EF90B6
:10339000089590E080E00E943D34893E9E4F11F4F4
:1033A0000C94571480E0089528E030E043E060E09A
:1033B00086E30C94A92FEF92FF920F931F93CF9364
:1033C000DF93CDB7DEB72C970FB6F894DEBF0FBEF4
:1033D000CDBF4F83588769877A878B879C87809179
:1033E0001104882399F00E94D41980E50E942530A9
:1033F0000AEB0A95F1F700C00E943D3088789927C2
:103400008038910509F492C00E9455300E941B0E2D
:10341000882309F46DC00E946408462F572FBC0111
:103420008091D6019091D701A091D801B091D90196
:103430008A019B01081B190B2A0B3B0BD901C80100
:103440000897A105B10508F453C04093D6015093E5
:10345000D7016093D8017093D90180911F04909196
:103460002004A0912104B0912204481B590B6A0B3F
:103470007B0B423351056105710580F410921504F0
:10348000109214041092170410921604109219044A
:103490001092180410921B0410921A0410911E042A
:1034A0000E944F0E482FBE01695F7F4F84E194E078
:1034B000112309F468C00E94110C00911E041091A0
:1034C00011040E944F0E41E04827BE01695F7F4F03
:1034D00088E194E0011709F459C00E94110C86E0BC
:1034E000FE013796ADE2B4E001900D928A95E1F7C6
:1034F00086E0FE013796DE01119601900D928A95C5
:10350000E1F729813A814B815C816D817E8180E088
:1035100090E02C960FB6F894DEBF0FBECDBFDF91C2
:10352000CF911F910F91FF90EF9008950E943D3031
:103530000E943D307C010E943D3060E0E62AF82A7E
:103540000E943D308C010E943D3020E0022B182B60
:103550000E945530F894B70180911404909115049D
:103560000E94EE0C9093150480931404B80180918E
:103570001604909117040E94EE0C90931704809308
:103580001604789443CF0E94990C97CF0E94990C0F
:10359000A6CFCF93DF93D82FC62F0E94D4198D2F9B
:1035A00080680E9425308C2F0E9425300E94553063
:1035B0008FEC92E00197F1F700C00000DF91CF910E
:1035C0000895682F893708F068E760931C0491E03C
:1035D00090931D0490911104992371F06150811111
:1035E00001C066E0683708F067E78FE00E94C91AFB
:1035F00060E080E50C94C91A0895FB0180810C9469
:10360000E11A282F80911C04811101C087E0022E4D
:10361000000C330B820F932F911D1816190614F00E
:1036200081E090E00C94E11ACF93C82F0E94D41946
:103630008C2F0E9425308FE792E00197F1F700C0B0
:1036400000000E943D30C82F0E9455309AE69A959E
:10365000F1F700C08C2FCF910895CF93DF930E9494
:10366000A12F269A0E94D4196AE58AE30E94C91AFA
:103670002FEF80E792E0215080409040E1F700C0BA
:10368000000082E00E94141B83E00E94141B84E06F
:103690000E94141B85E00E94141B86E00E94141BEC
:1036A00060E080E10E94C91A80E00E94141BD82FBC
:1036B00081E00E94141BC82F0E945530D23419F4A7
:1036C00081E0C13009F080E081708093110488238B
:1036D00051F066E08FE00E94C91A60E080E5DF915A
:1036E000CF910C94C91ADF91CF9108951F920F9238
:1036F0000FB60F9211242F933F934F935F936F93C5
:103700007F938F939F93AF93BF93CF93DF93EF9369
:10371000FF93D091E900DF708091EC00C82FC17059
:1037200080FDC0E81092E9008091F000877F8093CF
:10373000F00078940E94B10E1092E9008091F000A0
:1037400088608093F000CD2BCF70C093E900FF918B
:10375000EF91DF91CF91BF91AF919F918F917F9129
:103760006F915F914F913F912F910F900FBE0F90EE
:103770001F9018951F920F920FB60F9211242F933E
:103780003F934F935F936F937F938F939F93AF93E9
:10379000BF93EF93FF938091E10082FF09C0809176
:1037A000E20082FF05C08091E1008B7F8093E10001
:1037B0008091DA0080FF24C08091D80080FF20C073
:1037C0008091DA008E7F8093DA008091D90080FFAB
:1037D0009BC080E189BD82E189BD09B400FEFDCFB7
:1037E00081E0809306048091F803811109C00E9452
:1037F000C7060E9492078091E20084608093E200F5
:103800008091E10080FF17C08091E20080FF13C02B
:103810008091E2008E7F8093E2008091E2008061DF
:103820008093E2008091D80080628093D80019BC18
:1038300085E0809306048091E10084FF29C0809197
:10384000E20084FF25C080E189BD82E189BD09B421
:1038500000FEFDCF8091D8008F7D8093D8008091AD
:10386000E1008F7E8093E1008091E2008F7E809363
:10387000E2008091E20081608093E2008091070481
:10388000882309F447C084E08093060480910604ED
:103890008091E10083FF27C08091E20083FF23C075
:1038A0008091E100877F8093E10082E080930604AD
:1038B000109207048091E1008E7F8093E100809157
:1038C000E2008E7F8093E2008091E200806180932D
:1038D000E20042E060E080E00E9460078091F0003A
:1038E00088608093F000FF91EF91BF91AF919F911D
:1038F0008F917F916F915F914F913F912F910F9099
:103900000FBE0F901F90189519BC109206041092CC
:10391000F80376CF8091E30087FD02C081E0B4CF49
:1039200083E0B2CF78941F921FB61F9211248F9319
:103930009F93AF93BF938091F4039091F503A0916F
:10394000F603B091F7030196A11DB11D8093F40316
:103950009093F503A093F603B093F703BF91AF9153
:103960009F918F911F901FBE1F9018959C014FB77C
:10397000F8948091F4039091F503A091F603B0912F
:10398000F7034FBF821B930B08952FB7F8948091D4
:10399000F4039091F503A091F603B091F7032FBFC4
:1039A000089584E00E947D160E94C51C9093FD023C
:1039B0008093FC0282E08093FE0208950F931F9390
:1039C000CF93DF93CDB7DEB768970FB6F894DEBF1D
:1039D0000FBECDBF4091FF025091000360910103E3
:1039E0007091020380910303909104030E94DB19FC
:1039F0002093FF023093000340930103509302038E
:103A0000609303037093040386E0EFEFF2E0DE01BE
:103A1000539601900D928A95E1F786E0FE01739628
:103A2000DE01179601900D928A95E1F70D891E89A6
:103A3000912F902B8091FE02992309F470C082305F
:103A4000D9F08330F9F0813009F05BC0902F97FDF9
:103A50009195812F87FD8195890F9927991F209135
:103A6000FA023091FB02820F931F97FF43C090939D
:103A7000FB028093FA0206C00E94C51C9093FD02CF
:103A80008093FC0209871A8786E0FE013796DE01E3
:103A9000119601900D928A95E1F70B831C8386E0C5
:103AA000FE013196DE011D9601900D928A95E1F797
:103AB0000F87188B86E0FE013D96DE011796019078
:103AC0000D928A95E1F709871A8786E0FE013796FD
:103AD000AFEFB2E001900D928A95E1F768960FB6CC
:103AE000F894DEBF0FBECDBFDF91CF911F910F9134
:103AF0000C9439121092FB021092FA020E94D11C0F
:103B0000C1CF0E94C51C9093FD028093FC0281E00E
:103B10008093FE021092FB021092FA02B3CF823021
:103B2000A9F0833009F4AECF813049F48091FC02D2
:103B30009091FD020E94B61CC39708F4A3CF109287
:103B4000FB021092FA021092FE029CCF8091FC02BE
:103B50009091FD020E94B61C8132934008F492CFEE
:103B60001092FE0284E00E9438168CCF3F924F9252
:103B70005F926F927F928F929F92AF92BF92CF92FD
:103B8000DF92EF92FF920F931F93CF93DF93CDB706
:103B9000DEB766970FB6F894DEBF0FBECDBF8C01BF
:103BA000DC0113968D919C911497892B39F08C919F
:103BB00011969C9189238F3F09F0AFC566960FB689
:103BC000F894DEBF0FBECDBFDF91CF911F910F9153
:103BD000FF90EF90DF90CF90BF90AF909F908F902D
:103BE0007F906F905F904F903F9008950E94EA13EE
:103BF000F82E682F89819A810E94170B69817A813A
:103C00008F2D0E94DD137C01F8018281882309F445
:103C100076C5C70182519F45409708F018C58FEFC0
:103C200093E00E942F34FEEEEF0E57E4852E53E012
:103C3000952E8823B1F180913502877009F4BECFAB
:103C4000D80112968C91882309F4B8CF8091A802EC
:103C500082FDB4CF82E066960FB6F894DEBF0FBE49
:103C6000CDBFDF91CF911F910F91FF90EF90DF902B
:103C7000CF90BF90AF909F908F907F906F905F900C
:103C80004F903F900C944416811424E0920699F2D0
:103C9000C4010E942F34811101C0EA943FEF831ABE
:103CA000930AE110F1CF8091930190919401A0913A
:103CB0009501B091960189839A83AB83BC83442498
:103CC00043944AE0342E74018FEFE81AF80AC401D5
:103CD0000E942F3489831A82882309F4ACCF9FEF86
:103CE000980F933030F58A83498292E0890E911CB7
:103CF000C7010E942F348B83882309F49CCFDE01F7
:103D000011967D01F70120812223E9F2213009F08B
:103D100050C091818281913071F4F2E0EF0EF11C7C
:103D200065E070E0893311F460E570E00E948F0E69
:103D300009C04701E4CF923049F422E0E20EF11CC1
:103D40000E94B30BFFEFEF1AFF0ADCCF933031F480
:103D500032E0E30EF11C0E945D0BF4CF943021F0B1
:103D60008FEFE81AF80AEECF92E0E90EF11C30E08E
:103D700020E0B7016F5F7F4FD70111964C918053C0
:103D8000990B8A30910550F021503109D8F2EFE9B2
:103D9000FFE03197F1F700C00000F6CF329EF0014E
:103DA000339EF00D11249C012E0F3F1F842F7B01A9
:103DB000E0CFE22FF0E0E957FE4F5490822F869536
:103DC0008695869590E0FC01E958FE4F6490277037
:103DD000712C022E02C0759467940A94E2F731E0C8
:103DE00063227724FC01E959FE4FA490B12C022EE6
:103DF00002C0B594A7940A94E2F7A1E0AA22BB24DA
:103E0000FC01E95AFE4FC490D12C02C0D594C7944E
:103E10002A95E2F7B1E0CB22DD246114710419F098
:103E200081EE0E94B30BA114B10419F086EE0E943A
:103E3000B30BE9E365E070E05E1202C060E570E09C
:103E4000852D0E948F0EAB2819F086EE0E945D0B27
:103E5000672819F081EE0E945D0BCD2809F472CF1E
:103E600065E070E08CE262CF81E00E947D160E94E6
:103E70002D16E1CE81E00E943816F9CF82E0F5CF11
:103E80008095F8220E94D11C23C412968C9188231D
:103E900029F01092FE0284E00E943816C7019A951C
:103EA000F70181159F4108F4FF27D80112968C91E4
:103EB000E93FF10508F055C0E43FF10508F455C0AD
:103EC000E45FF10921E030E001C0220FEA95EAF752
:103ED00096E0EFEFF2E0DE01179601900D929A95D1
:103EE000E1F796E0FE013796DE011D9601900D92F6
:103EF0009A95E1F79885882309F442C0892F822B8F
:103F00008E8796E0FE013D96DE01119601900D929E
:103F10009A95E1F78A8386E0FE013196AFEFB2E031
:103F200001900D928A95E1F7F8018281F6E1EF1692
:103F3000FCE5FF0609F079C0882309F461C080918F
:103F4000F9038A7A91E009F490E09093DA0169E24A
:103F5000811165E38EEB91E00E9484080E94B70A0C
:103F60006ACEEC3ABDE5FB0791F18823E9F2E55A08
:103F7000FD45EA30F105C0F6ED57FB4C0C940334D7
:103F8000822F80958923BCCF80E00E94E11A109295
:103F9000230451CE40911C045091230450FB47F957
:103FA0005695537060E070E08FE090E00E945534C9
:103FB00042CE81E00E94011B3ECE8FEFFBCF8AE014
:103FC000F9CF86EFF7CF90911E0481E089270E94F8
:103FD000FD0B31CE80912304811101C084E08F5FFD
:103FE00018160CF081E0883008F087E080932304F5
:103FF00022CE80912304811101C084E08150F0CF52
:104000008091DA0181110FC089E2E0ECF1E026EC49
:1040100031E09191891303C0DF0111971C922E1793
:104020003F07B9F79BCF85E3F0CF81110CC1809199
:10403000F903827226EDE2162CE5F20680F432ECEA
:10404000E3163CE5F30680F0F701E35CFC45E33161
:10405000F10508F091C0E357FB4C0C9403348DE557
:10406000E816F80609F4E7CDF8018281C080D18016
:10407000882309F423C1C6010E94EA13F82E682F91
:10408000C6010E94170BB6018F2D0E94DD130E94FE
:1040900034097C01882ED8011296AC90129715969F
:1040A0009C9092943FE09322809135028770C1F0FA
:1040B000BA2CAA20B1F08F2D807F803421F080E2CD
:1040C0008E0D883068F08091A80282FD09C082E0E0
:1040D0000E944416809135028770BB24B3948111ED
:1040E000B12CCF2CC2942FE0C222B8E0CB1609F439
:1040F000B7C1BC1508F4E7C0E1E0EC1508F0F8C062
:104100008EE08C0D8F70823008F42DC1AC2DA8503C
:10411000BB0B149710F40E943F0EBB2009F44ECD48
:104120008091350280FD4ACDF801128285958595F2
:1041300085950E947D16C8010E94B61D80913502AA
:1041400085958595859566960FB6F894DEBF0FBE6A
:10415000CDBFDF91CF911F910F91FF90EF90DF9036
:10416000CF90BF90AF909F908F907F906F905F9017
:104170004F903F900C9438168091E60380FF24C046
:104180008E7F8093E6038091E6039091E703A091F0
:10419000E803B091E9038B8B9C8BAD8BBE8BBC018C
:1041A000CD010E9470148091070381608093070302
:1041B0009FEFA0E7B2E09150A040B040E1F700C00F
:1041C00000000E94BB0D37CD81608093E60361E063
:1041D00086950E94CE162FCD49E057E164E177E144
:1041E0000E949E0828CD44E157E169E077E1F8CFCD
:1041F00046EC55E16FEC75E1F3CF4FEC55E166EC21
:1042000075E1EECF4EEA55E16AEB75E1E9CF4AEB95
:1042100055E16EEA75E1E4CF46E955E162EA75E100
:10422000DFCF42EA55E166E975E1DACF48E856E1C9
:104230006BEA76E1D5CF4BEA56E168E876E1D0CF7C
:1042400061E081E0C6CFEAE5EE16EDE5FE0691F10C
:1042500068F4E1142CE5F206F1F03EEDE3163CE5DE
:10426000F30609F001CF0E944217E5CC8BE5E81672
:104270008DE5F80609F19CE5E9169DE5F90609F0DA
:10428000F3CE8091A80282FB882780F991E08927EC
:104290000E946016E9CE1092F9030E94A40EAFEFBF
:1042A000B4E3ECE0A150B040E040E1F700C0000012
:1042B0000E94530881E0ECCF80E0EACFC6010E9463
:1042C000EE0AF82EE0CEF9E0CF1609F438C186E008
:1042D0008C0D8F70823008F019CF8E2D22EF821254
:1042E0003FC18F2D8F71A11038C10E947D160ECF56
:1042F0003F2D3F70D32E8F2D807F19F0D29490EFF9
:10430000D9228E2DAA20B9F0DD2069F090E29E0D11
:10431000983010F0E11009C08091F903D82AD092AA
:10432000F9030E94B70A8E2D4FC080913702D82A18
:10433000D0923702F6CF0E945D0BDD2009F4E6CE65
:1043400080E28E0D883010F0811004C08D2D0E9407
:10435000AF0A06C0D09480913702D822D09237029B
:104360000E94B70AD3CE8F2D8F70D82E8F2D807FCD
:10437000803219F0D29480EFD8228E2D8820A1F0BF
:1043800091E0891609F44DC0AA2009F457C099207C
:1043900009F44DC0D80115968C91159780FFC3CFB5
:1043A0008F7015968C9343C02091A80222FF16C0EF
:1043B000AA2069F0DD2039F08091F903D82AD09243
:1043C000F9030E94B70A80E00E94B30B9FCE80E001
:1043D0000E945D0BDD2009F499CEB8CFAA20A1F090
:1043E00090913802892F8D29911003C00E94530BA0
:1043F0008DCEA1E09A12FACF22FD88CE981709F44B
:1044000085CE8093380282CE911006C00E94A90A00
:104410008D2D0E944C0B7ACEB1E09B1609F476CE1E
:10442000F5CFAA2031F0E5E0E91508F46FCE8D2D27
:10443000DDCFF4E0F91508F469CEEACF992041F315
:10444000893309F0FCC0BFEFE7EEF3E0B150E04084
:10445000F040E1F700C000008E2D0E945D0B56CEAB
:104460008F2D837099F5A11051CE4E2D4295469512
:104470004770440F440F8E2D8F70042E01C0880F9B
:104480000A94EAF72E2D2071E4FE07C02FE030E0F9
:1044900001C0220F4A95EAF720953F2D36953695B3
:1044A0003370323071F0333051F040913902313095
:1044B00029F0822B84230E94440B28CE842B822B4C
:1044C000FACF282B809139028227F5CF8695AA2032
:1044D00011F08F2D8170882309F418CE4E2D42954E
:1044E00046954770440F440F8E2D8F70042E01C0E7
:1044F000880F0A94EAF72E2D2071E4FE07C02FE002
:1045000030E001C0220F4A95EAF720953F2D3695FD
:1045100036953370323071F0333051F040911004E1
:10452000313029F0822B84230E942316EFCD842B77
:10453000822BFACF282B809110048227F5CF9F2D54
:104540009F70F92EAA2029F0892F0E947D168E2DAA
:104550004DCF8E2D0E944C0B8F2D0E943816D6CD3C
:10456000A2EFA81570F0B0EF8B16D1F0E1EF8E1628
:1045700091F0AA2009F457C09110D5CE8F2D8F71DC
:10458000B4CEF3EF8F1619F124EF8212F2CF80919F
:10459000A80282FF28C08F2D8F71AA20F1F2A5CE2C
:1045A000AA2081F034E0391508F4B0CD2F2D2F71F9
:1045B00081E090E001C0880F2A95EAF790911004FD
:1045C0008927B2CF85E0891508F4A0CDEFCF80E030
:1045D000AA2009F4A9CF9F2D9F7181E001C0880F07
:1045E0009A95EAF7A1CFAA2099F09F2D9F71F92EF5
:1045F000892F0E947D168091A80282FD07C0A8E045
:10460000FA9EC00111248360809335028F2D6DCEF8
:1046100081E00E944416B1E0B91508F077CD82E040
:104620000E94441673CD992079F0893341F4EFEF5D
:10463000F7EE23E0E150F0402040E1F70BCF8FE1AF
:104640009EE40197F1F706CF8F2D8F7186CFF0E1B1
:10465000EF16FFE5FF0609F407CC21E1E2162FE58E
:10466000F20609F40BCCF0922A04E0922904D80156
:104670008D919C91119790932C0480932B0497011A
:104680002F5A3D452330310508F0FFCB86E0EFEF90
:10469000F2E0DE011D9601900D928A95E1F786E029
:1046A000FE013D96DE01179601900D928A95E1F785
:1046B000FE8481E090E001C0880F2A95EAF7F801B6
:1046C0002281222309F4DCCBF82A83E08093FE02C6
:1046D000F88686E0FE013796DE01119601900D9274
:1046E0008A95E1F7FA8286E0FE013196AFEFB2E0FB
:1046F00001900D928A95E1F70E9439129CCA30E12F
:10470000E3163FE5F30609F4B5CB81E1E8168FE542
:10471000F80609F0A8CF82E0AECB85E0F801DE0113
:10472000119601900D928A95E1F7D80112962C917D
:1047300089819A8121115ACA0E94EE0AF82E5ECA16
:104740001F93CF93DF9380910202807FA9F4809121
:10475000FF01882389F080913402D0910302609197
:10476000FD017091FE01A0910002B0910102C62FDF
:10477000C72316E0D81304C0DF91CF911F9108958D
:1047800090E0109711F0CF3F19F401968770F2CFA7
:10479000189F9001199F300D1124F901EC5FFD4F16
:1047A00041814713F2CF40814613EFCF428141113F
:1047B000ECCF438154814A1B5B0B483C510528F7E1
:1047C000809102028F70806180930202F901E75F9D
:1047D000FD4F80818F70806180838DEF91E00E941A
:1047E000B61DDF91CF911F910C94E40AAF92BF9256
:1047F000CF92DF92EF92FF920F931F93CF93DF93AD
:10480000CDB7DEB72B970FB6F894DEBF0FBECDBF86
:104810008C0185E0F801DE01179601900D928A95D2
:10482000E1F7F801E2808DEFA82E81E0B82E6091CB
:104830000002709101026115710509F41AC190918D
:10484000FD014091FE01842F89238F3F09F411C19E
:1048500020813181C380D480F090FF01F601E61BF6
:10486000F70BFF2009F4D0C080910202582F507F2F
:10487000E83CF10508F0ABC0511177C0FE2C4313A2
:1048800021C092131FC0E1101DC08F708061809302
:104890000202C5010E94B61D80910202F8018583C3
:1048A0008F2D2B960FB6F894DEBF0FBECDBFDF91D4
:1048B000CF911F910F91FF90EF90DF90CF90BF901D
:1048C000AF900895CD2829F0822F83238F3F09F0E0
:1048D000EBC080E0F82FF170DF2EE09134024091C0
:1048E000030256E080FD1CC0EE20D1F2809102024E
:1048F000816080930202F12CD3CF8E2F90E05E9FD7
:10490000F0011124EC5FFD4F6181361306C0608118
:10491000261303C06281E612E7CFFC013196E770EF
:10492000E413EBCF2F8338878F8198850E94191469
:10493000292F22952F70903260F0225F2F70223045
:1049400078F49F7051F0F8019581907F31F4D12C6B
:104950000AC09F7011F08823D1F3805E8830B8F3CD
:10496000C8010E94B61DFD2C9BCF431306C09213B5
:1049700004C0F801EE2009F461C0C8010E942714A8
:10498000882309F1EE20F9F080910202803270F064
:104990002091FD013091FE013A8329831B82DD8243
:1049A000CC828E83CE0101960E94B61D86E0F8016E
:1049B000ADEFB1E001900D928A95E1F70E94A0233E
:1049C000FF24F3946DCFC8010E94B61DF9CF511199
:1049D0000AC08DEF91E00E94B61D86E0F5011192AC
:1049E0008A95E9F788CF4313C8CF9213C6CFE11059
:1049F000C4CFF8018583C8010E94B61D86E0F50189
:104A000011928A95E9F74CCFE83CF105B8F7FE2CF6
:104A1000EE20C9F243131FC092131DC08091020201
:104A200080FD10C0982F907F69F0F8018583903F3A
:104A300031F0982F907F905F8F70892B8583C8010C
:104A40000E94B61D86E0F801ADEFB1E001900D9235
:104A50008A95E1F725CFC8010E9427148111A6CFBE
:104A600080910202816080930202C8010E94B61DFB
:104A700017CFEE2009F4A7CFC8010E942714F82E03
:104A8000882309F4A0CF86E0F801ADEFB1E00190F2
:104A90000D928A95E1F78091FD019091FE010E94AF
:104AA00019140E94A023FCCE81E08E2513CF1F9302
:104AB000CF93DF93CDB7DEB767970FB6F894DEBF1D
:104AC0000FBECDBF4B8B5C8B6D8B7E8B8F8B611143
:104AD000109237021A8A2C898E899F893B893D87DB
:104AE0002E876F87998B888B86E0FE013D96DE01CD
:104AF000179601900D928A95E1F7CE0107960E94D4
:104B0000F623882389F016E0809134029091030205
:104B1000891351C067960FB6F894DEBF0FBECDBFA4
:104B2000DF91CF911F91089586E0FE013796DE0157
:104B3000119601900D928A95E1F74A855B854115A2
:104B4000510509F37F816885862F87238F3FD9F22E
:104B50002091030230E0C901019687709927E09106
:104B60003402E817190681F41092F9030E94A40E8A
:104B7000109203021092340286E0EDEFF1E0DF01C3
:104B80001D928A95E9F7BFCF79836A835D834C8351
:104B900096E0929FD001939FB00D1124AC5FBD4F62
:104BA000FE01319601900D929A95E1F780930302F0
:104BB0000E94E40AA8CF819FC00111248C5F9D4F01
:104BC0000E94F623882309F4A5CF8091340290E057
:104BD0000196877099278093340296CF4F925F9207
:104BE0006F927F928F929F92AF92BF92CF92DF92FD
:104BF000EF92FF920F931F93CF93DF9300D000D0DB
:104C0000CDB7DEB73FE3E32E36E0F32E570101E0E8
:104C100011E0712C88248394912CD8018D918D0101
:104C20000E94010D00C0F50161905F0126E0C22ED7
:104C300021E0D22EF601512C412C4191A42FA295B6
:104C4000AF70B0E090968C919401042C01C0220FBB
:104C50000A94EAF790E04F7002C0959587954A95BF
:104C6000E2F780FD90C0622A2FEF421A520A84E0D8
:104C70004816510411F7F801319780810E94160DF2
:104C800090EA9A95F1F7F5018291861519F0608204
:104C900077247394A1E006301A0709F0BECF01E033
:104CA00010E0F60181916F010E94010D00C0C80162
:104CB000042C01C0880F0A94EAF7582FAFE3B6E03E
:104CC00091E0A92E91E0B92E482F4095F5018191F0
:104CD0005F01282F22952F7030E0F90120A19D91CE
:104CE00030E08F7002C0359527958A95E2F7BD01B7
:104CF00061507109852F892B20FF02C0842F8923E1
:104D0000FB0180838081981711F077247394F6E07B
:104D1000AF16F1E0BF06D1F6F601319780810E940F
:104D2000160D20EA2A95F1F78FEF481A580A98E0F5
:104D30004916510409F0B5CFA091A602A9837720A6
:104D400029F181E08093C9010E94C51C9093C8019C
:104D50008093C7018091C7019091C8010E94B61C41
:104D60000597C0F0B981EB2FF0E0E152FD4F84E4EC
:104D700096E0D7012D917D0121938A179B07C9F7F2
:104D80001092C90107C0209562226ECF8091C9019F
:104D90008111E0CF0E941B0E182FE091A602811115
:104DA00084C0F0E0E152FD4FF89485E0ACE3B2E05E
:104DB00001900D928A95E1F78CE392E00E94B00693
:104DC00080933B027894F894C0904102D0904202C4
:104DD000E0904302F09044028091CA019091CB018F
:104DE000A091CC01B091CD01C816D906EA06FB0608
:104DF000F1F0C092CA01D092CB01E092CC01F092C6
:104E0000CD010E941B0E811112C00E9464086983AB
:104E10007A838B839C83C61AD70AE80AF90AC09260
:104E2000A102D092A202E092A302F092A40278948E
:104E3000F89480914C028823F1F080FF0DC080919E
:104E4000450280FF2FC09091E60391609093E603A6
:104E500060E086950E94CE1680914C0281FF09C0C9
:104E600020E04091480260914702809146020E94F2
:104E7000841410924C027894872D0F900F900F900D
:104E80000F90DF91CF911F910F91FF90EF90DF90E6
:104E9000CF90BF90AF909F908F907F906F905F90DA
:104EA0004F9008950E94060ED7CF24E436E085E0A7
:104EB000D9011D928A95E9F78E2F90E081529D4F7E
:104EC0009A83898380913E068A30E8F56DE379E123
:104ED00089819A810E942D0D882309F451C067ECC5
:104EE00078E189819A810E942D0D882309F448C0B8
:104EF00064E678E189819A810E942D0D882309F466
:104F00003FC010923E0681E08093D001B091A5028F
:104F1000EB2FF0E0E152FD4FFA83E98345E050E0EA
:104F200064E476E0CF010E941934892B09F4A4CF00
:104F300085E0E4E4F6E0A981BA8101900D928A95BA
:104F4000E1F7712E99CF8091CE019091CF010E940F
:104F5000B61C843F914008F0B9CF8091D0018823DE
:104F600009F48ACF1092D001E091A502F0E0E1525D
:104F7000FD4F95E0DF011D929A95E9F7782E7CCFE1
:104F800090913E069F3F31F09F5F90933E069A308E
:104F900008F4B9CF0E94C51C9093CF018093CE0135
:104FA000DCCF1F921FB61F9211248F939F93AF9354
:104FB000BF938091F303811113C08091F40390910A
:104FC000F503A091F603B091F7034196A11DB11D21
:104FD0008093F4039093F503A093F603B093F70343
:104FE000BF91AF919F918F911F901FBE1F901895F9
:104FF000CDB7DEB7AA970FB6F894DEBF0FBECDBF10
:1050000084B7877F84BF0FB6F894A895809160001D
:10501000886180936000109260000FBE80E890E08D
:105020000FB6F89480936100909361000FBE85B72E
:10503000806885BF85B7806885BF8DEC98E09093C8
:10504000BD018093BC010E94C7060E949207809117
:10505000E20084608093E2007894809106048823C3
:10506000A1F01091E9001F709091EC00892F8170E0
:1050700090FD80E8182B1092E9008091E80083FDF4
:105080000E94B10E1F701093E90082E084BD93E08E
:1050900095BD9AEF97BD80936E001092A102109279
:1050A000A2021092A3021092A4020E94571481112E
:1050B00002C00E94A8130E944F0E809300018091AD
:1050C0000001882309F472C010928D0185E280935B
:1050D0008E010E941B0E81110E94F1318091060108
:1050E0000E94160D809107010E94160D8091080103
:1050F0000E94160D809109010E94160D01E011E039
:10510000D8018D918D010E94160DB1E006301B076C
:10511000B9F78091000195E0811190E09093A6028B
:1051200085E0891B8093A5020E941B0E811102C09D
:105130000E94F431EFE3F6E089E496E0AFEDB2E0EF
:1051400011921D928E179F07D9F70E94C9198111DC
:1051500002C00E94421782E090E00E942F348093A8
:10516000D40284E090E00E942F34182F82E290E075
:105170000E942F34982F812F9093A8028093A7022A
:105180000E94EE25EFE3FCE93197F1F700C0000043
:105190000E94EE258091DF0280FF0CC06FEF7FEF51
:1051A00090E080E00E9461340E94530885E2809381
:1051B0008D018DCF83E090E00E942F340E94440B3C
:1051C000809110040E94D8150E941B0E882309F4B8
:1051D00062C280E08093CF0280E8809333040E9413
:1051E0007F306DE070E08AE192E00E94A112892B8D
:1051F00009F043C08091CF0263E070E081FD4DC2B1
:1052000087E192E00E94A112892BB9F56DE070E070
:1052100087E092E00E94A112892B79F50E94640830
:1052200069A37AA38BA39CA3DC01CB01805A95418F
:10523000AF4FBF4F8093EB039093EC03A093ED032C
:10524000B093EE03E6E3F4E080E092E0DF018C014E
:105250001D9201501040E1F7F0933D06E0933C06AB
:105260008FEF9FEF909335048093340481E0809317
:10527000F0038093EF031092D0028091A902811174
:1052800036C00E94C919811104C00E9442170E94B1
:10529000181788E090E00E9437346093E60370931B
:1052A000E7038093E8039093E90380910703836009
:1052B000809307036E7F71F40E94181788E090E0D6
:1052C0000E9437346093E6037093E7038093E8030A
:1052D0009093E9030E94A3088091E60380FF04C035
:1052E00060E086950E94CE1681E08093A9020E941C
:1052F0002D1B0E941B0E81112EC089E89EE0909309
:1053000063018093620125E130E030935E012093D8
:105310005D0185E390E0909361018093600149EB2A
:1053200058E050936D0140936C01309368012093D5
:10533000670190936B0180936A014DEF5AE150939E
:10534000770140937601309372012093710190931D
:105350007501809374010E94C919882389F08FE038
:1053600090E00E9437348B01862F8F770E94E11ADC
:10537000001F0027001F1370110F102B1093230420
:105380000E94630E88E791E09093F2038093F1030B
:10539000FAE0CF2ED12CE12CF12C8091060400E113
:1053A00012E1853009F4BCC10E94EE25B82E8111AE
:1053B0000E94640881EA91E09EA38DA345ED52E02E
:1053C000DC012FED32E010E000E0702EF901A19039
:1053D0009F018D91A822FA018191AF018A1509F4EC
:1053E000B0C18A25812C99249394982F992109F48E
:1053F000A3C10E941B0E882399F089827A82A9207A
:1054000081E009F480E08B830E94C51C8160782FC5
:105410009D838C8349815A816B818D810E945725A0
:10542000F801EB52FD4F8081982690828091F00325
:105430008823A1F18091D1029091D2020E94B61CE2
:10544000C29708F095C1209134043091350421159C
:10545000310509F0AEC28091EF038823F9F00E9474
:10546000640869A37AA38BA39CA38091EB0390911A
:10547000EC03A091ED03B091EE0309A11AA12BA1B9
:105480003CA1081B190B2A0B3B0BD901C8018F3F0C
:105490009F4FAF4FBF4710F40E94D112B1100E942E
:1054A000EC120E94DE1C0E943F0E9091D3028917DD
:1054B00021F00E943F0E8093D30280910604843035
:1054C00009F448C30E941B0E882309F466CF0E948A
:1054D0006408462F572FBC018091EF02811176C0DE
:1054E0008091EB029091EC02A091ED02B091EE025E
:1054F0004A015B01881A990AAA0ABB0AD501C401AC
:10550000843F9140A105B10508F460C04093EB02CF
:105510005093EC026093ED027093EE028091E902E9
:105520009091EA0201969093EA028093E90219822F
:105530008E010F5F1F4F21E050E040E060E088E007
:105540000E940418811106C08091E9029091EA023C
:105550000A97E4F181E08093EF028093120499812D
:10556000911101C080E0809313048091110410E038
:10557000882329F00E944F0E11E0811112E08091E2
:105580001304882309F4B8C40E944F0E8111B6C4D5
:1055900082E0182B86E290E00E942F3490E0B0E089
:1055A000A0E0AC01BD014C7F4A015B01812A89A2C8
:1055B0009AA2ABA2BCA288169906AA06BB0621F045
:1055C000CB01B4010E948C130E94630E80911304DE
:1055D000882309F4E2CE0E9464084B015C018091AB
:1055E000F0029091F102A091F202B091F3029501C4
:1055F0008401081B190B2A0B3B0BD901C801049726
:10560000A105B10580F119821A821B821C828E01CC
:105610000F5F1F4F24E050E040E060E089E00E940F
:1056200004188823C1F069817A81809118049091CF
:1056300019040E94EE0C90931904809318046B8156
:105640007C8180911A0490911B040E94EE0C90932F
:105650001B0480931A048092F0029092F102A092AF
:10566000F202B092F30280911D04882309F495CED2
:1056700080911C04898310E000E020E0AE014F5FC0
:105680005F4F61E08AE00E940418882309F485CE08
:1056900010921D0482CE82E09DCD84E192E0B2CDD5
:1056A00080910604843041F10E94D1120E94DE1CD8
:1056B0001092F30328E130E040E40FB6F894A89587
:1056C000209360000FBE4093600083B7817F8460A9
:1056D00083BF83B7816083BF7894889583B78E7FBB
:1056E00083BF0FB6F894A89580916000886180937D
:1056F0006000109260000FBE80910504882381F045
:105700000E94EE25A1EAB1E0EFEDF2E081919D91DA
:10571000892309F0F5C369EE72E06E177F07B1F7D0
:1057200080910604853009F4BBCF1092F9030E94E2
:10573000A40E0E943F0E38CE8394990CF8E08F128D
:1057400054CE0F5F1F4F0A30110509F03ECE8FEF88
:1057500089838A831B820E94C51C8160782F9D8368
:105760008C8349815A816B818D810E9457255ECE41
:105770000E94C51C9093D2028093D10286E394E0EC
:1057800090933D0680933C060E941B0E882309F4EB
:105790000BC110912904012F87E692E00E94F911B4
:1057A00080912C048F708A3008F0EEC0805D0E94DA
:1057B000781183E692E00E94F91180912B048F709A
:1057C0008A3008F0E3C0805D0E947811002309F45C
:1057D000E3C080E692E00E94F911812F82958F70DC
:1057E000103A08F0D5C0805D0E947811812F8F702B
:1057F0008A3008F0CFC0805D0E9478118CEF810F55
:10580000853308F0C9C08CE592E00E94F911212F80
:105810002450330BF901E95DFD4F84910E9478110A
:1058200083E892E00E94F91180912F040E94C90C34
:105830000E948912809130040E94C90C0E94891232
:10584000809132040E94C90C0E9489128091310417
:105850000E94C90C0E9489128AE792E00E94F91105
:1058600080911C04811101C087E00E94C90C01963F
:105870000E94891284E792E00E94F91180911E042F
:1058800081118EC080E30E94781180E792E00E942F
:10589000F91180912304811101C084E0805D0E9490
:1058A000781189E892E00E94F911809110040E9419
:1058B000ED0B90918401891305C09091AE02903256
:1058C00009F458C08093840190E29093AE02482F6F
:1058D00050E070E060E049A35AA36BA37CA3109250
:1058E000AD02CB01BA01A70196010E94E133605DD0
:1058F000603349F089A19AA1ABA1BCA1892B8A2B65
:105900008B2B09F460E26093AC0269A17AA18BA1B0
:105910009CA1A70196010E94E1332FA338A749A7B4
:105920005AA709A11AA12BA13CA160E20A301105D6
:105930002105310548F06FA178A589A59AA5A70191
:1059400096010E94E133605D6093AB0229A13AA108
:105950004BA15CA1243631054105510518F16FA119
:1059600078A589A59AA5A70196010E94E133205D3B
:105970002093AA028AEA92E00E9489128091F003A1
:10598000882309F468CD5FCD895A11CF895A1CCF7D
:10599000895A2ACF895A30CF81E00E94071240CF1E
:1059A00081E371CF20E2E4CF80E992E00E94F91117
:1059B000E5CF8091D00261E070E081114CCD082FDD
:1059C00010E02B01082E02C0440C551C0A94E2F78B
:1059D000A90144215521452B09F448C09091CF02DB
:1059E00090FD46C08295880F80768093870198014C
:1059F000369527953695279520938A01815E809369
:105A0000880110928B0124E630E047E050E065E821
:105A100071E088E70E942E31892B09F01CCDA80186
:105A200075E0440F551F7A95E1F78091CF0280FD14
:105A30002DC04A5C5B4F04E610E020E230E060E4F9
:105A400088E70E945B31892B09F005CD0E94EC129A
:105A5000C2018095909540903404509035044822BE
:105A600059225092350440923404F5CC8F5FA7CF71
:105A7000880F880F880F8093870110928A01895FB1
:105A80008093880183E080938B01BDCFEFEAF2E041
:105A900080E2DF011D928A95E9F7EDE9F1E0FAA3D2
:105AA000E9A389E991E0A9A1BAA16D91BAA3A9A33B
:105AB000FC012190CF01240E352E311C81010A5C9E
:105AC0001B4F1801E62FF0E0E155FD4F30E020E0DC
:105AD00067E0662E621AAA24A394022E01C0AA0CC3
