:100000000C9427060C946E060C946E060C94F33137
:100010000C946E060C946E060C946E060C946E0690
:100020000C946E060C946E060C94811B0C943D1B74
:100030000C947E270C946E060C946E060C946E063F
:100040000C946E060C946E060C946E060C946E0660
:100050000C946E060C94591C0C946E060C946E064F
:100060000C946E060C946E060C946E060C946E0640
:100070000C946E060C946E060C946E060C946E0630
:100080000C946E060C946E060C946E060C946E0620
:100090000C946E060C946E060C946E060C946E0610
:1000A0000C946E060C946E060C946E060501090203
:1000B000A10185020901A1000509190129081500FE
:1000C0002501950875018102050109300931158165
:1000D000257F95027508810609381581257F9501D0
:1000E00075088106050C0A38021581257F95017572
:1000F000088106C0C00660FF0961A1010962150000
:1001000026FF009520750881020963150026FF006F
:10011000952075089102C005010906A1010507197E
:10012000E029E71500250195087501810295017503
:100130000881010507190029FF150026FF00950613
:1001400075088100050819012905950575019102B9
:10015000950175039101C00000000000000000003F
:10016000000000000000000000000000000000008F
:1001700000000000000000000000007E0F00D4FF1F
:10018000FFFFC70000007800000000000000002A08
:100190002B2800000000000000000000000000000C
:1001A000000029000000002C1E34202122243426C7
:1001B00027252E362D3738271E1F202122232425C0
:1001C000263333362E37381F0405060708090A0B75
:1001D0000C0D0E0F101112131415161718191A1BE7
:1001E0001C1D2F3130232D350405060708090A0B85
:1001F0000C0D0E0F101112131415161718191A1BC7
:100200001C1D2F3130354C00DA0281FFD9F1DB2083
:10021000A4A62EAF00A0C000A1C800AED580A81F24
:10022000D300408D1420006162636465666768696D
:100230006A6B6C6D6E6F70717273747576777879A6
:100240007A31323334353637383930524542545F9B
:100250002D3D5B5D5C233B27602C2E2F202027004B
:10026000204B00202043004B6579203A202052008B
:100270002020440030302020530020202020204324
:1002800050490042616C6C3A004C617965723A00E9
:10029000808182838485868788898A8B8C8D8E8FE6
:1002A0009091929394A0A1A2A3A4A5A6A7A8A9AA5D
:1002B000ABACADAEAFB0B1B2B3B4C0C1C2C3C4C5D4
:1002C000C6C7C8C9CACBCCCDCECFD0D1D2D3D4002B
:1002D0000001010101010101010102020202020209
:1002E00002020203030303030303030404040404DC
:1002F00004040505050505060606060607070707A3
:100300000708080808090909090A0A0A0B0B0B0C57
:100310000C0C0D0D0D0E0E0E0F0F0F1010111111F4
:100320001212131314141515161617171818191975
:100330001A1A1B1B1C1D1D1E1E1F202021222223DA
:100340002424252626272829292A2B2C2D2D2E2F1B
:1003500030313232333435363738393A3B3C3D3E32
:100360003F404142434445464748494A4C4D4E4F21
:1003700050515354555658595A5B5D5E5F616264E3
:10038000656668696B6C6D6F7072737577787A7B70
:100390007D7E8082838587888A8C8E8F91939596C7
:1003A000989A9C9EA0A2A3A5A7A9ABADAFB1B3B5E7
:1003B000B7BABCBEC0C2C4C6C9CBCDCFD1D4D6D8C3
:1003C000DBDDDFE2E4E7E9EBEEF0F3F5F8FAFDFF61
:1003D00000AF00AE290014001A0008001500170035
:1003E0002B0004001600070009000A00E1001D00B0
:1003F0001B000600190005000000E200E300916107
:100400002C4190434C00130012000C0018001C00FB
:10041000240233000F000E000D000B00870038008F
:10042000370036001000110000004600E600917110
:1004300028422A0001003A003B003C003D003E00FB
:10044000010001000100520028004C0001000100E1
:10045000500051004F002A0000000100010001007F
:1004600001000100440043004200410040003F0001
:100470004500F600F5005200F4004B0001000100B9
:100480004F00510050004E0000000100010001002B
:10049000010001000100340224002500260025028D
:1004A00001003302210022002300300001002D0250
:1004B0001E001F002000300200002700370001004E
:1004C00001000100010021022F0023021E0226026A
:1004D0001F02340020022E022D0032008902380251
:1004E0002F022E00870232020000010001000100ED
:1004F00001004C00C25C010001000100010001008C
:10050000C35CC55CC75CC95C0100AD5DC45CC65C16
:10051000C85CCA5C0100AE5D0000005CA55D010026
:1005200001000100D25CD15CD05CCF5CCE5CCD5CC4
:10053000010001005D5DD55CD45CD35CA65D01006B
:10054000A95DA75DA85DAA5D0000005CA55D010036
:100550000100010001000100010001000100010093
:100560000100010001000100010001000100010083
:100570000100010001000100000001000100010074
:100580000100010001000100010001000100010063
:100590000100010001000100010001000100010053
:1005A0000100010001000100000001000100010044
:1005B0000100010001000100010001000100010033
:1005C0000100010001000100010001000100010023
:1005D0000100010001000100000001000100010014
:1005E0000100010001000100010001000100010003
:1005F00001000100010001000100010001000100F3
:1006000001000100010001000000010001000100E3
:1006100001000100010001000100010001000100D2
:1006200001000100010001000100010001000100C2
:1006300001000100010001000000010001000100B3
:1006400001000100010001000100010001000100A2
:1006500001000100B05D0100AF5D0100010001007B
:100660000100010001000100000001000100010083
:100670000100010009025B00030100A0FA09040067
:1006800000010301010009211101000122400007BE
:1006900005810308000A09040100020300000009A3
:1006A0002111010001222200070582032000010719
:1006B00005030320000109040200010300000009F2
:1006C00021110100012249000705840320000A12BC
:1006D0000100020000000857590004010001020057
:1006E0000114034B0065007900620061006C006C2E
:1006F00000340034000000100359006F0077006BD5
:100700000065006500730000000403090400000098
:100710000000003E5B4F5B3E003E6B4F6B3E001C9B
:100720003E7C3E1C00183C7E3C18001C577D571C2C
:10073000001C5E7F5E1C0000183C180000FFE7C331
:10074000E7FF00001824180000FFE7DBE7FF003098
:10075000483A060E00262979292600407F0505071C
:1007600000407F05253F005A3CE73C5A007F3E1C75
:100770001C0800081C1C3E7F0014227F2214005F0E
:100780005F005F5F0006097F017F00006689956A50
:100790000060606060600094A2FFA2940008047E84
:1007A00004080010207E20100008082A1C080008F9
:1007B0001C2A0808001E10101010000C1E0C1E0C25
:1007C0000030383E383000060E3E0E0600000000B5
:1007D00000000000005F0000000007000700001498
:1007E0007F147F1400242A7F2A12002313086462D6
:1007F00000364956205000000807030000001C2264
:100800004100000041221C00002A1C7F1C2A000815
:10081000083E08080000807030000008080808083A
:10082000000000606000002010080402003E5149F2
:10083000453E0000427F4000007249494946002180
:1008400041494D33001814127F10002745454539A2
:10085000003C4A4949310041211109070036494904
:10086000493600464949291E0000001400000000D6
:100870004034000000000814224100141414141421
:10088000000041221408000201590906003E415DA2
:10089000594E007C1211127C007F49494936003EB6
:1008A00041414122007F4141413E007F4949494148
:1008B000007F09090901003E41415173007F08088A
:1008C000087F0000417F4100002040413F01007F40
:1008D00008142241007F40404040007F021C027FFC
:1008E000007F0408107F003E4141413E007F09091E
:1008F0000906003E4151215E007F09192946002664
:10090000494949320003017F0103003F4040403F15
:10091000001F2040201F003F4038403F0063140864
:100920001463000304780403006159494D43000037
:100930007F41414100020408102000004141417FF5
:100940000004020102040040404040400000030750
:100950000800002054547840007F28444438003870
:100960004444442800384444287F003854545418E0
:100970000000087E0902001824241C78007F080467
:1009800004780000447D4000002040403D00007F8E
:10099000102844000000417F4000007C0478047867
:1009A000007C08040478003844444438007C18244F
:1009B000241800182424187C007C0804040800482B
:1009C000545454240004043F4424003C4040207C00
:1009D000001C2040201C003C4030403C00442810BB
:1009E0002844004C9090907C004464544C44000097
:1009F0000836410000000077000000004136080082
:100A0000000201020402003C2623263C00000000F4
:100A100000000000000000000000000000000000D6
:100A20000000000000C0F0F88C86C6E7FFFFFFFF63
:100A3000FFFFFEFCFCF8E080000000F0F0F000009A
:100A4000C0E0F07070000000000000000000000036
:100A50000000000000000000000000F8F8F80000AE
:100A60000000000000000000000000000000000086
:100A700000F8F8F80000F8F8F800000000000000A6
:100A80000000000000000000000000E0F0F0F0E0D6
:100A9000ECEEF7F37020007C7C7C7E007E7E7E7F17
:100AA0007F7F000080C0E07E5B4F5BFEC00000C027
:100AB00000DCD7DEDEDED7DC00C000000000000076
:100AC0000000000000000000000000000000000026
:100AD000000000000000000000000000000080E0B6
:100AE0007078686C64C7C7C7C7C7C7E73F1F0F3FA9
:100AF000FFFFFFFFFFFF3F0F000000FFFFFF1E3F54
:100B0000FFF3E1800000F8FCFE3636363EBCB8004C
:100B10000E3EFEF080F0FE3E0E0000FFFFFF0606D8
:100B200006FEFEFC7000E6F6F63636FEFEFC000021
:100B300000FFFFFF0000FFFFFF00000000000000BB
:100B400000000000000000000000000F1F3F7F7F3A
:100B50007F7F7F3F1E0C001F1F1F3F003F3F3F7FD7
:100B60007F7F00307B7F7830202030787F3B000310
:100B7000000F7F0F0F0F7F0F000300000000000029
:100B80000000000000000000000000000000000065
:100B9000000000000000000000000000003C7F6337
:100BA00060E0C0C0C0C0C0C0C0C0FFFFC06030189F
:100BB0000F03030301000000000000030303000013
:100BC0000003030303000103030303030303010002
:100BD0007070393F1F070100000000010303030389
:100BE00003030301000001030303030303010000E7
:100BF00000030303000003030300000000000000E3
:100C000000000000000000000000000000000000E4
:100C100000000000000000000000000000000000D4
:100C200000000000000000000000000000000000C4
:100C300000000000000000000000000000000000B4
:100C4000000000000000000000000000000011246F
:100C50001FBECFEFDAE0DEBFCDBF04B603FE27C074
:100C60008091110690911206A0911306B09114067E
:100C70008730904BA740B04BD1F4109211061092E0
:100C80001206109213061092140614BE84B7877FC2
:100C900084BF0FB6F894A895809160008861809316
:100CA0006000109260000FBEE0E0F8E3099511E0EB
:100CB000A0E0B1E0ECEDF8E602C005900D92A03C9A
:100CC000B107D9F726E0A0ECB1E001C01D92A13137
:100CD000B207E1F70E94A5270C9432340C9400006F
:100CE000FC01AC014C5F5F4F8FEF91E321918227B4
:100CF00028E030E087FF09C0880F8927215031099B
:100D0000C9F7E417F50791F70895880FF7CFE8EDD5
:100D1000F0E080818E7F80831092E2001092DA00F2
:100D20001092E100A0EEB0E08C9181608C93808104
:100D30008F77808319BCA7EDB0E08C918E7F8C9368
:100D400080818F7E80831092C90308952091E400F2
:100D50003091E50095E6A9012091EC00822F817089
:100D600020FF06C08091E80080FF06C080E0089563
:100D70002091E80022FD1AC08091D703882389F0D2
:100D8000853089F08091EB0085FD0FC02091E40053
:100D90003091E50042175307F9F29150E1F684E0F3
:100DA000089582E0089583E0089581E00895EF9228
:100DB000FF920F931F93CF937C018B010E94A60695
:100DC000C82F811117C08091E80085FD0BC080916C
:100DD000E8008E778093E8000E94A606882399F3A6
:100DE000C82F08C0F70181917F018093F100015065
:100DF000110949F78C2FCF911F910F91FF90EF9020
:100E000008958091D90387FF13C08091E80082FF85
:100E100006C08091E8008B778093E80004C0809141
:100E2000D7038111F2CF08958091D7038823D9F396
:100E30008091E80080FFF8CF8091E8008E77ECCFBA
:100E4000982F9093E900242F762F50E0891731F0E6
:100E50007091EC002091ED005091F00021FD07C051
:100E60009F5F973071F78093E90081E0089530919A
:100E7000EB003E7F3093EB003091ED003D7F3093EF
:100E8000ED003091EB0031603093EB007093EC009B
:100E90002093ED005093F0002091EE0027FDE0CF6D
:100EA00080E00895CF92DF92EF92FF920F931F930D
:100EB000CF93DF93C8EDD0E088818F7E8883E7ED04
:100EC000F0E080818160808384E082BF81E0809354
:100ED000C90388818E7F888302EE10E0F8011082BA
:100EE0001092DA0081EEC82ED12CF6011082888192
:100EF0008F77888388818068888388818F7D8883C5
:100F000019BC1092D7031092D8031092D6031092F6
:100F1000D50390EEE92EF12CF70180818B7F808341
:100F200088818160888342E060E080E00E94200741
:100F3000F60180818E7F8083F801808181608083CB
:100F4000808188608083F70180818E7F80838881A3
:100F500080618883DF91CF911F910F91FF90EF9077
:100F6000DF90CF900895FC01CB012091DF033091F9
:100F7000E0032617370790F0009729F42091E80046
:100F80002E772093E80040E0009751F4411108C00B
:100F90008091E80082FF31C080E00895C901F3CF5D
:100FA0002091D7032223A9F12530A9F12091E8004F
:100FB00023FD2DC02091E80022FDEACF2091E8001A
:100FC00020FFE2CF3091F3002091F200009719F05A
:100FD0002830310558F041E02830310509F040E073
:100FE0002091E8002E772093E800CECF41914093E6
:100FF000F10001972F5F3F4FE9CF8091D7038823FE
:1010000041F0853041F08091E80083FFC1CF81E05D
:10101000089582E0089583E008950895089508955D
:101020008091CC03089587E797E790930108809318
:10103000000888E19AE00FB6F894A89580936000C4
:101040000FBE90936000FFCFCF93DF9300D000D00E
:10105000CDB7DEB78FB7F8942091C5033091C603A2
:101060004091C7035091C80329833A834B835C8323
:101070008FBF69817A818B819C810F900F900F9037
:101080000F90DF91CF9108959C01FC0132968FEF74
:1010900090E04191461751F08F3F19F4411101C082
:1010A000892F9F5F9630A9F78F3F09F40895280F85
:1010B000311D87FD3A95F90162830895FA01811186
:1010C0000994FB01FDCF8091B703982F9E7F71F4A7
:1010D0008091B703817082608093B7038091BA03D7
:1010E000873918F086E98093BA030895843080F731
:1010F000F5CFCF93DF93E2EEF3E083819481A58176
:10110000B681E90188839983AA83BB831482138201
:1011100016821582DF91CF91089580E0089578942A
:101120000895E0914402EB30A4F48AE0E802F00173
:101130001124EF5FFE4F0084F185E02D309749F0D8
:1011400027E632E04091460267E472E08091450272
:1011500009940895E3E3F2E082898093350183895D
:1011600080934C010895F894E82FE295EF70F0E039
:1011700041A18F7021E030E0B90102C0660F771FF6
:101180008A95E2F7CB01962F9095942391A392A193
:10119000892B82A30C948F0890919C0292FF06C029
:1011A000282F28712830F9F4877F846093FF06C0C8
:1011B000282F28712831F1F4877E846120919D02C7
:1011C00020FF06C0382F38713830D9F4877F81600E
:1011D00021FF06C0282F28712831D1F4877E816134
:1011E00094FD877E0895282F24712430F9F68B7F93
:1011F0008860DCCF282F2471243101F78B7E886131
:10120000DDCF382F3171313019F78E7F8860E0CF14
:10121000282F2171213121F78E7E8861E1CFCF9374
:10122000DF93EC01803E910509F469C038F5813304
:10123000910509F4AFC078F48932910509F4A3C08F
:101240008A9709F4AEC0C130D10509F46BC020976C
:1012500009F468C00BC08933910509F449C082388C
:10126000910509F445C0C59709F486C0C53AD10572
:1012700090F4C430D10508F44EC054C0843E9105AA
:1012800009F45FC070F4823E910509F447C0833EC3
:10129000910509F44BC0CE01805E91090897D8F5FD
:1012A00041C0863E910509F457C0873E910509F477
:1012B00058C0811524E5920708F09BC0811533E5DD
:1012C000930708F0EDC0811541E5940708F079C057
:1012D000C11580E5D80708F0C4C0C11590E2D90750
:1012E00008F066C0CF3FD10509F008F4ACCF1AC0B2
:1012F00080919C028370B1F0C0EED0E013C0809169
:101300009C0280FDF8C090919D0290FF0BC0C3EE3F
:10131000D0E084FF07C0D0E0C0E004C080919C0210
:1013200082FDF5CFCE01DF91CF91089580919C028F
:1013300082FDE4C090919D0290FDDECF84FFF2CF4C
:10134000EACF80919D0281FFEDCF80919C02C7EE94
:10135000D0E084FDE0CFE6CF80919C0283FDF7CF03
:10136000E1CF80919C0283FDCCC090919D0291FFC2
:10137000E5CFC4EED0E0D6CF80919C0285FFD2CFDE
:10138000C9E2D0E0CFCF80919C0285FFCBCFC5E3EF
:10139000D0E0C8CF80919C0286FFC4CFCAE2D0E0E3
:1013A000C1CF80919C0286FFBDCFC1E3D0E0BACF10
:1013B000CE0190548115904108F0ADCFDF70D06A16
:1013C000B1CF811532E5930708F465C08370992782
:1013D00021E030E002C0220F331F8A95E2F7C69564
:1013E000C69540E2C49FE0011124C22BD32BDC68D8
:1013F00099CFC11589E5D807E0F4C11598E5D9075B
:1014000008F066C0C11525E5D20708F45CC0CE011E
:1014100095558F3F910511F008F07DCF8C2F0E94DC
:10142000CC08C82FD0E0DC2FCC27CC27DF71D062CE
:1014300079CFC1153AE5D30708F44FC0CE019056D5
:101440008115904208F067CF8D2F8F710E94CC08D4
:1014500090E0982F882788279F719C012C2BE90109
:10146000E6CFCE01E4E096958795EA95E1F78370A3
:101470002C2F26952695237090E2299F9001112408
:10148000382B8C2F8370C1E0D0E002C0CC0FDD1F61
:101490008A95E2F7AACFD82FCC27C16FD06A42CF66
:1014A0008370992721E030E002C0220F331F8A9514
:1014B000E2F7C695C69540E2C49FE0011124C22B15
:1014C000D32BDA682FCFDC2FCC27C46FD06A2ACF7A
:1014D000DC2FCC27C06FD06A25CF8C2F8F700E9455
:1014E000CC0834E0D695C7953A95E1F7CF70DC2F5C
:1014F000C82FD06917CFC9E3D0E014CFC2EED0E037
:1015000011CFC6EED0E00ECF80912602811110924D
:1015100026020895982F90958091CA03892380937D
:10152000CA0308958091CA0390912502892B909156
:101530002402892B8093C20190912602992391F075
:10154000892B8093C20120E084EC91E0FC01308182
:10155000019631112F5F31E08A3C9307B9F72111D1
:101560000E94840AE091C203F091C303309731F0E6
:101570000280F381E02D82EC91E00994089580913E
:1015800022029091F101981301C008958F5F877036
:10159000FACF292F220FE22FE90FEE0FE80F9E2F2F
:1015A0009770E695E695E69583E0E89FF0011124B3
:1015B000E752FE4F50E040E080E0219130E0092EFC
:1015C00002C0369527950A94E2F721703327042E3E
:1015D00001C0220F0A94EAF7822B4F5F5F4F43301E
:1015E000510559F70895292F220FE22FE90FEE0F29
:1015F000E80F8E2F877041E001C0440F8A95EAF70B
:10160000E695E695E69583E0E89FF0011124E75220
:10161000FE4F30E020E070E05191DF011197CB01E7
:10162000022E02C0969587950A94E2F78170819503
:101630008527842385278C932F5F3F4F23303105E7
:1016400059F70895809327021092250210922402E0
:101650000C94920A882321F00E948A0A0C94920A20
:101660000895882339F09091CA03892B8093CA0387
:101670000C94920A0895882309F452C09CEF980FA5
:10168000913A78F4E4ECF1E02AEC31E0919189139D
:1016900003C0DF0111971C922E173F07B9F70C9476
:1016A000920A90E2980F983050F4877091E001C050
:1016B000990F8A95EAF7892F0E948A0AF0CF9BE555
:1016C000980F9330B0F48091D5019091D601892B79
:1016D00039F11092D6011092D501E091C203F09138
:1016E000C3033097E9F00680F781E02D90E080E0B9
:1016F0000994885A8731A0F48091D7019091D8013C
:10170000892B71F01092D8011092D701E091C20399
:10171000F091C303309721F00084F185E02DE6CFEE
:101720000895CF93C82F8823A1F18CEF8C0F813AB5
:10173000F8F4E4ECF1E0DF018D91C81761F081E08D
:10174000AA3CB807C9F76C2F82EC91E00E944408CC
:10175000CF910C94920A8191C81303C0DF011197B5
:101760001C9281E0EA3CF807B1F70E94920AEBCFA5
:1017700080E28C0F883068F4C77021E030E001C04F
:10178000220FCA95EAF78091CA03822B8093CA037D
:10179000DFCFCF910895982F82958F7011F0982FF9
:1017A00084E0292F2695269511F08E5F922F96952D
:1017B00009F08F5F0895CF93C82F8091EF038C17A6
:1017C00051F00E9424086093F0037093F10380931A
:1017D000F2039093F303C093EF03CF9108950F9317
:1017E0001F93CF93DF93FC01EB012091F4032111B0
:1017F00001C024E0608171812150CB01022E02C022
:10180000959587950A94E2F7DC01022E02C0AA0F93
:10181000BB1F0A94E2F76A1B7B0B718360836281B2
:1018200073818B01022E02C0159507950A94E2F789
:10183000D80102C0AA0FBB1F2A95E2F76A1B7B0BD7
:101840007383628321E80138BFEF1B072CF0202F40
:10185000003811050CF02FE72D8381383FEF9307F7
:1018600074F1803891056CF5982F91959C834423F1
:1018700019F021952D838C830E942408462F572F21
:10188000BC018D81811103C08C818823E1F04093DC
:10189000F5035093F6036093F7037093F803809178
:1018A000F903982F97FD91959C3020F4080F009331
:1018B000F9031D82DF91CF911F910F91089581E867
:1018C000D3CF8FE7D1CF8091F5039091F603A0910C
:1018D000F703B091F803481B590B6A0B7B0B443696
:1018E000510561057105D8F21092F903D8CFFC01BA
:1018F000DB012281338121388FEF380704F1203852
:101900003105FCF412962C931297808191818138D5
:101910003FEF9307C4F080389105BCF413968C9385
:101920001397442339F0219512962C9312978195A1
:1019300013968C931182108213821282089521E8EB
:10194000E1CF2FE7DFCF81E8E9CF8FE7E7CF20E2D4
:1019500087FF02C081952DE23AE0632F0E948E330B
:10196000905D9093CE0181110BC02093CD0120E2B8
:101970002093CC0120E22093CB018BEC91E00895E1
:10198000632F0E948E33905D9093CD01882381F365
:10199000805D8093CC01EFCFAC01860F971F57FD80
:1019A00007C077FD04C097FF02C08FEF9FE708953F
:1019B00077FFFDCF97FDFBCF80E090E80895E4EC42
:1019C000F1E086E0DF011D928A95E9F71092250289
:1019D000109224020C94920A1F93CF93DF93CDB7F9
:1019E000DEB7AA970FB6F894DEBF0FBECDBF89ED64
:1019F00093E0FC0101962091F100208323E0813ED9
:101A00009207B9F78091DA03893009F458C0C8F415
:101A1000823009F4B5C0833009F484C0813081F18B
:101A20008091E80083FF87C28091D9039091DA0307
:101A30009A3008F080C2E92FF0E0EC5CFB4C0C948B
:101A4000BE338A3009F48BC08B3051F78091D903B3
:101A5000813231F78091DD039091DE03892B01F70C
:101A60008091E800877F8093E8000E9401078091C1
:101A7000DB03809383011092CA030E94DF0CD0CF56
:101A80008091D903813A61F68091E800877F809345
:101A9000E8008091DD039091DE03892B61F468E01A
:101AA0008DEC93E070E00E94B3078091E8008B77A3
:101AB0008093E800B5CF60E090E080E0F3CF8091C4
:101AC000D903813209F0ACCF8091DD039091DE0320
:101AD0008D7F892B09F0A4CF8091E800877F8093C8
:101AE000E8008091E80082FF18C09091F300809197
:101AF000F200029731F48091F100813011F08630CC
:101B000021F48091F1008093CC038091E8008B77E1
:101B10008093E8000E94010783CF8091D703811151
:101B2000E0CF7ECF8091D903813A09F079CF8091BF
:101B3000DD039091DE03892B09F072CF8091E800DC
:101B4000877F8093E8008091E80080FFFCCF809140
:101B500083018093F1008091E8008E77D9CF809146
:101B6000D903813209F05CCF8091E800877F8093B0
:101B7000E8000E9401078091DC038093CB0350CFE3
:101B80008091D903813A09F04BCF8091E800877F9B
:101B90008093E8008091E80080FFFCCF8091CB0328
:101BA000D8CF803899F0823809F0C5C18091DD0323
:101BB0008F70873008F0BFC18093E9008091EB00FF
:101BC00085FB882780F91092E90006C08091D50333
:101BD0009091D603911182609091E800977F909345
:101BE000E8008093F1001092F1008091E8008E7778
:101BF0009EC1882309F48CC1823009F09CC1809178
:101C0000DB0381118FC18091DD038F702FEF280FCF
:101C1000263008F090C18093E9002091EB0020FF6E
:101C200081C1933031F48091EB0080628093EB00AE
:101C300079C19091EB0090619093EB0021E030E04E
:101C400001C0220F8A95EAF72093EA001092EA0079
:101C50008091EB008860EACF81116DC11091DB03A8
:101C60001F778091E3008078812B8093E30080913F
:101C7000E800877F8093E8000E9401078091E800D8
:101C800080FFFCCF8091E30080688093E30082E0D6
:101C9000111183E08093D7034EC18058823008F041
:101CA0004AC14091DB035091DC034C3D83E058076F
:101CB000A1F583E08A838AE289834FB7F894DE0135
:101CC000139620E03EE051E2E32FF0E050935700FE
:101CD000E49120FF03C0E295EF703F5FEF708E2F1D
:101CE00090E0EA30C0F0C7968D939D932F5F24312A
:101CF00059F74FBF8091E800877F8093E8006AE240
:101D000070E0CE0101960E94B3078091E8008B77C6
:101D10008093E80010C1C096E7CF8091DD039091D9
:101D2000DE03252F33272330310509F44AC078F527
:101D30002130310509F479C08BE590E0E4E7F6E065
:101D40002230310509F0F7C02091E800277F209369
:101D5000E8002091DF033091E0038217930708F435
:101D60009C0140E02115310509F064C0411162C0B9
:101D70008091E80082FDC9CF8091D703882329F2A2
:101D8000853019F28091E80083FFF2CFBECF213277
:101D9000310509F43BC02232310509F0CCC0833053
:101DA000910508F0C8C0FC01EE0FFF1FED54FE4F77
:101DB0000190F081E02D80559E4FDC018C9190E0E8
:101DC00011C0CA019927413089F082309105B1F0E4
:101DD000892B09F0B0C0E9E0F7E0E4918E2F90E0A4
:101DE000E9E0F7E0009709F4A6C0AECFE7EFF6E030
:101DF000E4918E2F90E0E7EFF6E0F4CFE1EEF6E02D
:101E0000E4918E2F90E0E1EEF6E0ECCF8330910587
:101E100008F091C0880F991FFC01E754FE4F019014
:101E2000F081E02D89E090E08FCF82E190E0EFEC4F
:101E3000F6E08ACF8091D703882309F466CF8530F6
:101E400009F463CF8091E80083FD5FCF8091E800C3
:101E500082FD8ECF8091E80080FF84CF9091F300C7
:101E60008091F2002115310519F08830910550F06C
:101E700041E0089709F040E08091E8008E77809378
:101E8000E80070CF44914093F10031962150310920
:101E90000196E8CF803809F04EC08091E800877F36
:101EA0008093E8008091D8038093F1009ECE811149
:101EB00042C01091DB031230F0F58091E800877F7B
:101EC0008093E8001093D8030E940107112311F0BA
:101ED00084E005C08091E30087FDFACF81E0809324
:101EE000D70342E061EC81E00E94200742E261EC0E
:101EF00084E00E94200742E261EC82E00E94200719
:101F000042E260EC83E00E9420078091D70313C077
:101F10008091DB03813079F481E0933009F080E037
:101F20008093D6031092E9008091E800877F809328
:101F3000E8000E9401078091E80083FF0AC08091B9
:101F4000E800877F8093E8008091EB0080628093B7
:101F5000EB00AA960FB6F894DEBF0FBECDBFDF919F
:101F6000CF911F910895CF93DF93682F81E06A305E
:101F700019F06D3029F480E0DF91CF910C9442107C
:101F800080910D0690910E0626E0FC01A7E0B6E0D8
:101F900001900D922A95E1F7603E08F45AC026E0C0
:101FA000FC0111922A95E9F7C0910D06D0910E0619
:101FB00046E050E0BE0187E096E00E94D4339E01E7
:101FC00027503440892B41F1C90145E0969587950A
:101FD0004A95E1F741E050E0BA0102C0660F771F71
:101FE0008A95E2F7CB016091050470910604862B77
:101FF000972BB9016B5F7F4FE5E076956795EA9582
:10200000E1F702C0440F551F6A95E2F7842B952B28
:1020100090930604809305042A5F3F4F4091040487
:10202000642F70E0C9010E946E33481B463010F4E3
:10203000240F311D211572E0370710F030E020E049
:10204000295F3B4F30930E0620930D06DF91CF9111
:102050000895F6E06F9FB0011124635F784F46E06A
:1020600050E00E94CB33A0CFCF93DF93EC01FE0171
:102070008491811103C0DF91CF9108950E94B30F25
:102080002196F5CFCF93382FE0910D06F0910E06F3
:10209000E750F44020910404622F70E0CF010E94C9
:1020A0006E33281B822F332361F066E00E94823357
:1020B000C82FC15010F4CF91089580E20E94B30F51
:1020C000F8CF9F01280F311D2115324018F080E014
:1020D000F0E0E0E08E0F9F2F911D895F9B4F909362
:1020E0000E0680930D06E7CFCF93DF93CDB7DEB713
:1020F0002C970FB6F894DEBF0FBECDBF86E0EAEF97
:10210000F2E0DE01179601900D928A95E1F786E0E4
:10211000EFEEF2E0DE01119601900D928A95E1F763
:1021200046E050E0BE016F5F7F4FCE0107960E94F0
:10213000D433892B79F0E091C203F091C303309737
:1021400049F082E08093FA020480F581E02D8AEF65
:1021500092E009951092FC021092FD021092FE028C
:102160001092FF0286E0EAEFF2E0AFEEB2E00190FB
:102170000D928A95E1F72C960FB6F894DEBF0FBE4C
:10218000CDBFDF91CF9108950F931F93CF93DF932E
:10219000EC01FC0101900020E9F78F0101501109C9
:1021A000C017D10728F0DF91CF911F910F910895AB
:1021B00089910E94B30FF4CFCF92DF92EF92FF92FA
:1021C0000F931F93CF93DF936C017B0164E670E064
:1021D00088E70E944030EC0197FD12C010E000E05B
:1021E000F601E00FF11F849164E670E00E94BA30BE
:1021F000EC01892B29F40F5F1F4F0E151F0581F786
:102200000E944731CE01DF91CF911F910F91FF9036
:10221000EF90DF90CF9008958091C0039091C1031B
:10222000911103C091E089270895882369F062E045
:1022300070E082ED93E00E94DC10892B19F0809110
:10224000C00308951092C0038091C003EBCFCF93D9
:10225000DF9300D000D00F92CDB7DEB78091C003DE
:102260008D838091C1038823F1F00E942408DC0152
:10227000CB01805A9541AF4FBF4F8093BC039093E1
:10228000BD03A093BE03B093BF038D81811108C02D
:1022900062E070E080ED93E00E94DC10892B61F039
:1022A0008091C0038D838D810F900F900F900F90C0
:1022B0000F90DF91CF91089581E08093C003F0CF1C
:1022C00024E02093E9002FEF3091E800215035FD04
:1022D00006C035ED3A95F1F700002111F5CF2091B8
:1022E000E80025FF0BC050E040E066E070E00E948F
:1022F000D7068091E8008E778093E8000895CF9309
:10230000DF93D82FC92F81E08093E9008FEF909160
:10231000E800815095FD06C095ED9A95F1F7000013
:102320008111F5CF8091E80085FF16C050E040E0B4
:1023300068E070E08D2F9C2F0E94D7068091E80006
:102340008E778093E80088E0ED2FFC2FADECB3E0B2
:1023500001900D928A95E1F7DF91CF9108956091F8
:1023600085018091B70380FF20C08091840143E004
:10237000849FC00111248D5F9C4F539A2BB1277FFE
:102380003BB138605FB7F894FC01649FE00DF11D2C
:102390001124BF0168177907D1F45FBF8FE594E07E
:1023A0000197F1F700C00000089580918601909197
:1023B000870123E0829FF0011124ED5FFC4F891714
:1023C000A0F61182108212828F5F3396F8CFFC0143
:1023D0004191CF01E8E03BB9000000C047FF2BB9B5
:1023E000440F000000C000C000C02BB900C0EA9537
:1023F00091F7D0CFE7EBF3E080818E7F8083E0E040
:10240000F3E08281816082832FEF80E792E02150A8
:1024100080409040E1F700C000000C94AF119F9203
:10242000AF92BF92CF92DF92EF92FF920F931F93E2
:10243000CF93DF93082FD92EC62E972E7A01809145
:102440009702AA24A394B12C8A3018F48AE0A82E0B
:10245000B12CC1E0D0E0F8946C2D792D802F9D2D0A
:10246000F7010995182F0E948F08111104C02196B9
:10247000AC16BD066CF4812FDF91CF911F910F91A7
:10248000FF90EF90DF90CF90BF90AF909F90089516
:10249000CC9F9001CD9F300D300D112490E080E055
:1024A00045E34A95F1F70000019682179307C1F7BB
:1024B000D2CF80913202811118C082E39091E30063
:1024C00097FD10C0EFE3FCE93197F1F700C0000081
:1024D0008150A1F782E0809332020E948706109219
:1024E000D70303C081E08093320281E090913202F1
:1024F000913011F080E0089508950E9459128823C8
:1025000051F0E091C203F091C303309721F00190A4
:10251000F081E02D099480E0089554985C9A879AA0
:102520008F9885E08A95F1F7000089B187988F9A96
:1025300090EA9A95F1F78295817091E08927089544
:10254000CF93DF938091E203CEE18111CDE18091C1
:10255000E303D0E0882329F08091E403DEE18111D8
:10256000DDE10E948D1281110FC08D2F80938401B7
:10257000C0938501CD0F10928601C0938701C0934F
:102580008801DF91CF91089580E0F0CF8091E20340
:10259000F90180830C94A0121F93CF93DF93182F1F
:1025A000EB010E94910B8FE99FE00197F1F700C0CA
:1025B00000002197C1F7812FDF91CF911F910C94DB
:1025C0003B0BCF93DF93C7ECD2E060E0CE010E94DB
:1025D000FE332196C11584E0D807B9F7DF91CF917A
:1025E00008956F927F928F929F92AF92BF92CF92F7
:1025F000DF92EF92FF920F931F93CF93DF93D12C33
:10260000C12C33E9A32EB12CE501C056D109360106
:102610001BC0F70185909490692DC8010E94FE337C
:10262000682DC80101960E94FE3322E0E20EF11CE3
:102630000E5F1F4FC017D10761F736E0630E711CA4
:102640002C96CA15DB0559F0C301880F991F9C0110
:102650002C523C4F79018E010C501109DACFCE017A
:10266000805A9F4F5C0190E3C90ED11CC33DD240FC
:1026700059F6DF91CF911F910F91FF90EF90DF906E
:10268000CF90BF90AF909F908F907F906F90089564
:1026900086E290E00C94FE33CF93C82F6FEF811148
:1026A00063E283E290E00E94FE336FEFC11162E0CB
:1026B00084E290E00E94FE336FEFC11167E185E292
:1026C00090E0CF910C94FE3380E00E944C1360E0C8
:1026D00070E0CB010E9448130E94F1120E94E112A7
:1026E00081E00C944C130F931F93CF93DF93C42F6F
:1026F000D0E0CC0FDD1F2CE0629FC00DD11D112456
:1027000030E6839FC00DD11D1124CE0187960E9413
:10271000EA33082F10E0102F0027CE0188960E9480
:10272000EA339801282BC901DF91CF911F910F91B6
:102730000895462F672F873030F4783020F44630E4
:1027400010F40C94731390E080E00895DF92EF9200
:10275000FF920F931F93CF93DF937C010091E103CE
:1027600080912702082BC7E0D0E010E0DC2EC801E2
:102770000C2E02C0959587950A94E2F780FD0CC057
:102780002197A0F7D12C8D2DDF91CF911F910F9123
:10279000FF90EF90DF900895B7018C2F0E9499135E
:1027A0000E940F09019761F3EECFCF93DF93D82FEB
:1027B000C92F0E94A6136D2F7C2F0E949913DF91C1
:1027C000CF910C940F09FC01808191810E94D51357
:1027D000282F892F8F70392F32953F70903C80F4CD
:1027E0003A30B0F4343020F4323090F480E0089580
:1027F0003630E1F781E0283E88F0213FB9F70EC07E
:102800003C3011F03F3091F7869586958695089576
:1028100081E0203F39F018F4283E40F70895243F26
:1028200029F7FCCF089583E290E00E94EA338332D7
:1028300089F484E290E00E94EA33823059F485E220
:1028400090E00E94EA3391E0873109F090E0892F0F
:102850008170089580E0FCCF0F931F93CF93DF9397
:102860008B01D82FC92F0E946308A8016D2F7C2FE0
:1028700088E090E0DF91CF911F910F910C9410347C
:102880008F929F92AF92BF92CF92DF92EF92FF9280
:102890000F931F93CF93DF9300D000D00F92CDB74B
:1028A000DEB7182F69834D83922E0091B70300FF86
:1028B000E7C0E02FE695F0E0E255FE4F808180937F
:1028C0000003802F8E7F8230F1F4E42F473908F027
:1028D000E6E9F0E0E053FD4F2981211153C0F49166
:1028E0008F2EEF2F00FF0FC08091860190918701FE
:1028F00023E0829FD0011124AD5FBC4F891708F4FB
:10290000B5C00E94AF118091B80381130AC08091B5
:10291000B9039981891305C08091BA03AD818A17E3
:1029200029F0809102038260809302031093B80320
:10293000B981B093B9032D812093BA03992009F48A
:102940009FC08091B7039091B803A091B903B09153
:10295000BA0389839A83AB83BC83BC01CD010F90FA
:102960000F900F900F900F90DF91CF911F910F91CB
:10297000FF90EF90DF90CF90BF90AF909F908F909F
:102980000C942C148981E82EF12CE49196E0199F87
:10299000600111242FEF30E0C601B9010E946E33AF
:1029A000812F90E0880F991FF5E5F69FA001F79F12
:1029B000500D1124841B950BB82EBB0CB80EA90129
:1029C0004E195F09E49FC001E59F900D1124F92F76
:1029D000A981AB9DA0011124452F5527D901A41B26
:1029E000B50BEA9FA001EB9F500D1124852ED90154
:1029F000AB19B1095D01AE9CD001AF9CB00DBE9C7E
:102A0000B00D1124AB2FBB272A1B3B0BE29FD0013B
:102A1000E39FB00D112463307105D1F02CEFC21685
:102A200023E0D20670F461307105B1F062307105B7
:102A3000B9F02FEFC216D10408F054CF892EFB2F26
:102A400051CF6430710579F066307105B9F34ACF22
:102A5000F52F8E2EE92F46CFFE2FE52F892E42CF60
:102A60008B2EFE2FF7CF8E2EEB2F3CCF1196EC93B3
:102A70001197FC9312968C9212978F5F13963ECF0C
:102A80000F900F900F900F900F90DF91CF911F91AB
:102A90000F91FF90EF90DF90CF90BF90AF909F90FD
:102AA0008F900895E7EBF3E043812FE0421B08F499
:102AB00040E021E0628181810C944014E7EBF3E077
:102AC00043812FE0420F08F44FEF21E062818181C2
:102AD0000C944014E7EBF3E0628121E1621B08F4FF
:102AE00060E021E0438181810C944014E7EBF3E046
:102AF000628121E1620F08F46FEF21E0438181815F
:102B00000C944014E7EBF3E0818121E04381628182
:102B100081510C944014E7EBF3E0818121E0438183
:102B200062818F5E0C9440140F931F93CF93C82F34
:102B30000E94CB0B982F81E0933009F080E00E9437
:102B4000DB0B4C2F50E070E060E0DB01CA01F4E0E9
:102B5000B695A79597958795FA95D1F70097A10512
:102B6000B10559F1AC01BD0194E08A019B01E2E09D
:102B70003695279517950795EA95D1F70115110513
:102B80002105310519F09E5FB901A8017695679579
:102B900057954795452B462B472B09F09F5F21E022
:102BA0004FEF963009F040E060E080E00E94401472
:102BB0008C2FCF911F910F91089590E0D6CF0E9456
:102BC00094158093E10310922502109224020C9434
:102BD000920A8091E103982F9670963019F48860DC
:102BE0000C94DF15877FFCCF21E030E001C0220F7D
:102BF0008A95EAF720958091E10382230C94DF15F2
:102C0000909123028095892380932302282F277097
:102C100091F4282F082E000C330B9217130659F04D
:102C200090919D0292FD07C08595859585950E949E
:102C3000F415109223020895CF93C0919D02C2FB18
:102C4000992790F9981799F080FBC2F9C0939D02DB
:102C500060919C0284E090E00E94FE336C2F82E23F
:102C600090E00E94FE3382E0CF910C940016CF9149
:102C7000089521E030E001C0220F8A95EAF78091A3
:102C8000E103822B0C94DF15CF93DF9300D000D0AB
:102C9000CDB7DEB78091BB03882319F081508093B4
:102CA000BB038091B7039091B803A091B903B09191
:102CB000BA0389839A83AB83BC83BC01CD010F9097
:102CC0000F900F900F90DF91CF910C942C14CF9315
:102CD000DF9300D000D0CDB7DEB78091BB03833047
:102CE00018F48F5F8093BB038091B7039091B80372
:102CF000A091B903B091BA0389839A83AB83BC8353
:102D0000BC01CD010F900F900F900F90DF91CF91EC
:102D10000C942C14CF93DF9300D000D0CDB7DEB746
:102D20008091B70380FF2AC0817082608093B703CF
:102D300080910203816080930203662381F0809179
:102D4000B7039091B803A091B903B091BA038983F6
:102D50009A83AB83BC83BC01CD010E942C1420E07C
:102D60004091BA036091B9038091B8030F900F901E
:102D70000F900F90DF91CF910C9440140F900F9013
:102D80000F900F90DF91CF9108959091B703969592
:102D90008FEF890F913009F481E061E00C948A167D
:102DA00061E081E00C948A16CF93DF9300D000D0CD
:102DB000CDB7DEB7E7EBF3E083E0808311828FEFDE
:102DC000828386E983831482A0E0B3E012968C911B
:102DD0001297836012968C9380819181A281B38136
:102DE00089839A83AB83BC83BC01CD010F900F9084
:102DF0000F900F90DF91CF910C942C1469EE7EEF21
:102E000090E080E00E941C3460E082E090E00E944C
:102E1000FE3360E083E090E00E94FE3310922702D0
:102E200060E084E090E00E94FE3360E082E290E0A7
:102E30000E94FE3360E085E090E00E94FE3360E097
:102E400086E090E00E94FE336FEF87E090E00E9402
:102E5000FE3340E050E0BA0188E090E00E94103478
:102E600060E08DE090E00E94FE3340E050E0BA0167
:102E700088E190E00E94103460E087E190E00E94D9
:102E8000FE3340E050E0BA018CE190E00E94103443
:102E900070E060E080E290E00E941C3440E050E08E
:102EA000BA0188E190E00E94103480E00E944C1347
:102EB0000E94641340E050E0BA018FE090E00E946D
:102EC000103440E050E0BA0183E190E00C941034FB
:102ED000CF92DF92EF92FF920F931F93CF93DF93E6
:102EE000FA0169017801C82F880FDD0B3097B9F01E
:102EF0008AE08C9FD0018D9FB00D1124AF5FBE4F33
:102F000013968D919C9114978D5C9D4F12964C91C8
:102F100050E0E417F50708F4AF010E94E133CE0159
:102F20000E94BA32892B11F5E114F104E9F08AE02C
:102F30008C9FF0018D9FF00D1124EF5FFE4F4581B6
:102F400050E0E416F50608F4A7018AE08C9FF00132
:102F50008D9FF00D1124EF5FFE4F668177816D5CD0
:102F60007D4FC6010E94E13381E001C080E0DF9126
:102F7000CF911F910F91FF90EF90DF90CF90089528
:102F8000AF92BF92CF92DF92EF92FF920F931F9377
:102F9000CF93DF9300D000D0CDB7DEB78C83F62E71
:102FA0005A01E22E6801809197028A3080F080E019
:102FB0000F900F900F900F90DF91CF911F910F9175
:102FC000FF90EF90DF90CF90BF90AF9008958C81ED
:102FD00088306CF389836A832B8360933501209357
:102FE0004C0110E000E030E020E043E050E0BE01A2
:102FF0006F5F7F4F84E00E9468178823C1F24F2DD6
:1030000050E030E020E0B50185E00E946817882399
:1030100071F230E020E041E050E0BE016C5F7F4F94
:1030200086E00E946817882311F20E2D10E09601A9
:1030300050E040E070E060E087E00E946817B8CFA1
:103040000F931F93CF93DF93CDB7DEB728970FB6BB
:10305000F894DEBF0FBECDBF85E0E7EBF3E0DE0105
:10306000119601900D928A95E1F78091000390915D
:103070000103A09102038E839F83A8872885409136
:1030800093025091940260919502709196023FB71D
:10309000F8948091C5039091C603A091C703B091A5
:1030A000C8033FBF841B950BA60BB70B8436910555
:1030B000A105B10510F42223C1F010E000E030E0DA
:1030C00020E048E050E0BE016F5F7F4F83E00E9448
:1030D0006817882369F00E94240860939302709314
:1030E000940280939502909396021092020381E0DD
:1030F00028960FB6F894DEBF0FBECDBFDF91CF91FB
:103100001F910F9108950F931F93CF93DF93CDB726
:10311000DEB728970FB6F894DEBF0FBECDBF409143
:103120008F025091900260919102709192022FB79C
:10313000F8948091C5039091C603A091C703B09104
:10314000C8032FBF841B950BA60BB70B11E0843669
:103150009105A105B10550F10E945912882391F102
:103160000E942408462F572FBC014E5F5F4F6F4FC0
:103170007F4F49835A836B837C8310E000E030E00B
:1031800020E044E050E0BE016F5F7F4F82E00E948C
:103190006817182F882351F00E94240860938F022B
:1031A000709390028093910290939202812F2896BF
:1031B0000FB6F894DEBF0FBECDBFDF91CF911F9148
:1031C0000F9108950E9424086D837E838F839887D2
:1031D000409198025091990260919A0270919B02DD
:1031E0008D819E81AF81B885480F591F6A1F7B1F53
:1031F000BCCFEF92FF920F931F93CF93DF9300D03A
:1032000000D00F92CDB7DEB77B0101E010E09E0148
:103210002B5F3F4F50E040E070E060E080E00E94B4
:103220006817182F882309F452C040918B025091DF
:103230008C0260918D0270918E022FB7F89480916C
:10324000C5039091C603A091C703B091C8032FBFD7
:10325000841B950BA60BB70B84369105A105B10510
:1032600038F484E392E00E9470069D81891779F119
:1032700004E010E09E012F5F3F4F50E040E070E01F
:1032800060E081E00E946817182F84E392E00E94BA
:10329000700691E02D81281390E0192331F10E94EE
:1032A000240860938B0270938C0280938D0290931C
:1032B0008E0289819A81AB81BC8180938702909331
:1032C0008802A0938902B0938A0211E00EC0809117
:1032D000340290913502A0913602B0913702898371
:1032E0009A83AB83BC831111E4CF809187029091C4
:1032F0008802A0918902B0918A02F70180839183AC
:10330000A283B383812F0F900F900F900F900F9097
:10331000DF91CF911F910F91FF90EF90089590E072
:1033200080E00E94F833893E9E4F11F40C941314F0
:1033300080E0089528E030E043E060E086E30C940C
:10334000642FEF92FF920F931F93CF93DF93CDB72C
:10335000DEB72C970FB6F894DEBF0FBECDBF4F83FC
:10336000588769877A878B879C878091E2038823B7
:1033700099F00E949A1980E50E94E02F0AEB0A95C5
:10338000F1F700C00E94F82F8878992780389105BE
:1033900009F492C00E9410300E945912882309F447
:1033A0006DC00E942408462F572FBC018091D00188
:1033B0009091D101A091D201B091D3018A019B01DA
:1033C000081B190B2A0B3B0BD901C8010897A10553
:1033D000B10508F453C04093D0015093D1016093DC
:1033E000D2017093D3018091F0039091F103A091E9
:1033F000F203B091F303481B590B6A0B7B0B42336A
:1034000051056105710580F41092E6031092E50301
:103410001092E8031092E7031092EA031092E90376
:103420001092EC031092EB031091EF030E948D12A7
:10343000482FBE01695F7F4F85EE93E0112309F4A9
:1034400069C00E94EF0B0091EF031091E2030E940C
:103450008D1241E04827BE01695F7F4F89EE93E0FE
:10346000011709F45AC00E94EF0B86E0FE0137965F
:10347000AEEFB3E001900D928A95E1F786E0FE0190
:103480003796DE01119601900D928A95E1F7298118
:103490003A814B815C816D817E8180E090E02C9649
:1034A0000FB6F894DEBF0FBECDBFDF91CF911F9155
:1034B0000F91FF90EF9008950E94F82F0E94F82F2F
:1034C0007C010E94F82F60E0E62AF82A0E94F82F7B
:1034D0008C010E94F82F20E0022B182B0E94103044
:1034E000F894B7018091E5039091E6030E94CC0C1B
:1034F0009093E6038093E503B8018091E7039091F0
:10350000E8030E94CC0C9093E8038093E7030E94A9
:103510008F0842CF0E94770C96CF0E94770CA5CFE0
:10352000CF93DF93D82FC62F0E949A198D2F8068D2
:103530000E94E02F8C2F0E94E02F0E9410308FEC11
:1035400092E00197F1F700C00000DF91CF9108955C
:10355000682F893708F068E76093ED0391E0909356
:10356000EE039091E203992371F06150811101C043
:1035700066E0683708F067E78FE00E94901A60E025
:1035800080E50C94901A0895FB0180810C94A81A90
:10359000282F8091ED03811101C087E0022E000CDD
:1035A000330B820F932F911D1816190614F081E02A
:1035B00090E00C94A81ACF93C82F0E949A198C2FD0
:1035C0000E94E02F8FE792E00197F1F700C0000022
:1035D0000E94F82FC82F0E9410309AE69A95F1F7B2
:1035E00000C08C2FCF910895CF93DF930E945C2F62
:1035F000269A0E949A196AE58AE30E94901A2FEF90
:1036000080E792E0215080409040E1F700C0000048
:1036100082E00E94DB1A83E00E94DB1A84E00E94B1
:10362000DB1A85E00E94DB1A86E00E94DB1A60E06C
:1036300080E10E94901A80E00E94DB1AD82F81E07E
:103640000E94DB1AC82F0E941030D23419F481E096
:10365000C13009F080E081708093E203882351F04B
:1036600066E08FE00E94901A60E080E5DF91CF91E4
:103670000C94901ADF91CF9108951F920F920FB67C
:103680000F9211242F933F934F935F936F937F93E8
:103690008F939F93AF93BF93CF93DF93EF93FF935A
:1036A000D091E900DF708091EC00C82FC17080FDDF
:1036B000C0E81092E9008091F000877F8093F000CD
:1036C00078940E94EC0C1092E9008091F0008860E0
:1036D0008093F000CD2BCF70C093E900FF91EF9164
:1036E000DF91CF91BF91AF919F918F917F916F911A
:1036F0005F914F913F912F910F900FBE0F901F90B0
:1037000018951F920F920FB60F9211242F933F938B
:103710004F935F936F937F938F939F93AF93BF93D9
:10372000EF93FF938091E10082FF09C08091E20056
:1037300082FF05C08091E1008B7F8093E100809142
:10374000DA0080FF24C08091D80080FF20C08091E3
:10375000DA008E7F8093DA008091D90080FF9BC0D1
:1037600080E189BD82E189BD09B400FEFDCF81E021
:103770008093D7038091C903811109C00E948706F5
:103780000E9452078091E20084608093E200809161
:10379000E10080FF17C08091E20080FF13C080919C
:1037A000E2008E7F8093E2008091E200806180934E
:1037B000E2008091D80080628093D80019BC85E037
:1037C0008093D7038091E10084FF29C08091E200BB
:1037D00084FF25C080E189BD82E189BD09B400FE76
:1037E000FDCF8091D8008F7D8093D8008091E1003B
:1037F0008F7E8093E1008091E2008F7E8093E200D3
:103800008091E20081608093E2008091D803882358
:1038100009F447C084E08093D7038091D703809157
:10382000E10083FF27C08091E20083FF23C08091E5
:10383000E100877F8093E10082E08093D7031092BC
:10384000D8038091E1008E7F8093E1008091E200B7
:103850008E7F8093E2008091E20080618093E2009D
:1038600042E060E080E00E9420078091F0008860E4
:103870008093F000FF91EF91BF91AF919F918F9155
:103880007F916F915F914F913F912F910F900FBE5C
:103890000F901F90189519BC1092D7031092C9036E
:1038A00076CF8091E30087FD02C081E0B4CF83E052
:1038B000B2CF78941F921FB61F9211248F939F93BB
:1038C000AF93BF938091C5039091C603A091C703A6
:1038D000B091C8030196A11DB11D8093C5039093BB
:1038E000C603A093C703B093C803BF91AF919F9144
:1038F0008F911F901FBE1F9018959C014FB7F89491
:103900008091C5039091C603A091C703B091C803ED
:103910004FBF821B930B08952FB7F8948091C50376
:103920009091C603A091C703B091C8032FBF08951B
:103930009F92AF92BF92CF92DF92EF92FF920F933E
:103940001F93CF93DF93CDB7DEB760970FB6F89490
:10395000DEBF0FBECDBF1A821982FE01339686E00C
:10396000DF011D928A95E9F780E9E82E81E0F82EC3
:1039700010E000E0CC24C394D12C2EE9A22E21E04B
:10398000B22EF70181917F018F3F09F446C0F89470
:10399000E82FE295EF70F0E021A18F70A60102C040
:1039A000440F551F8A95E2F7CA01922F982B91A3D5
:1039B00092A18095892382A30E948F0800C0E8E924
:1039C000F1E031E0912C21912F3F09F47FC0A22F2B
:1039D000A295AF70B0E090968C9190E02F7002C0ED
:1039E000959587952A95E2F780FD70C0832F982AD8
:1039F000330FAE16BF0639F7F701319780818F3F3D
:103A000011F00E94B30850EA5A95F1F7E1E0F0E0B6
:103A1000EC0FFD1FE00FF11F90820F5F1F4F04306E
:103A2000110509F0AECF48E050E0BE016F5F7F4F57
:103A30008EE992E00E94D4337C01892B49F088E022
:103A4000FE013196AEE9B2E001900D928A95E1F760
:103A50001091A702E114F104D9F181E080932A02C8
:103A60000E948C1C90932902809328028091280246
:103A7000909129020E947D1C059790F0E12FF0E0C3
:103A8000E452FD4F80919E02808380919F0281834A
:103A90008091A00282838091A102838310922A02E6
:103AA00081E090E0EF28C1F060960FB6F894DEBF99
:103AB0000FBECDBFDF91CF911F910F91FF90EF907F
:103AC000DF90CF90BF90AF909F90089580E08FCF10
:103AD00080912A028111CACF0E945912F82EE091DA
:103AE000A702882309F476C01A8619861C861B86CD
:103AF0000E2F10E004521D4F809197028A30A0F5DE
:103B000049EF58E1BE01675F7F4FC8010E940F1265
:103B10008823C9F143E858E1BE01675F7F4FC801C0
:103B20000E940F12882379F140E258E1BE01675FDD
:103B30007F4FC8010E940F12882329F1109297022B
:103B40008091A60290E044E050E0BE01675F7F4FA5
:103B500084529D4F0E94D43321E020933102892B5F
:103B600059F5F12C8F2DA0CF80912B0290912C0232
:103B70000E947D1C843F914018F680913102811192
:103B800012C080E091CF809197028F3F29F08F5F24
:103B9000809397028A30A0F20E948C1C90932C0292
:103BA00080932B02EACFFE01399684E0DF011D925B
:103BB0008A95E9F710923102E091A602F0E0E45212
:103BC000FD4F89859A85AB85BC8580839183A283CF
:103BD000B383C8CFF0E0E452FD4FF8948081918127
:103BE000A281B3818093340290933502A093360270
:103BF000B093370284E392E00E9470068093330210
:103C00000E948F08F894C0903802D0903902E0905A
:103C10003A02F0903B0280912D0290912E02A091E9
:103C20002F02B0913002C816D906EA06FB06F1F061
:103C3000C0922D02D0922E02E0922F02F09230021A
:103C40000E945912811112C00E9424086D877E873C
:103C50008F87988BC61AD70AE80AF90AC092980289
:103C6000D0929902E0929A02F0929B020E948F08F1
:103C7000F894809143028823F1F080FF0DC0809179
:103C80003C0280FF1BC09091B70391609093B703F3
:103C900060E086950E948A168091430281FF09C0E8
:103CA00020E040913F0260913E0280913D020E94DF
:103CB0004014109243020E948F0863CF0E94FA11B1
:103CC000EBCF86E00E9439160E948C1C9093F8027C
:103CD0008093F70282E08093F90208950F931F9377
:103CE000CF93DF93CDB7DEB768970FB6F894DEBFFA
:103CF0000FBECDBF4091FA025091FB026091FC02D1
:103D00007091FD028091FE029091FF020E94A11924
:103D10002093FA023093FB024093FC025093FD0281
:103D20006093FE027093FF0286E0EAEFF2E0DE01AC
:103D3000539601900D928A95E1F786E0FE01739605
:103D4000DE01179601900D928A95E1F70D891E8983
:103D5000912F902B8091F902992309F470C0823041
:103D6000D9F08330F9F0813009F05BC0902F97FDD6
:103D70009195812F87FD8195890F9927991F209112
:103D8000F5023091F602820F931F97FF43C0909384
:103D9000F6028093F50206C00E948C1C9093F802F4
:103DA0008093F70209871A8786E0FE013796DE01C5
:103DB000119601900D928A95E1F70B831C8386E0A2
:103DC000FE013196DE011D9601900D928A95E1F774
:103DD0000F87188B86E0FE013D96DE011796019055
:103DE0000D928A95E1F709871A8786E0FE013796DA
:103DF000AAEFB2E001900D928A95E1F768960FB6AE
:103E0000F894DEBF0FBECDBFDF91CF911F910F9110
:103E10000C9474101092F6021092F5020E94611E2A
:103E2000C1CF0E948C1C9093F8028093F70281E02E
:103E30008093F9021092F6021092F502B3CF82300D
:103E4000A9F0833009F4AECF813049F48091F702B4
:103E50009091F8020E947D1CC39708F4A3CF1092A2
:103E6000F6021092F5021092F9029CCF8091F702AF
:103E70009091F8020E947D1C8132934008F492CF09
:103E80001092F90286E00E94F4158CCF3F924F9277
:103E90005F926F927F928F929F92AF92BF92CF92DA
:103EA000DF92EF92FF920F931F93CF93DF93CDB7E3
:103EB000DEB766970FB6F894DEBF0FBECDBF8C019C
:103EC000DC0113968D919C911497892B39F08C917C
:103ED00011969C9189238F3F09F0AFC566960FB666
:103EE000F894DEBF0FBECDBFDF91CF911F910F9130
:103EF000FF90EF90DF90CF90BF90AF909F908F900A
:103F00007F906F905F904F903F9008950E94A6130E
:103F1000F82E682F89819A810E94F30A69817A813B
:103F20008F2D0E9499137C01F8018281882309F466
:103F300076C5C70182519F45409708F018C58FEF9D
:103F400093E00E94EA33FEEEEF0E57EC852E52E02E
:103F5000952E8823B1F180912302877009F4BECF9A
:103F6000D80112968C91882309F4B8CF80919D02D4
:103F700082FDB4CF82E066960FB6F894DEBF0FBE26
:103F8000CDBFDF91CF911F910F91FF90EF90DF9008
:103F9000CF90BF90AF909F908F907F906F905F90E9
:103FA0004F903F900C940016811424E0920699F2F1
:103FB000C4010E94EA33811101C0EA943FEF831AE1
:103FC000930AE110F1CF80918A0190918B01A09129
:103FD0008C01B0918D0189839A83AB83BC83442487
:103FE00043944AE0342E74018FEFE81AF80AC401B2
:103FF0000E94EA3389831A82882309F4ACCF9FEFA9
:10400000980F933030F58A83498292E0890E911C93
:10401000C7010E94EA338B83882309F49CCFDE0119
:1040200011967D01F70120812223E9F2213009F068
:1040300050C091818281913071F4F2E0EF0EF11C59
:1040400065E070E0893311F460E570E00E94CC1205
:1040500009C04701E4CF923049F422E0E20EF11C9E
:104060000E94910BFFEFEF1AFF0ADCCF933031F47F
:1040700032E0E30EF11C0E943B0BF4CF943021F0B0
:104080008FEFE81AF80AEECF92E0E90EF11C30E06B
:1040900020E0B7016F5F7F4FD70111964C9180539D
:1040A000990B8A30910550F021503109D8F2EFE98F
:1040B000FFE03197F1F700C00000F6CF329EF0012B
:1040C000339EF00D11249C012E0F3F1F842F7B0186
:1040D000E0CFE22FF0E0E957FE4F5490822F869513
:1040E0008695869590E0FC01E958FE4F6490277014
:1040F000712C022E02C0759467940A94E2F731E0A5
:1041000063227724FC01E959FE4FA490B12C022EC2
:1041100002C0B594A7940A94E2F7A1E0AA22BB24B6
:10412000FC01E95AFE4FC490D12C02C0D594C7942B
:104130002A95E2F7B1E0CB22DD246114710419F075
:1041400081EE0E94910BA114B10419F086EE0E9439
:10415000910BE9E365E070E05E1202C060E570E09B
:10416000852D0E94CC12AB2819F086EE0E943B0BE5
:10417000672819F081EE0E943B0BCD2809F472CF1D
:1041800065E070E08CE262CF81E00E9439160E9407
:10419000E915E1CE81E00E94F415F9CF82E0F5CF78
:1041A0008095F8220E94611E23C412968C91882368
:1041B00029F01092F90286E00E94F415C7019A9541
:1041C000F70181159F4108F4FF27D80112968C91C1
:1041D000E93FF10508F055C0E43FF10508F455C08A
:1041E000E45FF10921E030E001C0220FEA95EAF72F
:1041F00096E0EAEFF2E0DE01179601900D929A95B3
:10420000E1F796E0FE013796DE011D9601900D92D2
:104210009A95E1F79885882309F442C0892F822B6B
:104220008E8796E0FE013D96DE01119601900D927B
:104230009A95E1F78A8386E0FE013196AAEFB2E013
:1042400001900D928A95E1F7F8018281F6E1EF166F
:10425000FCE5FF0609F079C0882309F461C080916C
:10426000CA038A7A91E009F490E09093D40169E25C
:10427000811165E382EC91E00E9444080E94920A59
:104280006ACEEC3ABDE5FB0791F18823E9F2E55AE5
:10429000FD45EA30F105C0F6E25CFB4C0C94BE3300
:1042A000822F80958923BCCF80E00E94A81A1092AB
:1042B000F40351CE4091ED035091F40350FB47F9C4
:1042C0005695537060E070E08FE090E00E941034EB
:1042D00042CE81E00E94C81A3ECE8FEFFBCF8AE02B
:1042E000F9CF86EFF7CF9091EF0381E089270E9405
:1042F000DB0B31CE8091F403811101C084E08F5F2C
:1043000018160CF081E0883008F087E08093F40301
:1043100022CE8091F403811101C084E08150F0CF5E
:104320008091D40181110FC089E2E4ECF1E02AEC24
:1043300031E09191891303C0DF0111971C922E1770
:104340003F07B9F79BCF85E3F0CF81110CC1809176
:10435000CA03827226EDE2162CE5F20680F432ECF6
:10436000E3163CE5F30680F0F701E35CFC45E3313E
:10437000F10508F091C0E85BFB4C0C94BE338DE571
:10438000E816F80609F4E7CDF8018281C080D180F3
:10439000882309F423C1C6010E94A613F82E682FB2
:1043A000C6010E94F30AB6018F2D0E9499130E9444
:1043B0000F097C01882ED8011296AC9012971596A1
:1043C0009C9092943FE09322809123028770C1F0E9
:1043D000BA2CAA20B1F08F2D807F803421F080E2AA
:1043E0008E0D883068F080919D0282FD09C082E0C8
:1043F0000E940016809123028770BB24B394811120
:10440000B12CCF2CC2942FE0C222B8E0CB1609F415
:10441000B7C1BC1508F4E7C0E1E0EC1508F0F8C03E
:104420008EE08C0D8F70823008F42DC1AC2DA85019
:10443000BB0B149710F40E947D12BB2009F44ECDE3
:104440008091230280FD4ACDF801128285958595E1
:1044500085950E943916C8010E94461F809123024B
:1044600085958595859566960FB6F894DEBF0FBE47
:10447000CDBFDF91CF911F910F91FF90EF90DF9013
:10448000CF90BF90AF909F908F907F906F905F90F4
:104490004F903F900C94F4158091B70380FF24C097
:1044A0008E7F8093B7038091B7039091B803A0915A
:1044B000B903B091BA038B8B9C8BAD8BBE8BBC01C7
:1044C000CD010E942C14809102038160809302032D
:1044D0009FEFA0E7B2E09150A040B040E1F700C0EC
:1044E00000000E94AF1137CD81608093B70361E077
:1044F00086950E948A162FCD45EC56E160ED76E157
:104500000E945E0828CD40ED56E165EC76E1F8CFDB
:1045100042E855E16BE875E1F3CF4BE855E162E81D
:1045200075E1EECF4AE655E166E775E1E9CF46E78A
:1045300055E16AE675E1E4CF42E555E16EE575E1E6
:10454000DFCF4EE555E162E575E1DACF44E456E1AF
:1045500067E676E1D5CF47E656E164E476E1D0CF71
:1045600061E081E0C6CFEAE5EE16EDE5FE0691F1E9
:1045700068F4E1142CE5F206F1F03EEDE3163CE5BB
:10458000F30609F001CF0E94FE16E5CC8BE5E81694
:104590008DE5F80609F19CE5E9169DE5F90609F0B7
:1045A000F3CE80919D0282FB882780F991E08927D4
:1045B0000E941C16E9CE1092CA030E94DF0CAFEFD6
:1045C000B4E3ECE0A150B040E040E1F700C00000EF
:1045D0000E94130881E0ECCF80E0EACFC6010E9480
:1045E000C90AF82EE0CEF9E0CF1609F438C186E00A
:1045F0008C0D8F70823008F019CF8E2D22EF821231
:104600003FC18F2D8F71A11038C10E9439160ECF76
:104610003F2D3F70D32E8F2D807F19F0D29490EFD5
:10462000D9228E2DAA20B9F0DD2069F090E29E0DEE
:10463000983010F0E11009C08091CA03D82AD092B6
:10464000CA030E94920A8E2D4FC080912502D82A5B
:10465000D0922502F6CF0E943B0BDD2009F4E6CE76
:1046600080E28E0D883010F0811004C08D2D0E94E4
:104670008A0A06C0D09480912502D822D0922502C1
:104680000E94920AD3CE8F2D8F70D82E8F2D807FCF
:10469000803219F0D29480EFD8228E2D8820A1F09C
:1046A00091E0891609F44DC0AA2009F457C0992059
:1046B00009F44DC0D80115968C91159780FFC3CF92
:1046C0008F7015968C9343C020919D0222FF16C0D7
:1046D000AA2069F0DD2039F08091CA03D82AD0924F
:1046E000CA030E94920A80E00E94910B9FCE80E054
:1046F0000E943B0BDD2009F499CEB8CFAA20A1F08F
:1047000090912602892F8D29911003C00E94310BB0
:104710008DCEA1E09A12FACF22FD88CE981709F427
:1047200085CE8093260282CE911006C00E94840A14
:104730008D2D0E942A0B7ACEB1E09B1609F476CE1D
:10474000F5CFAA2031F0E5E0E91508F46FCE8D2D04
:10475000DDCFF4E0F91508F469CEEACF992041F3F2
:10476000893309F0FCC0BFEFE7EEF3E0B150E04061
:10477000F040E1F700C000008E2D0E943B0B56CEAA
:104780008F2D837099F5A11051CE4E2D42954695EF
:104790004770440F440F8E2D8F70042E01C0880F78
:1047A0000A94EAF72E2D2071E4FE07C02FE030E0D6
:1047B00001C0220F4A95EAF720953F2D3695369590
:1047C0003370323071F0333051F040912702313084
:1047D00029F0822B84230E94220B28CE842B822B4B
:1047E000FACF282B809127028227F5CF8695AA2021
:1047F00011F08F2D8170882309F418CE4E2D42952B
:1048000046954770440F440F8E2D8F70042E01C0C3
:10481000880F0A94EAF72E2D2071E4FE07C02FE0DE
:1048200030E001C0220F4A95EAF720953F2D3695DA
:1048300036953370323071F0333051F04091E103EE
:10484000313029F0822B84230E94DF15EFCD842B99
:10485000822BFACF282B8091E1038227F5CF9F2D61
:104860009F70F92EAA2029F0892F0E9439168E2DCB
:104870004DCF8E2D0E942A0B8F2D0E94F415D6CD80
:10488000A2EFA81570F0B0EF8B16D1F0E1EF8E1605
:1048900091F0AA2009F457C09110D5CE8F2D8F71B9
:1048A000B4CEF3EF8F1619F124EF8212F2CF80917C
:1048B0009D0282FF28C08F2D8F71AA20F1F2A5CE14
:1048C000AA2081F034E0391508F4B0CD2F2D2F71D6
:1048D00081E090E001C0880F2A95EAF79091E1030A
:1048E0008927B2CF85E0891508F4A0CDEFCF80E00D
:1048F000AA2009F4A9CF9F2D9F7181E001C0880FE4
:104900009A95EAF7A1CFAA2099F09F2D9F71F92ED1
:10491000892F0E94391680919D0282FD07C0A8E070
:10492000FA9EC00111248360809323028F2D6DCEE7
:1049300081E00E940016B1E0B91508F077CD82E061
:104940000E94001673CD992079F0893341F4EFEF7E
:10495000F7EE23E0E150F0402040E1F70BCF8FE18C
:104960009EE40197F1F706CF8F2D8F7186CFF0E18E
:10497000EF16FFE5FF0609F407CC21E1E2162FE56B
:10498000F20609F40BCCF092FB03E092FA03D80193
:104990008D919C9111979093FD038093FC03970157
:1049A0002F5A3D452330310508F0FFCB86E0EAEF72
:1049B000F2E0DE011D9601900D928A95E1F786E006
:1049C000FE013D96DE01179601900D928A95E1F762
:1049D000FE8481E090E001C0880F2A95EAF7F80193
:1049E0002281222309F4DCCBF82A83E08093F902A8
:1049F000F88686E0FE013796DE01119601900D9251
:104A00008A95E1F7FA8286E0FE013196AAEFB2E0DC
:104A100001900D928A95E1F70E9474109CCA30E1D2
:104A2000E3163FE5F30609F4B5CB81E1E8168FE51F
:104A3000F80609F0A8CF82E0AECB85E0F801DE01F0
:104A4000119601900D928A95E1F7D80112962C915A
:104A500089819A8121115ACA0E94C90AF82E5ECA18
:104A60001F93CF93DF938091F001807FA9F4809111
:104A7000ED01882389F080912202D091F1016091AB
:104A8000EB017091EC01A091EE01B091EF01C62F06
:104A9000C72316E0D81304C0DF91CF911F9108956A
:104AA00090E0109711F0CF3F19F401968770F2CF84
:104AB000189F9001199F300D1124F901EE50FE4FFF
:104AC00041814713F2CF40814613EFCF428141111C
:104AD000ECCF438154814A1B5B0B483C510528F7BE
:104AE0008091F0018F7080618093F001F901E950AD
:104AF000FE4F80818F70806180838BEE91E00E94F9
:104B0000461FDF91CF911F910C94BF0AAF92BF92C5
:104B1000CF92DF92EF92FF920F931F93CF93DF9389
:104B2000CDB7DEB72B970FB6F894DEBF0FBECDBF63
:104B30008C0185E0F801DE01179601900D928A95AF
:104B4000E1F7F801E2808BEEA82E81E0B82E6091AB
:104B5000EE017091EF016115710509F41AC1909190
:104B6000EB014091EC01842F89238F3F09F411C19F
:104B700020813181C380D480F090ED01F601E61BE5
:104B8000F70BFF2009F4D0C08091F001582F507F1F
:104B9000E83CF10508F0ABC0511177C0FE2C43137F
:104BA00021C092131FC0E1101DC08F7080618093DF
:104BB000F001C5010E94461F8091F001F801858334
:104BC0008F2D2B960FB6F894DEBF0FBECDBFDF91B1
:104BD000CF911F910F91FF90EF90DF90CF90BF90FA
:104BE000AF900895CD2829F0822F83238F3F09F0BD
:104BF000EBC080E0F82FF170DF2EE09122024091AF
:104C0000F10156E080FD1CC0EE20D1F28091F00150
:104C100081608093F001F12CD3CF8E2F90E05E9FC6
:104C2000F0011124EE50FE4F6181361306C0608101
:104C3000261303C06281E612E7CFFC013196E770CC
:104C4000E413EBCF2F8338878F8198850E94D5138B
:104C5000292F22952F70903260F0225F2F70223022
:104C600078F49F7051F0F8019581907F31F4D12C48
:104C70000AC09F7011F08823D1F3805E8830B8F3AA
:104C8000C8010E94461FFD2C9BCF431306C0921300
:104C900004C0F801EE2009F461C0C8010E94E313CA
:104CA000882309F1EE20F9F08091F001803270F054
:104CB0002091EB013091EC013A8329831B82DD8244
:104CC000CC828E83CE0101960E94461F86E0F801B9
:104CD000ABEEB1E001900D928A95E1F70E9430258C
:104CE000FF24F3946DCFC8010E94461FF9CF5111E4
:104CF0000AC08BEE91E00E94461F86E0F5011192FA
:104D00008A95E9F788CF4313C8CF9213C6CFE11035
:104D1000C4CFF8018583C8010E94461F86E0F501D3
:104D200011928A95E9F74CCFE83CF105B8F7FE2CD3
:104D3000EE20C9F243131FC092131DC08091F001F1
:104D400080FD10C0982F907F69F0F8018583903F17
:104D500031F0982F907F905F8F70892B8583C801E9
:104D60000E94461F86E0F801ABEEB1E001900D9283
:104D70008A95E1F725CFC8010E94E3138111A6CFE0
:104D80008091F00181608093F001C8010E94461F6C
:104D900017CFEE2009F4A7CFC8010E94E313F82E25
:104DA000882309F4A0CF86E0F801ABEEB1E00190D2
:104DB0000D928A95E1F78091EB019091EC010E94B0
:104DC000D5130E943025FCCE81E08E2513CF1F9392
:104DD000CF93DF93CDB7DEB767970FB6F894DEBFFA
:104DE0000FBECDBF4B8B5C8B6D8B7E8B8F8B611120
:104DF000109225021A8A2C898E899F893B893D87CA
:104E00002E876F87998B888B86E0FE013D96DE01A9
:104E1000179601900D928A95E1F7CE0107960E94B0
:104E20008625882389F016E0809122029091F10175
:104E3000891351C067960FB6F894DEBF0FBECDBF81
:104E4000DF91CF911F91089586E0FE013796DE0134
:104E5000119601900D928A95E1F74A855B8541157F
:104E6000510509F37F816885862F87238F3FD9F20B
:104E70002091F10130E0C901019687709927E091F6
:104E80002202E817190681F41092CA030E94DF0C6F
:104E90001092F1011092220286E0EBEEF1E0DF01C8
:104EA0001D928A95E9F7BFCF79836A835D834C832E
:104EB00096E0929FD001939FB00D1124AE50BE4F4B
:104EC000FE01319601900D929A95E1F78093F101E0
:104ED0000E94BF0AA8CF819FC00111248E509E4F0F
:104EE0000E948625882309F4A5CF8091220290E0B4
:104EF0000196877099278093220296CF1F921FB642
:104F00001F9211248F939F93AF93BF938091C403FB
:104F1000811113C08091C5039091C603A091C7036E
:104F2000B091C8034196A11DB11D8093C503909314
:104F3000C603A093C703B093C803BF91AF919F91DD
:104F40008F911F901FBE1F901895CDB7DEB7AA97FF
:104F50000FB6F894DEBF0FBECDBF84B7877F84BF86
:104F60000FB6F894A89580916000886180936000E6
:104F7000109260000FBE80E890E00FB6F894809326
:104F80006100909361000FBE85B7806885BF85B7CB
:104F9000806885BF8DE898E09093C1018093C0013F
:104FA0000E9487060E9452078091E20084608093ED
:104FB000E20078948091D7038823A1F01091E90052
:104FC0001F709091EC00892F817090FD80E8182B64
:104FD0001092E9008091E80083FD0E94EC0C1F70A4
:104FE0001093E90082E084BD93E095BD9AEF97BDF0
:104FF00080936E00109298021092990210929A0279
:1050000010929B020E941314811102C00E9464132B
:105010000E948D128093000180910001882309F481
:1050200072C0109284018EE1809385010E94591212
:1050300081110E94AC31809100018091000194E0C7
:10504000811190E09093A70284E0891B8093A602CF
:1050500084EF0E94B30885EF0E94B30886EF0E9498
:10506000B30887EF0E94B30808E911E08EE9E82E43
:1050700081E0F82ED8018D918D018F3F11F00E94B3
:10508000B308E016F106B1F788E0ECEDF2E0DF01DD
:10509000882E1D928A94E9F7EEE9F2E0DF011D9275
:1050A0008A95E9F70E948F19811102C00E94FE16AD
:1050B00082E090E00E94EA338093D30284E090E0A3
:1050C0000E94EA33182F82E290E00E94EA33982F80
:1050D000812F90939D0280939C020E94981CEFE385
:1050E000FCE93197F1F700C000000E94981C809104
:1050F000DC0280FF0CC06FEF7FEF90E080E00E9449
:105100001C340E9413088EE1809384018DCF83E0CC
:1051100090E00E94EA330E94220B8091E1030E94FA
:1051200094150E945912811102C00E94AF310E9451
:105130005912882309F464C280E08093CE0280E88B
:10514000809304040E943A306DE070E08AE192E0BE
:105150000E94DC10892B09F043C08091CE0263E0ED
:1051600070E081FD4FC287E192E00E94DC10892B44
:10517000B9F56DE070E087E092E00E94DC10892BC9
:1051800079F50E94240869A37AA38BA39CA3DC0170
:10519000CB01805A9541AF4FBF4F8093BC03909392
:1051A000BD03A093BE03B093BF03E7E0F4E080E04B
:1051B00092E0DF018C011D9201501040E1F7F09365
:1051C0000E06E0930D068FEF9FEF909306048093F9
:1051D000050481E08093C1038093C0031092CF0245
:1051E0008091A802811136C00E948F19811104C0DC
:1051F0000E94FE160E94D41688E090E00E94F233CE
:105200006093B7037093B8038093B9039093BA0384
:10521000809102038360809302036E7F71F40E9489
:10522000D41688E090E00E94F2336093B703709345
:10523000B8038093B9039093BA030E9463088091E6
:10524000B70380FF04C060E086950E948A1681E063
:105250008093A8020E94F41A0E94591281112EC054
:1052600086EC92E190935A018093590124E130E059
:10527000309355012093540184E390E090935801BA
:105280008093570149E758E05093640140936301CC
:1052900030935F0120935E019093620180936101DE
:1052A00044EC5AE150936E0140936D0130936901D3
:1052B0002093680190936C0180936B010E948F1979
:1052C000882389F08FE090E00E94F2338B01862FD3
:1052D0008F770E94A81A001F0027001F1370110F5C
:1052E000102B1093F4030E94A0128FE691E090938C
:1052F000C3038093C203BAE0CB2ED12CE12CF12C56
:105300008091D70312E1853009F4BEC10E94981C38
:10531000B82E81110E942408ACED2A2EA2E03A2E6C
:1053200066EA71E07EA36DA344ED52E0DB019101DA
:1053300010E000E0702EF901A1909F018D91A8224C
:10534000FA018191AF018A1509F4AFC18A25812C38
:1053500099249394982F992109F4A2C10E9459127B
:10536000882399F089827A82A92081E009F480E07B
:105370008B830E948C1C8160782F9D838C83498154
:105380005A816B818D810E94E726F801EC52FD4F16
:105390008081982690828091C1038823A1F1809119
:1053A000D0029091D1020E947D1CC29708F094C156
:1053B00020910504309106042115310509F0AFC292
:1053C0008091C0038823F9F00E94240869A37AA37E
:1053D0008BA39CA38091BC039091BD03A091BE03BD
:1053E000B091BF0309A11AA12BA13CA1081B190B65
:1053F0002A0B3B0BD901C8018F3F9F4FAF4FBF47CF
:1054000010F40E940C11B1100E9427110E946E1E10
:105410000E947D129091D202891721F00E947D1284
:105420008093D2028091D703843009F44BC30E9449
:105430005912882309F464CF0E942408462F572F5D
:10544000BC018091EA02811176C08091E6029091C0
:10545000E702A091E802B091E9024A015B01881AD3
:10546000990AAA0ABB0AD501C401843F9140A1054B
:10547000B10508F460C04093E6025093E7026093E0
:10548000E8027093E9028091E4029091E5020196AE
:105490009093E5028093E40219828E010F5F1F4F03
:1054A00021E050E040E060E088E00E94C0178111F8
:1054B00006C08091E4029091E5020A97E4F181E050
:1054C0008093EA028093E3039981911101C080E007
:1054D0008093E4038091E20310E0882329F00E9486
:1054E0008D1211E0811112E08091E403882309F408
:1054F000BDC40E948D128111BBC482E0182B86E2CC
:1055000090E00E94EA3390E0B0E0A0E0AC01BD0181
:105510004C7F4A015B01812A89A29AA2ABA2BCA25C
:1055200088169906AA06BB0621F0CB01B4010E9499
:1055300048130E94A0128091E403882309F4E0CE6E
:105540000E9424084B015C018091EB029091EC02D7
:10555000A091ED02B091EE0295018401081B190B98
:105560002A0B3B0BD901C8010497A105B10580F1B5
:1055700019821A821B821C828E010F5F1F4F24E04A
:1055800050E040E060E089E00E94C0178823C1F04D
:1055900069817A818091E9039091EA030E94CC0CA1
:1055A0009093EA038093E9036B817C818091EB0304
:1055B0009091EC030E94CC0C9093EC038093EB034E
:1055C0008092EB029092EC02A092ED02B092EE0279
:1055D0008091EE03882309F493CE8091ED038983B3
:1055E00010E000E020E0AE014F5F5F4F61E08AE035
:1055F0000E94C017882309F483CE1092EE0380CE58
:1056000082E09BCD84E192E0B0CD8091D7038430DD
:1056100041F10E940C110E946E1E1092C40328E1F9
:1056200030E040E40FB6F894A895209360000FBED8
:105630004093600083B7817F846083BF83B78160BC
:1056400083BF7894889583B78E7F83BF0FB6F89415
:10565000A89580916000886180936000109260003E
:105660000FBE8091D603882379F00E94981CECED40
:10567000F2E0A6EAB1E081919D91892309F0FAC395
:1056800052E0E43EF507B9F78091D703853009F47D
:10569000BCCF1092CA030E94DF0C0E947D1236CE4E
:1056A0008394990CF6E08F1255CE0F5F1F4F083090
:1056B000110509F03FCE8FEF89838A831B820E94F8
:1056C0008C1C8160782F9D838C8349815A816B81EA
:1056D0008D810E94E7265FCE0E948C1C9093D102A0
:1056E0008093D002F7E08F2EF4E09F2E90920E066A
:1056F00080920D060E945912882309F40BC1109163
:10570000FA03012F87E692E00E9434108091FD0396
:105710008F708A3008F0EEC0805D0E94B30F83E680
:1057200092E00E9434108091FC038F708A3008F060
:10573000E3C0805D0E94B30F002309F4E3C080E65C
:1057400092E00E943410812F82958F70103A08F0F9
:10575000D5C0805D0E94B30F812F8F708A3008F012
:10576000CFC0805D0E94B30F8CEF810F853308F0AE
:10577000C9C08CE592E00E943410212F2450330BD5
:10578000F901E95DFD4F84910E94B30F83E892E037
:105790000E943410809100040E94A70C0E94C41043
:1057A000809101040E94A70C0E94C4108091030400
:1057B0000E94A70C0E94C410809102040E94A70CB2
:1057C0000E94C4108AE792E00E9434108091ED0399
:1057D000811101C087E00E94A70C01960E94C410AD
:1057E00084E792E00E9434108091EF0381118EC013
:1057F00080E30E94B30F80E792E00E943410809112
:10580000F403811101C084E0805D0E94B30F89E838
:1058100092E00E9434108091E1030E94CB0B9091A2
:105820007B01891305C09091AD02903209F458C0F4
:1058300080937B0190E29093AD02482F50E070E09E
:1058400060E049A35AA36BA37CA31092AC02CB01E6
:10585000BA01A70196010E949C33605D603349F054
:1058600089A19AA1ABA1BCA1892B8A2B8B2B09F40E
:1058700060E26093AB0269A17AA18BA19CA1A70110
:1058800096010E949C332FA338A749A75AA709A1C4
:105890001AA12BA13CA160E20A30110521053105B6
:1058A00048F06FA178A589A59AA5A70196010E9445
:1058B0009C33605D6093AA0229A13AA14BA15CA12F
:1058C000243631054105510518F16FA178A589A548
:1058D0009AA5A70196010E949C33205D2093A902FE
:1058E00089EA92E00E94C4108091C103882309F4E0
:1058F00067CD5ECD895A11CF895A1CCF895A2ACFDC
:10590000895A30CF81E00E94421040CF81E371CFAD
:1059100020E2E4CF80E992E00E943410E5CF80914C
:10592000CF0261E070E081114BCD082F10E02B0118
:10593000082E02C0440C551C0A94E2F7A901442128
:105940005521452B09F448C09091CE0290FD46C0E8
:105950008295880F807680937E01980136952795F1
:105960003695279520938101815E80937F01109267
:10597000820124E630E047E050E06CE771E088E720
:105980000E94E930892B09F01BCDA80175E0440F76
:10599000551F7A95E1F78091CE0280FD2DC0495FB9
:1059A0005B4F04E610E020E230E060E488E70E940C
:1059B0001631892B09F004CD0E942711C201809570
:1059C0009095409005045090060448225922509228
:1059D000060440920504F4CC8F5FA7CF880F880F90
:1059E000880F80937E0110928101895F80937F01EF
:1059F00083E080938201BDCFEEEAF2E080E2DF0136
:105A00001D928A95E9F7E2EAF1E0F8A7EFA38EE9A3
:105A100091E0EFA1F8A5A191F8A7EFA3FC012191D6
:105A2000CF01240F352F311D8901095F1B4F1AA3A8
:105A300009A3EA2FF0E0E255FD4F30E020E067E0F7
:105A4000662E621AAA24A394022E01C0AA0C0A94FC
:105A5000EAF789A09AA000E0D4011D914D011A2116
:105A6000662D601B6770762E062E000C770BB12F0B
:105A700001C0BB0F7A94EAF77B2E7195619571098D
:105A80006770772701C016956A95EAF7712A108129
:105A9000712A70820F5F0830F9F62F5F3F4F319601
:105AA0002830310561F6E6EAF1E08FA098A4E81508
:105AB000F90509F0AECF04E610E020E230E04EEA4E
:105AC00052E073CF83E08093E9008091E80082FF89
:105AD000AECC8091E80090E085FF0BC00E94A60646
