:100000000C943F0D0C94860D0C94860D0C9493204B
:100010000C94860D0C94860D0C94860D0C94860D14
:100020000C94860D0C94860D0C9420320C94F232B4
:100030000C94352D0C94860D0C94860D0C94860D25
:100040000C94860D0C94860D0C94860D0C94860DE4
:100050000C94860D0C948E2D0C94860D0C94860DAC
:100060000C94860D0C94860D0C94860D0C94860DC4
:100070000C94860D0C94860D0C94860D0C94860DB4
:100080000C94860D0C94860D0C94860D0C94860DA4
:100090000C94860D0C94860D0C94860D0C94860D94
:1000A0000C94860D0C94860D0C94860D141917195A
:1000B0001C19231928192D19321937193C194119FE
:1000C00046194B194E194E194E194E194E194E1903
:1000D0004E194E19E423E423162416246C256C25AE
:1000E0006C256C256324FC240D250D250026002697
:1000F000122612260926122612261226002600266D
:100100000E26122612260E265F3386337E34863361
:100110007E34D233F5337E344C345B3401048E9616
:100120006E773EFE7E5F1DB8F2664EFF5D19B0C26F
:100130000469542AD62EBFDD19B0C3E529B1E023E6
:10014000A5A9B1C10082674C1A978D795120C706C5
:100150008E7C7C7A764FFD5930E2460E9EBEDF1DC6
:100160009991A0A5A1A9D022C6EF5C1B958990A268
:10017000A7CCFB5528B3E44AF76C3BF46A562EDE55
:100180001F9DB8D3058892A6CE1EBEDF1D99B0E292
:1001900046EF5C07115D980B9D9497EE4E45336BCF
:1001A00044C729562730C6A7D5F256DFB43862CBEC
:1001B000A0B6E30F84062405656F7689B5774127DD
:1001C00082666582CCD5E620D52717C5F803237C47
:1001D0005F64A51DC1D636CB4CD4DB66D78BB199F5
:1001E0007E6F4C364006D6EBD7A2E4F495515A54B4
:1001F00096D55344D78CE0B94068D218E9DD9A23EC
:100200009248EE7F43AFEA7738848C0A72AF69F880
:10021000DDF12483A3F84ABFF59413DBBBD8B4B354
:10022000A0FB4550603059123171A2D313E7FAE7B1
:10023000CE0F63150B6B94BB378326059DFB46924F
:10024000FC0A15D10D7392D68C1B8CB8558ACEBD85
:10025000FE8EFCED0912839182513123FBB40C76A2
:10026000AD7CD9B44BB26714099C7F0C18BA3BD64D
:100270008E142AE41B529F2B7DE1FB6A3302FAACF9
:100280005AF23E887EAED1F378E805D1E3DC21F660
:10029000E19ABD170ED9469B8803EAF666BE0E1B8F
:1002A0005049964097F1F1E480A66EE87734BF2973
:1002B0004044C2FF4E98D39CA3322B76510409E7E9
:1002C000A9D1A632B12353E247ABD6F5695C3E5FB4
:1002D000FAAE4520E5D244FF39326DFD27575CFD6B
:1002E000F0DEC1B599E5F51C770175C56D5892F240
:1002F000B247000126967A30FFB7F0EF77C18A5DEA
:10030000DCC0D129301E77387A94F1B87A7EEFA418
:10031000D1AC314AF25D643DB2E2F00899FC70EE76
:1003200024A77EEE1E20697D44BF8742DF883B0CF8
:10033000DA42C904F94550FC838F116A72BC999561
:10034000F0AC3DA73BCD1CE2887937115F39899528
:100350000A16847AF68AA428E4ED83803BB123A5AB
:100360000310F466EABB0C0FC5EC6C69C5D324AB73
:10037000D42AB799887608A0A8957CD8386DCD592D
:1003800002514BF1B52B50E3B6BDD072CF9EFD6E3E
:10039000BB44C8248A77188A1306EF977DFA81F048
:1003A00031E6FA77ED3106315B548A9F3068DBE243
:1003B00040F84E73FAAB748B105813DCD2E678D148
:1003C000322E8A9F2C58064827C5A95E8147894648
:1003D00021910370A43E889CDA330ACEBC8B8ECF69
:1003E0009FD3718043CF6BA95183763082C56A85D4
:1003F0003911501A82DC1E1CD57DA9719933471919
:1004000097B35AB1DFEDA4F2E62684A2289A9EDFC4
:10041000A66AF4D6FC2E5B9D1A2A2768FBC18321AD
:100420004B90E036DD5B314255A013F7D089537114
:1004300099570929C5F321F8372F40F3D4AF16088F
:100440003602FC77C58B049056B9C9679A99E800C3
:10045000D386FF972D08E9B7B391BCDF45C6ED0FF2
:100460008C4C1EE65B6E3830E4AAE395DEB9E49A64
:10047000F5B2559A879BF66AB2F2779A31F47A31DF
:10048000D11D04C07C32A29E9AF562F8278DBF511F
:10049000FFD3DF64373F2A6F763A7D77069E777FFA
:1004A0005EEB3251F916669A09F3B008A4709646CD
:1004B00030FFDA4FE91BED8DF8741F3192B37317DB
:1004C00036DB9130D688556B3477877AE7EE06C6EF
:1004D0001C8C190C4846235E9C075CBFB47ED64F2B
:1004E000749CE2C5508BC58B159060625729D01360
:1004F00043A18088910044C74D1986CC2F2A755A94
:10050000FCEB972A70E378D891B04F9907A395EA4E
:100510002421D5DE512093270A3073A8FF8A97E95A
:10052000A76A8E0DE8F0DFECEAB46C1D392A622D63
:100530003D5A8B65F890052E7E912C78EF8E7AC10E
:100540002FAC78EEAF2845064C26AF3BA2DBA39339
:1005500006B53CA5D8EE8FAF25CC3F856848A9628B
:10056000CC978F7F2AEAE0150AAD6207BD45F841B6
:10057000D836CB4CDB6EE63AE7DA15E9291E1210C5
:10058000A0142C0E3DF4BF394192750B257BA3CEF0
:10059000399C1564C8FA3DEF7327FE262ECEDA6E1D
:1005A000FD718EDDFE76EEDC125C02C53A4E4E4FDA
:1005B000BFCA4015C76E8D41F110E04F7E977F1C7A
:1005C000AE478E6BB12531B073C71B9779F980D3D5
:1005D00066223007741EE4D08021D6EE6B6C4FBFCC
:1005E000F5B7D909872FA914BE27D9725001D413A2
:1005F00073A6A751027525E1B345347DA88EEBF3B0
:100600001649CB4F8CA1B9368539755D0800AEEB24
:10061000F6EAD7133A215A5F3084522695C914F26C
:1006200057556BB110C2E1BD3B51C0B7554C71126B
:1006300026C70DF951A43802057FB8F1724BBF717E
:100640008914F37738D97124F30011A1D8D469271C
:10065000083735C9119D901C0EE71CFF2D1EE8922E
:10066000E11810957CE080F4964321F975216438F7
:10067000DD9F1E9516DA561D4F9A53B2E2E418CB51
:100680006B1A65EB56C63BE5FED8263F3A84597295
:1006900066A2F375FFFB60B322AD3F2D6BF9EBEA69
:1006A000057CD88F6D2C989E2B93F15E46F0874980
:1006B000297368D77FF9F0E57DDB1D7519F3C45800
:1006C0009B1788A892E0BEBD8B1D8D9F5676ADAF5F
:1006D00029E2D9D552F6B55635573AC8E1564319ED
:1006E00094D3049B6D35D80B5F4D198EECFA649151
:1006F0000A72202BBC1A4AFE8BFDBBED1B23EAAD10
:100700007282A1299971BDF095C103DD7BC2B23C13
:100710002854D368A472C86696E0D1D87FF8D12651
:100720002BF7ADBA55CA15B932C3E588978E5CFB75
:1007300092258BBFA245557AA76F8B575BCF0ECB07
:100740001DFB208277A88CCC16CE1DFADECC0B6266
:10075000FECCE1B7F0C381647340A0C24D8911752E
:100760003355338DE84AFDEA6E300BD7312CDE4726
:10077000E3BFF85542E27F59E517EF99346991B12B
:10078000238E20872DA8FED58AF3843AF037E4091A
:100790000054EE674993E48170E3904DEFFE41B75A
:1007A000997BC183BA62126F7DDE6BAFDA16F955A1
:1007B00051EEA60C2B02A3FD8DFB3017E46FDF3644
:1007C00071C4CA872548B047ECEAB4BFA54D9B9FCA
:1007D0000293C4E3E4E8422D6881150AEB845BD6FA
:1007E000A874FB7D1DCB2CDA462A7662CEBC5C9EBB
:1007F0008BE7CFBE78F57CEBB33A9CAA6FCC72D175
:1008000059F21123D63F48D1B7CEB0BFCBEA80DE34
:1008100057D45E972F75D1508E802C6679BF724B5E
:10082000BD8A816CD3E101DCD21526C536DA2C1ADB
:10083000C02794EDB79B850B5E8097C5EC4FEC8885
:100840005D50073547DC0B3B3DDD60AFA85D81386F
:1008500024255D5C15D1DEB3ABEC0569EF83ED5764
:1008600054B8646411163269DA9F2D7F36BB445A3E
:1008700034E87FBF03EB007F59682279CF736C2C7B
:1008800029A7A15F38A11DF02053E01A6314587105
:1008900010AA080C3E161A6022827FBAA443A0D088
:1008A000AC1BD56B64B51493319E5350D05766EE94
:1008B0005A4FFB032A695876F183F74EBA8C4206E9
:1008C000605D6DCE6088AEA4C3F103A54B98A1FF17
:1008D00067E1ACA2B862D76FA031B4D277AF211074
:1008E00006C69AFF1D09170E5FF1AA54344B458ABC
:1008F0008763A6DCF9243067C6B2D6613369EE504F
:10090000615728E77EEEEC3A5A734EA88DE418EA58
:10091000EC4164C8E2E866B62DB6FB6A6C16B3DD3E
:100920004643B973006A71ED4E9D251AC33C4A9542
:10093000159935811402D6989BECD8233B8429AFB6
:100940000C9983A69A344FFAE8D03C4BD0FBB6689A
:10095000B89E8FCDF7602D7A22E57DAB651B95A7FC
:10096000A87FB677477B5F8B1272D0D491EFDE19E8
:10097000503CA78BC4A9B323CB76E681F0C1048F8A
:10098000A3B8545B97AC19FF3F55272FE01D429B3E
:1009900057FC4B4E0FCE98A9435703BDE7C894DFD1
:1009A0006E367332B4EF2E857A6EFC6C1882753514
:1009B0009007F3E49F3EDC68F3B5F3198092069943
:1009C000A2E86FFF2E7FAE42A45FFBD40E812BC343
:1009D00004FF2BB3744E365B9C1500C6472BE88B87
:1009E0003DF19C039A587F9B9CBF854979352E56D3
:1009F0007B411439478326AA078998111B86E77320
:100A00007AD87D786153E979F5368D449284F9136B
:100A100050583BA46A3665498E3C0EF16FD284C4AF
:100A20007E8E3F39AE7C84F163378E3CCC3E448170
:100A300045F14BB9ED6B365DBB20601A0FA3AA558B
:100A4000773AA9AE374DBAB8866BBC0850F6CCA43D
:100A5000BD1D4072A586FAE210AE3D584B97F34398
:100A600074A99EEB21B701A4869397EE2F4F3B8686
:100A7000A1416F412690785C7F30384B3FAAECED66
:100A80005C6F0EAD4387FD9335E601EF41269099EB
:100A90009EFB195BADD2918AE046AF65FA4F84C1E7
:100AA000A12DCF458BD38550557CF96788D44EE96D
:100AB000D76B6154A1A4A6A2C2BF309C409F5FD750
:100AC000692B24825ED9D6A712541AF7559F765007
:100AD000A99584E66B6DB59654D6CDB3A19B46A778
:100AE000944DC494B498E3E1E234D533160754CD61
:100AF000B77753DB4F4D469DE9D49C8A36B6B8385C
:100B0000266C0EFF9C1B438B80CCB93DDAC7F18A63
:100B1000F26DB8D7742F7E1EB7D34AB4ACFC7948B7
:100B20006CBC96B69446572DB0A3FC1EB952608596
:100B30002D41D043011E1CD57DFCF3960DC7CB2A59
:100B4000299A93DD882D375DAAFB4968A09C5086C1
:100B50007F685657F9791839D4E001843361CAA502
:100B6000D2D6E4C98A4A23444EBCF0DC24A1A0C4F6
:100B7000E2073C10C4B5254B6563F480E7CF61B153
:100B8000718221872CF59100320CECA9B59A7485FD
:100B9000E3368F764F9C6DCEBCAD0A4BED7604CB21
:100BA000C3B9339E019396697DC5A245799B045CC8
:100BB0008409ED8843C7AB931426A140B5CE4EBF40
:100BC0002A42853E2C3B54E8121F0E9759B22789C2
:100BD000FAF2DF8E6859DC06BCB6850D0622ECB150
:100BE000CBE504E63DB3B04173083F3C588663EB68
:100BF00050EE1D2C3774A9D318A3476E9354AD0A39
:100C00005DB82A555D78F6EEBE8E3C7669B940C275
:100C100034EC2AB9ED7E20E48D0038C7E68F44A875
:100C200086CEEB2AE990F14CDF32FB731B6D921EEE
:100C300095FEB4DB65DF4D23548948BF4A2E70D63C
:100C4000D762B43329B13A334C236DA676A521631C
:100C500048E6905DED90950B7A84BEB80D5E630C0E
:100C600062264C145AB3AC23A474A76F33300560CA
:100C70000142A028B7EE1938F164808243E1412790
:100C80001F1F90547AD5232ED13DCB28BA587FDC34
:100C90007C9124E92851836EC5562142EDA056224D
:100CA000A140806BA8F794CA136B0C39D9FDE9F306
:100CB0006FA69EFC708AB3BC593C1E1D6CF97CAFBC
:100CC000F9887195EB5700BD9F8C4FE12483C522B5
:100CD000EAFDD30CE217187C6A4CDE77B4539B4CC8
:100CE00081CD2360AA0E25739C02793230DF74DF38
:100CF0007519F4A5145CF77AA8A591847C600306A5
:100D00003BCD50B6279CFEB1DDCCD3B05924B2CA3E
:100D1000E21C81229D078F8EB9BE4EFAFC3965BA5E
:100D2000BF9D12375E977EF389F55DF5E3098C620E
:100D3000B5209D0C538A681BD28F75175DD4E5DAF8
:100D4000756219146A262DEBF8AF37F06CA455B113
:100D5000BCE233C09ACAB011494F689B3B6B3CCC94
:100D600013F6C785616842AEBBDDCD4516291DEA85
:100D7000DBC803943CEE4F8211C3EC28BD97059964
:100D8000DED7BB5E221FD4EB64D992D985B76A0542
:100D90006AE42441F1CDF0D83FF89E0ECD0B7A7075
:100DA0006B5A750A6A3388EC17750870102F24CFB8
:100DB000C4E942006194CA1F3A7606FAD24881F02B
:100DC00077600345D961F4A46F3DD930C3046B54F7
:100DD0002AB7EC3BF44BF5685226CEFF5D1991A083
:100DE000A3A5A9B1E023C40A774DF95120A3A5A971
:100DF000B1C10082868E7F5D1991A0A3C4EB540B14
:100E0000756852078C9A978D79706246EF5C1B95D6
:100E1000897141E121A1A1A1C002674C1AB6CFFDA1
:100E2000785324ABB5C9F16023A5C812876D581358
:100E3000858892876D5832C70C9A97ACDA36EE5E89
:100E40003EDF1DB8F2662FBDF87247ED5813858856
:100E500092878C7B550990A2C6EF3DF85324ABD402
:100E60002AB7EC5A36EE5E3EDF3CFA764FFD59303B
:100E7000E246EF3DF853056931C10082868E7F5D01
:100E800019B0E227CCFB744B148B948B756833C577
:100E90000892878C9AB6CF1CBAD70D98B2E62FDC91
:100EA0001B9589716023C40A968F9CBAF66E3FFC2D
:100EB0005B15A8D226AFBDF872662FDC1BB4CB142D
:100EC0008B94AAB7CDF951018082866F3DD930E26B
:100ED00027CCFB744B14AAB7CDF97043046B35C90A
:100EE000F16023A5C8F3450892876D5832E62FBDFF
:100EF000F872664E1EBEFE7E7E7E5F1D9991A0A397
:100F0000C40A774D1893A4ABD40B754910A2C6EF51
:100F10003DF85324ABB5E833E44A16AEDE1FBCDB24
:100F200015A8B3C5087345E931C1E121A1A1A1C04C
:100F300002866F5C3AD70D9893A4CA16AEDE1F9D49
:100F400099B0E246EF3DF872470C9AB6CFFD5911C1
:100F5000A0A3A5C8F3450892876D39F043048A968B
:100F6000AEDE3EDF1D9991A0C2066F3DF872470CC0
:100F70009A978D989385887345E931E023A5A9D088
:100F800003848A96AEDE1FBCDB15A8D226CEFF5D99
:100F90001991818082672DD813A4ABD40B94AAB782
:100FA000CDF95120A3A5C8F345E95022C6EF5C3A1C
:100FB000D70D9893858873644AF74DF95120A3C4DF
:100FC0000A96AEDE3EFE7E7E7E5F3CFA764FFD7870
:100FD00072662FBDD930C3E54812878C7B5528D265
:100FE000078C9A97ACDA178D795120A3C4EB540B78
:100FF000948B94AAD62EBFFC5B15A8D226AFDC1B1F
:10100000B4EA37EC3BF46A37CD1893856931C1E116
:1010100040E325C812878C9AB6CFFD5911A0C206AD
:101020008E7F5D38F2470C7B746A37EC5A36EE3FA0
:10103000FC7A764F1C9B95897141006344EB542ADE
:10104000D60F9CBAD70D9893856931C10082868EE0
:101050009EBEDF3CFA572CDA36EE3FFC5B158971F9
:10106000410082868E7F5D38F247ED5813A4CAF79F
:101070004DF95101806344EB542AD62EBFDD1991FE
:10108000A0A3A5A9B1E042068E7F5D1991A0A3C4DB
:101090000A968F7D7872470C7B746A562EDE1FBCD1
:1010A000FA570D7951016121A1C0E325A9B1C1E130
:1010B0004002674C1A978D9893A4ABD42AD60F9C04
:1010C0009BB4CB14AAB7CDF95120A3C4EB35C9F119
:1010D0006042068E7F7C7A766E3FFC7A766E5E3E4C
:1010E000FE7E5F3CDB15897141E121C0E344EB5496
:1010F0002AB7CDF9706227ADD832C70C7B744B1478
:10110000AAB7EC3BD528D2076D39D120C2E74C1ADB
:10111000978D98B2C70C5928F39B80818283848570
:10112000868788898A8B8C8D8E8F9091929394A0DC
:10113000A1A2A3A4A5A6A7A8A9AAABACADAEAFB027
:10114000B1B2B3B4C0C1C2C3C4C5C6C7C8C9CACB93
:10115000CCCDCECFD0D1D2D3D4004C617965723A08
:1011600020556E646566696E6564004C61796572D0
:101170003A2041646A757374004C617965723A2053
:101180004C6F776572004C617965723A20526169E3
:101190007365004C617965723A2044656661756CCF
:1011A000740014001A000800150017002F00040036
:1011B0001600070009000A0030001D001B00060091
:1011C000190005002D5DE00039642A682C41916208
:1011D00090432900130012000C0018001C0033007B
:1011E0002D000F000E000D000B00310038003700FD
:1011F00036001000110046002B001E024C682842E9
:101200002C5D31002400250026002E02010025025D
:101210002100220023003700010038001E001F00BB
:1012200020002E002E5D01002700280001002C0068
:1012300001000100010001004B000100010001005C
:101240002E5D2D5D4E002C5D0100010001000100AE
:1012500001000100010001000100010001002A431A
:101260002D5D3A003B003C003D003E00260220027E
:101270001E02240231021F0227023500340234000C
:10128000230235022E5D0100010001004C430100E4
:101290000100440043004200410040003F0045007F
:1012A00001004F0052005000010001000100010048
:1012B00051000100010001000100010001000100D6
:1012C0002E5D005C00000000000000000000C35C18
:1012D000C65CC85CCA5C00000000C45CC75CC95C3A
:1012E000CB5C0000000000000000000000000000D7
:1012F00000000000000000000000000000000000EE
:1013000000000000000000000000000000000000DD
:1013100000000000000000000000000000000000CD
:1013200000000001010101010101010102020202AC
:10133000020202020203030303030303030404047F
:101340000404040405050505050606060606070748
:1013500007070708080808090909090A0A0A0B0B00
:101360000B0C0C0C0D0D0D0E0E0E0F0F0F1010119F
:101370001111121213131414151516161717181825
:1013800019191A1A1B1B1C1D1D1E1E1F202021228D
:1013900022232424252626272829292A2B2C2D2DD3
:1013A0002E2F30313232333435363738393A3B3CF0
:1013B0003D3E3F404142434445464748494A4C4DE3
:1013C0004E4F50515354555658595A5B5D5E5F61AC
:1013D0006264656668696B6C6D6F7072737577783F
:1013E0007A7B7D7E8082838587888A8C8E8F91939D
:1013F0009596989A9C9EA0A2A3A5A7A9ABADAFB1C4
:10140000B3B5B7BABCBEC0C2C4C6C9CBCDCFD1D4A8
:10141000D6D8DBDDDFE2E4E7E9EBEEF0F3F5F8FA4E
:10142000FDFF00AE00AF00DA0281FFD9F1DB20A49E
:10143000A62EAF00A0C000A1C800AED580A81FD3C3
:1014400000408D1420000000000000003E5B4F5B58
:101450003E003E6B4F6B3E001C3E7C3E1C00183C29
:101460007E3C18001C577D571C001C5E7F5E1C00D4
:1014700000183C180000FFE7C3E7FF00001824181D
:101480000000FFE7DBE7FF0030483A060E002629A0
:1014900079292600407F05050700407F05253F008C
:1014A0005A3CE73C5A007F3E1C1C0800081C1C3EAE
:1014B0007F0014227F2214005F5F005F5F00060937
:1014C0007F017F00006689956A006060606060004F
:1014D00094A2FFA2940008047E04080010207E203D
:1014E000100008082A1C0800081C2A0808001E1002
:1014F000101010000C1E0C1E0C0030383E3830004E
:10150000060E3E0E060000000000000000005F0016
:101510000000000700070000147F147F1400242A35
:101520007F2A1200231308646200364956205000B7
:10153000000807030000001C224100000041221C9B
:1015400000002A1C7F1C2A0008083E0808000080B2
:101550007030000008080808080000006060000003
:101560002010080402003E5149453E0000427F40E1
:1015700000007249494946002141494D3300181481
:10158000127F10002745454539003C4A4949310042
:101590004121110907003649494936004649492980
:1015A0001E0000001400000000403400000000088D
:1015B00014224100141414141400004122140800D1
:1015C0000201590906003E415D594E007C1211127C
:1015D0007C007F49494936003E41414122007F411C
:1015E00041413E007F49494941007F090909010005
:1015F0003E41415173007F0808087F0000417F4150
:1016000000002040413F01007F08142241007F403C
:10161000404040007F021C027F007F0408107F00D2
:101620003E4141413E007F09090906003E415121EA
:101630005E007F0919294600264949493200030105
:101640007F0103003F4040403F001F2040201F001B
:101650003F4038403F0063140814630003047804DB
:1016600003006159494D4300007F4141410002049C
:1016700008102000004141417F00040201020400E3
:1016800040404040400000030708000020545478C8
:1016900040007F28444438003844444428003844FB
:1016A00044287F0038545454180000087E09020072
:1016B0001824241C78007F080404780000447D402E
:1016C00000002040403D00007F1028440000004101
:1016D0007F4000007C04780478007C0804047800D3
:1016E0003844444438007C18242418001824241852
:1016F0007C007C080404080048545454240004046A
:101700003F4424003C4040207C001C2040201C0022
:101710003C4030403C004428102844004C909090BD
:101720007C004464544C4400000836410000000032
:1017300077000000004136080000020102040200A8
:101740003C2623263C0000000000000000000000B2
:101750000000000000000000000000000000C0F0D9
:10176000F88C86C6E7FFFFFFFFFFFFFEFCFCF8E0FA
:1017700080000000F0F0F00000C0E0F070700000A9
:101780000000000000000000000000000000000059
:1017900000000000F8F8F800000000000000000061
:1017A00000000000000000000000F8F8F80000F859
:1017B000F8F8000000000000000000000000000039
:1017C00000000000E0F0F0F0E0ECEEF7F370200035
:1017D0007C7C7C7E007E7E7E7F7F7F000080C0E000
:1017E0007E5B4F5BFEC00000C000DCD7DEDEDED7D4
:1017F000DC00C0000000000000000000000000004D
:1018000000000000000000000000000000000000D8
:101810000000000000000080E07078686C64C7C7BA
:10182000C7C7C7C7E73F1F0F3FFFFFFFFFFFFF3FD0
:101830000F000000FFFFFF1E3FFFF3E1800000F8F4
:10184000FCFE3636363EBCB8000E3EFEF080F0FEA2
:101850003E0E0000FFFFFF060606FEFEFC7000E6DF
:10186000F6F63636FEFEFC000000FFFFFF0000FF2C
:10187000FFFF00000000000000000000000000006A
:10188000000000000F1F3F7F7F7F7F7F3F1E0C0007
:101890001F1F1F3F003F3F3F7F7F7F00307B7F78D0
:1018A00030202030787F3B0003000F7F0F0F0F7F29
:1018B0000F00030000000000000000000000000016
:1018C0000000000000000000000000000000000018
:1018D0000000000000007CFFC3C0C0C0C0C0C0C08A
:1018E000C0C0C0FFFFC06030180F03030301000039
:1018F00000000000030303000000030303030001D2
:101900000303030303030301007070393F1F070142
:1019100000000000010303030303030301000001AF
:101920000303030303030100000003030300000398
:1019300003030000000000000000000000000000A1
:101940000000000000000000000000000000000097
:101950000000000000000000000000000000000087
:101960000000000000000000000000000000000077
:101970000000000000000000000000000000000067
:1019800000000000000010036B0065007900620099
:1019900061006C006C0000000C03790066007500AB
:1019A0006B00750000000403090409023B000201FA
:1019B00000A0FA090400000103010100092111013E
:1019C00000012240000705810308000A0904010004
:1019D000010301020009211101000122470007054E
:1019E000820308000A120110010000000846590194
:1019F0000001000102000105010902A1010901A184
:101A000000050919012908150025019508750181AE
:101A1000020501093009311581257F95027508817C
:101A20000609381581257F950175088106050C0A80
:101A300038021581257F950175088106C0C0050112
:101A40000906A101050719E029E7150025019508F8
:101A5000750181029501750881010507190029FFAB
:101A6000150026FF00950675088100050819012953
:101A700005950575019102950175039101C0112429
:101A80001FBECFEFDAE0DEBFCDBF04B603FE27C036
:101A90008091800490918104A0918204B09183048C
:101AA0008730904BA740B04BD1F410928004109235
:101AB0008104109282041092830414BE84B7877F3D
:101AC00084BF0FB6F894A8958091600088618093D8
:101AD0006000109260000FBEE0E0F8E3099511E0AD
:101AE000A0E0B1E0E4EBFAE602C005900D92A43468
:101AF000B107D9F724E0A4E4B1E001C01D92A038F9
:101B0000B207E1F70E94582F0C9458350C9400004E
:101B1000289A219A229A23982B9880E58CBD0895C3
:101B2000909100019F3F09F072C08F3F09F46FC090
:101B3000611103C01092470103C090E290934701E6
:101B4000423041F0433051F0413069F49091470107
:101B5000946007C090914701986003C0909147013D
:101B60009C609093470141E050E04217530718F4FE
:101B7000440F551FFACF9091470140315105F1F0C4
:101B800050F442305105B1F048305105E1F421E004
:101B90002093460113C04034510591F0403851055F
:101BA00039F04032510579F421E02093460108C014
:101BB000936007C091E09093460105C0916001C019
:101BC0009260909347012CB590914701922B9CBD58
:101BD00090914601992319F09DB591609DBD809328
:101BE0000001E82FE295EF70F0E031A1282F2F706F
:101BF00081E090E001C0880F2A95EAF7932F982B97
:101C000091A392A18095892382A381E0089580E029
:101C10000895CF93DF938EBD0E94672DEC010DB424
:101C200007FC0AC00E94672D8C1B9D0B8436910512
:101C3000B0F38EEF9FEF02C08EB590E0DF91CF91B1
:101C40000895CF93DF931EBC0E94672DEC010DB465
:101C500007FC0AC00E94672D8C1B9D0B84369105E2
:101C6000B0F38EEF9FEF02C08EB590E0DF91CF9181
:101C70000895809100018F3F19F1E82FE295EF70F0
:101C8000F0E031A1282F2F7081E090E001C0880F93
:101C90002A95EAF7932F982B91A392A1892B82A3DF
:101CA0008FEF809300018DB58E7F8DBD9CB58091A7
:101CB0004701809589238CBD1092470110924601FF
:101CC000089520E030E043E060E086E30C94900D5E
:101CD000CF93DF93D82FC62F0E94610E8D2F80687F
:101CE0000E94090E8C2F0E94090E0E94390E8FEC63
:101CF00092E00197F1F700C00000DF91CF910895C5
:101D0000CF93C82F0E94610E8C2F8F770E94090EEF
:101D10000E94210EC82F0E94390E8AE68A95F1F79B
:101D200000C08C2FCF910895CF93DF93269A0E9405
:101D3000880D6AE58AE30E94680E2FEF80E792E043
:101D4000215080409040E1F700C0000082E00E94F6
:101D5000800E83E00E94800E84E00E94800E85E069
:101D60000E94800E86E00E94800E60E280E10E9468
:101D7000680E6DE183E10E94680EEFE3FCE93197A4
:101D8000F1F700C0000068E183E10E94680E0E9444
:101D9000610E82EE0E94090EF0E5FA95F1F7CCE1B2
:101DA000D1E021E1CA31D20749F0FE0184910E94BD
:101DB000090EF0E5FA95F1F72196F3CF0E94390E5E
:101DC0008FEC92E00197F1F700C000008AE20E94D8
:101DD000800E60E080E10E94680E6FEF80E50E9457
:101DE000680E2E98DF91CF910895FF920F931F9365
:101DF000CF93DF930E94610E80E50E94090E2AEBCB
:101E00002A95F1F700C00E94210E87FF17C00E949B
:101E1000210E0E94210E082F0E94210EF82E0E94F2
:101E2000210E182F0E94210EDF2D30E0C32FC02B72
:101E3000982F88279C01212B890104C000E010E025
:101E4000C0E0D0E00E94390EBE01C801DF91CF9101
:101E50001F910F91FF9008950F931F93CF93DF93DE
:101E600000D000D01F92CDB7DEB78B018D322DE5AB
:101E70009207B1F08E32EDE59E0709F18C329D4557
:101E8000A1F50E94C1153A834B835C836D83F801F1
:101E90008281422F882311F041601FC04E7F1DC0F8
:101EA0000E94C1153A834B835C836D83F801828164
:101EB000422F882311F0426010C04D7F0EC00E9457
:101EC000C1153A834B835C836D83F8018281422F75
:101ED000882311F0446001C04B7F5A816B817C8163
:101EE0008D810E94E11580E001C081E00F900F908C
:101EF0000F900F900F90DF91CF911F910F91089548
:101F00000E94161581110C94940E089580912A0256
:101F10008160886080932A0208958F929F92AF9289
:101F2000BF92CF92DF92EF92FF920F931F93CF93C6
:101F3000DF9300D000D01F92CDB7DEB70E941615F8
:101F4000882309F4A7C00E94C115F32EE42E052FA3
:101F5000162F29830E94F50E4B015C0180914C01E4
:101F600090914D019C012F5F3F4F30934D01209385
:101F70004C012AE0C22ED12CB6010E94E0349C0113
:101F800080914A0190914B01E0914801F091490103
:101F9000232B09F062C0B6010E94E0349B017093CC
:101FA0004B0160934A01CF01B6010E94E034709367
:101FB000490160934801229FC001239F900D900D1D
:101FC0001124813E910534F0220F331F30934B01D1
:101FD00020934A01669FC001679F900D900D1124C8
:101FE000813E910534F0660F771F7093490160932D
:101FF000480120914A0130914B0121388FEF380779
:102000003CF02038310514F02FE730E0822F01C07A
:1020100081E8609148017091490161389FEF79072B
:102020003CF06038710514F06FE770E0262F01C0B6
:1020300021E890913602992359F036EF632F0E94E0
:10204000BE34E82F822F632F0E94BE34782F13C036
:10205000582F5195E12F702F10C08819990990932E
:102060004B0180934A01EA19FB09F0934901E0937F
:102070004801E12F702F2E2D5F2D511106C0211127
:1020800004C0711102C0EE2329F04981622F8E2F06
:102090000E94E1150F900F900F900F900F90DF911D
:1020A000CF911F910F91FF90EF90DF90CF90BF9055
:1020B000AF909F908F900895CF92DF92EF92FF9212
:1020C0006B017C010E945B11833021F481E08093DD
:1020D000360202C010923602C701B601FF90EF909F
:1020E000DF90CF9008956091150270911602809153
:1020F0001702909118020E945B11813089F040F024
:10210000823051F0833081F460E08BE691E10FC0C2
:1021100060E083E991E10BC060E086E891E107C0EF
:1021200060E089E791E103C060E08AE591E10C9409
:10213000F31A60E08AE191E10C94E11A0E9416150D
:1021400081110C9473100C949910CF93C82F0E9496
:102150001615882311F08C2F01C082E0CF910895CD
:1021600081E008950C942C0F08950C94B4101F93E3
:10217000CF93DF9300D000D01F92CDB7DEB7498355
:102180005A836B833091BE0189819A81311114C0C9
:10219000662359F0222349F00E94BE2A182F682F87
:1021A00089819A810E94652A03C00E94912A182F72
:1021B00069817A81812F04C00E94BE2A69817A8157
:1021C0000F900F900F900F900F90DF91CF911F9174
:1021D0000C94BB11FC01262F4081518162817381D7
:1021E00084810C94B710CF93DF93EC0160E00E94E0
:1021F000EA10BE01DF91CF910C94B5100E94E52B3F
:10220000811102C00E948C2C0C9494130C94921394
:1022100008950E94EE250E9408112FEF84E39CE0B0
:10222000215080409040E1F700C000000C94F52D53
:102230000F931F93CF93DF93EC0161E00E94EA10AC
:102240008C01BE010E94B210882379F1BE01C80141
:102250000E94D71C882349F1BE01C8010E94291D94
:10226000882319F1BE01C8010E94541E8823E9F099
:10227000BE01C8010E94FD188823B9F08A81882315
:1022800069F001158CE5180731F00F3D1C4531F45C
:102290000E948C2C0AC00E94091107C0CE01DF9158
:1022A000CF911F910F910C94B01080E0DF91CF91EE
:1022B0001F910F910895CF92DF92EF92FF926C01E0
:1022C000EE24FF24C114D104E104F10421F0C7017C
:1022D000B60120E101C020E0C72ED82EE92EFF2450
:1022E000C114D104E104F10419F0285FC701B6015B
:1022F0006B017C0154E0F694E794D794C7945A9507
:10230000D1F7C114D104E104F10419F02C5FC70125
:10231000B6016B017C0142E0F694E794D794C79430
:102320004A95D1F7C114D104E104F10419F02E5FEC
:10233000C701B601DC01CB01B695A79597958795A6
:10234000892B8A2B8B2B09F02F5F822FFF90EF9028
:10235000DF90CF90089508950C94AB1181E008951B
:102360000C94AE11CF93C82F0E94AC118C2F0E94F9
:10237000B011CF91089520E3829FC0011124FC0188
:1023800026E0729FE00DF11D1124E60FF11DEE0F06
:10239000FF1FEE55FE4E859194910895CF93DF93E4
:1023A0000E94BB110E94AC12EC01811523E592073B
:1023B00098F5811542E5940708F094C0C11580E2B4
:1023C000D807C0F4C11521E0D20708F0C1C0C53A52
:1023D000D10548F4C430D10508F0BAC0C130D105E8
:1023E00009F4B6C0B3C0CE01805E9109089708F425
:1023F000AFC0ACC0C11541E5D40708F06EC0C1152F
:1024000080E5D80708F04DC0C11520E4D20708F4D4
:102410009DC0DF70D06A9CC0811546E5940700F529
:10242000C11585E5D80708F077C0C11524E5D207A6
:1024300008F06DC0CE018370992721E030E002C022
:10244000220F331F8A95E2F78C2F8695869540E2FE
:10245000849FC0011124E901C82BD92BDA6878C008
:1024600081154AE5940778F4C11589E5D80708F085
:102470005DC0C11528E5D20708F468C0DC2FCC2761
:10248000C06FD06A65C090568115904208F05EC05A
:102490008D2F8F710E944013DD27D0628F71D82B52
:1024A00057C0CE0174E0969587957A95E1F78370D1
:1024B0009C2F937021E030E002C0220F331F9A95C9
:1024C000E2F73C68382BCF70C695C69580E2C89F6E
:1024D000E0011124C22BD32B3BC0DC2FCC27C16FD2
:1024E000D06A36C08370992721E030E002C0220F05
:1024F000331F8A95E2F78C2F8695869540E2849F5C
:10250000C0011124E901C82BD92BDC6821C0DC2FC4
:10251000CC27C46FD06A1CC08C2F0E9440138F71CF
:10252000C82FD0E0DC2FCC27D06212C08C2F8F7048
:102530000E94401394E0D695C7959A95E1F7CF7025
:10254000D0E0DC2FCC27D069C82B02C0C0E0D0E09F
:10255000CE01DF91CF9108958238910569F1B0F4F1
:102560008133910509F46DC048F48932910509F46D
:1025700063C08A32910509F469C0089585339105D5
:1025800009F455C089339105B9F00895833E91054A
:1025900069F138F4803E9105B1F0823E910509F170
:1025A0000895863E9105A9F1873E9105B9F1843ED3
:1025B000910509F064C023C02091710420FD4FC033
:1025C00021FD4DC008958091710480FD44C080912B
:1025D000720480FF44C08091710484FD42C083EE88
:1025E0004DC08091710482FF38C0F5CF8091710495
:1025F00082FD33C08091720480FD31C0ECCF8091A8
:10260000720481FF32C08091710484FD2AC087EE7C
:1026100035C08091710483FF26C0F5CF809171048D
:1026200083FD21C08091720481FD1FC0ECCF809199
:10263000710485FD1CC01DC08091710485FD19C009
:1026400016C08091710486FD16C017C08091710478
:1026500086FD13C010C089E311C082EE0FC080EE6A
:102660000DC080E00BC086EE09C084EE07C089E291
:1026700005C085E303C08AE201C081E390E00895CC
:102680009091710492FF0DC0282F2871283019F401
:10269000877F846006C0282F2471243011F48B7F3B
:1026A000886093FF0DC0282F2871283119F4877E88
:1026B000846106C0282F2471243111F48B7E886137
:1026C0002091720420FF0DC0382F3871383019F472
:1026D000877F816006C0382F3171313011F48E7FD1
:1026E000886021FF0DC0282F2871283119F4877EBA
:1026F000816106C0282F2171213111F48E7E8861FD
:1027000094FD877E0895E82FF0E0E15CFD4F808125
:102710000895089580EA8A95F1F7089500C0089514
:102720000C948A130C948D0F0C94800FF894E82F5E
:10273000E295EF70F0E031A1282F2F7081E090E05A
:1027400001C0880F2A95EAF7982F9095932391A3BB
:1027500092A1892B82A37894089508950F931F93D3
:10276000CF93DF930E943815809101018091010180
:10277000811102C094E001C090E09093480284E08F
:10278000891B8093470284EF0E94961385EF0E9475
:10279000961386EF0E94961387EF0E949613CBE262
:1027A000D1E001E311E089910E9496130C171D07F7
:1027B000D1F7E7E3F2E0AFE3B2E011921D9282E0DD
:1027C000EF33F807D1F784E00E94DF140E94FE1077
:1027D000DF91CF911F910F910C9442151F93CF93CE
:1027E000DF9300D000D0CDB7DEB70E941615609100
:1027F0004802882309F442C019821A821B821C8273
:10280000862F90E0BE016F5F7F4F815C9D4F0E94DD
:10281000AE1E811117C080914E018F5F80934E01D3
:10282000863040F1E0914702F0E0E15CFD4FDE01CF
:102830001196CE01059611921D92A817B907D9F7E6
:1028400011E019C010924E01E0914702F0E0E15C06
:10285000FD4FDE0111969E012B5F3F4F10E08D91E1
:102860009081981711F0808311E03196A217B30779
:10287000B1F701C010E00E9406110DC070E0615C6C
:102880007D4F8091470290E0815C9D4F0E94DC1E4D
:102890000E94AD1310E0812F0F900F900F900F90BA
:1028A000DF91CF911F9108958F929F92AF92BF9227
:1028B000CF92DF92EF92FF920F931F93CF93DF930C
:1028C00081E3A82E81E0B82EC7E3D2E095E3E92E9C
:1028D00091E0F92E912C01E010E06501F501808175
:1028E000F894E82FE295EF70F0E021A18F70A80135
:1028F00002C0440F551F8A95E2F7CA01922F982B08
:1029000091A392A18095892382A378940E948E132B
:10291000EBE2F1E020E030E0812C4191A42FA29580
:10292000AF70B0E090968C9190E04F7002C095959A
:1029300087954A95E2F780FD07C0802F022E01C0DF
:10294000880F0A94EAF701C080E0882A2F5F3F4F82
:102950002630310511F75FEFA51AB50AF60180811F
:102960000E9496130E9490138881881619F088821D
:1029700081E001C080E0982A2196EA14FB0409F066
:10298000ACCF6091480270E0615C7D4F292D44E03E
:1029900087E392E00E94E0140E94EE13992011F068
:1029A00081E090E0DF91CF911F910F91FF90EF9028
:1029B000DF90CF90BF90AF909F908F900895089533
:1029C000FF920F931F93CF93DF938C01F62ED72F97
:1029D000C42F222349F081E0809351010E94672D8A
:1029E0009093500180934F01809151018823C1F051
:1029F00080914F01909150010E947F2D069780F0A9
:102A0000EF2DFD2FD8014C2F50E0CD01801B910BF5
:102A1000841795071CF48D918193F7CF1092510183
:102A2000DF91CF911F910F91FF90089580915201F6
:102A3000811112C08091D80080618093D8008AE112
:102A40008A95F1F700C08091D90080FD02C082E034
:102A500001C081E08093520181E090915201913058
:102A600009F080E008950E94161591E089270895E5
:102A70000E943315809301010E94161581110C9458
:102A8000851E08950E941615811102C00C948B1E9C
:102A90000895EF92FF920F931F93CF93DF93CDB7DB
:102AA000DEB72A970FB6F894DEBF0FBECDBF6B839B
:102AB0007C838D83088719872A874E1118C0552378
:102AC00011F0F51214C08B81882319F098859813A2
:102AD0000EC08D81882319F09A85981308C09C81B7
:102AE000992339F081E02985291304C002C081E0CF
:102AF00001C080E081702A960FB6F894DEBF0FBE49
:102B0000CDBFDF91CF911F910F91FF90EF9008956E
:102B10000895EF92FF920F931F93E0905301F0906E
:102B20005401009155011091560120915701409197
:102B300058015091590160915A0170915B01809147
:102B40005C010E944915882321F088E591E00E94EC
:102B5000C2211092590110925A0110925B011092F9
:102B60005C0185E0E8E5F1E0A3E5B1E001900D92BC
:102B70008A95E1F71F910F91FF90EF9008950C94C3
:102B80008915CF93DF9300D000D01F92CDB7DEB769
:102B900085E0E8E5F1E0DE01119601900D928A955D
:102BA000E1F729813A814B815C816D8170E080E0A1
:102BB00090E00F900F900F900F900F90DF91CF91BA
:102BC0000895CF93DF9300D000D01F92CDB7DEB72A
:102BD00049835A836B837C838D8385E0FE01319624
:102BE000A8E5B1E001900D928A95E1F70F900F9062
:102BF0000F900F900F90DF91CF910895EF92FF9279
:102C00000F931F93CF93DF938B01682F11110AC08D
:102C1000442329F0E82FF0E0EE5DFC4E6491762F1E
:102C2000862F75C0212F30E0E82FF0E0442321F0FB
:102C3000EE5DFC4EE491F0E046E0049FC0011124FB
:102C4000CFEFD0E0BE010E94CC344BEA4603C00176
:102C5000479F900D1124800F911D800F911D982F7B
:102C6000990F890FAE01421B530B4E9FD0014F9F0E
:102C7000B00D5E9FB00D11249B2F189FA001112451
:102C8000452F55278E01041B150B0E9FA0010F9F8A
:102C9000500D1E9F500D11247E01E81AF108E29E8E
:102CA0008001E39E100DF29E100D1124212F332779
:102CB000C21BD30BCE9F9001CF9F300DDE9F300DF6
:102CC000112462307105A9F048F46115710569F0AD
:102CD00061307105C9F48B2F752F0DC064307105FB
:102CE00081F058F06630710579F47E2F8B2F932F89
:102CF0000DC0832F7B2F9E2F09C08E2F7B2F952FEA
:102D000005C08E2F732F02C07E2F852F692FDF9174
:102D1000CF911F910F91FF90EF90089541E00E9495
:102D2000FE1508950E948E160895CF93DF93762F97
:102D3000E901682F842F0E949216798368838A8321
:102D4000DF91CF910895493708F048E70C94951624
:102D500080914902982F9695913021F08170826080
:102D60008093490280914C02893718F088E780935C
:102D70004C02089588E090E00C941835CF92DF92D1
:102D8000EF92FF926B017C010E94A816B701A60189
:102D900088E090E0FF90EF90DF90CF900C94363574
:102DA000E9E4F2E083E0808311828FEF828388E799
:102DB00083831482AEE5B1E012968C911297836002
:102DC00012968C9360817181828193810C94BE16DE
:102DD00090914D02933018F49F5F90934D02882399
:102DE00051F06091490270914A0280914B0290919A
:102DF0004C020C94BE16089581E00C94E816909154
:102E00004D02992319F0915090934D02882351F06F
:102E10006091490270914A0280914B0290914C025C
:102E20000C94BE16089581E00C94FF1670E00C948B
:102E30005319609103018091490280FF0AC080917B
:102E4000020123E0829FC0011124825B9D4F0C94FC
:102E500016178091040190910501891780F7E82FDA
:102E6000F0E09F01220F331FE20FF31FE25BFD4FE3
:102E70001182108212828F5FF0CFE9E4F2E080814C
:102E80008E7F808360817181828193810E94BE16D2
:102E9000EEE5F1E08281816082832FEF80E792E0AE
:102EA000215080409040E1F700C000000C941917B9
:102EB000E9E4F2E080818E7F8083EEE5F1E08281BB
:102EC000816082832FEF80E792E021508040904024
:102ED000E1F700C000000C9419179091490290FF8F
:102EE00016C09091040120910501921770F4E92F0A
:102EF000F0E0DF01AA0FBB1FEA0FFB1FE25BFD4FF3
:102F00008183608342839F5FF0CF0C9419170895EB
:102F1000EF92FF920F931F93CF93DF9300D01F92F6
:102F2000CDB7DEB79091490290FF3DC0E22E142F3D
:102F3000062FF82EE92FE695F0E0E75CFE4F808142
:102F400080935E019E7F923059F49E012F5F3F4F28
:102F50008F2D0E94A3164B8169818A810E946D1773
:102F600080914A02F81208C080914B02081304C0F5
:102F700080914C02181729F0809160018260809343
:102F80006001F0924A0200934B0210934C02EE2033
:102F900051F06091490270914A0280914B029091E8
:102FA0004C020E94BE160F900F900F90DF91CF91B0
:102FB0001F910F91FF90EF900895E9E4F2E0918165
:102FC000282F438162818AE0890F0C94881781E061
:102FD0000C94DD17E9E4F2E09181282F43816281AE
:102FE00086EF890F0C94881781E00C94EA17E9E4C6
:102FF000F2E0628121E1620F08F46FEF282F438134
:1030000081810C94881781E00C94F717E9E4F2E0D1
:10301000628121E1621B08F460E0282F43818181F5
:103020000C94881781E00C940618E9E4F2E04381DF
:1030300021E1420F08F44FEF282F628181810C9427
:10304000881781E00C941518E9E4F2E0438121E14E
:10305000421B08F440E0282F628181810C9488177C
:1030600081E00C94241820E00C9488178091490288
:1030700080FF1DC081708260809349028091600151
:10308000816080936001662351F0609149027091E4
:103090004A0280914B0290914C020E94BE164091D0
:1030A0004C0260914B0280914A020C9433180895AF
:1030B000682F81E00C94361881E00C945818682F22
:1030C0009091490296958FEF890F09F481E00C9455
:1030D000361881E00C945F1861E00C943618E9E42E
:1030E000F2E080818160808386950C946C188091D9
:1030F000490280FD0C943D170C946F1860E00C940D
:10310000361880915D01811131C00E94E52B81113B
:1031100004C00E948C2C0E94D0160E94BA166093A4
:10312000490270934A0280934B0290934C02809123
:1031300060018360809360016E7F61F40E94D0160D
:103140000E94BA166093490270934A0280934B0220
:1031500090934C020E94A8168091490280FF03C000
:1031600086950E947E1881E080935D01089580918C
:103170006001089510926001089525E0E9E4F2E00D
:10318000DC0101900D922A95E1F720915E013091CA
:103190005F0140916001FC012583368347830895D8
:1031A0001F93CF93DF93EC01162F8F8180FF0FC009
:1031B000888180FF0AC08091490281608093490222
:1031C000888186950E94361802C00E9458178F8108
:1031D00081FF09C0212F4B816A818981DF91CF91C5
:1031E0001F910C948817DF91CF911F910895882328
:1031F00011F0FA0101C0FB0109941F93CF93DF93F3
:10320000FB01128111114AC0EC010E943F2B827216
:10321000FE01E35CFC45E431F10520F4EA5AFF4F7E
:103220000C94F43411E03AC00E94771837C049E694
:1032300058E16CE578E104C04CE558E169E678E1D5
:103240000E94F7182BC044EF57E167EE77E1F8CF03
:1032500047EE57E164EF77E1F3CF42E158E163E0F5
:1032600078E1EECF43E058E162E178E1E9CF40E375
:1032700058E161E278E1E4CF41E258E160E378E1CE
:10328000DFCF43E157E16CEF76E1DACF4CEF56E167
:1032900063E177E1D5CF81E00E946C18812FDF9147
:1032A000CF911F910895539A2BB1277F3BB138607E
:1032B0004FB7F894FC01CB01880F991F680F791F55
:1032C0006E0F7F1FE617F70789F0819198E03BB9F1
:1032D000000000C087FF2BB9880F000000C000C0AD
:1032E00000C02BB900C09A9591F7ECCF4FBF8FE586
:1032F00094E00197F1F700C000000895EF92FF926B
:103300000F931F93CF93DF93EC017B0164E670E092
:1033100088E70E94021F8C01EC0EFD1ECE15DF0512
:1033200061F017FD0AC0FE01849164E670E00E941E
:10333000591F8C012196892B89F30E94DD1FC8013A
:10334000DF91CF911F910F91FF90EF900895E3E6E9
:10335000F2E080E092E0DF019C011D9221503040BC
:10336000E1F7F0936804E09367048FEF9FEF909389
:103370008D0180938C0108950E94A510809388018F
:1033800080FD02C080E801C080E2809387010E9436
:10339000FC1E6DE070E089E394E10E947E19892BA8
:1033A00011F080E008958091880163E070E081FD74
:1033B00003C086E394E102C083E394E10E947E1996
:1033C000892B79F76DE070E086E294E10E947E1926
:1033D000892B39F70E94732DDC01CB01805A95416E
:1033E000AF4FBF4F8093630490936404A093650430
:1033F000B09366040E94A71981E080938B018093AB
:103400008A011092890108952091870136E0839FF7
:10341000C0011124629F800D911D1124811522E0AD
:10342000920714F080E090E08D599D4F90936804CE
:1034300080936704089520916704309168042D55A6
:10344000324040918701642F70E0C9010E94CC3462
:10345000481B463010F4240F311D211582E0380737
:1034600010F020E030E02D593D4F30936804209358
:1034700067040895CF93DF938A3011F481E003C08D
:103480008D3029F480E0DF91CF910C94B01AC62FD3
:10349000682F809167049091680426E0FC01A1E602
:1034A000B1E001900D922A95E1F7603E30F026E000
:1034B000FC0111922A95E9F70AC0F6E06F9FB0016E
:1034C00011246A5B7B4E46E050E00E94FA34C11141
:1034D00035C0C0916704D091680446E050E0BE0159
:1034E00081E691E00E940335892BB1F1C356D240A9
:1034F0009E0185E0369527958A95E1F781E090E079
:10350000AC0102C0440F551F2A95E2F720918C01AF
:1035100030918D01242B352B259645E0D695C79506
:103520004A95E1F702C0880F991FCA95E2F7822BEE
:10353000932B90938D0180938C010EC0E0916704D2
:10354000F09168049F012A5F3F4F2E173F0709F251
:10355000808180958193F9CFDF91CF910C941B1AD4
:10356000CF93E82F209167043091680423563240AE
:1035700040918701642F70E0C9010E94CC34481B40
:10358000842FEE2359F066E00E94B234C82FC15058
:10359000B0F060E080E20E943A1AF9CFA901480F2A
:1035A000511D4115524018F080E020E030E0280F16
:1035B000311D2D593D4F3093680420936704CF91FE
:1035C00008951F93CF93DF93EC01162FFE01849192
:1035D000882329F0612F0E943A1A2196F7CFDF91B4
:1035E000CF911F9108950E94E11A81E00C94B01AC6
:1035F00080918B018823F9F00E94732DDC01CB01AF
:10360000805A9541AF4FBF4F8093630490936404F9
:10361000A0936504B093660480918A0181110BC068
:1036200062E070E084E294E10E947E19892B19F433
:1036300081E080938A0180918A0108956F927F9240
:103640008F929F92AF92BF92CF92DF92EF92FF92B2
:103650000F931F93CF93DF9380918B01882309F4FD
:10366000DCC020918C0130918D012115310509F4C8
:10367000D4C0809189018111D0C061E070E0082F31
:1036800010E03B01082E02C0660C771C0A94E2F79A
:10369000A90146215721452B11F48F5FF0CF90915E
:1036A0008801980165E0220F331F6A95E1F790FDCC
:1036B00012C08295880F807680930901220F232FF4
:1036C000221F330B319520930C01815E80930A01F8
:1036D00010920D0112C045E0369527954A95E1F705
:1036E000220F220F220F2093090110920C01295F53
:1036F00020930A0183E080930D0124E630E047E047
:1037000050E067E071E088E70E94891F892B09F08B
:1037100084C08091880180FD23C0A80195E0440FFA
:10372000551F9A95E1F74D595D4F04E610E020E2F0
:1037300030E060E488E70E94B01F892B09F06DC07B
:103740000E94F81AE301C095D09580918C01909168
:103750008D01C823D923D0938D01C0938C015DC006
:1037600080E2E7E6F1E0DF011D928A95E9F785E066
:10377000000F111F8A95E1F7AFE3B1E04BE351E091
:10378000992493942D91EA018991AE01B801680FB3
:10379000711D6D597D4F30E029593E4FF90197E079
:1037A0007F01E21AF30AA92C01C0AA0CEA94EAF7F5
:1037B0007B01B12CE70189917E018A21892E8B182A
:1037C000D82DD770CD2E0D2E000CDD08C82F01C0CE
:1037D000CC0FDA95EAF7D194C194D108D7E0CD2285
:1037E000DD2401C08695CA94EAF78C2BD0808D2900
:1037F0008083B39488E0B812DDCF915031969F3F1B
:1038000079F6C1E0A334BC0709F0BCCF04E610E0B0
:1038100020E230E047E651E08CCFDF91CF911F915D
:103820000F91FF90EF90DF90CF90BF90AF909F905F
:103830008F907F906F90089580918B0190918A0175
:10384000882389F0992369F062E070E082E294E1D4
:103850000E947E19892B19F080918A010895109297
:103860008A0190918A0181E0892708950F931F931F
:1038700080918B01882329F160E080E00E94041A86
:103880000E949E100E941E1B80918A018823C9F00D
:103890000E94732D009163041091640420916504CB
:1038A00030916604DC01CB01801B910BA20BB30BA2
:1038B0008F3F9F4FAF4FBF4720F41F910F910C9444
:1038C0001C1C1F910F9108950F931F93CF93DF93AB
:1038D000C42FD22FFC0182818823C9F0409390012C
:1038E0000E94672D90938F0180938E0180E28C0F50
:1038F000883008F057C0C77081E001C0880FCA95B2
:10390000EAF7DF91CF911F910F910C949F23809143
:103910009001481330C080918E0190918F010E94D8
:103920007F2D883C910538F510E21D0FCD17B9F0B9
:1039300080E28C0F883040F4C77081E001C0880FAE
:10394000CA95EAF70E94A623183028F581E09D2F3A
:10395000977001C0880F9A95EAF70E949F23802FE5
:103960000E9496231830F0F4D77081E001C0880FD0
:10397000DA95EAF70AC080E28C0F883098F4C770B5
:1039800081E001C0880FCA95EAF7DF91CF911F91BE
:103990000F910C94A623802FDF91CF911F910F914F
:1039A0000C949623DF91CF911F910F9108950F935F
:1039B0009C01CB01243F4CE5340731F188F4293DCB
:1039C000FCE53F07D9F02A3D4CE5340779F1283D65
:1039D0003C45A9F506E221EE41EE68ED7CE52BC001
:1039E000263FFCE53F07E1F0A8F0273F3C4539F5CD
:1039F00007E225EE46EE67EF7CE51DC007E225EE07
:103A000045EE69ED7CE517C006E221EE40EE64EF7D
:103A10007CE511C007E225EE44EE65EF7CE50BC0C6
:103A200006E221EE42EE66EF7CE505C008E221E009
:103A300045EE6AED7CE50E94641C80E008C0FC0154
:103A40008281882319F01092900101C081E00F91CA
:103A50000895CF93DF93EC01FB018281882309F461
:103A60001FC1C230FCE5DF0708F41BC1C6319CE56D
:103A7000D90738F09E012B5F3C452930310508F00D
:103A800010C10E94F82B9093720480937104C0318E
:103A9000ECE5DE0709F4C3C008F041C0C8308CE58E
:103AA000D80709F49AC0F0F4C430ECE5DE0709F455
:103AB00087C068F4C2308CE5D80709F477C0C330FA
:103AC000DC4509F0E3C080917104826076C0C630A5
:103AD000ECE5DE0709F46EC008F07BC0809171044C
:103AE00088606BC0CC308CE5D80709F485C068F4D9
:103AF000CA30ECE5DE0709F474C008F079C00E9412
:103B0000EE2580917104806858C0CE308CE5D807CE
:103B100009F476C008F07FC0809171048BC0CC3F5F
:103B2000ECE5DE0709F44FC018F5C3318CE5D80782
:103B300009F47DC078F4C131ECE5DE0709F473C007
:103B4000C231DC4509F0A2C00E94EE2580917104CB
:103B50008F7733C0C5318CE5D80709F472C008F4FB
:103B600086C0CB3FDC4509F091C0809172043EC015
:103B7000C115FDE5DF0709F45FC058F4CE3F9CE5B1
:103B8000D90709F444C008F43FC0809172048260F0
:103B90002DC0C230FDE5DF0709F475C008F45DC033
:103BA000C330DD4509F072C080E06EC080917104C1
:103BB000816003C08091710480618093710466C04C
:103BC0008091710411C080917204826080937204AC
:103BD0005DC0809171048062F0CF80917104806437
:103BE000ECCF8091710488608460E7CF8160EECF74
:103BF000809171048E7FE1CF809171048D7FDDCF44
:103C000080917104877FD9CF8091720418C0809110
:103C100072048D7FDBCF809171048F7ECECF809137
:103C200071048F7DCACF809171048F7BC6CF809144
:103C30007104877F8B7FC1CF809172048D7F8E7FCF
:103C4000C5CF8091710482FB222720F991E0922751
:103C500090FB82F990FB83F9B0CF80917204982F8A
:103C6000909591708E7F892B90FB81F9AFCF0E9448
:103C7000EE258091710487FB222720F991E092279D
:103C800090FB87F99ACF81E00E948E2C809171047D
:103C9000909172040E94092C0E94EE2580E001C0E0
:103CA00081E0DF91CF910895CF93DF9386319C45DA
:103CB00041F5EB010E943F2B982F8A8120911E0134
:103CC00030911F01882379F09A7A81E009F480E02D
:103CD00080939101911102C069E201C065E3C901BD
:103CE0000E94D52C0AC080919101811102C069E225
:103CF00001C065E3C9010E94D72C0E94802B80E09F
:103D000001C081E0DF91CF91089562E070E08EE024
:103D100091E00C94412062E070E08EE091E00C9420
:103D20004A200E94B718882361F08CE991E00E9434
:103D3000BD1881E090E00E942321892B11F40C949E
:103D4000BA18089580919B01883039F460E08CE9BD
:103D500091E00E94D01810929B010895CF93DF93B9
:103D6000D62FC72F0E94911E80E090E00E94232151
:103D7000892BF1F4ED2FFC2F80E090E0DC01A956B7
:103D8000BE4F2C912193019684309105B9F70E9482
:103D9000DA2DDC01CB010296A11DB11D80939301A8
:103DA00090939401A0939501B093960181E001C096
:103DB00080E0DF91CF910895CF93DF93D62FC72F67
:103DC0000E94A21E609193017091940180919501CF
:103DD000909196010E94BD2DED2FFC2F80E090E088
:103DE0002191DC01A956BE4F2C9301968430910598
:103DF000B9F7DF91CF9108951092B9008CE08093CC
:103E0000B8000895EF92FF920F931F93CF93DF9323
:103E1000182FEB011092BC0084EA8093BC000E9432
:103E2000672D7C018091BC0087FD0EC0CF3F8FEFD6
:103E3000D807C1F30E94672D8E199F098C179D0723
:103E400088F38EEF9FEF2EC08091B900887F883075
:103E500041F08091B900887F803119F08FEF9FEF9A
:103E600021C01093BB0084E88093BC000E94672DA2
:103E70008C018091BC0087FD0CC0CF3F8FEFD8072D
:103E8000C1F30E94672D801B910B8C179D0788F34F
:103E9000D8CF8091B900887F883111F08034F1F655
:103EA00080E090E0DF91CF911F910F91FF90EF9014
:103EB00008950F931F93CF93DF93EB018093BB0083
:103EC00084E88093BC000E94672D8C018091BC0027
:103ED00087FD0EC0CF3F8FEFD807C1F30E94672D3B
:103EE000801B910B8C179D0788F38EEF9FEF0CC002
:103EF0002091B900287F81E090E0283211F480E021
:103F000090E0919581959109DF91CF911F910F914B
:103F10000895CF92DF92EF92FF920F931F93CF936A
:103F2000DF936B018A017901B9010E94021FE6014A
:103F30000C0D1D1DC017D10761F424E92093BC00AE
:103F4000DF91CF911F910F91FF90EF90DF90CF9075
:103F5000089597FDF2CFB70189910E94591FEACFCA
:103F6000CF92DF92EF92FF920F931F93CF93DF9345
:103F7000C62F6A017901B8010E94021F97FD11C086
:103F8000B8018C2F0E94591FE601EC0CFD1CCE15C8
:103F9000DF0539F097FD05C0B80189910E94591FCE
:103FA000F6CF24E92093BC00DF91CF911F910F91B0
:103FB000FF90EF90DF90CF90089584E98093BC004C
:103FC00008958EE14A9B02C08150E1F74A9BFECFE3
:103FD00008955A9880E28A95F1F75A9A0895FC015B
:103FE0002AE02A95F1F790E020E080E031E0261702
:103FF00079F040E14A95F1F7880F4A9B02C0816051
:10400000932700C0000040E14A95F1F72F5FEFCF02
:1040100020E12A95F1F729B100C0000030E13A957E
:10402000F1F722FB222720F992272081920F90831B
:104030000895EF92FF920F931F93CF93DF931F92F8
:10404000CDB7DEB719828C017C01E60EF11C0E158E
:104050001F0559F00E94E11F68E0CE0101960E9401
:10406000EF1FF80181938F01F2CF81E099819111C7
:1040700080E00F90DF91CF911F910F91FF90EF9013
:1040800008959093A6018093A5016093A401529A8C
:104090005A9A08959093A6018093A5016093A40174
:1040A00052985A9AEA9AE9E6F0E080818F7C808300
:1040B0000895615091E001C0990F6A95EAF720E0F8
:1040C00031E0992361F0492F482319F05A9A2327A8
:1040D00001C05A9840E24A95F1F79695F2CF222313
:1040E00011F05A9A01C05A9880E28A95F1F75A98CD
:1040F0000895FF920F931F93CF93DF93EC018C01F0
:10410000060F111DC017D10741F0F9900E94E91F59
:1041100068E08F2D0E945920F5CFDF91CF911F913C
:104120000F91FF9008951F920F920FB60F921124D6
:104130000F931F932F933F934F935F936F937F93AF
:104140008F939F93AF93BF93EF93FF93CF93DF939F
:104150001F92CDB7DEB719820E94E11F67E0CE0142
:1041600001960E94EF1F382F369536953695932F7E
:1041700096959570232F2570920F292F2370969571
:1041800096958770920F891348C08981811145C027
:104190008091A401831708F440C080E18A95F1F76B
:1041A0005A9A529AA2E0AA95F1F700C00091A5018F
:1041B0001091A601B8E03B9F000D111D11245A98E3
:1041C000F8016581662321F0868197810E9479201C
:1041D0000E94E91FF0E1FA95F1F75A9852985A9A1D
:1041E00080E18A95F1F7D80112966C9112976623B7
:1041F00069F013968D919C9114970E941920D80113
:10420000ED91FC91811105C082E004C0D801ED91CF
:10421000FC9188E080830E94E11F0F90DF91CF9195
:10422000FF91EF91BF91AF919F918F917F916F918E
:104230005F914F913F912F911F910F910F900FBE62
:104240000F901F9018950F931F93CF93DF9320919A
:10425000A40130E0281739070CF471C09C0193E0E9
:10426000220F331F9A95E1F7C091A501D091A601C5
:10427000C20FD31FF894529A5A9845E04A95F1F725
:104280000000982F969595708570890F982F9370E0
:1042900086958695890F8901082B0E94E91F84E085
:1042A0008A95F1F700C067E0802F0E94592040E115
:1042B0004A95F1F752985A9A4A9902C000C0FCCF29
:1042C00087E090E04A9B0EC0019751F4529A5A9AA7
:1042D000E881F98181E08083789481E090E031C0C9
:1042E00000C0F0CF6D81662381F08E819F810E9496
:1042F000192081110AC0529A5A9AE881F98182E004
:104300008083789482E090E01CC00E94E11F80E2EC
:104310008A95F1F75A98529A40E14A95F1F76A81E5
:10432000662321F08B819C810E9479200E94E91FE5
:10433000E881F9811082789480E090E002C084E006
:1043400090E0DF91CF911F910F9108959093AC0170
:104350008093AB010895E091AB01F091AC013097EF
:1043600021F00190F081E02D099480E00895E09122
:10437000AB01F091AC01309721F00280F381E02D88
:1043800009940895E091AB01F091AC01309721F0D0
:104390000480F581E02D099408952091A9013091C0
:1043A000AA012817390771F09093AA018093A901F7
:1043B000E091AB01F091AC01309721F00680F781DC
:1043C000E02D099408952091A7013091A8012817A4
:1043D000390771F09093A8018093A701E091AB0198
:1043E000F091AC01309721F00084F185E02D099423
:1043F00008950E94732D6093BA017093BB0180935E
:10440000BC019093BD016093B6017093B701809396
:10441000B8019093B901089585B7806885BF85B7C5
:10442000806885BF08950C94161508950C94152284
:104430000C94860F0C9415220C941A220C941522BD
:104440000E940C2283EE9BE20E94062E0E941E22F6
:104450000C941C220E945E2D0E94B42D0E94AE136B
:1044600080E00E94BC190E940B2E0E9481180E94BD
:1044700088150C9418228F929F92AF92BF92CF9280
:10448000DF92EF92FF920F931F93CF93DF93CDB7FD
:10449000DEB72A970FB6F894DEBF0FBECDBF0E94DD
:1044A00016220E9415220E945414982E81110E94F7
:1044B000F9218EEAA82E81E0B82E00E010E0802ECF
:1044C000802F0E948313D82EF501C1905F01C8266A
:1044D000B1F40F5F1F4F0830110589F78FEF898303
:1044E0008A831B820E94672D8160782F9D838C8335
:1044F00049815A816B818D810E94E6222FC0809173
:104500002A0281FD0E948913E12CFF24F3948C2D53
:104510008F21F1F00E941322882399F0EE828F827E
:10452000DF2081E009F480E088870E94672D8160A8
:10453000782F9A8789874E815F8168858A850E9456
:10454000E622F801E255FE4F8081F826F08206C08F
:10455000E394FF0CF6E0EF12DACFBBCF0E94361CDB
:1045600091100E94F81A0E94BF150E94AB219091F1
:10457000AD018917C1F00E94AB218093AD012A964D
:104580000FB6F894DEBF0FBECDBFDF91CF911F9164
:104590000F91FF90EF90DF90CF90BF90AF909F90E2
:1045A0008F900C94B2112A960FB6F894DEBF0FBE0E
:1045B000CDBFDF91CF911F910F91FF90EF90DF90D2
:1045C000CF90BF90AF909F908F900895DF92EF9221
:1045D000FF920F931F93CF93DF93CDB7DEB72B9747
:1045E0000FB6F894DEBF0FBECDBFF42E052F162FE9
:1045F000E72ED82E61110E945F2BFE01319686E0D6
:10460000DF011D928A95E9F77E2D4F2D502F612FE6
:104610008D2D9E810E94A7282B960FB6F894DEBFA1
:104620000FBECDBFDF91CF911F910F91FF90EF9003
:10463000DF900895FC01808191810E94002B0895F4
:10464000CF93882371F1C82F8CEF8C0F813AD0F46F
:104650006C2F80911E0190911F010E949F2C882336
:1046600049F06C2F80911E0190911F010E94D72C60
:104670000E94802B6C2F80911E0190911F010E943F
:10468000D52C0CC080E28C0F883058F4C77081E0C4
:1046900001C0880FCA95EAF70E94422BCF910C9473
:1046A000802BCF910895882349F1682F8CEF860FD6
:1046B000813A38F480911E0190911F010E94D72CFD
:1046C0000CC080E2860F883050F4677081E001C032
:1046D000880F6A95EAF70E94482B0C94802B8BE593
:1046E000860F833020F480E090E00C94CD21685A4E
:1046F000673120F480E090E00C94E32108951F934B
:10470000CF93DF93182FEB010E942023209741F0D5
:104710008FE99FE00197F1F700C000002197F6CFE5
:10472000812FDF91CF911F910C945323893319F07E
:1047300060E070E002C060E570E00C947F238823A5
:1047400021F00E94422B0C94802B0895882321F0A5
:104750000E94482B0C94802B0895CF92DF92EF9209
:10476000FF920F931F93CF93DF937C01D62FC72F18
:10477000FC010281158112951F700E94382B88233D
:1047800099F0002389F08C2F807F803421F080E223
:104790008D0F883048F082E00E94CA2B0E94382B8F
:1047A00091E0D82ED92601C0D12CCC2EC2948FE016
:1047B000C8228C2D90E08C30910508F08DC1FC0151
:1047C000E659FF4F0C94F4348C2F807FCF708823F0
:1047D00011F0C295C07F002399F0CC2309F468C181
:1047E00080E28D0F883010F0D11104C08C2F0E9410
:1047F000422B03C08C2F0E94522B0E94802B58C149
:104800008D2F0E945323CC2309F466C180E28D0FC3
:10481000883010F0D11104C08C2F0E94482B03C0A7
:104820008C2F0E94582B0E94802B56C18C2F807F8A
:10483000CF70803211F0C295C07FDD2319F0D130E6
:10484000C9F022C0002371F0112341F0113031F47E
:104850000E94652B8C2B0E946D2B3EC10E94652B04
:104860008C2B1DC0112319F0113009F435C10E94A1
:10487000762B25C0002321F0163008F02DC10EC084
:10488000153008F029C11BC0002361F0112331F05D
:10489000F701858180FF0CC18F7085838C2F0E946A
:1048A0009F231AC1112359F0D93309F012C1FFEF28
:1048B00007EE13E0F15000401040E1F708C18C2FE3
:1048C0000E94A62309C18C2F837009F047C00111F3
:1048D00007C12D2F229526952770220F220F6D2FAD
:1048E0006F70862F90E0A0E0B0E0022E04C0880F29
:1048F000991FAA1FBB1F0A94D2F7D4FF10C04FE024
:1049000050E060E070E004C0440F551F661F771F41
:104910002A95D2F7409550956095709503C040E078
:1049200050E0BA01C695C695C3708A019B01082B59
:10493000192B2A2B3B2BC901B801C23049F058F47E
:10494000C13019F00E947B29CBC00E946929C8C0E0
:104950000E948D29C5C00E946729C2C0002319F09A
:104960008C2F817001C08695882309F4B9C02D2F42
:10497000229526952770220F220F6D2F6F70862F9C
:1049800090E0A0E0B0E0022E04C0880F991FAA1F9B
:10499000BB1F0A94D2F7D4FF10C04FE050E060E094
:1049A00070E004C0440F551F661F771F2A95D2F789
:1049B000409550956095709503C040E050E0BA0175
:1049C000C695C695C3708A019B01082B192B2A2B0B
:1049D0003B2BC901B801C23049F058F4C13019F07D
:1049E0000E94402A7DC00E942E2A7AC00E94522A2C
:1049F00077C00E94A12974C0CF70002339F08C2F9A
:104A00000E94C7298D2F0E949F236AC08D2F0E946C
:104A1000A6238C2F0E94E82963C0D23F01F128F41D
:104A2000D03F41F0D13FA1F03FC0D33FF9F0D43F98
:104A300039F13AC0002341F0153008F04DC08C2FF9
:104A40008F710E940D2A48C0163008F045C0F7CF7C
:104A5000002339F08C2F8F710E94C7293DC000239D
:104A6000C9F38C2F8F710E94E82936C0002329F0EA
:104A70008C2F8F710E94B2292FC00E94AD292CC0AB
:104A8000002349F0CF718C2F0E94C72963E08C2F3F
:104A90000E94B52B21C081E00E94CA2B1230E0F0A9
:104AA00082E00E94CA2B18C0002331F0112391F23A
:104AB0008D2F0E94202310C0112399F2D93349F47D
:104AC0001FEF27EE33E0115020403040E1F700C0E7
:104AD00000008D2F0E94532388EF8C0D843020F42A
:104AE0000E94AB210E94B211DD20C9F00E94342B3C
:104AF00080FD15C0F70112820E942E2B0E94C7294B
:104B0000C7010E94B0250E942E2BDF91CF911F91EB
:104B10000F91FF90EF90DF90CF900C94E829DF91F8
:104B2000CF911F910F91FF90EF90DF90CF9008955C
:104B30000F931F93CF93DF93EC01688179818A8172
:104B40000E940B2B8C010E94642A0E945529B801F7
:104B5000CE010E94AD23DF91CF911F910F91089557
:104B6000CF93DF93EC01988189812B813C81232BAA
:104B700031F08F3F31F481E09F3F19F403C081E0B1
:104B800001C080E080FD19C0CE010E941811811182
:104B90000CC00E94382B882381F08A81882369F019
:104BA00082E0DF91CF910C94CA2BCE010E94982510
:104BB000CE01DF91CF910C94F310DF91CF91089546
:104BC0000E945F2B0E94622B0C94802B80911E010F
:104BD00090911F010E94D92C0C94E0250E944F2B2C
:104BE0000C94E625E92FE295EF704E2F50E0FA0184
:104BF0003297EE30F105B0F4EA58FF4F0C94F434DC
:104C0000803F91F018F4883E68F40EC0843F51F460
:104C10000BC0883E48F0813F29F406C093FB8827EB
:104C200080F9089580E0089581E008950E94002BA6
:104C30000E94F2250895CF93DF9300D000D01F92F9
:104C4000CDB7DEB70F900F900F900F900F90DF91C0
:104C5000CF910895CF93DF9300D000D000D0CDB78F
:104C6000DEB726960FB6F894DEBF0FBECDBFDF913C
:104C7000CF9108951F93CF93DF93C091BF0116E0AA
:104C80008091C001C81799F0D0E01C9FF0011D9FD2
:104C9000F00D1124EF53FE4F4081518162817381E9
:104CA000848195810E942A262196C770E9CFDF91E1
:104CB000CF911F9108954091F1015091F2016091BF
:104CC000F3017091F4018091F5019091F6010C943B
:104CD0002A260F931F93CF93DF938091F60182953D
:104CE0008F7009F05DC08091F301882309F458C0EA
:104CF0008091BF011091C0016091F1017091F201AA
:104D0000C091F401D091F50191E06F3F09F090E07E
:104D1000292F06E0811709F443C0209721F07F3F37
:104D200021F030E003C031E001C0322F90E030FDCF
:104D300034C0089FF001099FF00D1124DF01AF532B
:104D4000BE4F11963C911197371327C03C913613F3
:104D500024C012963C91129731111FC013964D91A9
:104D60005C9114974C1B5D0B483C5105B0F480914D
:104D7000F6018F7080618093F601EA53FE4F8081C7
:104D80008F708061808381EF91E00E94B025DF9178
:104D9000CF911F910F910C943A2601968770BACF4C
:104DA000DF91CF911F910F9108959F92AF92BF9283
:104DB000CF92DF92EF92FF920F931F93CF93DF93E7
:104DC000CDB7DEB761970FB6F894DEBF0FBECDBF8B
:104DD0008C0185E0F801DE011D9601900D928A9507
:104DE000E1F7F80140815181E2809091F1016091F9
:104DF000F2012091F4013091F5012115310531F0D6
:104E00006F3F31F481E09F3F19F403C081E001C09E
:104E100080E0F82FF1709F2E80FD46C1F801A3803D
:104E2000B48081EFC82E81E0D82EF090F301F50117
:104E3000E21BF30BFF2009F4DFC08091F601E83C90
:104E4000F10508F09BC0282F207F09F052C05613AF
:104E500013C0491311C0FE2CE1100EC08F70806189
:104E60008093F6010E945B26C6010E94B0258091C6
:104E7000F601F801858358C1AB2831F05F3F31F46A
:104E800081E04F3F19F403C081E001C080E080FD64
:104E900003C081E08E2502C080E090E0F82FF17021
:104EA000FF2E80FF1CC08091BF012091C00136E021
:104EB000821709F417C190E0389FF001399FF00D77
:104EC0001124EF53FE4F6181561306C060814613D3
:104ED00003C06281E61203C001968770E9CFFE2C01
:104EE000EE2009F421C18091F60181608093F601E2
:104EF0005AC0561306C0491304C0E11002C0F8019D
:104F00009FC04D875E878D859E850E9416268823CB
:104F100079F1EE2069F12091F601822F82958F7050
:104F200090E0029774F08091F1019091F2019887DE
:104F30008F831986BB86AA862C87CE0107960E948E
:104F4000B02586E0F801A1EFB1E001900D928A95BD
:104F5000E1F70E9469260E945B260DC0561729F1D1
:104F60004D875E878D859E850E94162681112CC0F7
:104F7000C8010E94B025FF24F394D6C0282F207FBB
:104F800069F77A2DB98AA88A6E2D89890E941B2615
:104F900081EF91E00E94B02586E0F60111928A959A
:104FA000E9F70E945B26F12CBFC04913D9CFE1106D
:104FB000D7CFF8018583C8010E94B02586E0F601AD
:104FC00011928A95E9F7B0C0EE2091F22091F60196
:104FD000822F82958F7090E002970CF4B2CF80916F
:104FE000F1019091F2019A8389831B82BD82AC8288
:104FF0002E83CE010196A3CFE83CF10508F047C00F
:10500000FE2CEE2009F4B4CF561330C049132EC045
:105010002091F60120FD21C0822F82958F70482FAC
:1050200050E041155105C9F0F80125834F30510575
:1050300041F08F5F982F9295907F822F8F70892BF0
:105040008583C8010E94B02586E0F801A1EFB1E098
:1050500001900D928A95E1F742C086E0F801A1EF38
:10506000B1E001900D928A95E1F75EC04D875E87B1
:105070008D859E850E941626811163CF8091F60151
:1050800081608093F601C8010E94B0254DC07A2D41
:10509000B98AA88A6E2D89890E941B2686E0F601AE
:1050A00011928A95E9F71BC0EE2009F461CF4D8774
:1050B0005E878D859E850E941626F82E882309F42A
:1050C00057CF86E0F801A1EFB1E001900D928A95EB
:1050D000E1F781EF91E00E941A230E9469260E9465
:1050E0005B2622C04D875E878D859E850E94002BA2
:1050F000292F22952F70223028F49F7039F08111CA
:1051000005C00BC0243028F49F7049F4805E8830BD
:1051100020F0C8010E94B0259F2CF92C05C0F80191
:105120009581907F99F7F9CF8F2D61960FB6F894FE
:10513000DEBF0FBECDBFDF91CF911F910F91FF90CA
:10514000EF90DF90CF90BF90AF909F9008951F9306
:10515000CF93DF93CDB7DEB72C970FB6F894DEBFB1
:105160000FBECDBF4F83588769877A878B879C870F
:10517000CE0107960E94D5268823D1F09F8188858D
:105180002A853B85232B31F08F3F31F481E09F3F0F
:1051900019F403C081E001C080E080FD47C04F8169
:1051A000588569857A858B859C850E942A263EC014
:1051B00086E0FE013796DE01119601900D928A95E8
:1051C000E1F7FF81E8856A857B856115710531F01E
:1051D000EF3F31F481E0FF3F19F403C081E001C0EB
:1051E00080E080FD23C02091C00130E0C90101961C
:1051F000877099274091BF0150E084179507F1F11E
:10520000F983EA837D836C8396E0929FD001939F1C
:10521000B00D1124AF53BE4FFE01319601900D9297
:105220009A95E1F78093C0010E943A2616E080919A
:10523000BF019091C001891771F1189FC00111241D
:105240008F539E4F0E94D526882329F1E091BF01FC
:105250001E9FF0011124EF53FE4F40815181628166
:105260007381848195810E942A268091BF0190E0FC
:105270000196877099278093BF01D9CF0E94EE25B0
:105280001092C0011092BF01E1EFF1E086E0DF0172
:105290001D928A95E9F72C960FB6F894DEBF0FBEE3
:1052A000CDBFDF91CF911F910895089508950C947B
:1052B00056290C9457290E9459296093190270931A
:1052C0001A0280931B0290931C020C94E0250C940C
:1052D0005B290F931F930091190210911A022091DC
:1052E0001B0230911C02602B712B822B932B1F9180
:1052F0000F910C945B290F931F9300911902109149
:105300001A0220911B0230911C0260237123822318
:1053100093231F910F910C945B290F931F9300917E
:10532000190210911A0220911B0230911C02602771
:105330007127822793271F910F910C945B290C945E
:105340005C100E949F29609315027093160280934F
:105350001702909318020C94E02560E070E0CB01F6
:105360000C94A1290F931F9341E050E060E070E09E
:105370008A019B0104C0000F111F221F331F8A9551
:10538000D2F7C901B8011F910F910C94A1290F9375
:105390001F9341E050E060E070E004C0440F551FEF
:1053A000661F771F8A95D2F7809115029091160299
:1053B000A0911702B09118028A019B01082B192BAA
:1053C0002A2B3B2BC901B8011F910F910C94A129E5
:1053D0000F931F9341E050E060E070E004C0440F81
:1053E000551F661F771F8A95D2F740955095609597
:1053F00070958091150290911602A0911702B091BC
:1054000018028A019B01082319232A233B23C9017F
:10541000B8011F910F910C94A1290F931F9341E0A4
:1054200050E060E070E004C0440F551F661F771F16
:105430008A95D2F78091150290911602A0911702D9
:10544000B09118028A019B01082719272A273B27B8
:10545000C901B8011F910F910C94A1290F931F93BB
:105460000091150210911602209117023091180236
:10547000602B712B822B932B1F910F910C94A129E0
:105480000F931F930091150210911602209117029D
:105490003091180260237123822393231F910F916F
:1054A0000C94A1290F931F930091150210911602DD
:1054B00020911702309118026027712782279327C5
:1054C0001F910F910C94A1290895292F220F920F5B
:1054D000990F890FE82FE695E695E695877051E0DC
:1054E00001C0550F8A95EAF785E0E89FF001112485
:1054F000E950FE4F20E030E070E04081CB01022E09
:1055000002C0969587950A94E2F781708195842769
:105510008523842781932F5F3F4F2530310569F71D
:105520000895292F220F920F990F890F682F6695E2
:1055300066956695982F977085E0689FB001112455
:1055400040E050E080E0FB01E40FF51FE950FE4F22
:10555000208130E0092E02C0369527950A94E2F7A3
:1055600021703327042E01C0220F0A94EAF7822B00
:105570004F5F5F4F4530510531F70895BF92CF928D
:10558000DF92EF92FF920F931F93CF93DF938C01E3
:10559000C0901502D0901602E0901702F090180209
:1055A0008091190290911A02A0911B02B0911C02E5
:1055B000C82AD92AEA2AFB2ACFE1D0E0D701C601BE
:1055C0000C2E04C0B695A795979587950A94D2F7A7
:1055D00080FD04C0219790F7B12C07C0BC2EB80104
:1055E0008C2F0E94CE110197A9F38B2DDF91CF91C3
:1055F0001F910F91FF90EF90DF90CF90BF90089593
:10560000CF93DF93EC010E94BE2ABE010E94CE110F
:10561000DF91CF9108951F93CF93DF93EB0190918A
:10562000BE01992321F0CB010E94002B13C08823D7
:1056300049F0CB010E94BE2A182F682FCE010E948C
:10564000652A04C0CB010E94912A182FBE01812F28
:105650000E94CE11DF91CF911F91089580911D027C
:10566000859585958595089580911D02877008958B
:1056700090911D02977081E009F480E00895809177
:105680002902089590912902892B80932902089577
:105690008095909129028923809329020895109280
:1056A0002902089590912802892B80932802089559
:1056B0008095909128028923809328020895109262
:1056C0002802089510922702089580911E020895DD
:1056D00008950C94682B0C94692B90911E029817D6
:1056E00021F080931E020C946B2B089580911E0272
:1056F000882329F010921E0280E00C946B2B0895F1
:10570000E0911E01F0911F01809129028083E091B8
:105710001E01F0911F01908180912802892B8083C6
:10572000E0911E01F0911F01908180912702892B49
:10573000808380911E02882381F0E0911E01F09108
:105740001F019081892B808380911E0190911F0100
:105750000E94932C81110E94762B80911E019091C2
:105760001F010C94B7210C94682B98E0899F90013D
:105770001124262B20931D020E94C72980911D020F
:105780008595859585950C94B32B10921D0280E02C
:105790000C94B32B20911D028095822380931D02CF
:1057A000982F977079F430E0482F082E000C550B95
:1057B0002417350739F08595859585950E94E82948
:1057C0000C94C52B089580E0089580E090E00E943D
:1057D0001E3521E08B3E9E4F09F020E0822F089578
:1057E00082E090E00C94103583E090E00C9410354A
:1057F000CF9384E090E00E941035C82F81E290E0C2
:105800000E9410352C2F30E0A901582BCA01CF91EE
:105810000895CF93C92F682F84E090E00E9424352B
:105820006C2F81E290E0CF910C942435AB01BC0148
:105830008FE090E00C943635AB01BC0183E190E041
:105840000C94363560E070E0CB010C941C2C60E0C9
:1058500070E0CB010E94162C0C94222C6BEE7EEF94
:1058600080E090E00E94423560E082E090E00E949B
:10587000243560E083E090E00E9424351092190204
:1058800010921A0210921B0210921C0260E084E037
:1058900090E00E94243560E081E290E00E9424358F
:1058A00060E085E090E00E94243560E086E090E0D2
:1058B0000E9424356FEF87E090E00E94243540E09D
:1058C00050E0BA0188E090E00E94363560E08DE05B
:1058D00090E00E94243540E050E0BA0188E190E079
:1058E0000E94363560E087E190E00E94243540E078
:1058F00050E0BA018CE190E00E94363560E080E231
:1059000090E00E94243540E050E0BA0188E190E048
:105910000E9436350C94272C0C942E2C682F8EE088
:1059200090E00C942435FC01329697E080E0915091
:1059300029F021912223D9F38F5FF9CF08956623AF
:1059400049F0FC01329608962191621729F0E81778
:10595000F907D1F780E0089581E008959C01FC01EA
:1059600032969FEF80E04191461789F09F3F19F4EE
:10597000411101C0982F8F5F8630A9F79F3F39F002
:10598000F901E90FF11D97FDFA95628308950895D5
:105990009C012A5F3F4FFC014281461301C01282E5
:1059A000019682179307B9F708950C94AE2C0C94C6
:1059B000C82C029626E0FC0111922A95E9F7089579
:1059C00008950C94E02C0C94E02CCF930E94E32CCF
:1059D0000E9454140E94E12CC0E08C2F0E9483137B
:1059E000811104C0CF5FC830C1F701C081E0CF9101
:1059F00008950C94E02C0C94F92C80917704843059
:105A000049F10E94FB2C80E00E94B21110922B02FF
:105A100020E488E190E00FB6F894A89580936000A8
:105A20000FBE2093600083B7817F846083BF83B7FC
:105A3000816083BF7894889583B78E7F83BF0FB6CC
:105A4000F894A8958091600088618093600010921E
:105A500060000FBE08950C94E02C0E94EE250E9479
:105A6000AB210E94B2110C942B2D1F920F920FB6F6
:105A70000F9211248F939F93AF93BF9380912B022A
:105A8000811113C08091690490916A04A0916B0404
:105A9000B0916C044196A11DB11D8093690490934F
:105AA0006A04A0936B04B0936C04BF91AF919F9173
:105AB0008F910F900FBE0F901F90189582E084BDBC
:105AC00093E095BD9AEF97BD80936E0008952FB730
:105AD000F8948091690490916A04A0916B04B0914C
