:100000000C9427060C946E060C946E060C947F30AC
:100010000C946E060C946E060C946E060C946E0690
:100020000C946E060C946E060C944D1D0C94091DD8
:100030000C94F5270C946E060C946E060C946E06C8
:100040000C946E060C946E060C946E060C946E0660
:100050000C946E060C94261E0C946E060C946E0680
:100060000C946E060C946E060C946E060C946E0640
:100070000C946E060C946E060C946E060C946E0630
:100080000C946E060C946E060C946E060C946E0620
:100090000C946E060C946E060C946E060C946E0610
:1000A0000C946E060C946E060C946E0629001E00CD
:1000B0001F00000020002100220000004C0014005E
:1000C0001A00000008001500170000002B000400B3
:1000D00016000000070009000A00000001511D0081
:1000E0001B00000006001900050030000100E000C0
:1000F000E2000000E30091412C4290432D002700D4
:1001000026000000250024002300000089001300C1
:10011000120000000C0018001C0000002402330034
:100120000F0000000E000D000B000000E50038007D
:100130003700000036001000110032004600E600D3
:1001400001000000E700914128422A0029021E0216
:100150002F00000020022102220200004C021402A3
:100160001A02000008021502170200002B02040206
:1001700016020000070209020A02000001001D0227
:100180001B02000006021902050230020100E00213
:10019000E2020000E30201000100010087022602E2
:1001A00025020000340223022E00000089021302FF
:1001B000120200000C0218021C0200001F02340090
:1001C0000F0200000E020D020B020000E5023802D1
:1001D0003702000036021002110232020100E6026C
:1001E00001000000E70201000100010001003A00E7
:1001F0003B0000003C003D003E000000010001000B
:10020000240000002500260001000000010001007C
:100210002100000022002300330200000100010041
:100220001E0000001F0020002D0225020100010019
:1002300027000000370001000100010044004300D6
:1002400042000000410040003F0000004500010066
:100250004F00000052005000010000000100F300B8
:10026000F20000005100F1004B000000010001000D
:1002700001000000010001004E0026020100010003
:10028000010000000100010001004C00C35C0100FE
:10029000010000000100010001000000C45CC65C18
:1002A000C85C0000CA5C010001000000C55CC75CBE
:1002B000C95C0000CB5C01000100000001000100EE
:1002C000AF5D0000AE5DAD5DAC5DDF5C005C01006C
:1002D00050000000510052004F000100D35CD25C7E
:1002E000D15C0000D05CCF5CCE5C0000010001005E
:1002F0005E5D0000D65CD55CD45C0000A65DA75DA9
:10030000AA5D0000A85DA95DAB5D000001000100D1
:100310004D0000004B004E004A00DF5C005C010015
:1003200001000000010001002A00010000DA028142
:10033000FFD9F1DB20A4A62EAF00A0C000A1C80009
:10034000AED580A81FD300408D1420001E0F0500DD
:10035000047F3F1F643214643214783C1E1E140A5A
:10036000056162636465666768696A6B6C6D6E6F70
:10037000707172737475767778797A313233343577
:100380003637383930524542545F2D3D5B5D5C2332
:100390003B27602C2E2F20202700204B00202043BD
:1003A000004B6579203A2020520020204400303054
:1003B0002020530020202020204350490042616C1F
:1003C0006C3A00808182838485868788898A8B8CB9
:1003D0008D8E8F9091929394A0A1A2A3A4A5A6A77D
:1003E000A8A9AAABACADAEAFB0B1B2B3B4C0C1C2F4
:1003F000C3C4C5C6C7C8C9CACBCCCDCECFD0D1D255
:10040000D3D4000001010101010101010102020236
:1004100002020202020203030303030303030404B0
:10042000040404040405050505050606060606077A
:100430000707070708080808090909090A0A0A0B33
:100440000B0B0C0C0C0D0D0D0E0E0E0F0F0F1010D4
:10045000111111121213131414151516161717185B
:100460001819191A1A1B1B1C1D1D1E1E1F202021C6
:100470002222232424252626272829292A2B2C2D0D
:100480002D2E2F30313232333435363738393A3B2E
:100490003C3D3E3F404142434445464748494A4C23
:1004A0004D4E4F50515354555658595A5B5D5E5FEF
:1004B000616264656668696B6C6D6F707273757785
:1004C000787A7B7D7E8082838587888A8C8E8F91E7
:1004D000939596989A9C9EA0A2A3A5A7A9ABADAF11
:1004E000B1B3B5B7BABCBEC0C2C4C6C9CBCDCFD1FB
:1004F000D4D6D8DBDDDFE2E4E7E9EBEEF0F3F5F8A4
:10050000FAFDFFFFAA7F55402223252628292A2C01
:100510002D2F3032333536383A3B3D3E404243454D
:1005200047494A4C4E5051535557595A5C5E606288
:10053000646668696B6D6F71737577797B7D7F8198
:10054000838587898A8C8E90929496989A9C9E9F98
:10055000A1A3A5A7A8AAACAEAFB1B3B4B6B8B9BBB6
:10056000BCBEBFC1C2C3C5C6C7C9CACBCCCDCED025
:10057000D1D2D2D3D4D5D6D7D7D8D9D9DADADBDB12
:10058000DBDCDCDCDCDCDDDDDDDDDCDCDCDCDCDBA9
:10059000DBDBDADAD9D9D8D7D7D6D5D4D3D2D2D1F2
:1005A000D0CECDCCCBCAC9C7C6C5C3C2C1BFBEBCE5
:1005B000BBB9B8B6B4B3B1AFAEACAAA8A7A5A3A156
:1005C0009F9E9C9A98969492908E8C8A8987858318
:1005D000817F7D7B79777573716F6D6B69686664F8
:1005E00062605E5C5A5957555351504E4C4A4947C8
:1005F000454342403E3D3B3A3836353332302F2D6D
:100600002C2A29282625232200AF00AE0501090245
:10061000A10185020901A100050919012908150098
:1006200025019508750181020501093009311581FF
:10063000257F95027508810609381581257F95016A
:1006400075088106050C0A38021581257F9501750C
:10065000088106C0C005010906A101050719E029A6
:10066000E71500250195087501810295017508813E
:10067000010507190029FF150026FF0095067508DA
:10068000810005081901290595057501910295015B
:1006900075039101C009023B00020100A0FA0904A0
:1006A00000000103010100092111010001224000A5
:1006B0000705810308000A09040100010300000086
:1006C0000921110100012249000705820320000AC7
:1006D0001201000200000008575900010100010248
:1006E000000114034B0065007900620061006C009A
:1006F0006C00360031000000100359006F007700D5
:100700006B0065006500730000000403090400002D
:10071000000000003E5B4F5B3E003E6B4F6B3E00B7
:100720001C3E7C3E1C00183C7E3C18001C577D572C
:100730001C001C5E7F5E1C0000183C180000FFE7D8
:10074000C3E7FF00001824180000FFE7DBE7FF0005
:1007500030483A060E00262979292600407F0505F3
:100760000700407F05253F005A3CE73C5A007F3E8A
:100770001C1C0800081C1C3E7F0014227F22140051
:100780005F5F005F5F0006097F017F00006689955B
:100790006A0060606060600094A2FFA29400080498
:1007A0007E04080010207E20100008082A1C080083
:1007B000081C2A0808001E10101010000C1E0C1E29
:1007C0000C0030383E383000060E3E0E06000000A9
:1007D0000000000000005F000000000700070000AC
:1007E000147F147F1400242A7F2A12002313086424
:1007F0006200364956205000000807030000001C24
:10080000224100000041221C00002A1C7F1C2A00FB
:1008100008083E080800008070300000080808083A
:1008200008000000606000002010080402003E5133
:1008300049453E0000427F40000072494949460058
:100840002141494D33001814127F100027454545BA
:1008500039003C4A49493100412111090700364914
:1008600049493600464949291E000000140000008D
:100870000040340000000008142241001414141435
:1008800014000041221408000201590906003E41EB
:100890005D594E007C1211127C007F494949360097
:1008A0003E41414122007F4141413E007F4949494B
:1008B00041007F09090901003E41415173007F0851
:1008C00008087F0000417F4100002040413F0100B7
:1008D0007F08142241007F40404040007F021C02FC
:1008E0007F007F0408107F003E4141413E007F09A8
:1008F000090906003E4151215E007F091929460081
:1009000026494949320003017F0103003F4040402E
:100910003F001F2040201F003F4038403F0063142D
:10092000081463000304780403006159494D43002F
:10093000007F414141000204081020000041414174
:100940007F000402010204004040404040000003D8
:10095000070800002054547840007F2844443800A1
:10096000384444442800384444287F0038545454C0
:10097000180000087E0902001824241C78007F0853
:100980000404780000447D4000002040403D000009
:100990007F102844000000417F4000007C04780460
:1009A00078007C08040478003844444438007C18FB
:1009B00024241800182424187C007C08040408004F
:1009C00048545454240004043F4424003C40402034
:1009D0007C001C2040201C003C4030403C0044284F
:1009E000102844004C9090907C004464544C440087
:1009F0000008364100000000770000000041360882
:100A000000000201020402003C2623263C000000F4
:100A100000000000000000000000000000000000D6
:100A2000000000000000C0F0F88C86C6E7FFFFFF62
:100A3000FFFFFFFEFCFCF8E080000000F0F0F0009B
:100A400000C0E0F070700000000000000000000036
:100A5000000000000000000000000000F8F8F800AE
:100A60000000000000000000000000000000000086
:100A70000000F8F8F80000F8F8F8000000000000A6
:100A8000000000000000000000000000E0F0F0F0B6
:100A9000E0ECEEF7F37020007C7C7C7E007E7E7EB6
:100AA0007F7F7F000080C0E07E5B4F5BFEC0000068
:100AB000C000DCD7DEDEDED7DC00C00000000000B6
:100AC0000000000000000000000000000000000026
:100AD0000000000000000000000000000000008096
:100AE000E07078686C64C7C7C7C7C7C7E73F1F0F08
:100AF0003FFFFFFFFFFFFF3F0F000000FFFFFF1E54
:100B00003FFFF3E1800000F8FCFE3636363EBCB80D
:100B1000000E3EFEF080F0FE3E0E0000FFFFFF06DE
:100B20000606FEFEFC7000E6F6F63636FEFEFC001B
:100B30000000FFFFFF0000FFFFFF000000000000BB
:100B40000000000000000000000000000F1F3F7FB9
:100B50007F7F7F7F3F1E0C001F1F1F3F003F3F3FD7
:100B60007F7F7F00307B7F7830202030787F3B0094
:100B700003000F7F0F0F0F7F0F0003000000000026
:100B80000000000000000000000000000000000065
:100B900000000000000000000000000000003C7F9A
:100BA0006360E0C0C0C0C0C0C0C0C0FFFFC0603054
:100BB000180F0303030100000000000003030300FB
:100BC0000000030303030001030303030303030102
:100BD000007070393F1F070100000000010303038C
:100BE00003030303010000010303030303030100E4
:100BF00000000303030000030303000000000000E3
:100C000000000000000000000000000000000000E4
:100C100000000000000000000000000000000000D4
:100C200000000000000000000000000000000000C4
:100C300000000000000000000000000000000000B4
:100C4000000000000000000000000000000011246F
:100C50001FBECFEFDAE0DEBFCDBF04B603FE27C074
:100C60008091E2079091E307A091E407B091E50736
:100C70008730904BA740B04BD1F41092E20710920E
:100C8000E3071092E4071092E50714BE84B7877F4C
:100C900084BF0FB6F894A895809160008861809316
:100CA0006000109260000FBEE0E0F8E3099511E0EB
:100CB000A0E0B1E0E6E6F7E602C005900D92A43EA2
:100CC000B107D9F727E0A4EEB1E001C01D92A23E22
:100CD000B207E1F70E941C280C9483330C940000A7
:100CE000FC01AC014B5F5F4F8FEF91E321918227B5
:100CF00028E030E087FF09C0880F8927215031099B
:100D0000C9F7E417F50791F70895880FF7CFE8EDD5
:100D1000F0E080818E7F80831092E2001092DA00F2
:100D20001092E100A0EEB0E08C9181608C93808104
:100D30008F77808319BCA7EDB0E08C918E7F8C9368
:100D400080818F7E80831092950508952091E40024
:100D50003091E50095E6A9012091EC00822F817089
:100D600020FF06C08091E80080FF06C080E0089563
:100D70002091E80022FD1AC08091A305882389F004
:100D8000853089F08091EB0085FD0FC02091E40053
:100D90003091E50042175307F9F29150E1F684E0F3
:100DA000089582E0089583E0089581E00895EF9228
:100DB000FF920F931F93CF937C018B010E94A60695
:100DC000C82F811117C08091E80085FD0BC080916C
:100DD000E8008E778093E8000E94A606882399F3A6
:100DE000C82F08C0F70181917F018093F100015065
:100DF000110949F78C2FCF911F910F91FF90EF9020
:100E000008958091A50587FF13C08091E80082FFB7
:100E100006C08091E8008B778093E80004C0809141
:100E2000A3058111F2CF08958091A3058823D9F3FA
:100E30008091E80080FFF8CF8091E8008E77ECCFBA
:100E4000982F9093E900242F762F50E0891731F0E6
:100E50007091EC002091ED005091F00021FD07C051
:100E60009F5F973071F78093E90081E0089530919A
:100E7000EB003E7F3093EB003091ED003D7F3093EF
:100E8000ED003091EB0031603093EB007093EC009B
:100E90002093ED005093F0002091EE0027FDE0CF6D
:100EA00080E00895CF92DF92EF92FF920F931F930D
:100EB000CF93DF93C8EDD0E088818F7E8883E7ED04
:100EC000F0E080818160808384E082BF81E0809354
:100ED000950588818E7F888302EE10E0F8011082EC
:100EE0001092DA0081EEC82ED12CF6011082888192
:100EF0008F77888388818068888388818F7D8883C5
:100F000019BC1092A3051092A4051092A20510928C
:100F1000A10590EEE92EF12CF70180818B7F808373
:100F200088818160888342E060E080E00E94200741
:100F3000F60180818E7F8083F801808181608083CB
:100F4000808188608083F70180818E7F80838881A3
:100F500080618883DF91CF911F910F91FF90EF9077
:100F6000DF90CF900895FC018091AB059091AC0586
:100F700086179707A0F06115710529F49091E80094
:100F80009E779093E80090E06115710551F49111FE
:100F900008C08091E80082FF34C080E00895BC0161
:100FA000F2CF8091A3058823C1F18530C1F18091F2
:100FB000E80083FD30C08091E80082FDEACF809197
:100FC000E80080FFE1CF8091F3002091F200382FFC
:100FD0006115710519F02830310558F091E028307D
:100FE000310509F090E02091E8002E772093E80089
:100FF000CBCF81918093F100615071092F5F3F4FFA
:10100000E7CF8091A305882341F0853041F080919E
:10101000E80083FFBECF81E0089582E0089583E079
:1010200008950895089508958091980508952FB71B
:10103000F89460919105709192058091930590913B
:1010400094052FBF08959C01FC0132969FEF80E02C
:101050004191461751F09F3F19F4411101C0982F5B
:101060008F5F8630A9F79F3F09F40895290F311D3E
:1010700097FD3A95F90162830895FA01811101C043
:10108000FB0109940895EDE2F3E01182828184600E
:101090008283089580918305982F9E7F61F48170EB
:1010A00082608093830580918605893718F088E7F0
:1010B0008093860508958635B0F381708465F1CFFD
:1010C000AF92BF92DF92EF92FF920F931F93CF9355
:1010D000DF93182F062FE901493708F048E7E42F7E
:1010E000F0E0ED5FFB4F011110C0E4915E2F4E2F39
:1010F0004983E8835A83DF91CF911F910F91FF902D
:10110000EF90DF90BF90AF900895202F30E0449192
:10111000D42EE42EF12C56E0159FC0011124EFEFE0
:10112000F0E0BF010E94F931812F90E0880F991FF4
:1011300055E5569FD001579FB00D11248A1B9B0B7C
:10114000982F990F890F5F01A21AB30AAE9CD001A4
:10115000AF9CB00DBE9CB00D11245B2F089F800189
:101160001124012F11275F01A01AB10AAE9C800142
:10117000AF9C100DBE9C100D11245F01A81AB10880
:10118000A29EC001A39E900DB29E900D1124892FA6
:101190009927E81BF90BEE9DC001EF9D900DFE9D78
:1011A000900D1124E92F62307105A1F050F4611502
:1011B000710509F49DCF6130710581F0EB2F512F3E
:1011C00097CF6430710569F080F06630710509F4DD
:1011D0008FCFF4CFE42F4B2F592F8ACFE42F412FFD
:1011E00087CFEB2F542F492F83CF4B2F5D2DE12F2E
:1011F0007FCFCF93DF93EDEAF5E083819481A581E2
:10120000B681E90188839983AA83BB831482138200
:1012100016821582DF91CF91089580E00895E091C4
:101220007502EB30A4F48AE0E802F0011124E25FD9
:10123000FE4F0084F185E02D309749F028E932E037
:101240004091770268E772E08091760209940895F0
:10125000E3E6F2E083898093420184898093590117
:1012600008959091D00292FF06C0282F287128304F
:10127000F9F4877F846093FF06C0282F28712831F6
:10128000F1F4877E84612091D10220FF06C0382FBF
:1012900038713830D9F4877F816021FF06C0282F4C
:1012A00028712831D1F4877E816194FD877E08956D
:1012B000282F24712430F9F68B7F8860DCCF282F0B
:1012C0002471243101F78B7E8861DDCF382F317195
:1012D000313019F78E7F8860E0CF282F21712131BE
:1012E00021F78E7E8861E1CFCF93DF93EC018238C6
:1012F000910589F1B8F58133910509F492C028F57B
:101300008932910509F486C08A9709F491C0C11504
:1013100023E5D20708F0ACC0C11532E5D30708F0C9
:1013200011C1C11540E2D40708F090C0C11581E099
:10133000D80730F5C53AD10508F081C0C430D105D1
:10134000F8F4C130D105E1F040C08533910509F4CE
:101350005AC0C997E1F68091D002837089F0C0EE3F
:10136000D0E00EC0833E910599F170F4803E910566
:1013700001F1823E910559F68091D00282FD21C093
:10138000CE01DF91CF910895863E910561F1873EB0
:10139000910571F1843E910509F0B9CF8091D10298
:1013A00081FFEECF8091D002C7EED0E084FD0DC06A
:1013B000E7CF8091D00280FDF4C09091D10290FFE0
:1013C000DFCFC3EED0E084FFDBCFD0E0C0E0D8CFEA
:1013D0008091D00282FDE8C09091D10290FDBFCFF4
:1013E00084FFCECFF2CF8091D00283FDDDCFC8CF76
:1013F0008091D00283FDDBC09091D10291FFF0CFAC
:10140000C4EED0E0BDCF8091D00285FFB9CFC9E254
:10141000D0E0B6CF8091D00285FFB2CFC5E3D0E057
:10142000AFCF8091D00286FFABCFCAE2D0E0A8CF89
:101430008091D00286FFA4CFC1E3D0E0A1CFCE013E
:10144000815E9109079708F49BCFBFCFC11591E545
:10145000D90708F072C0C11520E5D20708F050C0C6
:10146000C11530E4D30708F4B0CFDF70D06A88CF5D
:10147000C11546E5D407F0F4C11585E5D80708F095
:1014800077C0C11594E5D90708F06DC0CE0183700F
:10149000992721E030E002C0220F331F8A95E2F73E
:1014A000C695C69590E2C99FE0011124C22BD32BAB
:1014B000DA6866CFC1152AE5D20778F4C11539E597
:1014C000D30708F060C0C11548E5D40708F47DCF04
:1014D000DC2FCC27C06FD06A53CFCE019056811538
:1014E000904208F072CF8D2F8F710E94310990E0E9
:1014F000982F882788279F719C012C2BE90141C0D8
:10150000CE01E4E096958795EA95E1F783702C2F5C
:1015100026952695237040E2249F90011124382BB4
:101520008C2F8370C1E0D0E002C0CC0FDD1F8A9504
:10153000E2F7C22BD32BDC6823CFDC2FCC27C16F83
:10154000D06A1ECFCE018370992721E030E002C01F
:10155000220F331F8A95E2F7C695C69580E2C89F91
:10156000E0011124E6CFDC2FCC27C46FD06A08CF6E
:101570008C2F0E943109C82FD0E0DC2FCC27CC273C
:10158000DF71D062FDCE8C2F8F700E94310934E064
:10159000D695C7953A95E1F7CF709C2FEC01D069AD
:1015A000EFCEC9E3D0E0ECCEC2EED0E0E9CEC6EE9D
:1015B000D0E0E6CE80916002811110926002089521
:1015C0008095909196059823909396050895809123
:1015D000960590915F02892B90915E02892B8093F2
:1015E000E60190916002992391F0892B8093E601A6
:1015F00020E088EE91E0FC013191CF0131112F5FA5
:10160000F1E08E3E9F07B9F721110E94DA0AE091BE
:101610008E05F0918F05309731F00280F381E02D37
:1016200086EE91E00994089580915C0290912B02DE
:10163000981301C008958F5F8770FACFAF92BF9261
:10164000CF92DF92EF92FF920F931F93CF93DF938E
:101650000091CF0220916102022BC7E0D0E010E0A0
:10166000C92ED12C2AE0A22EE82EF12CBC2EC801C6
:101670000C2E02C0959587950A94E2F780FD0FC065
:101680002197A0F7B12C8B2DDF91CF911F910F9156
:10169000FF90EF90DF90CF90BF90AF900895AC9EF9
:1016A000F001AD9EF00D1124EC0DFD1D83E0EE0F59
:1016B000FF1F8A95E1F7EE0DFF1DEE0FFF1FE455AA
:1016C000FF4F859194910E9474090197C9F2DBCF75
:1016D000CF93DF93EC010E941E0B9AE0899FF001EB
:1016E0001124ED0FF11D83E0EE0FFF1F8A95E1F746
:1016F000EC0FF11DEE0FFF1FE455FF4F8591949104
:10170000DF91CF910C947409990F990F990F890F5C
:10171000982F977086958695869523E0829FF00195
:101720001124E95FFD4F50E040E080E0219130E07E
:10173000092E02C0369527950A94E2F721703327C7
:10174000042E01C0220F0A94EAF7822B4F5F5F4FED
:101750004330510559F70895990F990F990F890F43
:10176000982F977041E001C0440F9A95EAF786954B
:101770008695869593E0899FF0011124E95FFD4FDE
:1017800030E020E070E05191DF011197CB01022E93
:1017900002C0969587950A94E2F781708195852716
:1017A000842385278C932F5F3F4F2330310559F7D2
:1017B00008958093610210925F0210925E020C9471
:1017C000E70AFC01808191810E94680B292F2F700C
:1017D00092959F7092509E3078F4E92FF0E0EB578D
:1017E000FC4C0C943B32803F19F020F4883E20F4EE
:1017F00081E00895843FE1F380E00895883EC0F3DE
:10180000813FD1F7F5CF822F8695869586950895ED
:10181000882321F00E94E00A0C94E70A08958823A7
:1018200039F090919605982B909396050C94E70AC1
:101830000895882309F452C09CEF980F913A78F4E8
:10184000E8EEF1E02EEE31E09191891303C0DF0163
:1018500011971C922E173F07B9F70C94E70A90E2F4
:10186000980F983050F4877091E001C0990F8A95D5
:10187000EAF7892F0E94E00AF0CF9BE5980F93309A
:10188000B0F48091030290910402892B39F11092F7
:10189000040210920302E0918E05F0918F053097BB
:1018A000E9F00680F781E02D90E080E00994885A05
:1018B0008731A0F48091050290910602892B71F086
:1018C0001092060210920502E0918E05F0918F05AC
:1018D000309721F00084F185E02DE6CF0895CF9375
:1018E000C82F8823A1F18CEF8C0F813AF8F4E8EE31
:1018F000F1E0DF018D91C81761F081E0AE3EB807DD
:10190000C9F76C2F86EE91E00E942308CF910C94CA
:10191000E70A8191C81303C0DF0111971C9281E08F
:10192000EE3EF807B1F70E94E70AEBCF80E28C0F9A
:10193000883068F4C77021E030E001C0220FCA95FA
:10194000EAF780919605822B80939605DFCFCF91A1
:101950000895982F92959F7011F0892F94E0282F69
:101960002695269511F09E5F822F869509F09F5F40
:10197000892F0895CF93C82F8091BA058C1751F005
:101980000E9417086093BC057093BD058093BE0547
:101990009093BF05C093BA05CF910895CF93C82FF8
:1019A0000E94A90C91E0833009F090E0892F0E94F9
:1019B000BA0CC093CF0210925F0210925E02CF91D8
:1019C0000C94E70A21E030E001C0220F8A95EAF783
:1019D00020958091CF0282230C94CE0C90915D02D1
:1019E0008095892380935D02282F277091F4282FFA
:1019F000082E000C330B9217130659F09091D10268
:101A000092FD07C08595859585950E94E20C109200
:101A10005D02089521E030E001C0220F8A95EAF7C7
:101A20008091CF02822B0C94CE0C0F931F93CF93F7
:101A3000DF93EC01DB019091BB05911101C094E0B3
:101A40006881798191509B01092E02C035952795B7
:101A50000A94E2F7F901092E02C0EE0FFF1F0A9463
:101A6000E2F76E1B7F0B798368836A817B81FB01C0
:101A7000092E02C0F595E7950A94E2F78F0102C09E
:101A8000000F111F9A95E2F7601B710B7B836A832D
:101A9000E1381FEFF107F4F0E038F105ECF41596AA
:101AA000EC93159721388FEF3807C4F020383105B3
:101AB000BCF414962C931497411107C0E195159628
:101AC000EC931597219514962C93DF91CF911F914C
:101AD0000F910895E1E8E3CFEFE7E1CF21E8E9CF07
:101AE0002FE7E7CFFC01DB012281338191E8213828
:101AF0008FEF38072CF0922F203831050CF09FE73C
:101B000012969C9312972081318121388FEF3807EC
:101B1000A4F0203831059CF413962C93139744239A
:101B200039F0919512969C931297219513962C93C8
:101B30001182108213821282089521E8EDCF2FE7DF
:101B4000EBCF382F20E287FF02C031952DE24AE02B
:101B5000832F642F0E941932905D9093FC018111B4
:101B60000BC02093FB0120E22093FA0120E2209396
:101B7000F90189EF91E00895642F0E941932905D78
:101B80009093FB01832F64E60E941932882361F34E
:101B9000805D8093FA01EBCF9C01860F971F37FD84
:101BA00007C077FD04C097FF02C08FEF9FE708953D
:101BB00077FFFDCF97FDFBCF80E090E80895E82FF9
:101BC000E295EF70F0E031A1282F2F7081E090E0D6
:101BD00001C0880F2A95EAF7382B31A392A180958E
:101BE000892382A30895E82FE295EF70F0E031A1F8
:101BF000282F2F7081E090E001C0880F2A95EAF726
:101C0000982F9095932391A392A1892B82A3089555
:101C1000CF92DF92EF92FF920F931F93CF93DF93B8
:101C20007C016B018091D50701E010E08A3010F44F
:101C30000AE010E0C1E0D0E0F8946BED77E0C70176
:101C4000F60109957894811104C021960C171D079F
:101C50004CF4DF91CF911F910F91FF90EF90DF90A7
:101C6000CF900895CC9F9001CD9F300D300D112461
:101C700090E080E045E34A95F1F700000196821775
:101C80009307C1F7D9CF9C0182E08093E9009FEFD1
:101C90008091E800915085FD06C085ED8A95F1F7A9
:101CA00000009111F5CF8091E80085FF0CC050E055
:101CB00040E066E070E0C9010E94D7068091E8002C
:101CC0008E778093E8000895CF93DF93EC0181E055
:101CD0008093E9008FEF9091E800815095FD06C058
:101CE00095ED9A95F1F700008111F5CF8091E8000C
:101CF00085FF14C050E040E068E070E0CE010E9433
:101D0000D7068091E8008E778093E80088E0FE0196
:101D1000A9E9B5E001900D928A95E1F7DF91CF91A5
:101D2000089560919F018091830580FF20C080917C
:101D30009E0143E0849FC00111248D5C9C4F539A07
:101D40002BB1277F3BB138605FB7F894FC01649FEB
:101D5000E00DF11D1124BF0168177907D1F45FBFB1
:101D60008FE594E00197F1F700C00000089580919D
:101D7000A0019091A10123E0829FF0011124ED5C6C
:101D8000FC4F8917A0F61182108212828F5F339662
:101D9000F8CFFC014191CF01E8E03BB9000000C061
:101DA00047FF2BB9440F000000C000C000C02BB992
:101DB00000C0EA9591F7D0CF0F931F93CF93DF9395
:101DC000EC0110E000E09091A2019017110609F0DB
:101DD0006CF40E94910E8C8190E00196817099279D
:101DE0008C83DF91CF911F910F9108952091A001D5
:101DF000A801420F511D9A01220F331F240F351FD6
:101E00002D5C3C4F4C8160918505809184059695B1
:101E10009017110651F04CF0442349F0409186058B
:101E20000E9460080F5F1F4FCECF4423B9F340E0FC
:101E3000F7CF8F929F92AF92BF92CF92DF92EF92A5
:101E4000FF920F931F93CF93DF93EC014C81042FEC
:101E500010E09801D8010E9474339B01AC010E94EC
:101E60003F334B015C01E0E2F0E0E01BF10BA5E544
:101E7000B0E0AC019B010E943F336B017C019F01EC
:101E8000DF010E9441329B01AC010E944A339B0159
:101E9000AC01280D391D4A1D5B1DC701B6010E940A
:101EA0005233F22E822F90E039E23F1560F143E089
:101EB000249F9001112435952795122F109500E04D
:101EC00085E5E82EEF188091A201081758F10E94CD
:101ED000910E9C8181E0992319F0903219F48FEFD3
:101EE00080939C0180919C01890F8C83DF91CF911D
:101EF0001F910F91FF90EF90DF90CF90BF90AF9028
:101F00009F908F90089525E530E0B901681B790B0B
:101F10009B01220F331F260F371F37FFCCCF2F5FB8
:101F20003F4FC9CF8E2D01FD8F2D2091A001622F33
:101F3000600F7727771F9B01220F331F260F371F54
:101F40002D5C3C4F412F609185050E9460080F5F1A
:101F5000BACFEF92FF920F931F93CF93DF93EC01D1
:101F60008C81811109C081E08C831092310392E051
:101F700090939B0180939A018091A0019091A1017F
:101F800023E0829FF0011124ED5CFC4F891768F17A
:101F900010E003E06091A201161768F10E94910E13
:101FA00080919A0120913103280F20933103909161
:101FB0009B01980F90939B01191654F4022E000C6C
:101FC000330B4091A2014150550B2417350734F0D3
:101FD000819580939A01813009F41C82DF91CF9121
:101FE0001F910F91FF90EF9008951182108212823D
:101FF0008F5F3396CBCFE12EF12C70E0C7010E94AA
:1020000027322091A001820F482F50E02091310308
:10201000022E000C330BE216F306BCF020919B015C
:10202000022E000C330B2E153F057CF0809F900193
:1020300011242D5C3C4F409186056091850580916F
:1020400084050E9460081F5FA5CFFA01EE0FFF1FF5
:10205000E40FF51FED5CFC4F118210821282F3CF6A
:102060008F929F92AF92BF92CF92DF92EF92FF92A8
:102070000F931F93CF93DF93EC018A81BB24BA9413
:1020800080FD02C0BB24B394A090A2018C81811179
:1020900009C081E0B81228C08FEF8A0D8093300309
:1020A00081E08C83F12CE12C4AE4942EEA14F8F0C0
:1020B0000E94910E8091300391E0B9125FC08111AE
:1020C00058C08091A2018150809330031C82DF911F
:1020D000CF911F910F91FF90EF90DF90CF90BF9025
:1020E000AF909F908F90089510923003D9CF0091B8
:1020F000A0010E0D1F2D111DC801880F991F080F7B
:10210000191F0D5C1C4FF80111821082128234E0FD
:10211000C32ED12C812C80913003880D8B342CF16F
:10212000692D0E941932892F082E000C990B8E15EB
:102130009F0591F4809186058C9DA0018D9D500D89
:1021400011245595479555954795980160918505BA
:10215000809184050E9460088B0CF1E0CF1AD108B1
:10216000D1F68FEFE81AF80AA1CF87FFDDCF8A0DED
:10217000DBCF815080933003BC82A9CF90E00196E1
:102180006091A20170E00E942732809330038C831B
:102190009ECFEF92FF921F93CF93DF93EC0110E05D
:1021A000EE24EA94F12C6091A201161770F00E94BF
:1021B000910E9A818C8190FF27C08F5F8C83DF9175
:1021C000CF911F91FF90EF9008952091A001422F91
:1021D000410F5527551FCA019A01220F331F280F9F
:1021E000391F2D5C3C4F70E0C7010E942732962FAB
:1021F0008C814091860560918505199F800D112481
:102200000E9460081F5FCFCF8150D8CF9091830587
:1022100090FF14C09091A0012091A10133E0939F01
:10222000F0011124ED5CFC4F921710F00C94910E0C
:102230008183608342839F5F3396F6CF08950F9327
:102240001F93CF93DF9300D00F92CDB7DEB78C01F1
:102250008091320381110AC09E012F5F3F4F48E7F2
:102260006FEF0E9460088A8180933203F8016481D5
:10227000613069F08091320340E0662361F040E014
:10228000623011F44091320380E060E004C060915C
:10229000320340E080E00E940611F801848190E062
:1022A000019663E070E00E94273284830F900F90C4
:1022B0000F90DF91CF911F910F910895CF93DF93EE
:1022C00000D00F92CDB7DEB79091830590FF0AC082
:1022D0009E012F5F3F4F0E9460084B8169818A8178
:1022E0000E9406110F900F900F90DF91CF910895EB
:1022F000CF93DF93EC01E3E8F5E0438162818C81C9
:102300000E945E118C818F5F8C83DF91CF91089545
:10231000CF93DF93EC01EC81F0E0E85FFA4F44915A
:10232000E3E8F5E0628181810E945E118C818F5F1C
:102330008C83DF91CF91089580916202811118C042
:1023400082E39091E30097FD10C0EFE3FCE9319741
:10235000F1F700C000008150A1F782E08093620293
:102360000E9487061092A30503C081E08093620259
:1023700081E090916202913011F080E0089508951B
:102380000E949C11882351F0E0918E05F0918F05F9
:10239000309721F00190F081E02D099480E00895BC
:1023A0000F931F930E949C11882321F01F910F917E
:1023B0000C9417080E9417080091C9021091CA02D4
:1023C0002091CB023091CC02600F711F821F931FAE
:1023D0001F910F91089557985F9A879A8F9825E0DB
:1023E0002A95F1F7000089B187988F9A90EA9A951B
:1023F000F1F790E0880F892F881F990B21E0822741
:1024000081700895CF93DF938091AD05C5E281116E
:10241000C2E28091AE05D0E0882329F08091AF051B
:10242000D5E28111D2E20E94EB1181110FC08D2FF4
:1024300080939E01C0939F01CD0F1092A001C09385
:10244000A101C093A201DF91CF91089580E0F0CF68
:102450008091AD05F90180830C940212E8EEF1E061
:1024600086E0DF011D928A95E9F710925F021092D3
:102470005E020C94E70A1F93CF93DF93CDB7DEB7CC
:10248000AA970FB6F894DEBF0FBECDBF85EA95E0E0
:102490002091F100FC012193CF01F5E08D3A9F07D7
:1024A000B9F78091A605833009F470C0B8F4813083
:1024B00009F447C0823009F4B3C08091E80083FF7B
:1024C00080C28091A5059091A6059A3008F079C246
:1024D000E92FF0E0ED56FC4C0C943B328A3009F4C5
:1024E0008EC08B3009F46FC0893039F78091A50513
:1024F000813219F78091A9059091AA050297E8F613
:102500008091E800877F8093E8008091E80082FF57
:1025100038C09091F3008091F200029731F48091DD
:10252000F100813011F0863021F48091F100809328
:1025300098058091E8008B778093E8000E9401075E
:10254000BCCF8091A505813A09F0B7CF8091E80012
:10255000877F8093E8008091A9059091AA05892B37
:1025600061F468E089E995E070E00E94B30780912A
:10257000E8008B778093E800A0CF60E090E080E0F7
:10258000F3CF8091A3058111C0CF97CF8091A5058E
:10259000813A09F092CF8091A9059091AA05892BE3
:1025A00009F08BCF8091E800877F8093E8008091CD
:1025B000E80080FFFCCF80919D018093F100809125
:1025C000E8008E77B9CF8091A505813209F075CFEB
:1025D0008091A9059091AA05892B09F06ECF809171
:1025E000E800877F8093E8000E9401078091A7059B
:1025F00080939D01109296050E942E125ECF8091CD
:10260000A505813209F059CF8091E800877F80933A
:10261000E8000E9401078091A805809397054DCF9F
:102620008091A505813A09F048CF8091E800877F25
:102630008093E8008091E80080FFFCCF80919705AF
:10264000BCCF803899F0823809F0BBC18091A905D0
:102650008F70873008F0B5C18093E9008091EB005E
:1026600085FB882780F91092E90006C08091A105BA
:102670009091A205911182609091E800977F9093CC
:10268000E8008093F1001092F1008091E8008E77CD
:1026900094C1882309F482C1823009F092C18091EB
:1026A000A705811185C18091A9058F702FEF280F93
:1026B000263008F086C18093E9002091EB0020FFCE
:1026C00077C1933031F48091EB0080628093EB000E
:1026D0006FC19091EB0090619093EB0021E030E0AE
:1026E00001C0220F8A95EAF72093EA001092EA00CF
:1026F0008091EB008860EACF811163C11091A7053A
:102700001F778091E3008078812B8093E300809194
:10271000E800877F8093E8000E9401078091E8002D
:1027200080FFFCCF8091E30080688093E30082E02B
:10273000111183E08093A30544C18058823008F0D2
:1027400040C18091A7059091A8058C3D23E0920798
:10275000A1F583E08A838AE289834FB7F894DE018A
:10276000139620E03EE051E2E32FF0E05093570053
:10277000E49120FF03C0E295EF703F5FEF708E2F72
:1027800090E0EA30C0F0C7968D939D932F5F24317F
:1027900059F74FBF8091E800877F8093E8006AE295
:1027A00070E0CE0101960E94B3078091E8008B771C
:1027B0008093E80006C1C096E7CF4091A9055091EB
:1027C000AA05292F33272330310509F444C078F5B1
:1027D0002130310509F46FC08BE390E0E5E9F6E0C4
:1027E0002230310509F0EDC02091E800277F2093C9
:1027F000E8002091AB053091AC058217930708F4EF
:102800009C0140E02115310509F064C0411162C00E
:102810008091E80082FDC9CF8091A305882329F229
:10282000853019F28091E80083FFF2CFBECF2132CC
:102830003105A9F12232310509F0C3C04115510516
:1028400009F443C04130510509F0BBC089E490E070
:10285000ECE0F6E0C9CF992781309105C1F00097EF
:1028600059F0029709F0ADC0E2EEF6E0E4918E2F48
:1028700090E0E2EEF6E007C0EAE0F7E0E4918E2FA8
:1028800090E0EAE0F7E0009709F49BC0ADCFE8EFF5
:10289000F6E0E4918E2F90E0E8EFF6E0F4CF4115FA
:1028A000510571F04130510509F08BC089E090E08D
:1028B000E0ECF6E099CF82E190E0E0EDF6E094CF35
:1028C00089E090E0E7EAF6E08FCF80E490E0E5E58C
:1028D000F6E08ACF8091A305882309F466CF85307E
:1028E00009F463CF8091E80083FD5FCF8091E80019
:1028F00082FD8ECF8091E80080FF84CF9091F3001D
:102900008091F2002115310519F08830910550F0C1
:1029100041E0089709F040E08091E8008E778093CD
:10292000E80070CF44914093F10031962150310975
:102930000196E8CF803809F044C08091E800877F95
:102940008093E8008091A4058093F1009ECE8111D0
:1029500038C01091A7051230A0F58091E800877F5C
:102960008093E8001093A4050E940107112311F041
:1029700084E005C08091E30087FDFACF81E0809379
:10298000A30542E061EC81E00E94200742E261EC95
:1029900082E00E9420078091A30513C08091A705C3
:1029A000813079F481E0933009F080E08093A205D2
:1029B0001092E9008091E800877F8093E8000E94F0
:1029C00001078091E80083FF0AC08091E800877FBB
:1029D0008093E8008091EB0080628093EB00AA96E0
:1029E0000FB6F894DEBF0FBECDBFDF91CF911F9120
:1029F0000895CF93DF93682F81E06A3019F06D302E
:102A000029F480E0DF91CF910C9488158091D30751
:102A10009091D40726E0FC01ADECB7E001900D9257
:102A20002A95E1F7603E08F45AC026E0FC011192B5
:102A30002A95E9F7C091D307D091D40746E050E03A
:102A4000BE018DEC97E00E94C2329E012D5C3540A4
:102A5000892B41F1C90145E0969587954A95E1F7A3
:102A600041E050E0BA0102C0660F771F8A95E2F795
:102A7000CB016091CB057091CC05862B972BB901CA
:102A80006B5F7F4FE5E076956795EA95E1F702C0C9
:102A9000440F551F6A95E2F7842B952B9093CC0534
:102AA0008093CB052A5F3F4F4091CA05642F70E0A9
:102AB000C9010E94F931481B463010F4240F311D22
:102AC000211572E0370710F030E020E023533A4F31
:102AD0003093D4072093D307DF91CF910895F6E088
:102AE0006F9FB0011124625F784F46E050E00E9472
:102AF000AC32A0CFCF93DF93EC01FE018491811122
:102B000003C0DF91CF9108950E94F9142196F5CF6B
:102B1000CF93382FE091D307F091D407ED5CF540C7
:102B20002091CA05622F70E0CF010E94F931281B65
:102B3000822F332361F066E00E940D32C82FC1500E
:102B400010F4CF91089580E20E94F914F8CF9F010C
:102B5000280F311D2115324018F080E0F0E0E0E050
:102B60008E0F9F2F911D83539A4F9093D40780937C
:102B7000D307E7CFCF93DF93CDB7DEB768970FB614
:102B8000F894DEBF0FBECDBF4091210350912203C8
:102B90006091230370912403809125039091260373
:102BA0000E946F1B20932103309322034093230341
:102BB00050932403609325037093260386E0E1E29B
:102BC000F3E0DE01179601900D928A95E1F786E019
:102BD000FE013796DE01119601900D928A95E1F77C
:102BE00086E0FE013196DE011D9601900D928A95D8
:102BF000E1F786E0FE013D96DE01539601900D92CD
:102C00008A95E1F786E0FE017396DE011196019048
:102C10000D928A95E1F786E0FE013196A1E2B3E0DC
:102C200001900D928A95E1F786E0E1E2F3E0DE01A2
:102C3000179601900D928A95E1F786E0EBE1F3E0BB
:102C4000DE01119601900D928A95E1F746E050E081
:102C5000BE016F5F7F4FCE0107960E94C232892B63
:102C600079F0E0918E05F0918F05309749F082E080
:102C7000809321030480F581E02D81E293E00995A2
:102C8000109223031092240310922503109226031E
:102C900086E0E1E2F3E0ABE1B3E001900D928A95CA
:102CA000E1F768960FB6F894DEBF0FBECDBFDF9197
:102CB000CF9108950F931F93CF93DF93EC01FC0105
:102CC00001900020E9F78F0101501109C017D107C9
:102CD00028F0DF91CF911F910F91089589910E9463
:102CE000F914F4CFCF92DF92EF92FF920F931F93DC
:102CF000CF93DF936C017B0164E670E088E70E946C
:102D0000D62EEC0197FD12C010E000E0F601E00FB6
:102D1000F11F849164E670E00E94502FEC01892B32
:102D200029F40F5F1F4F0E151F0581F70E94D32F47
:102D3000CE01DF91CF911F910F91FF90EF90DF9027
:102D4000CF90089580918C0590918D05911103C0CD
:102D500091E089270895882369F062E070E08AE0B5
:102D600096E00E947216892B19F080918C050895C7
:102D700010928C0580918C05EBCFCF93C0918C0580
:102D800080918D058823D1F00E941708605A754103
:102D90008F4F9F4F609388057093890580938A05B4
:102DA00090938B05C11108C062E070E088E096E066
:102DB0000E947216892B29F0C0918C058C2FCF911F
:102DC000089581E080938C05F7CF4F925F926F92C8
:102DD0007F928F929F92AF92BF92CF92DF92EF92AB
:102DE000FF920F931F93CF93DF93FC016280448087
:102DF00081E08483E8E0F5E07490E7E8F5E0E491B1
:102E0000812C75E0972EF2E0CF2EDD24D394AA24F6
:102E1000AA94B12C55245A94E7190E2F10E08091F2
:102E2000A201881690F0DF91CF911F910F91FF9032
:102E3000EF90DF90CF90BF90AF909F908F907F905A
:102E40006F905F904F900C94910EE82CF12C82E0E3
:102E5000861568F09E9CF0019F9CF00D1124EF5E9A
:102E6000FB4F80918405808380918505818341108B
:102E700023C09E9CF0019F9CF00D1124EF5EFB4F40
:102E8000138212822091A001C701820F911D9C0123
:102E9000220F331F280F391F2D5C3C4F9E9CF001E1
:102EA0009F9CF00D1124EF5EFB4F42816181808178
:102EB0000E9460088394B3CF9E9CE0019F9CD00D3C
:102EC0001124CF5EDB4F8B818823E9F081508B8307
:102ED000859DC00111246C8170E00E94F931FB01D5
:102EE000FF27E85FFA4F8491E82FE719E59DC001BD
:102EF0001124B8010E94F93180918605689FB001C4
:102F000011247A83BFCF0E949C322091860526959A
:102F100021582C9DA0012D9D500D1124452F552782
:102F2000841795070CF0AECF82E0861588F40E94D6
:102F30009C32B5010E94273288830E949C322091E6
:102F400085052695622F70E00E942732280F29837D
:102F50009E9CF0019F9CF00D1124EF5EFB4F1282AE
:102F600080918605893C58F088EC9E9CF0019F9CDE
:102F7000F00D1124EF5EFB4F8483838383CF843174
:102F8000A0F784E1F2CFCF92DF92EF92FF926B0134
:102F90007C010E944A08B701A60188E090E0FF90FA
:102FA000EF90DF90CF900C94FE32AF92BF92CF9211
:102FB000DF92EF92FF920F931F93CF93DF9300D096
:102FC0000F92CDB7DEB7182FF62E042FE22E909178
:102FD000830590FF3AC0E92FE695AE2FB0E0A854E4
:102FE000BE4F8C9180932D039E7F9230E1F59E0120
:102FF0002F5F3F4F812F0E9460084B8169818A813A
:103000000E94061180918405811308C08091850576
:103010008F1104C080918605801729F080912F03BD
:10302000826080932F0310938405F09285050093AE
:103030008605EE2051F060918305709184058091A2
:103040008505909186050E94C3170F900F900F90F1
:10305000DF91CF911F910F91FF90EF90DF90CF9074
:10306000BF90AF900895823019F400918605CACFC1
:10307000863019F410918405C5CF8930D9F3893190
:1030800009F6E9518E2F8170D82EE695F0E0ED5FBC
:10309000FA4FA590B490C12CBB246091A201C61632
:1030A00018F00E94910EAECF2C2D30E0A29EC001F0
:1030B000A39E900DB29E900D112470E00E94F931F4
:1030C000812FD11013C0860F4091A001420F532FC2
:1030D000511D9A01220F331F240F351F2D5C3C4FC9
:1030E000402F6F2D0E946008C394D7CF861BECCF72
:1030F000E3E8F5E043812CE0421B08F440E021E0E6
:10310000628181810C94D517E3E8F5E043812CE0DE
:10311000420F08F44FEF21E0628181810C94D517B2
:10312000E3E8F5E0628121E1621B08F460E021E060
:10313000438181810C94D517E3E8F5E0628121E1B8
:10314000620F08F46FEF21E0438181810C94D51761
:10315000E3E8F5E0818121E04381628181510C94B3
:10316000D517E3E8F5E0818121E0438162818F5E3C
:103170000C94D51780918705882319F0815080938E
:1031800087056091830570918405809185059091F4
:1031900086050C94C31780918705833018F48F5FE0
:1031A00080938705609183057091840580918505E2
:1031B000909186050C94C317E3E8F5E083E08083E3
:1031C00011828FEF828388E783831482ADE2B3E0BC
:1031D00012968C911297836012968C936081718104
:1031E000828193810C94C317EF92FF920F931F93E8
:1031F000CF93DF937901C82F880FDD0B411551055F
:10320000A9F08AE08C9FF0018D9FF00D1124E25F00
:10321000FE4F838194818D599D4F228130E042176A
:10322000530708F49A01A9010E94CF32CE010E94EF
:103230004531892B11F501151105E9F08AE08C9FC4
:10324000F0018D9FF00D1124E25FFE4F458150E0AB
:103250000417150708F4A8018AE08C9FF0018D9FE0
:10326000F00D1124E25FFE4F668177816D597D4F2D
:10327000C7010E94CF3281E001C080E0DF91CF9191
:103280001F910F91FF90EF900895AF92BF92CF9250
:10329000DF92EF92FF920F931F93CF93DF9300D0B3
:1032A00000D0CDB7DEB78C83E62E5A01F22E68012E
:1032B0008091D5078A3080F080E00F900F900F90BA
:1032C0000F90DF91CF911F910F91FF90EF90DF90C2
:1032D000CF90BF90AF9008958C8188306CF3898334
:1032E0006A832B83609342012093590110E000E030
:1032F00030E020E043E050E0BE016F5F7F4F84E0AC
:103300000E94F4188823C1F24E2D50E030E020E0F6
:10331000B50185E00E94F418882371F230E020E0C6
:1033200041E050E0BE016C5F7F4F86E00E94F418E0
:10333000882311F20F2D10E0960150E040E070E07C
:1033400060E087E00E94F418B8CF0F931F93CF93EB
:10335000DF93CDB7DEB728970FB6F894DEBF0FBE68
:10336000CDBF85E0E3E8F5E0DE01119601900D9216
:103370008A95E1F780912D0390912E03A0912F0360
:103380008E839F83A88728854091C5025091C602ED
:103390006091C7027091C8023FB7F894809191057F
:1033A00090919205A0919305B09194053FBF841B25
:1033B000950BA60BB70B84369105A105B10510F44A
:1033C0002223C1F010E000E030E020E048E050E0CF
:1033D000BE016F5F7F4F83E00E94F418882369F07D
:1033E0000E9417086093C5027093C6028093C702BB
:1033F0009093C80210922F0381E028960FB6F8949C
:10340000DEBF0FBECDBFDF91CF911F910F91089509
:103410000F931F93CF93DF9300D000D0CDB7DEB7CB
:103420004091C1025091C2026091C3027091C402E6
:103430002FB7F8948091910590919205A0919305F2
:10344000B09194052FBF841B950BA60BB70B11E011
:1034500084369105A105B10518F10E94D0116E5F67
:103460007F4F8F4F9F4F69837A838B839C8310E0BC
:1034700000E030E020E044E050E0BE016F5F7F4FAD
:1034800082E00E94F418182F882351F00E94170838
:103490006093C1027093C2028093C3029093C402EE
:1034A000812F0F900F900F900F90DF91CF911F9170
:1034B0000F910895EF92FF920F931F93CF93DF9395
:1034C00000D000D000D0CDB7DEB77B0101E010E026
:1034D0009E012A5F3F4F50E040E070E060E080E0F6
:1034E0000E94F418182F882309F44FC04091BD02A0
:1034F0005091BE026091BF027091C0022FB7F89444
:103500008091910590919205A0919305B0919405B9
:103510002FBF841B950BA60BB70B84369105A10515
:10352000B10538F484E692E00E9470069E81891706
:1035300061F105E010E09E012F5F3F4F50E040E059
:1035400070E060E081E00E94F418082F84E692E0C9
:103550000E94700611E09E81981310E0102301F183
:103560000E9417086093BD027093BE028093BF0251
:103570009093C00285E0FE013196A8EBB2E0019085
:103580000D928A95E1F711E00BC085E0E4E6F2E0E8
:10359000DE01119601900D928A95E1F71111EACFA3
:1035A00085E0E8EBF2E0D70101900D928A95E1F712
:1035B000812F26960FB6F894DEBF0FBECDBFDF91E8
:1035C000CF911F910F91FF90EF90089569EE7EEFDC
:1035D00090E080E00E940A3360E082E090E00E9488
:1035E000EC3260E083E090E00E94EC3210926102E5
:1035F00060E084E090E00E94EC3260E082E290E0E3
:103600000E94EC3260E085E090E00E94EC3260E0E5
:1036100086E090E00E94EC326FEF87E090E00E943D
:10362000EC3240E050E0BA0188E090E00E94FE32C7
:1036300060E08DE090E00E94EC3240E050E0BA01A2
:1036400088E190E00E94FE3260E087E190E00E9415
:10365000EC3240E050E0BA018CE190E00E94FE3292
:1036600070E060E080E290E00E940A3340E050E0C9
:10367000BA0188E190E00E94FE3240E050E0BA01D9
:103680008FE090E00E94FE3240E050E0BA0183E11A
:1036900090E00C94FE32CF93C091D102C2FB9927E7
:1036A00090F9981799F080FBC2F9C093D10260910C
:1036B000D00284E090E00E94EC326C2F82E290E035
:1036C0000E94EC3282E0CF910C94EE0CCF910895E1
:1036D00030E020E043E060E086E30C94FE2DCF92E2
:1036E000DF92EF92FF920F931F93CF93DF93CDB7AB
:1036F000DEB72C970FB6F894DEBF0FBECDBF4F8359
:10370000588769877A878B879C878091AD05882346
:1037100099F00E94681B80E50E94762E8AEB8A95BC
:10372000F1F700C00E948E2E887899278038910585
:1037300009F492C00E94A62E0E949C11882309F4CD
:103740006BC00E9417080091FE011091FF012091AB
:103750000002309101026B017C01C01AD10AE20A19
:10376000F30A97018601083011052105310508F497
:1037700053C06093FE017093FF0180930002909309
:1037800001020091BC051091BD052091BE0530914C
:10379000BF05601B710B820B930B623371058105B2
:1037A000910580F41092B1051092B0051092B30506
:1037B0001092B2051092B5051092B4051092B7059B
:1037C0001092B6051091BA050E94EB11482FBE0168
:1037D000695F7F4F80EB95E0112309F46AC00E9476
:1037E000150D0091BA051091AD050E94EB1141E055
:1037F0004827BE01695F7F4F84EB95E0011709F40C
:103800005BC00E94150D86E0FE013796A4ECB5E082
:1038100001900D928A95E1F786E0FE013796DE0170
:10382000119601900D928A95E1F729813A814B8199
:103830005C816D817E8180E090E02C960FB6F894DB
:10384000DEBF0FBECDBFDF91CF911F910F91FF90D3
:10385000EF90DF90CF9008950E948E2E0E948E2EC2
:103860007C010E948E2E20E0E22AF82A0E948E2EF1
:103870008C010E948E2E20E0022B182B0E94A62E77
:10388000F894B7018091B0059091B1050E94CC0DDC
:103890009093B1058093B005B8018091B2059091E5
:1038A000B3050E94CC0D9093B3058093B205789434
:1038B00043CF0E94720D95CF0E94720DA4CFCF937B
:1038C000DF93D82FC62F0E94681B8D2F80680E941F
:1038D000762E8C2F0E94762E0E94A62E8FEC92E0E0
:1038E0000197F1F700C00000DF91CF910895682F94
:1038F000893708F068E76093B80591E09093B905BF
:103900009091AD05992359F06150811101C064E097
:103910008FE00E945F1C60E080E50C945F1C0895BE
:10392000FB0180810C94771C9091B805911101C026
:1039300095E0282F880F330BA901490F511DCA01AB
:103940001816190614F081E090E00C94771CCF93C0
:10395000C82F0E94681B8C2F0E94762E8FE792E062
:103960000197F1F700C000000E948E2EC82F0E9420
:10397000A62E9AE69A95F1F700C08C2FCF91089564
:10398000CF93DF930E94F62D269A0E94681B6AE56A
:103990008AE30E945F1C2FEF80E792E02150804075
:1039A0009040E1F700C0000082E00E94A71C83E085
:1039B0000E94A71C84E00E94A71C85E00E94A71C0F
:1039C00086E00E94A71C60E080E10E945F1C80E00E
:1039D0000E94A71CD82F81E00E94A71CC82F0E941C
:1039E000A62ED23419F481E0C13009F080E0817054
:1039F0008093AD05882351F064E08FE00E945F1C46
:103A000060E080E5DF91CF910C945F1CDF91CF9156
:103A100008951F920F920FB60F9211242F933F9388
:103A20004F935F936F937F938F939F93AF93BF93C6
:103A3000CF93DF93EF93FF93D091E900DF708091F4
:103A4000EC00C82FC17080FDC0E81092E9008091A1
:103A5000F000877F8093F00078940E943B121092D0
:103A6000E9008091F00088608093F000CD2BCF704A
:103A7000C093E900FF91EF91DF91CF91BF91AF919A
:103A80009F918F917F916F915F914F913F912F9176
:103A90000F900FBE0F901F9018951F920F920FB6A8
:103AA0000F9211242F933F934F935F936F937F93C4
:103AB0008F939F93AF93BF93EF93FF938091E10018
:103AC00082FF09C08091E20082FF05C08091E10081
:103AD0008B7F8093E1008091DA0080FF24C0809189
:103AE000D80080FF20C08091DA008E7F8093DA00BA
:103AF0008091D90080FF9DC080E189BD82E189BDB0
:103B000009B400FEFDCF81E08093A3058091950567
:103B1000811109C00E9487060E9452078091E2002D
:103B200084608093E2008091E10080FF17C0809163
:103B3000E20080FF13C08091E2008E7F8093E2005C
:103B40008091E20080618093E2008091D8008062E1
:103B50008093D80019BC85E08093A3058091E10093
:103B600084FF2BC08091E20084FF27C080E189BDE3
:103B700082E189BD89B5982F917080FFFBCF80913C
:103B8000D8008F7D8093D8008091E1008F7E809354
:103B9000E1008091E2008F7E8093E2008091E2005C
:103BA00081608093E2008091A405882309F447C0D6
:103BB00084E08093A3058091A3058091E10083FFB9
:103BC00027C08091E20083FF23C08091E100877FBE
:103BD0008093E10082E08093A3051092A405809178
:103BE000E1008E7F8093E1008091E2008E7F8093E0
:103BF000E2008091E20080618093E20042E060E0B8
:103C000080E00E9420078091F00088608093F0009F
:103C1000FF91EF91BF91AF919F918F917F916F91A4
:103C20005F914F913F912F910F900FBE0F901F907A
:103C3000189519BC1092A3051092950574CF809128
:103C4000E30087FD93E09093A305B5CF78941F928E
:103C50001FB61F9211248F939F93AF93BF938091B0
:103C6000910590919205A0919305B09194050196CC
:103C7000A11DB11D8093910590939205A09393058A
:103C8000B0939405BF91AF919F918F911F901FBEEC
:103C90001F9018959C014FB7F894809191059091D1
:103CA0009205A0919305B09194054FBF821B930B91
:103CB00008952FB7F8948091910590919205A09165
:103CC0009305B09194052FBF08950E949C11811116
:103CD0000C94591E0E94D011CB0108956091830568
:103CE000669570E04BE050E08FE891E00E94B532BD
:103CF000892B19F481E080932E030E94651E909316
:103D000028038093270380912F03846080932F03DF
:103D100008959091830590FF3BC0917081112EC052
:103D200092609093830580912F03816080932F038D
:103D3000662351F06091830570918405809185051B
:103D4000909186050E94C31760918305669570E087
:103D50004BE050E08FE891E00E94B532892BA9F04A
:103D60000E94430881E080932A0320E04091860569
:103D700060918505809184050C94D5178B3210F0E5
:103D80009465CFCF880F982BCCCF0E946E1EEACFC0
:103D90000895809183058695815009F48AE261E057
:103DA0000C94891E8091830586958F5F8B3208F075
:103DB00081E061E00C94891E9091830590FF07C01B
:103DC0009695981720F0961710F40C94D21E61E087
:103DD0000C94891E8F929F92AF92BF92CF92DF92E6
:103DE000EF92FF920F931F93CF93DF93CDB7DEB780
:103DF00062970FB6F894DEBF0FBECDBF7C01FC0109
:103E000083819481892B39F010810181812F802356
:103E10008F3F09F070C462960FB6F894DEBF0FBEF4
:103E2000CDBFDF91CF911F910F91FF90EF90DF9069
:103E3000CF90BF90AF909F908F9008950E941E0BDF
:103E4000D82E682F89819A810E94AC0BE02FF0E078
:103E50002AE0D29EE00DF11D112403E0EE0FFF1FBA
:103E60000A95E1F7E10FF11DEE0FFF1FE455FF4F3B
:103E7000259134913093C1052093C005F7018081CD
:103E800091819093C3058093C205213F310540F095
:103E9000293F3105A8F02D3AFDE53F0709F468C038
:103EA000F7018281882309F437C4F901E65AFD45F8
:103EB000EA30F10508F09BC0E356FC4C0C943B3211
:103EC000215F310981E090E001C0880F2A95EAF76F
:103ED000328126E0E1E2F3E0DE01179601900D92D7
:103EE0002A95E1F726E0FE013796DE011D96019046
:103EF0000D922A95E1F728853323B9F1822B8E871D
:103F000086E0FE013D96DE01119601900D928A95A4
:103F1000E1F786E0FE013196A1E2B3E001900D9257
:103F20008A95E1F780915D02877009F474CFF701FB
:103F30008281882309F46FCF8091D10282FD6BCFFB
:103F400082E062960FB6F894DEBF0FBECDBFDF9160
:103F5000CF911F910F91FF90EF90DF90CF90BF9086
:103F6000AF909F908F900C94EE0C80958223C7CFDA
:103F7000F70182810E94BA0CD5CF80E00E94771CA5
:103F80001092BB05CFCF4091B8055091BB0550FBB7
:103F900047F95695537060E070E08FE090E00E9422
:103FA000FE32C0CF81E00E94941CBCCF8FEFFBCFCC
:103FB0008AE0F9CF86EFF7CF9091BA0581E08927A3
:103FC000D9CF8091BB05811101C084E08F5F1816A5
:103FD0000CF081E0883008F087E08093BB05A2CF29
:103FE0008091BB05811101C084E08150F0CF263162
:103FF000FCE53F0709F056C1809196058A7A91E069
:1040000009F490E09093020269E2811165E386EE83
:1040100091E00E9423080E94E70A84CF85E386C3CB
:104020008091960582722D3C9CE5390709F420C1E8
:1040300008F09BC0273CFCE53F0709F405C108F0E8
:1040400074C0243CECE53E0709F4F4C008F05DC000
:10405000233C3C4509F4C2C0F701828110810181F3
:10406000882309F464C1812F902F0E941E0BD82E43
:10407000682F812F902F0E94AC0B2AE0D29EF00176
:104080001124E00FF11D73E0EE0FFF1F7A95E1F7A9
:10409000E10FF11DEE0FFF1FE455FF4F8591949145
:1040A0000E9474098C01882EF701C280B580B294F9
:1040B000BFE0BB2280915D028770C1F0AC2CCC20A8
:1040C000B1F0812F807F803421F080E2800F883032
:1040D00068F08091D10282FD09C082E00E94EE0C5E
:1040E00080915D028770AA24A3948111A12C912E46
:1040F00092946FE09622FBE0F91508F486C1E92D51
:10410000F0E0E955FC4C0C943B32253C9CE539072A
:1041100009F495C048EA58E161EB78E1263C3C455A
:1041200009F09ACF0E943D08FDCE2A3CFCE53F07EE
:1041300009F494C068F4283CECE53E0709F489C012
:104140004CE958E160E978E1293C3C4559F384CFDA
:104150002B3C9CE5390709F486C04AEB58E16BEC2F
:1041600078E12C3C3C45F1F277CF223DFCE53F075E
:1041700009F48CC098F42F3C9CE5390709F480C001
:1041800008F47BC0203DFCE53F0709F47CC0213DDD
:104190003C4509F061CF6EE089E01DC0253D9CE5FE
:1041A000390709F479C060F4233DFCE53F0709F4C1
:1041B00070C0243D3C4509F04FCF61E088E137C035
:1041C000263D9CE5390709F46AC06AE285E22E358E
:1041D0003D4509F041CF0E94DC1EA4CE80918305AD
:1041E00080FF20C08E7F809383056091830570914E
:1041F000840580918505909186050E94C3170E94D1
:10420000430880912F03816080932F03FFEF20E705
:1042100032E0F15020403040E1F700C000000E9441
:10422000910E80CE81608093830561E086950E9427
:10423000891E78CE49EC5EE162ED7EE173CF42EDFE
:104240005EE169EC7EE16ECF41EB58E168EA78E12E
:1042500069CF40E958E16CE978E164CF48E758E17B
:1042600064E878E15FCF44E858E168E778E15ACF45
:104270004BEC58E16AEB78E155CF61E081E0D7CFB4
:1042800065E082E0A8CF68E086E0A5CF64E18FE03A
:10429000A2CF67E185E19FCF62E289E19CCF61E037
:1042A00083E2C5CF2B358DE5380709F43CC058F4BF
:1042B0002115ECE53E07C9F02F3D3C4509F0CCCE79
:1042C0000E94E61A2FCE2C358DE5380771F12D3579
:1042D0003D4509F0C1CE8091D10282FB882780F94B
:1042E00091E089270E944B1BB7CE109296050E9441
:1042F0002E12EFEFF4E32CE0E150F0402040E1F724
:1043000000C0000087E797E79093010880930008BA
:1043100088E19AE00FB6F894A895809360000FBEEC
:1043200090936000FFCF81E0DDCF80E0DBCF812F75
:10433000902F0E94840BD82EA0CE212F2F70D22E2A
:10434000107F19F0D29450EFD522CC20B9F0DD20A7
:1043500069F080E2800F883010F0811009C08091F0
:104360009605D82AD09296050E94E70A802F4BC066
:1043700080915F02D82AD0925F02F6CF802F0E94F0
:10438000190CDD2009F441C0005E083010F08110E6
:1043900004C08D2D0E94E00A06C0D09480915F0277
:1043A000D822D0925F020E94E70A2FC0312F3F70BF
:1043B000D32E107F103219F0D29440EFD4228820EF
:1043C00089F081E0881609F48BC0CC2009F495C0EF
:1043D000BB2009F48BC0F701858180FFC7CF8F70A8
:1043E000858384C02091D10222FF57C0CC2009F4DC
:1043F0004DC0DD2039F080919605D82AD0929605DF
:104400000E94E70A80E00E946F0CE92DE850FF0B44
:10441000349710F40E94C011AA20A9F080915D0287
:1044200080FD11C0F70112828595859585950E94C2
:104430000A0DC7010E94EA1E80915D02859585954F
:1044400085950E94E20C85E0F701DE01119601904E
:104450000D928A95E1F789819A810E94840BEA8105
:10446000FAE08F9FC00111248E0F911D23E0880F69
:10447000991F2A95E1F7E981E80FF92FF11DEE0F59
:10448000FF1FE455FF4F85919491C5CC80E00E94B9
:10449000190CDD2009F4B9CF7CCFCC20A1F090918C
:1044A00060028D2D892BB11003C00E940F0CADCF7F
:1044B000E1E0BE12FACF22FDA8CF981709F4A5CFEC
:1044C00080936002A2CFB11006C00E94DA0A8D2D3F
:1044D0000E94080C9ACFF1E0BF1609F496CFF5CFF1
:1044E000CC2031F025E02B1508F48FCF8D2DDDCFBA
:1044F00034E03B1508F489CFEACFBB2041F3F9E360
:104500008F12F2C02FEF37EE83E021503040804011
:10451000E1F700C00000E8C0812F837089F5C11069
:1045200074CF402F429546954770440F440F802F1B
:104530008F70042E01C0880F0A94EAF7202F207193
:1045400004FF07C02FE030E001C0220F4A95EAF7D0
:104550002095169516951370123069F050F430912D
:104560006102113029F0822B83230E94D90B4DCF99
:10457000832B822BFACF282B809161028227F5CFE3
:104580008695CC2011F0812F8170882309F43DCFCE
:10459000402F429546954770440F440F802F8F70EF
:1045A000042E01C0880F0A94EAF7202F207104FF1F
:1045B00007C02FE030E001C0220F4A95EAF72095AE
:1045C000169516951370123069F050F43091CF02A1
:1045D000113029F0822B83230E94CE0C16CF832B1F
:1045E000822BFACF282B8091CF028227F5CF1F7024
:1045F000CC2029F0812F0E940A0D802F56CF802FCA
:104600000E94080C812F0E94E20CFFCE802F92EFB7
:104610008916A9F1981570F0E0EF8E16D1F0F1EF40
:104620008F1691F0CC2009F45AC0B1109FCE812F83
:104630008F7129C023EF821649F134EF8312F2CF34
:104640008091D10282FF2DC0812F8F71CC20D9F2B1
:104650001AC0CC2079F084E08B1508F4D6CE1F71F7
:1046600081E090E001C0880F1A95EAF79091CF029F
:104670008927B2CF95E09B1508F4C7CEF0CF812FE4
:104680008F71C110C0CF0E940A0DBFCE80E0CC2038
:1046900009F4A2CF1F7181E001C0880F1A95EAF7D3
:1046A0009BCFCC2089F01F71812F0E940A0D809131
:1046B000D10282FD07C0E8E01E9FC0011124836083
:1046C00080935D02812FDFCF81E00E94EE0CF1E04C
:1046D000FB1508F09ACE82E00E94EE0C96CEBB202D
:1046E00039F0893309F40ECF802F0E94190C8DCE3A
:1046F000812F8F7188CF85E0DE01119601900D9298
:104700008A95E1F7F701228189819A81211196CB5F
:104710000E94840BD82E9ACB2631FCE53F0709F086
:104720007FCC80910202811179CC89E2E8EEF1E040
:104730002EEE31E09191891303C0DF0111971C9295
:104740002E173F07B9F767CC1F93CF93DF93809164
:104750002A02807FA9F480912702882389F0809122
:104760005C02D0912B026091250270912602A091EB
:104770002802B0912902C62FC72316E0D81304C01F
:10478000DF91CF911F91089590E0109711F0CF3FE6
:1047900019F401968770F2CF189F9001199F300D80
:1047A0001124F901E45DFD4F41814713F2CF4081AF
:1047B0004613EFCF42814111ECCF438154814A1B14
:1047C0005B0B483C510528F780912A028F7080616D
:1047D00080932A02F901EF5CFD4F80818F70806128
:1047E000808385E292E00E94EA1EDF91CF911F91C3
:1047F0000C94140BAF92BF92CF92DF92EF92FF9284
:104800000F931F93CF93DF93CDB7DEB761970FB6AA
:10481000F894DEBF0FBECDBF8C0185E0F801DE014C
:104820001D9601900D928A95E1F7F801E28085E2EC
:10483000A82E82E0B82E609128027091290261159D
:10484000710509F432C19091250240912602892F09
:1048500084238F3F09F429C120813181C380D48012
:10486000F0902702F601E61BF70BFF2009F4E8C0E1
:1048700080912A02582F507FE83CF10508F0ABC028
:10488000511177C0FE2C431321C092131FC0E110B9
:104890001DC08F70806180932A02C5010E94EA1EAC
:1048A00080912A02F80185838F2D61960FB6F894C6
:1048B000DEBF0FBECDBFDF91CF911F910F91FF9053
:1048C000EF90DF90CF90BF90AF900895CD2829F062
:1048D000822F83238F3F09F003C180E0F82FF1700E
:1048E000DF2E80FF3CC080915C0240912B0256E09D
:1048F000841315C02D873E878D859E850E94680B89
:10490000292F22952F702230F0F0243018F59F7057
:10491000F1F0F8019581907FD1F4D12C1EC090E088
:10492000589FF001599FF00D1124E45DFD4F618106
:10493000361306C06081261303C06281E6120FC0E1
:1049400001968770D5CF9F7011F0882331F3805E78
:10495000883018F3C8010E94EA1EFD2CA5CFEE2076
:1049600009F4A2CF80912A02816080932A02F12C5F
:104970009BCF431306C0921304C0F801EE2009F444
:1049800079C0C8010E94E10B882309F1EE20F9F0FB
:1049900080912A02803270F0209125023091260207
:1049A00038872F831986DB86CA868C87CE010796C7
:1049B0000E94EA1E86E0F801A5E2B2E001900D92A5
:1049C0008A95E1F70E94A423FF24F3946DCFC801D8
:1049D0000E94EA1EF9CF51110AC085E292E00E94BE
:1049E000EA1E86E0F50111928A95E9F7C0CF4313DC
:1049F0000FC092130DC0E1100BC0F8018583C801F0
:104A00000E94EA1E86E0F50111928A95E9F74CCFE3
:104A1000C8010E94E10B8823D1F2EE20C1F28091FF
:104A20002A02803238F220912502309126023A8300
:104A300029831B82DD82CC828E83CE010196B8CF82
:104A4000E83CF105F8F6FE2CEE2009F243131FC0F6
:104A500092131DC080912A0280FD10C0982F907F74
:104A600069F0F8018583903F31F0982F907F905F37
:104A70008F70892B8583C8010E94EA1E86E0F801A9
:104A8000A5E2B2E001900D928A95E1F70DCFC80141
:104A90000E94E10B81118ECF80912A028160809368
:104AA0002A02C8010E94EA1EFFCEEE2009F48FCF31
:104AB000C8010E94E10BF82E882309F488CF86E014
:104AC000F801A5E2B2E001900D928A95E1F780919C
:104AD0002502909126020E94680B0E94A423E4CE36
:104AE00081E08E25FBCE1F93CF93DF93CDB7DEB74A
:104AF00067970FB6F894DEBF0FBECDBF4B8B5C8BB4
:104B00006D8B7E8B8F8B611110925F021A8A198ACE
:104B100085E0FE017396DE011D9601900D928A9547
:104B2000E1F786E0FE013D96DE01179601900D92B9
:104B30008A95E1F7CE0107960E94FA23882389F02F
:104B400016E080915C0290912B0289134BC067960E
:104B50000FB6F894DEBF0FBECDBFDF91CF911F918E
:104B6000089586E0FE013796DE01119601900D92C0
:104B70008A95E1F78A859B85892B11F38F8198852A
:104B800089238F3FE9F220912B0230E0C901019681
:104B90008770992740915C024817190681F410929A
:104BA00096050E942E1210922B0210925C0286E053
:104BB000E5E2F2E0DF011D928A95E9F7C1CF96E0C8
:104BC000929FD001939FB00D1124A45DBD4FFE01B3
:104BD000319601900D929A95E1F780932B020E94F5
:104BE000140BAECF819FC0011124845D9D4F0E94A4
:104BF000FA23882309F4ABCF80915C0290E0019600
:104C00008770992780935C029CCF4F925F926F923E
:104C10007F928F929F92AF92BF92CF92DF92EF924C
:104C2000FF920F931F93CF93DF9336EDE32E37E080
:104C3000F32E4AE0642E41E0742E470105E011E0B6
:104C4000512CAA24A394B12CD8018D918D010E94DE
:104C5000DF0D00C0E40148802AE0C22E21E0D22E00
:104C6000F601D0E0C0E04191A42FA295AF70B0E072
:104C700090968C9195010C2E01C0220F0A94EAF7B0
:104C800090E04F7002C0959587954A95E2F780FDB8
:104C900087C0422A2196C430D10529F7F8013197FF
:104CA00080810E94F30DA0EAAA95F1F7F4018081BA
:104CB000841519F0408255245394FFEF8F1A9F0AF0
:104CC0006016710609F601E010E0D6018D916D01C4
:104CD0000E94DF0D00C0C8010C2E01C0880F0A948D
:104CE000EAF7782FE6EDF7E095E0A92E91E0B92EEE
:104CF000682F6095D5012D915D01822F82958F706F
:104D000090E0DC0190968C91AF01308190E02F70A3
:104D100002C0959587952A95E2F780FD44C0872FBC
:104D2000832B80833196DA018C91381711F055244A
:104D30005394BAE0AB16B1E0BB06E1F6F601319749
:104D400080810E94F30DE0EAEA95F1F72196C830E0
:104D5000D10509F0BACFC091CE02552039F181E0DA
:104D60008093F1010E94591E9093F0018093EF010E
:104D70008091EF019091F0010E944A1E0597D0F0BA
:104D8000EC2FF0E0ED52FD4F8BED97E0D7012D9128
:104D90007D0121938A179B07C9F71092F1010AC080
:104DA0002095422277CF862F8323BBCF8091F101BC
:104DB0008111DECF0E949C11182FE091CE0281114B
:104DC000A3C0F0E0ED52FD4FF89485E0A4E6B2E018
:104DD00001900D928A95E1F784E692E00E947006B8
:104DE000809363027894F894C0906902D0906A022C
:104DF000E0906B02F0906C028091F2019091F301CF
:104E0000A091F401B091F501C816D906EA06FB0697
:104E1000D1F0C092F201D092F301E092F401F0924D
:104E2000F5010E949C1181110EC00E941708C61A3C
:104E3000D70AE80AF90AC092C902D092CA02E092DF
:104E4000CB02F092CC027894F8948091740288237B
:104E500079F180FF0DC080916D029091830580FFF4
:104E60003AC091609093830560E086950E94891E08
:104E70008091740281FF09C020E04091700260912E
:104E80006F0280916E020E94D5178091740282FF9A
:104E900006C0809173028823A1F10E946E1E80914A
:104EA000740283FF03C081E080932A03109274028E
:104EB0007894852DDF91CF911F910F91FF90EF9006
:104EC000DF90CF90BF90AF909F908F907F906F902A
:104ED0005F904F9008959E7F909383050E944308B2
:104EE00080912F03816080932F03BFEFC0E7D2E052
:104EF000B150C040D040E1F700C000000E94910EC8
:104F0000B7CF0E944308CBCFABEDB7E085E0ED0112
:104F100019928A95E9F7CE2FD0E0CD52DD4F8091DE
:104F2000D5078A30A8F56AE57AE1CE010E94080E1D
:104F3000882309F449C068E07AE1CE010E94080E96
:104F4000882309F441C065EA79E1CE010E94080E88
:104F50008823D1F11092D50781E08093F801C091A8
:104F6000CD02D0E0CD52DD4F45E050E06BED77E073
:104F7000CE010E94C232892B09F49BCF85E0EBED74
:104F8000F7E0DE0101900D928A95E1F7512E91CF65
:104F90008091F6019091F7010E944A1E843F914052
:104FA00010F68091F801882309F483CF1092F8015C
:104FB000E091CD02F0E0ED52FD4F95E0DF011D9252
:104FC0009A95E9F7582E75CF8091D5078F3F31F02C
:104FD0008F5F8093D5078A3008F4BECF0E94591E98
:104FE0009093F7018093F601DCCF1F921FB61F92BA
:104FF00011248F939F93AF93BF938091900581115C
:1050000013C08091910590919205A0919305B09164
:1050100094054196A11DB11D809391059093920531
:10502000A0939305B0939405BF91AF919F918F91F9
:105030001F901FBE1F901895CDB7DEB760970FB6B3
:10504000F894DEBF0FBECDBF84B7877F84BF0FB695
:10505000F894A89580916000886180936000109218
:1050600060000FBE80E890E00FB6F8948093610076
:10507000909361000FBE85B7806885BF85B7806853
:1050800085BF8DE099E09093E5018093E4010E9453
:1050900087060E9452078091E20084608093E200BC
:1050A00078948091A3058823A1F01091E9001F70E6
:1050B0009091EC00892F817090FD80E8182B109260
:1050C000E9008091E80083FD0E943B121F7010935D
:1050D000E90082E084BD93E095BD9AEF97BD80938F
:1050E0006E001092C9021092CA021092CB02109266
:1050F000CC020E94EB11809304018091040188236B
:1051000009F4FCC210929E0185E280939F010E94E7
:105110009C1181110E94383080910A010E94F30D88
:1051200080910B010E94F30D80910C010E94F30D00
:1051300080910D010E94F30D05E011E04AE0E42E9C
:1051400041E0F42ED8018D918D010E94F30DE016FF
:10515000F106C1F78091040195E0811190E09093F0
:10516000CE0285E0891B8093CD020E949C118111A3
:1051700002C00E943B30E6EDF7E080EE97E0A3ED41
:10518000B2E011921D928E179F07D9F790E080E050
:105190000E94E632893E9E4F11F00E94E61A82E09C
:1051A00090E00E94D8328093050384E090E00E9452
:1051B000D832182F82E290E00E94D832982F812FA7
:1051C0009093D1028093D00283E090E00E94D83285
:1051D0000E94D90B8091CF020E94A90C91E08330EC
:1051E00009F090E0892F0E94BA0C0E949C1188233C
:1051F00009F488C280E08093000380E88093CA05A8
:105200000E94D02E6DE070E08FE393E00E94721652
:10521000892BE9F58091000363E070E081FD74C2A1
:105220008CE393E00E947216892B89F56DE070E0A3
:105230008CE293E00E947216892B49F50E941708B0
:10524000605A75418F4F9F4F609388057093890511
:1052500080938A0590938B05EDECF5E080E092E079
:10526000DF019C011D9221503040E1F7F093D407FB
:10527000E093D3078FEF9FEF9093CC058093CB05FE
:1052800081E080938D0580938C05109201038091BD
:10529000D20281113BC090E080E00E94E632893E5C
:1052A0009E4F21F00E94E61A0E94DC1888E090E0F0
:1052B0000E94E03260938305709384058093850596
:1052C0009093860580912F03836080932F036E7FD8
:1052D00071F40E94DC1888E090E00E94E032609354
:1052E00083057093840580938505909386050E94BD
:1052F0004A080E9443088091830580FF04C060E053
:1053000086950E94891E81E08093D2020E94C01C73
:105310000E949C1181112EC088E292E19093670156
:105320008093660125E130E03093620120936101B2
:1053300085E390E0909365018093640149EF58E024
:10534000509371014093700130936C0120936B0175
:1053500090936F0180936E0140E95CE150937B0173
:1053600040937A01309376012093750190937901EF
:105370008093780190E080E00E94E632893E9E4F63
:1053800089F48FE090E00E94E0328B01862F8F77C6
:105390000E94771C001F0027001F1370110F102B95
:1053A0001093BB050E9402128CE791E090938F0549
:1053B00080938E0538E1832E912C8091A30512E114
:1053C000853009F4E2C10E940526D82E81110E9481
:1053D0001708A6EAB1E046E053E023ED32E010E022
:1053E00000E0B02EF901F1909F018D91F822FA01B1
:1053F0008191AF018F1509F4D9C18F25C12CEE24FD
:10540000E394982F9E2109F4CCC10E949C1188231B
:1054100099F0C982BA82FE2081E009F480E08B8392
:105420000E94591E8160782F9D838C8349815A8107
:105430006B818D810E947325F801EA5FFC4F8081AA
:10544000E826E08280912E03882309F464C08091CD
:105450002D03E0918305E695E81BE0932903823054
:1054600009F0BBC1F0E0E35AFC4FE4910E2F10E0CD
:1054700028E8E22E21E1F22E80912A03882361F0B0
:1054800010922A030E94651E90932803809327039D
:1054900010922C0310922B030E94651EE0912703AB
:1054A000F09128039C012E1B3F0B2F3F3F4798F59F
:1054B0002091DF022223B1F01092DF022091DD0261
:1054C0003091DE02821B930B8F3F9F4758F4205D83
:1054D0003A483093DE022093DD0280912F038860EA
:1054E00080932F03A0902B03B0902C03E00FF11FAB
:1054F000F0932803E093270387E293E0F7010995EF
:1055000080912B0390912C03892B29F4AB2819F05F
:1055100081E08093DF0280918D05882351F1809195
:105520000203909103030E944A1EC29708F0C1C172
:105530002091CB053091CC052115310509F06BC2C6
:1055400080918C058823A9F00E9417080091880596
:105550001091890520918A0530918B05601B710B94
:10556000820B930B6F3F7F4F8F4F9F4710F40E942A
:10557000A216D1100E94BD160E94BA150E94C01139
:1055800090910403891721F00E94C01180930403B5
:105590000E949C11882309F410CF0E9417082091C3
:1055A0001603211146C0009112031091130320919C
:1055B0001403309115036B017C01C01AD10AE20A71
:1055C000F30A97018601043F11402105310588F156
:1055D0006093120370931303809314039093150345
:1055E0008091100390911103019690931103809381
:1055F00010031B868E01055F1F4F21E050E040E045
:1056000060E088E00E944519811106C08091100376
:10561000909111030A976CF081E0809316038093B8
:10562000AE059B85911101C080E08093AF050E947B
:1056300002128091AF05882309F4BFCE0E9417089B
:105640006B017C018091170390911803A0911903BD
:10565000B0911A03A7019601281B390B4A0B5B0B6B
:10566000DA01C9010497A105B10580F11B861C86EA
:105670001D861E868E01055F1F4F24E050E040E02E
:1056800060E089E00E9445198823C1F06B857C8524
:105690008091B4059091B5050E94CC0D9093B5050D
:1056A0008093B4056D857E858091B6059091B70590
:1056B0000E94CC0D9093B7058093B605C092170356
:1056C000D0921803E0921903F0921A038091B90561
:1056D000882309F472CE8091B8058B8710E000E032
:1056E00020E0AE01455F5F4F61E08AE00E9445190E
:1056F000882309F462CE1092B9055FCE85E28093CB
:105700009E0103CD82E077CD89E393E08BCD80913C
:10571000A305843031F10E94A2160E94BA1510929E
:10572000900550E40FB6F894A895809260000FBEE3
:105730005093600083B7817F846083BF83B78160AB
:1057400083BF7894889583B78E7F83BF0FB6F89414
:10575000A89580916000886180936000109260003D
:105760000FBE8091A205882381F00E940526A6EA3B
:10577000B1E0E3EDF2E081919D91892309F01DC232
:105780008DED92E08E179F07B1F78091A3058530CC
:1057900009F4BDCF109296050E942E120E94C011EE
:1057A00012CEC394EE0CF8E0CF122BCE0F5F1F4F3A
:1057B0000A30110509F015CE8FEF8E838F8318867E
:1057C0000E94591E8160782F9A8789874E815F8158
:1057D00068858A850E94732535CE863059F4F0E0BD
:1057E000E65AFC4FE4910E2F10E098E7E92E91E184
:1057F000F92E42CE893061F4E695F0E0E95AFC4F8B
:10580000E4910E2F10E089ECE82E80E1F82E34CEE2
:105810008F3061F4E695F0E0EC5AFC4FE4910E2FE6
:1058200010E0B0E3EB2EB0E1FB2E26CE853159F42B
:10583000F0E0EF5AFC4FE4910E2F10E0A9EAEA2EB7
:10584000AFE0FA2E19CE08E210E079E1E72E7FE012
:10585000F72E883109F410CE833249F4EFE4F3E0F7
:1058600005911491FFE1EF2EF1E1FF2E05CE04EF3B
:1058700011E06CEDE62E6EE0F62E843209F4FCCDDC
:1058800000ED17E052E4E52E58E0F52E853209F0E0
:10589000F3CD8E2F63E00E940D32E92FF0E0E45B40
:1058A000FC4FE4910E2F10E0E5EEEE2EE6E1FE2E29
:1058B000E3CD0E94591E90930303809302038DEC65
:1058C00095E09093D4078093D3070E949C1188237E
:1058D00009F49CC01091C005012F81EA93E00E9459
:1058E0007A158091C3058F708A3008F081C0805D81
:1058F0000E94F9148DE993E00E947A158091C20507
:105900008F708A3008F076C0805D0E94F914002301
:1059100009F476C08AE993E00E947A15812F829576
:105920008F708A3008F068C0805D0E94F914812F62
:105930008F708A3008F062C0805D0E94F9148CEF8D
:10594000810F853308F05CC086E993E00E947A15E8
:10595000212F2450330BF901EF59FC4F84910E9401
:10596000F9148DEB93E00E947A158091C6050E9490
:10597000A10D0E945A168091C7050E94A10D0E9498
:105980005A168091C9050E94A10D0E945A16809155
:10599000C8050E94A10D0E945A1684EB93E00E9454
:1059A0007A158091B805811101C085E00E94A10D92
:1059B00001960E945A168EEA93E00E947A15809111
:1059C000BA05811121C080E30E94F9148AEA93E0AC
:1059D0000E947A158091BB05811101C084E0805D31
:1059E0000E94F91480918D05882309F4A9CDA0CDDA
:1059F000895A7ECF895A89CF895A97CF895A9DCFA4
:105A000081E00E948815ADCF81E3DECF83EC93E087
:105A10000E947A15E7CF8091010361E070E0811167
:105A20008FCD082F10E07B01082E02C0EE0CFF1C6A
:105A30000A94E2F7A9014E215F21452B09F447C0E2
:105A40009091000390FD45C08295880F80768093E9
:105A50008A019801369527953695279520938D01D3
:105A6000815E80938B0110928E0124E630E047E046
:105A700050E068E871E088E70E947F2F892B09F0E9
:105A80005FCDA80125E0440F551F2A95E1F78091CD
:105A9000000380FD2CC043535A4F04E610E020E27F
:105AA00030E060E488E70E94A62F892B09F048CDFA
:105AB0000E94BD16E094F0948091CB059091CC05A6
:105AC000E822F922F092CC05E092CB0539CD8F5F28
:105AD000A8CF880F880F880F80938A0110928D01BC
