:100000000C94BE050C9405060C9405060C94333034
:100010000C9405060C9405060C9405060C94050634
:100020000C9405060C9405060C94D51C0C94911C9C
:100030000C946D270C9405060C9405060C9405068B
:100040000C9405060C9405060C9405060C94050604
:100050000C9405060C94AE1D0C9405060C94050634
:100060000C9405060C9405060C9405060C940506E4
:100070000C9405060C9405060C9405060C940506D4
:100080000C9405060C9405060C9405060C940506C4
:100090000C9405060C9405060C9405060C940506B4
:1000A0000C9405060C9405060C94050641646A75CB
:1000B0007374005261697365004C6F776572004418
:1000C000656661756C740014001A0008001500174D
:1000D000002F0004001600070009000A0030001D70
:1000E000001B000600190005000000E00039642A2A
:1000F000682C41916290432900130012000C0018F3
:10010000001C0033002D000F000E000D000B00310D
:10011000003800370036001000110046002B001E8A
:10012000024C68284200003A003B003C003D003E83
:1001300000260220021E02240231021F022702357D
:1001400000340234002302350200000100220201C3
:100150000001000100010044004300420041004052
:10016000003F004500F300F2004B00F100010001E8
:1001700000010001004E000100010001000100012A
:100180000001002A43000031002400250026002E33
:100190000226022502210022002300370027023810
:1001A000001E001F0020002E000000010027002874
:1001B000004C432C00010044004300420041004039
:1001C000003F00450001004F0052005000010001B7
:1001D00000010001005100010001000100010001C7
:1001E00000010001000000C35C01000100010001EA
:1001F000000100C45CC65CC85CCA5C01000100C5AB
:100200005CC75CC95CCB5C01000000005CDF5C018A
:1002100000010001000100D35CD25CD15CD05CCF56
:100220005CCE5C010001005E5DD65CD55CD45CA751
:100230005DAA5DA85DA95DAB5D0100A65D0100AE94
:100240005DAF5D0100000000DA0281FFD9F1DB2023
:10025000A4A62EAF00A0C000A1C800AED580A81FE4
:10026000D300408D1420001E0F0500047F3F1F6443
:100270003214643214783C1E1E140A0561626364F1
:1002800065666768696A6B6C6D6E6F7071727374A6
:1002900075767778797A3132333435363738393084
:1002A000524542545F2D3D5B5D5C233B27602C2E05
:1002B0002F20202700204B00202043004B65792071
:1002C0003A202052002020440030302020530020CB
:1002D000202020204350490042616C6C3A004C6160
:1002E0007965723A2000556E646566696E656400D2
:1002F000808182838485868788898A8B8C8D8E8F86
:100300009091929394A0A1A2A3A4A5A6A7A8A9AAFC
:10031000ABACADAEAFB0B1B2B3B4C0C1C2C3C4C573
:10032000C6C7C8C9CACBCCCDCECFD0D1D2D3D400CA
:1003300000010101010101010101020202020202A8
:10034000020202030303030303030304040404047B
:100350000404050505050506060606060707070742
:100360000708080808090909090A0A0A0B0B0B0CF7
:100370000C0C0D0D0D0E0E0E0F0F0F101011111194
:100380001212131314141515161617171818191915
:100390001A1A1B1B1C1D1D1E1E1F2020212222237A
:1003A0002424252626272829292A2B2C2D2D2E2FBB
:1003B00030313232333435363738393A3B3C3D3ED2
:1003C0003F404142434445464748494A4C4D4E4FC1
:1003D00050515354555658595A5B5D5E5F61626483
:1003E000656668696B6C6D6F7072737577787A7B10
:1003F0007D7E8082838587888A8C8E8F9193959667
:10040000989A9C9EA0A2A3A5A7A9ABADAFB1B3B586
:10041000B7BABCBEC0C2C4C6C9CBCDCFD1D4D6D862
:10042000DBDDDFE2E4E7E9EBEEF0F3F5F8FAFDFF00
:10043000FFAA7F55402223252628292A2C2D2F303C
:1004400032333536383A3B3D3E4042434547494AD0
:100450004C4E5051535557595A5C5E606264666801
:10046000696B6D6F71737577797B7D7F818385870C
:10047000898A8C8E90929496989A9C9E9FA1A3A50F
:10048000A7A8AAACAEAFB1B3B4B6B8B9BBBCBEBF37
:10049000C1C2C3C5C6C7C9CACBCCCDCED0D1D2D2BA
:1004A000D3D4D5D6D7D7D8D9D9DADADBDBDBDCDCC5
:1004B000DCDCDCDDDDDDDDDCDCDCDCDCDBDBDBDA7D
:1004C000DAD9D9D8D7D7D6D5D4D3D2D2D1D0CECDE8
:1004D000CCCBCAC9C7C6C5C3C2C1BFBEBCBBB9B8F5
:1004E000B6B4B3B1AFAEACAAA8A7A5A3A19F9E9C7A
:1004F0009A98969492908E8C8A89878583817F7D45
:100500007B79777573716F6D6B6968666462605E25
:100510005C5A5957555351504E4C4A4947454342EE
:10052000403E3D3B3A3836353332302F2D2C2A2988
:10053000282625232200AF00AE05010902A101856E
:10054000020901A1000509190129081500250195D5
:1005500008750181020501093009311581257F9552
:10056000027508810609381581257F950175088176
:1005700006050C0A38021581257F9501750881064C
:10058000C0C005010906A101050719E029E715000A
:1005900025019508750181029501750881010507FE
:1005A000190029FF150026FF009506750881000532
:1005B00008190129059505750191029501750391A9
:1005C00001C009023B00020100A0FA090400000179
:1005D00003010100092111010001224000070581EA
:1005E0000308000A090401000103000000092111A9
:1005F0000100012249000705820320000A120100C0
:100600000200000008575905000100010200011412
:10061000034B0065007900620061006C006C0034DF
:100620000036000000100359006F0077006B006572
:1006300000650073000000040309040000000000CE
:10064000003E5B4F5B3E003E6B4F6B3E001C3E7CB2
:100650003E1C00183C7E3C18001C577D571C001C9B
:100660005E7F5E1C0000183C180000FFE7C3E7FF38
:1006700000001824180000FFE7DBE7FF0030483ACD
:10068000060E00262979292600407F05050700402F
:100690007F05253F005A3CE73C5A007F3E1C1C0862
:1006A00000081C1C3E7F0014227F2214005F5F00A4
:1006B0005F5F0006097F017F00006689956A006020
:1006C000606060600094A2FFA2940008047E0408A9
:1006D0000010207E20100008082A1C0800081C2A90
:1006E0000808001E10101010000C1E0C1E0C00300C
:1006F000383E383000060E3E0E06000000000000B6
:100700000000005F000000000700070000147F14D5
:100710007F1400242A7F2A12002313086462003603
:100720004956205000000807030000001C22410029
:10073000000041221C00002A1C7F1C2A0008083EE1
:100740000808000080703000000808080808000051
:1007500000606000002010080402003E5149453E40
:100760000000427F4000007249494946002141494A
:100770004D33001814127F10002745454539003CC1
:100780004A49493100412111090700364949493692
:1007900000464949291E00000014000000004034B2
:1007A0000000000008142241001414141414000066
:1007B00041221408000201590906003E415D594ECC
:1007C000007C1211127C007F49494936003E4141AC
:1007D0004122007F4141413E007F49494941007F1C
:1007E00009090901003E41415173007F0808087F53
:1007F0000000417F4100002040413F01007F08147C
:100800002241007F40404040007F021C027F007F69
:100810000408107F003E4141413E007F090909065E
:10082000003E4151215E007F0919294600264949B1
:1008300049320003017F0103003F4040403F001F59
:100840002040201F003F4038403F006314081463DD
:10085000000304780403006159494D4300007F41BF
:10086000414100020408102000004141417F000482
:10087000020102040040404040400000030708001D
:10088000002054547840007F2844443800384444C1
:10089000442800384444287F003854545418000039
:1008A000087E0902001824241C78007F08040478BC
:1008B0000000447D4000002040403D00007F1028A3
:1008C00044000000417F4000007C04780478007CF4
:1008D00008040478003844444438007C1824241860
:1008E00000182424187C007C080404080048545490
:1008F00054240004043F4424003C4040207C001C5D
:100900002040201C003C4030403C0044281028443B
:10091000004C9090907C004464544C440000083695
:10092000410000000077000000004136080000028E
:1009300001020402003C2623263C000000000000C7
:1009400000000000000000000000000000000000A7
:10095000000000C0F0F88C86C6E7FFFFFFFFFFFF36
:10096000FEFCFCF8E080000000F0F0F00000C0E0C9
:10097000F0707000000000000000000000000000A7
:10098000000000000000000000F8F8F8000000007F
:10099000000000000000000000000000000000F85F
:1009A000F8F80000F8F8F80000000000000000006F
:1009B000000000000000000000E0F0F0F0E0ECEECD
:1009C000F7F37020007C7C7C7E007E7E7E7F7F7FC4
:1009D000000080C0E07E5B4F5BFEC00000C000DC1A
:1009E000D7DEDEDED7DC00C0000000000000000023
:1009F00000000000000000000000000000000000F7
:100A000000000000000000000000000080E070789E
:100A1000686C64C7C7C7C7C7C7E73F1F0F3FFFFF63
:100A2000FFFFFFFF3F0F000000FFFFFF1E3FFFF330
:100A3000E1800000F8FCFE3636363EBCB8000E3EC3
:100A4000FEF080F0FE3E0E0000FFFFFF060606FEF1
:100A5000FEFC7000E6F6F63636FEFEFC000000FFF7
:100A6000FFFF0000FFFFFF0000000000000000008B
:100A70000000000000000000000F1F3F7F7F7F7F0D
:100A80007F3F1E0C001F1F1F3F003F3F3F7F7F7FA8
:100A900000307B7F7830202030787F3B0003000FD0
:100AA0007F0F0F0F7F0F0003000000000000000009
:100AB0000000000000000000000000000000000036
:100AC00000000000000000000000003C7F6360E0C8
:100AD000C0C0C0C0C0C0C0C0FFFFC06030180F039E
:100AE00003030100000000000003030300000003F3
:100AF00003030300010303030303030301007070F6
:100B0000393F1F0701000000000103030303030333
:100B100003010000010303030303030100000003BA
:100B200003030000030303000000000000000000B6
:100B300000000000000000000000000000000000B5
:100B400000000000000000000000000000000000A5
:100B50000000000000000000000000000000000095
:100B60000000000000000000000000000000000085
:100B700000000000000000000000000011241FBE63
:100B8000CFEFDAE0DEBFCDBF04B603FE27C0809111
:100B9000F8059091F905A091FA05B091FB05873011
:100BA000904BA740B04BD1F41092F8051092F90584
:100BB0001092FA051092FB0514BE84B7877F84BF9C
:100BC0000FB6F894A89580916000886180936000CA
:100BD000109260000FBEE0E0F8E3099511E0A0E09C
:100BE000B1E0EEECF6E602C005900D92AE3EB10724
:100BF000D9F725E0AEEEB1E001C01D92A83FB207E3
:100C0000E1F70E9494270C9437330C940000FC0108
:100C1000AC014C5F5F4F8FEF91E32191822728E079
:100C200030E087FF09C0880F892721503109C9F7B3
:100C3000E417F50791F70895880FF7CFE8EDF0E096
:100C400080818E7F80831092E2001092DA001092F1
:100C5000E100A0EEB0E08C9181608C9380818F7771
:100C6000808319BCA7EDB0E08C918E7F8C9380813E
:100C70008F7E80831092D30308952091E4003091F9
:100C8000E50095E6A9012091EC00822F817020FFFC
:100C900006C08091E80080FF06C080E008952091A2
:100CA000E80022FD1AC08091E103882389F0853095
:100CB00089F08091EB0085FD0FC02091E400309118
:100CC000E50042175307F9F29150E1F684E00895E8
:100CD00082E0089583E0089581E00895EF92FF9205
:100CE0000F931F93CF937C018B010E943D06C82F69
:100CF000811117C08091E80085FD0BC08091E8004C
:100D00008E778093E8000E943D06882399F3C82FD0
:100D100008C0F70181917F018093F1000150110912
:100D200049F78C2FCF911F910F91FF90EF9008956D
:100D30008091E30387FF13C08091E80082FF06C023
:100D40008091E8008B778093E80004C08091E103F4
:100D50008111F2CF08958091E1038823D9F3809126
:100D6000E80080FFF8CF8091E8008E77ECCF982FD5
:100D70009093E900242F762F50E0891731F070917D
:100D8000EC002091ED005091F00021FD07C09F5F25
:100D9000973071F78093E90081E008953091EB007E
:100DA0003E7F3093EB003091ED003D7F3093ED00BE
:100DB0003091EB0031603093EB007093EC002093A6
:100DC000ED005093F0002091EE0027FDE0CF80E091
:100DD0000895CF92DF92EF92FF920F931F93CF93DC
:100DE000DF93C8EDD0E088818F7E8883E7EDF0E067
:100DF00080818160808384E082BF81E08093D3031F
:100E000088818E7F888302EE10E0F80110821092B4
:100E1000DA0081EEC82ED12CF601108288818F77FE
:100E2000888388818068888388818F7D888319BCC6
:100E30001092E1031092E2031092E0031092DF039C
:100E400090EEE92EF12CF70180818B7F80838881E1
:100E50008160888342E060E080E00E94B706F6018E
:100E600080818E7F8083F801808181608083808192
:100E700088608083F70180818E7F80838881806194
:100E80008883DF91CF911F910F91FF90EF90DF90BA
:100E9000CF900895FC018091E9039091EA038617B1
:100EA0009707A0F06115710529F49091E8009E77ED
:100EB0009093E80090E06115710551F4911108C01C
:100EC0008091E80082FF34C080E00895BC01F2CF39
:100ED0008091E1038823C1F18530C1F18091E80060
:100EE00083FD30C08091E80082FDEACF8091E80068
:100EF00080FFE1CF8091F3002091F200382F61153F
:100F0000710519F02830310558F091E0283031058D
:100F100009F090E02091E8002E772093E800CBCFF5
:100F200081918093F100615071092F5F3F4FE7CFAE
:100F30008091E103882341F0853041F08091E80001
:100F400083FFBECF81E0089582E0089583E0089595
:100F50000895089508958091D60308952FB7F894C1
:100F60006091CF037091D0038091D1039091D2030F
:100F70002FBF08959C01FC0132969FEF80E04191C4
:100F8000461751F09F3F19F4411101C0982F8F5F10
:100F90008630A9F79F3F09F40895290F311D97FD69
:100FA0003A95F90162830895FA01811101C0FB01AC
:100FB00009940895EBE4F3E01182828184608283D6
:100FC00008958091C103982F9E7F29F481708260DB
:100FD0008093C10308958635E8F381708465F8CF66
:100FE000AF92BF92DF92EF92FF920F931F93CF9336
:100FF000DF93082F162FE901E42FF0E0E05DFC4FAE
:10100000611110C0E4915E2F4E2F4983E8835A830B
:10101000DF91CF911F910F91FF90EF90DF90BF90E4
:10102000AF900895E62EF12C4491D42EE42FF0E0F9
:1010300026E0829FC00111242FEF30E0B9010E9409
:10104000AD31802F90E0880F991F55E5569FD00154
:10105000579FB00D11248A1B9B0B982F990F890F56
:101060005901AE18BF08AE9ED001AF9EB00DBE9E16
:10107000B00D11245B2F189F80011124012F11271F
:101080005901A01AB10AAE9E8001AF9E100DBE9EFE
:10109000100D11245901A81AB108AE9CC001AF9CD3
:1010A000900DBE9C900D1124892F9927281B390B78
:1010B0002E9FC0012F9F900D3E9F900D1124E92F70
:1010C00062307105A1F050F46115710509F49DCFEE
:1010D0006130710581F0EB2F512F97CF643071058E
:1010E00069F080F06630710509F48FCFF4CFE42FFA
:1010F0004B2F592F8ACFE42F412F87CFEB2F542F1F
:10110000492F83CF4B2F5D2DE12F7FCFCF93DF93DF
:10111000ECE1F3E083819481A581B681E9018883C4
:101120009983AA83BB831482138216821582DF916E
:10113000CF91089580E0089578940895E091720227
:10114000EB30A4F48AE0E802F0011124EB5FFE4FDB
:101150000084F185E02D309749F025E932E0409197
:10116000740265E772E08091730209940895E1E6E4
:10117000F2E0828980933901838980935001089538
:10118000F894E82FE295EF70F0E031A1282F2F704E
:1011900081E090E001C0880F2A95EAF7982F90959A
:1011A000932391A392A1892B82A30C949C089091E4
:1011B000CA0292FF06C0282F28712830F9F4877FD1
:1011C000846093FF06C0282F28712831F1F4877EB0
:1011D00084612091CB0220FF06C0382F387138304F
:1011E000D9F4877F816021FF06C0282F287128311C
:1011F000D1F4877E816194FD877E0895282F247124
:101200002430F9F68B7F8860DCCF282F24712431BD
:1012100001F78B7E8861DDCF382F3171313019F7BE
:101220008E7F8860E0CF282F2171213121F78E7EBB
:101230008861E1CFCF93DF93EC018238910589F18A
:10124000B8F58133910509F492C028F589329105EA
:1012500009F486C08A9709F491C0C11523E5D20725
:1012600008F0ACC0C11532E5D30708F011C1C115B3
:1012700040E2D40708F090C0C11581E0D80730F5EE
:10128000C53AD10508F081C0C430D105F8F4C130A9
:10129000D105E1F040C08533910509F45AC0C997E2
:1012A000E1F68091CA02837089F0C0EED0E00EC0F2
:1012B000833E910599F170F4803E910501F1823EE3
:1012C000910559F68091CA0282FD21C0CE01DF91BD
:1012D000CF910895863E910561F1873E910571F1A8
:1012E000843E910509F0B9CF8091CB0281FFEECF0A
:1012F0008091CA02C7EED0E084FD0DC0E7CF809197
:10130000CA0280FDF4C09091CB0290FFDFCFC3EE04
:10131000D0E084FFDBCFD0E0C0E0D8CF8091CA021C
:1013200082FDE8C09091CB0290FDBFCF84FFCECF6D
:10133000F2CF8091CA0283FDDDCFC8CF8091CA026F
:1013400083FDDBC09091CB0291FFF0CFC4EED0E0E3
:10135000BDCF8091CA0285FFB9CFC9E2D0E0B6CF38
:101360008091CA0285FFB2CFC5E3D0E0AFCF8091B4
:10137000CA0286FFABCFCAE2D0E0A8CF8091CA02F2
:1013800086FFA4CFC1E3D0E0A1CFCE01815E910959
:10139000079708F49BCFBFCFC11591E5D90708F097
:1013A00072C0C11520E5D20708F050C0C11530E465
:1013B000D30708F4B0CFDF70D06A88CFC11546E5F7
:1013C000D407F0F4C11585E5D80708F077C0C1153A
:1013D00094E5D90708F06DC0CE018370992721E00C
:1013E00030E002C0220F331F8A95E2F7C695C695FA
:1013F00090E2C99FE0011124C22BD32BDA6866CF9B
:10140000C1152AE5D20778F4C11539E5D30708F0EC
:1014100060C0C11548E5D40708F47DCFDC2FCC2788
:10142000C06FD06A53CFCE0190568115904208F01C
:1014300072CF8D2F8F710E94D70890E0982F882748
:1014400088279F719C012C2BE90141C0CE01E4E06B
:1014500096958795EA95E1F783702C2F269526952A
:10146000237040E2249F90011124382B8C2F83702D
:10147000C1E0D0E002C0CC0FDD1F8A95E2F7C22B9D
:10148000D32BDC6823CFDC2FCC27C16FD06A1ECFD3
:10149000CE018370992721E030E002C0220F331F74
:1014A0008A95E2F7C695C69580E2C89FE0011124AF
:1014B000E6CFDC2FCC27C46FD06A08CF8C2F0E94D8
:1014C000D708C82FD0E0DC2FCC27CC27DF71D06223
:1014D000FDCE8C2F8F700E94D70834E0D695C7952B
:1014E0003A95E1F7CF709C2FEC01D069EFCEC9E3BC
:1014F000D0E0ECCEC2EED0E0E9CEC6EED0E0E6CE53
:101500008091540281111092540208958095909117
:10151000D40398239093D40308958091D403909199
:101520005302892B90915202892B8093F001909164
:101530005402992391F0892B8093F00120E082EFEF
:1015400091E0FC013191CF0131112F5FF1E0883F33
:101550009F07B9F721110E94800AE091CC03F09116
:10156000CD03309731F00280F381E02D80EF91E0E0
:10157000099408958091500290911F02981301C020
:1015800008958F5F8770FACFCF92DF92EF92FF922C
:101590000F931F93CF93DF93E090E20220915502C7
:1015A000E22AC7E0D0E0F12C082F10E026E0929F5D
:1015B000000D111D112490E3C92EDC2EC7010C2E45
:1015C00002C0959587950A94E2F780FD0DC021979A
:1015D000A0F7D12C8D2DDF91CF911F910F91FF900E
:1015E000EF90DF90CF900895CC9EF001CD9EF00D4E
:1015F0001124E00FF11FEE0FFF1FE953FF4F8591FC
:1016000094910E941A09019711F3E4CFCF93DF93CD
:10161000EC010E94C40AEC2FF0E096E0D99FE00DA7
:10162000F11D112490E3899FE00DF11D1124EE0FAF
:10163000FF1FE953FF4F85919491DF91CF910C9457
:101640001A09E92FEE0FE90FEE0F8E0F982F977002
:1016500086958695869523E0829FF0011124E95FA7
:10166000FD4F50E040E080E0219130E0092E02C0C3
:10167000369527950A94E2F721703327042E01C08E
:10168000220F0A94EAF7822B4F5F5F4F43305105D8
:1016900059F70895E92FEE0FE90FEE0F8E0F982FEF
:1016A000977041E001C0440F9A95EAF786958695B8
:1016B000869593E0899FF0011124E95FFD4F30E0AA
:1016C00020E070E05191DF011197CB01022E02C0A2
:1016D000969587950A94E2F78170819585278423F2
:1016E00085278C932F5F3F4F2330310559F708959D
:1016F0008093550210925302109252020C948D0A5C
:10170000FC01808191810E94060B292F2F709295F8
:101710009F7092509E3078F4E92FF0E0E75CFC4C2B
:101720000C94EF31803F19F020F4883E20F481E0E2
:101730000895843FE1F380E00895883EC0F3813F3F
:10174000D1F7F5CF822F86958695869508958823C3
:1017500021F00E94860A0C948D0A0895882339F09E
:101760009091D403982B9093D4030C948D0A0895F0
:10177000882309F452C09CEF980F913A78F4E2EF75
:10178000F1E028EF31E09191891303C0DF01119757
:101790001C922E173F07B9F70C948D0A90E2980F10
:1017A000983050F4877091E001C0990F8A95EAF75C
:1017B000892F0E94860AF0CF9BE5980F9330B0F4F2
:1017C0008091030290910402892B39F11092040256
:1017D00010920302E091CC03F091CD033097E9F031
:1017E0000680F781E02D90E080E00994885A8731E7
:1017F000A0F48091050290910602892B71F010925D
:10180000060210920502E091CC03F091CD033097CF
:1018100021F00084F185E02DE6CF0895CF93C82F05
:101820008823A1F18CEF8C0F813AF8F4E2EFF1E01C
:10183000DF018D91C81761F081E0A83FB807C9F7B3
:101840006C2F80EF91E00E94BA07CF910C948D0A23
:101850008191C81303C0DF0111971C9281E0E83F1A
:10186000F807B1F70E948D0AEBCF80E28C0F883029
:1018700068F4C77021E030E001C0220FCA95EAF792
:101880008091D403822B8093D403DFCFCF9108952E
:10189000982F92959F7011F0892F94E0282F26950C
:1018A000269511F09E5F822F869509F09F5F892F04
:1018B0000895CF93DF93FC0190912A03911101C009
:1018C00094E0208131819150A901092E02C05595E3
:1018D00047950A94E2F7DA01092E02C0AA0FBB1F4E
:1018E0000A94E2F72A1B3B0B31832083A281B38148
:1018F0009D01092E02C0359527950A94E2F7E9016A
:1019000002C0CC0FDD1F9A95E2F7AC1BBD0BB38371
:10191000A2834138DFEF5D078CF04038510584F435
:10192000FB0145832138FFEF3F0764F02038310584
:101930005CF4EB012C83DF91CF91089541E8F0CF67
:101940004FE7EECF21E8F5CF2FE7F3CFCF93C82FA6
:10195000809129038C1751F00E94AE0760932B03EE
:1019600070932C0380932D0390932E03C09329032F
:10197000CF910895CF93C82F0E94480C91E08330F7
:1019800009F090E0892F0E94A60CC093E202109209
:10199000530210925202CF910C948D0A21E030E054
:1019A00001C0220F8A95EAF720958091E2028223F6
:1019B0000C94BA0C90915102809589238093510226
:1019C000282F277091F4282F082E000C330B921724
:1019D000130659F09091CB0292FD07C0859585952D
:1019E00085950E94CE0C10925102089521E030E0BE
:1019F00001C0220F8A95EAF78091E202822B0C94B3
:101A0000BA0C382F20E287FF02C031952DE24AE060
:101A1000832F642F0E94CD31905D9093FC01811142
:101A20000BC02093FB0120E22093FA0120E22093D7
:101A3000F90189EF91E00895642F0E94CD31905D06
:101A40009093FB01832F64E60E94CD31882361F3DC
:101A5000805D8093FA01EBCF9C01860F971F37FDC5
:101A600007C077FD04C097FF02C08FEF9FE708957E
:101A700077FFFDCF97FDFBCF80E090E80895E2EF80
:101A8000F1E086E0DF011D928A95E9F7109253029A
:101A9000109252020C948D0A1F93CF93DF93CDB70F
:101AA000DEB7AA970FB6F894DEBF0FBECDBF83EEA8
:101AB00093E02091F100FC012193CF01F3E08B3EF4
:101AC0009F07B9F78091E403833009F470C0B8F43C
:101AD000813009F447C0823009F4B3C08091E80036
:101AE00083FF80C28091E3039091E4039A3008F071
:101AF00079C2E92FF0E0E95BFC4C0C94EF318A30BD
:101B000009F48EC08B3009F46FC0893039F78091A9
:101B1000E303813219F78091E7039091E80302977C
:101B2000E8F68091E800877F8093E8008091E800E4
:101B300082FF38C09091F3008091F200029731F457
:101B40008091F100813011F0863021F48091F10014
:101B50008093D6038091E8008B778093E8000E9401
:101B60009806BCCF8091E303813A09F0B7CF80910A
:101B7000E800877F8093E8008091E7039091E80375
:101B8000892B61F468E087ED93E070E00E944A07DA
:101B90008091E8008B778093E800A0CF60E090E030
:101BA00080E0F3CF8091E1038111C0CF97CF809186
:101BB000E303813A09F092CF8091E7039091E80323
:101BC000892B09F08BCF8091E800877F8093E80014
:101BD0008091E80080FFFCCF8091A1018093F1000B
:101BE0008091E8008E77B9CF8091E303813209F0CC
:101BF00075CF8091E7039091E803892B09F06ECFB0
:101C00008091E800877F8093E8000E949806809189
:101C1000E5038093A1011092D4030E943F0D5ECF93
:101C20008091E303813209F059CF8091E800877FEA
:101C30008093E8000E9498068091E6038093D50384
:101C40004DCF8091E303813A09F048CF8091E800BD
:101C5000877F8093E8008091E80080FFFCCF80912F
:101C6000D503BCCF803899F0823809F0BBC1809190
:101C7000E7038F70873008F0B5C18093E900809149
:101C8000EB0085FB882780F91092E90006C080915F
:101C9000DF039091E003911182609091E800977FBB
:101CA0009093E8008093F1001092F1008091E80099
:101CB0008E7794C1882309F482C1823009F092C1E1
:101CC0008091E503811185C18091E7038F702FEF2B
:101CD000280F263008F086C18093E9002091EB00A0
:101CE00020FF77C1933031F48091EB0080628093C4
:101CF000EB006FC19091EB0090619093EB0021E0BD
:101D000030E001C0220F8A95EAF72093EA00109292
:101D1000EA008091EB008860EACF811163C11091E5
:101D2000E5031F778091E3008078812B8093E300A7
:101D30008091E800877F8093E8000E949806809158
:101D4000E80080FFFCCF8091E30080688093E3008F
:101D500082E0111183E08093E10344C18058823016
:101D600008F040C18091E5039091E6038C3D23E0AB
:101D70009207A1F583E08A838AE289834FB7F894BA
:101D8000DE01139620E03EE051E2E32FF0E05093B5
:101D90005700E49120FF03C0E295EF703F5FEF70C2
:101DA0008E2F90E0EA30C0F0C7968D939D932F5F01
:101DB000243159F74FBF8091E800877F8093E80076
:101DC0006AE270E0CE0101960E944A078091E80025
:101DD0008B778093E80006C1C096E7CF4091E70378
:101DE0005091E803292F33272330310509F444C0EB
:101DF00078F52130310509F46FC08BE390E0E2EC17
:101E0000F5E02230310509F0EDC02091E800277F90
:101E10002093E8002091E9033091EA0382179307A9
:101E200008F49C0140E02115310509F064C041111E
:101E300062C08091E80082FDC9CF8091E1038823D0
:101E400029F2853019F28091E80083FFF2CFBECFEE
:101E500021323105A9F12232310509F0C3C0411503
:101E6000510509F443C04130510509F0BBC089E474
:101E700090E0E9E3F5E0C9CF992781309105C1F001
:101E8000009759F0029709F0ADC0EFE0F6E0E49159
:101E90008E2F90E0EFE0F6E007C0E7E3F6E0E49194
:101EA0008E2F90E0E7E3F6E0009709F49BC0ADCFFA
:101EB000E5E2F6E0E4918E2F90E0E5E2F6E0F4CF83
:101EC0004115510571F04130510509F08BC089E091
:101ED00090E0EDEEF5E099CF82E190E0EDEFF5E0F6
:101EE00094CF89E090E0E4EDF5E08FCF80E490E0DE
:101EF000E2E8F5E08ACF8091E103882309F466CF18
:101F0000853009F463CF8091E80083FD5FCF809135
:101F1000E80082FD8ECF8091E80080FF84CF909111
:101F2000F3008091F2002115310519F088309105F8
:101F300050F041E0089709F040E08091E8008E778A
:101F40008093E80070CF44914093F1003196215086
:101F500031090196E8CF803809F044C08091E8004B
:101F6000877F8093E8008091E2038093F1009ECE0A
:101F7000811138C01091E5031230A0F58091E8007E
:101F8000877F8093E8001093E2030E949806112354
:101F900011F084E005C08091E30087FDFACF81E075
:101FA0008093E10342E061EC81E00E94B70642E2E7
:101FB00061EC82E00E94B7068091E10313C080913A
:101FC000E503813079F481E0933009F080E080937B
:101FD000E0031092E9008091E800877F8093E80099
:101FE0000E9498068091E80083FF0AC08091E80073
:101FF000877F8093E8008091EB0080628093EB0004
:10200000AA960FB6F894DEBF0FBECDBFDF91CF9179
:102010001F91089580911C03F90180830895CF9347
:10202000DF93682F81E06A3019F06D3029F480E089
:10203000DF91CF910C949E108091F4059091F5055D
:1020400026E0FC01AEEEB5E001900D922A95E1F795
:10205000603E08F45AC026E0FC0111922A95E9F787
:10206000C091F405D091F50546E050E0BE018EEE3A
:1020700095E00E9476329E012E5E3340892B41F11D
:10208000C90145E0969587954A95E1F741E050E012
:10209000BA0102C0660F771F8A95E2F7CB01609103
:1020A000EC037091ED03862B972BB9016B5F7F4F8B
:1020B000E5E076956795EA95E1F702C0440F551F74
:1020C0006A95E2F7842B952B9093ED038093EC03B4
:1020D0002A5F3F4F4091EB03642F70E0C9010E94DB
:1020E000AD31481B463010F4240F311D211572E02C
:1020F000370710F030E020E022513C4F3093F505D7
:102100002093F405DF91CF910895F6E06F9FB00121
:102110001124655C794F46E050E00E946032A0CF08
:10212000CF93DF93EC01FE018491811103C0DF9115
:10213000CF9108950E940F102196F5CFCF93382F9D
:10214000E091F405F091F505EE5EF3402091EB038C
:10215000622F70E0CF010E94AD31281B822F332304
:1021600061F066E00E94C131C82FC15010F4CF91D8
:10217000089580E20E940F10F8CF9F01280F311DB3
:102180002115324018F080E0F0E0E0E08E0F9F2F44
:10219000911D82519C4F9093F5058093F405E7CFF4
:1021A000CF93DF93CDB7DEB768970FB6F894DEBF55
:1021B0000FBECDBF40913F0350914003609141035A
:1021C0007091420380914303909144030E94AB1AA3
:1021D00020933F03309340034093410350934203C5
:1021E000609343037093440386E0EFE3F3E0DE0182
:1021F000179601900D928A95E1F786E0FE013796D9
:10220000DE01119601900D928A95E1F786E0FE01BC
:102210003196DE011D9601900D928A95E1F786E0D8
:10222000FE013D96DE01539601900D928A95E1F7ED
:1022300086E0FE017396DE01119601900D928A955B
:10224000E1F786E0FE013196AFE3B3E001900D9235
:102250008A95E1F786E0EFE3F3E0DE01179601905F
:102260000D928A95E1F786E0E9E3F3E0DE0111964D
:1022700001900D928A95E1F746E050E0BE016F5F54
:102280007F4FCE0107960E947632892B79F0E0913C
:10229000CC03F091CD03309749F082E080933F0367
:1022A0000480F581E02D8FE393E0099510924103BE
:1022B00010924203109243031092440386E0EFE32E
:1022C000F3E0A9E3B3E001900D928A95E1F76896F7
:1022D0000FB6F894DEBF0FBECDBFDF91CF9108954A
:1022E0000F931F93CF93DF93EC01FC01019000202B
:1022F000E9F78F0101501109C017D10728F0DF91CC
:10230000CF911F910F91089589910E940F10F4CFE2
:10231000CF92DF92EF92FF920F931F93CF93DF93B1
:102320006C017B0164E670E088E70E948A2EEC0174
:1023300097FD12C010E000E0F601E00FF11F84915C
:1023400064E670E00E94042FEC01892B29F40F5FF2
:102350001F4F0E151F0581F70E94872FCE01DF91B9
:10236000CF911F910F91FF90EF90DF90CF90089544
:102370008091CA039091CB03911103C091E089270A
:102380000895882369F062E070E087E395E00E9499
:102390008811892B19F08091CA0308951092CA03FD
:1023A0008091CA03EBCFCF93C091CA038091CB0336
:1023B0008823D1F00E94AE07605A75418F4F9F4F1E
:1023C0006093C6037093C7038093C8039093C903B7
:1023D000C11108C062E070E085E395E00E948811B9
:1023E000892B29F0C091CA038C2FCF91089581E0E9
:1023F0008093CA03F7CF9C0182E08093E9009FEFAE
:102400008091E800915085FD06C085ED8A95F1F731
:1024100000009111F5CF8091E80085FF0CC050E0DD
:1024200040E066E070E0C9010E946E068091E8001D
:102430008E778093E8000895CF93DF93EC0181E0DD
:102440008093E9008FEF9091E800815095FD06C0E0
:1024500095ED9A95F1F700008111F5CF8091E80094
:1024600085FF14C050E040E068E070E0CE010E94BB
:102470006E068091E8008E778093E80088E0FE0188
:10248000A7EDB3E001900D928A95E1F7DF91CF912E
:10249000089560919D018091C10380FF20C08091CB
:1024A0009C0143E0849FC00111248F5A9C4F539A92
:1024B0002BB1277F3BB138605FB7F894FC01649F74
:1024C000E00DF11D1124BF0168177907D1F45FBF3A
:1024D0008FE594E00197F1F700C000000895809126
:1024E0009E0190919F0123E0829FF0011124EF5AF9
:1024F000FC4F8917A0F61182108212828F5F3396EB
:10250000F8CFFC014191CF01E8E03BB9000000C0E9
:1025100047FF2BB9440F000000C000C000C02BB91A
:1025200000C0EA9591F7D0CF0F931F93CF93DF931D
:10253000EC0110E000E09091A0019017110609F065
:102540006CF40E9449128C8190E001968170992769
:102550008C83DF91CF911F910F91089520919E015F
:10256000A801420F511D9A01220F331F240F351F5E
:102570002F5A3C4F4C816091C3038091C2039695C2
:102580009017110651F04CF0442349F04091C403D8
:102590000E94F0070F5F1F4FCECF4423B9F340E0F6
:1025A000F7CF8F929F92AF92BF92CF92DF92EF922E
:1025B000FF920F931F93CF93DF93EC014C81042F75
:1025C00010E09801D8010E9428339B01AC010E94C1
:1025D000F3324B015C01E0E2F0E0E01BF10BA5E51A
:1025E000B0E0AC019B010E94F3326B017C019F01C2
:1025F000DF010E94F5319B01AC010E94FE329B017C
:10260000AC01280D391D4A1D5B1DC701B6010E9492
:102610000633F22E822F90E039E23F1560F143E05D
:10262000249F9001112435952795122F109500E0D5
:1026300085E5E82EEF188091A001081758F10E9457
:1026400049129C8181E0992319F0903219F48FEF9F
:1026500080939B0180919B01890F8C83DF91CF91A7
:102660001F910F91FF90EF90DF90CF90BF90AF90B0
:102670009F908F90089525E530E0B901681B790B94
:102680009B01220F331F260F371F37FFCCCF2F5F41
:102690003F4FC9CF8E2D01FD8F2D20919E01622FBE
:1026A000600F7727771F9B01220F331F260F371FDD
:1026B0002F5A3C4F412F6091C3030E94F0070F5FD8
:1026C000BACFEF92FF920F931F93CF93DF93EC015A
:1026D0008C81811109C081E08C8310924F0392E0BC
:1026E00090939A018093990180919E0190919F010E
:1026F00023E0829FF0011124EF5AFC4F891768F103
:1027000010E003E06091A001161768F10E944912E1
:102710008091990120914F03280F20934F039091AE
:102720009A01980F90939A01191654F4022E000CF6
:10273000330B4091A0014150550B2417350734F05D
:10274000819580939901813009F41C82DF91CF91AA
:102750001F910F91FF90EF900895118210821282C5
:102760008F5F3396CBCFE12EF12C70E0C7010E9432
:10277000DB3120919E01820F482F50E020914F03C2
:10278000022E000C330BE216F306BCF020919A01E6
:10279000022E000C330B2E153F057CF0809F90011C
:1027A00011242F5A3C4F4091C4036091C303809180
:1027B000C2030E94F0071F5FA5CFFA01EE0FFF1FB3
:1027C000E40FF51FEF5AFC4F118210821282F3CFF3
:1027D0008F929F92AF92BF92CF92DF92EF92FF9231
:1027E0000F931F93CF93DF93EC018A81BB24BA949C
:1027F00080FD02C0BB24B394A090A0018C81811104
:1028000009C081E0B81228C08FEF8A0D80934E0373
:1028100081E08C83F12CE12C4EE0942EEA14F8F048
:102820000E94491280914E0391E0B9125FC081115C
:1028300058C08091A001815080934E031C82DF918B
:10284000CF911F910F91FF90EF90DF90CF90BF90AD
:10285000AF909F908F90089510924E03D9CF009122
:102860009E010E0D1F2D111DC801880F991F080F05
:10287000191F0F5A1C4FF80111821082128234E086
:10288000C32ED12C812C80914E03880D8F302CF1DA
:10289000692D0E94CD31892F082E000C990B8E15C1
:1028A0009F0591F48091C4038C9DA0018D9D500DD6
:1028B0001124559547955595479598016091C30307
:1028C0008091C2030E94F0078B0CF1E0CF1AD1086F
:1028D000D1F68FEFE81AF80AA1CF87FFDDCF8A0D76
:1028E000DBCF815080934E03BC82A9CF90E001964C
:1028F0006091A00170E00E94DB3180934E038C83D5
:102900009ECFEF92FF921F93CF93DF93EC0110E0E5
:10291000EE24EA94F12C6091A001161770F00E9449
:1029200049129A818C8190FF27C08F5F8C83DF9141
:10293000CF911F91FF90EF90089520919E01422F1B
:10294000410F5527551FCA019A01220F331F280F27
:10295000391F2F5A3C4F70E0C7010E94DB31962F80
:102960008C814091C4036091C303199F800D112491
:102970000E94F0071F5FCFCF8150D8CF9091C10345
:1029800090FF14C090919E0120919F0133E0939F8E
:10299000F0011124EF5AFC4F921710F00C944912D9
:1029A0008183608342839F5F3396F6CF08950F93B0
:1029B0001F93CF93DF9300D00F92CDB7DEB78C017A
:1029C0008091500381110AC09E012F5F3F4F4FEF4E
:1029D0006FEF0E94F0078A8180935003F8016481B1
:1029E000613069F08091500340E0662361F040E07F
:1029F000623011F44091500380E060E004C06091C7
:102A0000500340E080E00E94BE14F801848190E011
:102A1000019663E070E00E94DB3184830F900F9099
:102A20000F90DF91CF911F910F910895CF93DF9376
:102A300000D00F92CDB7DEB79091C10390FF0AC0CE
:102A40009E012F5F3F4F0E94F0074B8169818A8171
:102A50000E94BE140F900F900F90DF91CF910895B8
:102A6000CF93DF93EC01E1ECF3E0438162818C8151
:102A70000E9416158C818F5F8C83DF91CF91089512
:102A8000CF93DF93EC01EC81F0E0EB5CFB4F4491E2
:102A9000E1ECF3E0628181810E9416158C818F5FE9
:102AA0008C83DF91CF9108959F92AF92BF92CF9286
:102AB000DF92EF92FF920F931F93CF93DF937C01EE
:102AC0005B016A018091C50201E010E08A3010F4D8
:102AD0000AE010E0C1E0D0E0F894B501C701F601CA
:102AE0000995982E0E949C08911004C021960C17FD
:102AF0001D076CF4892DDF91CF911F910F91FF90ED
:102B0000EF90DF90CF90BF90AF909F900895CC9FB3
:102B10009001CD9F300D300D112490E080E045E311
:102B20004A95F1F70000019682179307C1F7D4CFB9
:102B300080916002811118C082E39091E30097FDBB
:102B400010C0EFE3FCE93197F1F700C000008150BD
:102B5000A1F782E0809360020E941E061092E103BA
:102B600003C081E08093600281E090916002913027
:102B700011F080E0089508950E949815882351F07F
:102B8000E091CC03F091CD03309721F00190F081DA
:102B9000E02D099480E008950F931F930E949815EB
:102BA000882321F01F910F910C94AE070E94AE076D
:102BB0000091C6021091C7022091C8023091C9024B
:102BC000600F711F821F931F1F910F9108958091B5
:102BD0001C0381112BC086EF25982D9A90B38F701E
:102BE00021E030E001C0220F8A95EAF7892F822B7D
:102BF00080BB81B3322F3095832381BB85E08A95DA
:102C0000F1F7000083B190B3932390BB91B3292BCC
:102C100021BB90EA9A95F1F790E025E0959587958C
:102C20002A95E1F7809590958170089587EFD4CF2C
:102C30004F925F926F927F928F929F92AF92BF92CC
:102C4000CF92DF92EF92FF920F931F93CF93DF9378
:102C5000FC016280448081E08483E5E3F4E07490C9
:102C6000E4EBF4E0E491812C75E0972EF2E0CF2EB6
:102C7000DD24D394AA24AA94B12C55245A94E7199C
:102C80000E2F10E08091A001881690F0DF91CF9177
:102C90001F910F91FF90EF90DF90CF90BF90AF907A
:102CA0009F908F907F906F905F904F900C944912FF
:102CB000E82CF12C82E0861568F09E9CF0019F9C28
:102CC000F00D1124E558FC4F8091C2038083809160
:102CD000C3038183411023C09E9CF0019F9CF00D93
:102CE0001124E558FC4F1382128220919E01C701E6
:102CF000820F911D9C01220F331F280F391F2F5A5D
:102D00003C4F9E9CF0019F9CF00D1124E558FC4F18
:102D10004281618180810E94F0078394B3CF9E9CA1
:102D2000E0019F9CD00D1124C558DC4F8B81882376
:102D3000E9F081508B83859DC00111246C8170E086
:102D40000E94AD31FB01FF27EB5CFB4F8491E82F24
:102D5000E719E59DC0011124B8010E94AD318091B1
:102D6000C403689FB00111247A83BFCF0E94503200
:102D70002091C403269521582C9DA0012D9D500D16
:102D80001124452F5527841795070CF0AECF82E00C
:102D9000861588F40E945032B5010E94DB31888389
:102DA0000E9450322091C3032695622F70E00E944A
:102DB000DB31280F29839E9CF0019F9CF00D11248C
:102DC000E558FC4F12828091C403893C58F088EC8E
:102DD0009E9CF0019F9CF00D1124E558FC4F8483CC
:102DE000838383CF8431A0F784E1F2CFCF92DF9247
:102DF000EF92FF926B017C010E94E107B701A601EF
:102E000088E090E0FF90EF90DF90CF900C94B2328A
:102E1000AF92BF92CF92DF92EF92FF920F931F93E8
:102E2000CF93DF9300D00F92CDB7DEB7182FF62ED9
:102E3000042FE22E9091C10390FF3AC0E92FE6954E
:102E4000AE2FB0E0AD53BE4F8C9180934B039E7F6D
:102E50009230E1F59E012F5F3F4F812F0E94F007D6
:102E60004B8169818A810E94BE148091C2038113C3
:102E700008C08091C3038F1104C08091C4038017E0
:102E800029F080914D03826080934D031093C2031B
:102E9000F092C3030093C403EE2051F06091C1038C
:102EA0007091C2038091C3039091C4030E94F616EF
:102EB0000F900F900F90DF91CF911F910F91FF9086
:102EC000EF90DF90CF90BF90AF900895823019F4CB
:102ED0000091C403CACF863019F41091C203C5CF44
:102EE0008930D9F3893109F6E9518E2F8170D82EB6
:102EF000E695F0E0E05DFB4FA590B490C12CBB24BB
:102F00006091A001C61618F00E944912AECF2C2D78
:102F100030E0A29EC001A39E900DB29E900D1124A0
:102F200070E00E94AD31812FD11013C0860F409107
:102F30009E01420F532F511D9A01220F331F240F60
:102F4000351F2F5A3C4F402F6F2D0E94F007C3941E
:102F5000D7CF861BECCFE1ECF3E0438121E1421BAC
:102F600008F440E021E0628181810C940817E1ECD3
:102F7000F3E0438121E1420F08F44FEF21E0628149
:102F800081810C940817E1ECF3E0628121E1621B7E
:102F900008F460E021E0438181810C940817E1ECA2
:102FA000F3E0628121E1620F08F46FEF21E04381D9
:102FB00081810C940817E1ECF3E0818121E04381E9
:102FC000628181510C940817E1ECF3E0818121E0EA
:102FD000438162818F5E0C9408178091C50388231A
:102FE00019F081508093C5036091C1037091C203B1
:102FF0008091C3039091C4030C94F6168091C5038D
:10300000833018F48F5F8093C5036091C103709182
:10301000C2038091C3039091C4030C94F616E1ECB3
:10302000F3E083E0808311828FEF828383831482B5
:10303000ABE4B3E012968C911297836012968C9356
:1030400060817181828193810C94F616EF92FF92D8
:103050000F931F93CF93DF937901C82F880FDD0B58
:1030600041155105A9F08AE08C9FF0018D9FF00D6C
:103070001124EB5FFE4F838194818F599D4F2281F4
:1030800030E04217530708F49A01A9010E948332E5
:10309000CE010E94F930892B11F501151105E9F0D7
:1030A0008AE08C9FF0018D9FF00D1124EB5FFE4FA5
:1030B000458150E00417150708F4A8018AE08C9FA9
:1030C000F0018D9FF00D1124EB5FFE4F668177813B
:1030D0006F597D4FC7010E94833281E001C080E0BB
:1030E000DF91CF911F910F91FF90EF900895AF92D4
:1030F000BF92CF92DF92EF92FF920F931F93CF93E5
:10310000DF9300D000D0CDB7DEB78C83E62E5A0116
:10311000F22E68018091C5028A3080F080E00F9025
:103120000F900F900F90DF91CF911F910F91FF9013
:10313000EF90DF90CF90BF90AF9008958C81883052
:103140006CF389836A832B83609339012093500148
:1031500010E000E030E020E043E050E0BE016F5FAF
:103160007F4F84E00E9426188823C1F24E2D50E044
:1031700030E020E0B50185E00E942618882371F236
:1031800030E020E041E050E0BE016C5F7F4F86E020
:103190000E942618882311F20F2D10E0960150E0AE
:1031A00040E070E060E087E00E942618B8CF0F93FF
:1031B0001F93CF93DF93CDB7DEB728970FB6F89460
:1031C000DEBF0FBECDBF85E0E1ECF3E0DE0111967E
:1031D00001900D928A95E1F780914B0390914C03F9
:1031E000A0914D038E839F83A88728854091C102BB
:1031F0005091C2026091C3027091C4023FB7F8942B
:103200008091CF039091D003A091D103B091D203CC
:103210003FBF841B950BA60BB70B84369105A10508
:10322000B10510F42223C1F010E000E030E020E00E
:1032300048E050E0BE016F5F7F4F83E00E94261898
:10324000882369F00E94AE076093C1027093C202A6
:103250008093C3029093C40210924D0381E028969C
:103260000FB6F894DEBF0FBECDBFDF91CF911F9197
:103270000F9108950F931F93CF93DF9300D000D049
:10328000CDB7DEB74091BD025091BE026091BF0242
:103290007091C0022FB7F8948091CF039091D00322
:1032A000A091D103B091D2032FBF841B950BA60B25
:1032B000B70B11E084369105A105B10518F10E9404
:1032C000CC156E5F7F4F8F4F9F4F69837A838B83BF
:1032D0009C8310E000E030E020E044E050E0BE01DC
:1032E0006F5F7F4F82E00E942618182F882351F0CD
:1032F0000E94AE076093BD027093BE028093BF022E
:103300009093C002812F0F900F900F900F90DF913C
:10331000CF911F910F910895EF92FF920F931F93FA
:10332000CF93DF9300D000D00F92CDB7DEB77B01F3
:1033300001E010E09E012B5F3F4F50E040E070E065
:1033400060E080E00E942618182F882309F452C0FC
:103350004091B9025091BA026091BB027091BC02D7
:103360002FB7F8948091CF039091D003A091D1030F
:10337000B091D2032FBF841B950BA60BB70B8436DD
:103380009105A105B10538F482E692E00E94070696
:103390009D81891779F104E010E09E012F5F3F4F76
:1033A00050E040E070E060E081E00E942618082FC5
:1033B00082E692E00E94070611E09D81981310E0DA
:1033C000102331F10E94AE076093B9027093BA02E4
:1033D0008093BB029093BC0289819A81AB81BC81AE
:1033E0008093B5029093B602A093B702B093B8024F
:1033F00011E00EC08091620290916302A09164027C
:10340000B091650289839A83AB83BC831111E4CFA9
:103410008091B5029091B602A091B702B091B80226
:10342000F70180839183A283B383812F0F900F9044
:103430000F900F900F90DF91CF911F910F91FF9000
:10344000EF90089569EE7EEF90E080E00E94BE323A
:1034500060E082E090E00E94A03260E083E090E0D3
:103460000E94A0321092550260E084E090E00E9439
:10347000A03260E082E290E00E94A03260E085E04D
:1034800090E00E94A03260E086E090E00E94A032CE
:103490006FEF87E090E00E94A03240E050E0BA0178
:1034A00088E090E00E94B23260E08DE090E00E94FF
:1034B000A03240E050E0BA0188E190E00E94B232D0
:1034C00060E087E190E00E94A03240E050E0BA0165
:1034D0008CE190E00E94B23270E060E080E290E027
:1034E0000E94BE3240E050E0BA0188E190E00E94C4
:1034F000B23240E050E0BA018FE090E00E94B23278
:1035000040E050E0BA0183E190E00C94B232CF93F6
:10351000C091CB02C2FB992790F9981799F080FBD4
:10352000C2F9C093CB026091CA0284E090E00E948D
:10353000A0326C2F82E290E00E94A03282E0CF9114
:103540000C94DA0CCF91089530E020E043E060E085
:1035500086E30C94B22DCF92DF92EF92FF920F93FD
:103560001F93CF93DF93CDB7DEB72C970FB6F894A8
:10357000DEBF0FBECDBF4F83588769877A878B87A1
:103580009C8780911C03882399F00E94A41A80E5EF
:103590000E942A2E2AEB2A95F1F700C00E94422EA3
:1035A000887899278038910509F48FC00E945A2E97
:1035B0000E949815882309F468C00E94AE07009104
:1035C000FE011091FF0120910002309101026B0178
:1035D0007C01C01AD10AE20AF30A97018601083079
:1035E00011052105310508F450C06093FE01709368
:1035F000FF01809300029093010200912B03109130
:103600002C0320912D0330912E03601B710B820B34
:10361000930B623371058105910580F410922003AC
:1036200010921F0310922203109221031092240380
:103630001092230310922603109225031091290360
:103640000E94E715112309F46EC0BE01695F7F4F28
:103650008FE193E00E94590C0091290310911C0303
:103660000E94E715011709F488C0BE01695F7F4F0A
:1036700083E293E00E94590C86E0FE013796A3E3B3
:10368000B3E001900D928A95E1F786E0FE0137964E
:10369000DE01119601900D928A95E1F729813A8118
:1036A0004B815C816D817E8180E090E02C960FB62D
:1036B000F894DEBF0FBECDBFDF91CF911F910F9168
:1036C000FF90EF90DF90CF9008950E94422E0E94CD
:1036D000422E7C010E94422E20E0E22AF82A0E941B
:1036E000422E8C010E94422E20E0022B182B0E94B9
:1036F0005A2EF894B70180911F03909120030E94E5
:103700002C0D9093200380931F03B8018091210317
:10371000909122030E942C0D909322038093210309
:103720000E949C0845CF80911F039091200381380F
:103730002FEF9207D4F080389105CCF489878091DF
:1037400021039091220381382FEF920794F0803863
:1037500091058CF481958A871092200310921F03A3
:10376000109222031092210377CF81E8E7CF8FE7F1
:10377000E5CF81E8EFCF8FE7EDCF809123039091E4
:10378000240381382FEF9207D4F080389105CCF4D0
:103790008987809125039091260381382FEF920726
:1037A00094F0803891058CF481958A8710922403D7
:1037B0001092230310922603109225035DCF81E817
:1037C000E7CF8FE7E5CF81E8EFCF8FE7EDCFCF935E
:1037D000DF93D82FC62F0E94A41A8D2F80680E94D5
:1037E0002A2E8C2F0E942A2E0E945A2E8FEC92E0B5
:1037F0000197F1F700C00000DF91CF910895682F85
:10380000893708F068E76093270391E090932803D5
:1038100090911C03992359F06150811101C064E01B
:103820008FE00E94E71B60E080E50C94E71B0895A1
:10383000FB0180810C94FF1B90912703911101C023
:1038400095E0282F880F330BA901490F511DCA019C
:103850001816190614F081E090E00C94FF1BCF932A
:10386000C82F0E94A41A8C2F0E942A2E8FE792E064
:103870000197F1F700C000000E94422EC82F0E945D
:103880005A2E9AE69A95F1F700C08C2FCF910895A1
:10389000CF93DF930E94AA2D269A0E94A41A6AE56C
:1038A0008AE30E94E71B2FEF80E792E021508040DF
:1038B0009040E1F700C0000082E00E942F1C83E0EE
:1038C0000E942F1C84E00E942F1C85E00E942F1C68
:1038D00086E00E942F1C60E080E10E94E71B80E0F0
:1038E0000E942F1CD82F81E00E942F1CC82F0E94FD
:1038F0005A2ED23419F481E0C13009F080E0817091
:1039000080931C03882351F064E08FE00E94E71B42
:1039100060E080E5DF91CF910C94E71BDF91CF91C0
:1039200008951F920F920FB60F9211242F933F9379
:103930004F935F936F937F938F939F93AF93BF93B7
:10394000CF93DF93EF93FF93D091E900DF708091E5
:10395000EC00C82FC17080FDC0E81092E900809192
:10396000F000877F8093F00078940E944C0D1092B5
:10397000E9008091F00088608093F000CD2BCF703B
:10398000C093E900FF91EF91DF91CF91BF91AF918B
:103990009F918F917F916F915F914F913F912F9167
:1039A0000F900FBE0F901F9018951F920F920FB699
:1039B0000F9211242F933F934F935F936F937F93B5
:1039C0008F939F93AF93BF93EF93FF938091E10009
:1039D00082FF09C08091E20082FF05C08091E10072
:1039E0008B7F8093E1008091DA0080FF24C080917A
:1039F000D80080FF20C08091DA008E7F8093DA00AB
:103A00008091D90080FF9DC080E189BD82E189BDA0
:103A100009B400FEFDCF81E08093E1038091D303E0
:103A2000811109C00E941E060E94E9068091E200F1
:103A300084608093E2008091E10080FF17C0809154
:103A4000E20080FF13C08091E2008E7F8093E2004D
:103A50008091E20080618093E2008091D8008062D2
:103A60008093D80019BC85E08093E1038091E10048
:103A700084FF2BC08091E20084FF27C080E189BDD4
:103A800082E189BD89B5982F917080FFFBCF80912D
:103A9000D8008F7D8093D8008091E1008F7E809345
:103AA000E1008091E2008F7E8093E2008091E2004D
:103AB00081608093E2008091E203882309F447C08B
:103AC00084E08093E1038091E1038091E10083FF32
:103AD00027C08091E20083FF23C08091E100877FAF
:103AE0008093E10082E08093E1031092E2038091F1
:103AF000E1008E7F8093E1008091E2008E7F8093D1
:103B0000E2008091E20080618093E20042E060E0A8
:103B100080E00E94B7068091F00088608093F000FA
:103B2000FF91EF91BF91AF919F918F917F916F9195
:103B30005F914F913F912F910F900FBE0F901F906B
:103B4000189519BC1092E1031092D30374CF8091A1
:103B5000E30087FD93E09093E103B5CF78941F9243
:103B60001FB61F9211248F939F93AF93BF938091A1
:103B7000CF039091D003A091D103B091D2030196CD
:103B8000A11DB11D8093CF039093D003A093D103C7
:103B9000B093D203BF91AF919F918F911F901FBEA1
:103BA0001F9018959C014FB7F8948091CF03909186
:103BB000D003A091D103B091D2034FBF821B930BCE
:103BC00008952FB7F8948091CF039091D003A091DE
:103BD000D103B091D2032FBF08950E94981581118F
:103BE0000C94E11D0E94CC15CB0108956091C10396
:103BF000669570E04BE050E08EE891E00E946932FB
:103C0000892B19F481E080934C030E94ED1D909361
:103C100046038093450380914D03846080934D0358
:103C200008959091C10390FF3BC0917081112EC007
:103C300092609093C10380914D03816080934D0306
:103C4000662351F06091C1037091C2038091C30358
:103C50009091C4030E94F6166091C103669570E0CE
:103C60004BE050E08EE891E00E946932892BA9F088
:103C70000E94DA0781E08093480320E04091C4036A
:103C80006091C3038091C2030C9408178B3210F02B
:103C90009465CFCF880F982BCCCF0E94F61DEACF2A
:103CA00008958091C1038695815009F48AE261E00C
:103CB0000C94111E8091C10386958F5F8B3208F0A2
:103CC00081E061E00C94111E9091C10390FF07C048
:103CD0009695981720F0961710F40C945A1E61E0F0
:103CE0000C94111E8F929F92AF92BF92CF92DF924F
:103CF000EF92FF920F931F93CF93DF93CDB7DEB771
:103D000062970FB6F894DEBF0FBECDBF7C01FC01F9
:103D100083819481892B39F01081D180812F8D216D
:103D20008F3F09F06AC462960FB6F894DEBF0FBEEB
:103D3000CDBFDF91CF911F910F91FF90EF90DF905A
:103D4000CF90BF90AF909F908F9008950E94C40A2B
:103D5000082F682F89819A810E944A0BE12FF0E099
:103D600026E0D29EE00DF11D112430E3039FE00D0B
:103D7000F11D1124EE0FFF1FE953FF4F25913491E0
:103D80003093300320932F03F7018081918190932A
:103D9000320380933103213F310540F0293F310543
:103DA000A8F02D3AFDE53F0709F468C0F7018281CC
:103DB000882309F433C4F901E65AFD45EA30F105D8
:103DC00008F09BC0EF5AFC4C0C94EF31215F310995
:103DD00081E090E001C0880F2A95EAF7328126E061
:103DE000EFE3F3E0DE01179601900D922A95E1F7DB
:103DF00026E0FE013796DE011D9601900D922A9570
:103E0000E1F728853323B9F1822B8E8786E0FE0106
:103E10003D96DE01119601900D928A95E1F786E0BC
:103E2000FE013196AFE3B3E001900D928A95E1F780
:103E300080915102877009F476CFF701828188233F
:103E400009F471CF8091CB0282FD6DCF82E0629642
:103E50000FB6F894DEBF0FBECDBFDF91CF911F919B
:103E60000F91FF90EF90DF90CF90BF90AF909F9019
:103E70008F900C94DA0C80958223C7CFF701828152
:103E80000E94A60CD5CF80E00E94FF1B10922A034F
:103E9000CFCF4091270350912A0350FB47F9569505
:103EA000537060E070E08FE090E00E94B232C0CFCB
:103EB00081E00E941C1CBCCF8FEFFBCF8AE0F9CFC2
:103EC00086EFF7CF9091290381E08927D9CF8091A0
:103ED0002A03811101C084E08F5F18160CF081E085
:103EE000883008F087E080932A03A2CF80912A03CC
:103EF000811101C084E08150F0CF2631FCE53F07FD
:103F000009F055C18091D4038A7A91E009F490E0D8
:103F10009093020269E2811165E380EF91E00E94D3
:103F2000BA070E948D0A84CF85E382C38091D403AF
:103F300082722D3C9CE5390709F41FC108F09AC034
:103F4000273CFCE53F0709F404C108F073C0243C9A
:103F5000ECE53E0709F4F3C008F05CC0233C3C45A7
:103F600009F4C1C0F701828110810181882309F41D
:103F700063C1812F902F0E94C40AD82E682F812FF1
:103F8000902F0E944A0BE12FF0E026E0029FE00D07
:103F9000F11D112430E3D39EE00DF11D1124EE0F2D
:103FA000FF1FE953FF4F859194910E941A098C01DC
:103FB000882EF701C280B580B2945FE0B52280916F
:103FC00051028770C1F0AC2CCC20B1F0812F807FE2
:103FD000803421F080E2800F883068F08091CB023D
:103FE00082FD09C082E00E94DA0C80915102877044
:103FF000AA24A3948111A12C912E92943FE09322A4
:10400000FBE0F91508F486C1E92DF0E0E55AFC4C17
:104010000C94EF31253C9CE5390709F495C04BED34
:1040200057E164EE77E1263C3C4509F09BCF0E94C6
:10403000D407FECE2A3CFCE53F0709F494C068F49F
:10404000283CECE53E0709F489C04FEC57E163ECEE
:1040500077E1293C3C4559F385CF2B3C9CE539075A
:1040600009F486C04DEE57E16EEF77E12C3C3C45FC
:10407000F1F278CF223DFCE53F0709F48CC098F4BB
:104080002F3C9CE5390709F480C008F47BC0203D33
:10409000FCE53F0709F47CC0213D3C4509F062CFB7
:1040A0006EE089E01DC0253D9CE5390709F479C023
:1040B00060F4233DFCE53F0709F470C0243D3C4516
:1040C00009F050CF61E088E137C0263D9CE5390713
:1040D00009F46AC06AE285E22E353D4509F042CF17
:1040E0000E94641EA5CE8091C10380FF20C08E7FF8
:1040F0008093C1036091C1037091C2038091C30397
:104100009091C4030E94F6160E94DA0780914D0335
:10411000816080934D03FFEF20E732E0F1502040B3
:104120003040E1F700C000000E94491281CE81605A
:104130008093C10361E086950E94111E79CE41E50E
:104140005EE16AE57EE173CF4AE55EE161E57EE12D
:104150006ECF44EE57E16BED77E169CF43EC57E169
:104160006FEC77E164CF4BEA57E167EB77E15FCF24
:1041700047EB57E16BEA77E15ACF4EEF57E16DEE2F
:1041800077E155CF61E081E0D7CF65E082E0A8CF4D
:1041900068E086E0A5CF64E18FE0A2CF67E185E12A
:1041A0009FCF62E289E19CCF61E083E2C5CF2B35EE
:1041B0008DE5380709F43CC058F42115ECE53E07BD
:1041C000C9F02F3D3C4509F0CDCE0E94221A30CED9
:1041D0002C358DE5380771F12D353D4509F0C2CEFE
:1041E0008091CB0282FB882780F991E089270E9489
:1041F000871AB8CE1092D4030E943F0DEFEFF4E37C
:104200002CE0E150F0402040E1F700C0000087E7DB
:1042100097E7909301088093000888E19AE00FB631
:10422000F894A895809360000FBE90936000FFCF34
:1042300081E0DDCF80E0DBCF812F902F0E94210B2A
:10424000D82EA1CE212F2F70D22E107F19F0D2940C
:1042500020EFD222CC20B9F0DD2069F080E2800F7F
:10426000883010F0811009C08091D403D82AD092F0
:10427000D4030E948D0A802F4BC080915302D82A0C
:10428000D0925302F6CF802F0E94B80BDD2009F4A4
:1042900041C0005E083010F0811004C08D2D0E94D6
:1042A000860A06C0D09480915302D822D09253023D
:1042B0000E948D0A2FC0312F3F70D32E107F1032F5
:1042C00019F0D29490EFD922882089F081E08816E5
:1042D00009F488C0CC2009F492C0BB2009F488C03E
:1042E000F701858180FFC7CF8F70858381C02091C2
:1042F000CB0222FF54C0CC2009F44AC0DD2039F0A3
:104300008091D403D82AD092D4030E948D0A80E0F1
:104310000E940E0CE92DE850FF0B349710F40E9418
:10432000BC15AA20A9F08091510280FD11C0F701AF
:1043300012828595859585950E94F60CC7010E948D
:10434000721E809151028595859585950E94CE0CAF
:1043500085E0F701DE01119601900D928A95E1F753
:1043600089819A810E94210B9A81E981F0E026E0FF
:10437000929FE00DF11D112430E3839FE00DF11DAC
:104380001124EE0FFF1FE953FF4F85919491CBCC81
:1043900080E00E94B80BDD2009F4BCCF7FCFCC2099
:1043A000A1F0909154028D2D892BB11003C00E9471
:1043B000AE0BB0CFE1E0BE12FACF22FDABCF981723
:1043C00009F4A8CF80935402A5CFB11006C00E9473
:1043D000800A8D2D0E94A70B9DCFF1E0BF1609F436
:1043E00099CFF5CFCC2031F025E02B1508F492CFF2
:1043F0008D2DDDCF34E03B1508F48CCFEACFBB2008
:1044000041F3F9E38F12F2C02FEF37EE83E0215032
:1044100030408040E1F700C00000E8C0812F837089
:1044200089F5C11077CF402F429546954770440FCC
:10443000440F802F8F70042E01C0880F0A94EAF772
:10444000202F207104FF07C02FE030E001C0220FB1
:104450004A95EAF72095169516951370123069F073
:1044600050F430915502113029F0822B83230E94A1
:10447000780B50CF832B822BFACF282B80915502BB
:104480008227F5CF8695CC2011F0812F817088236B
:1044900009F440CF402F429546954770440F440F92
:1044A000802F8F70042E01C0880F0A94EAF7202F06
:1044B000207104FF07C02FE030E001C0220F4A95B1
:1044C000EAF72095169516951370123069F050F49E
:1044D0003091E202113029F0822B83230E94BA0C22
:1044E00019CF832B822BFACF282B8091E2028227CF
:1044F000F5CF1F70CC2029F0812F0E94F60C802F61
:1045000056CF802F0E94A70B812F0E94CE0C02CF86
:10451000802F92EF8916A9F1981570F0E0EF8E16B2
:10452000D1F0F1EF8F1691F0CC2009F45AC0B11000
:10453000A2CE812F8F7129C023EF821649F134EF6B
:104540008312F2CF8091CB0282FF2DC0812F8F7119
:10455000CC20D9F21AC0CC2079F084E08B1508F475
:10456000D9CE1F7181E090E001C0880F1A95EAF75B
:104570009091E2028927B2CF95E09B1508F4CACE4C
:10458000F0CF812F8F71C110C0CF0E94F60CC2CE28
:1045900080E0CC2009F4A2CF1F7181E001C0880F18
:1045A0001A95EAF79BCFCC2089F01F71812F0E94CA
:1045B000F60C8091CB0282FD07C0E8E01E9FC0018F
:1045C0001124836080935102812FDFCF81E00E940C
:1045D000DA0CF1E0FB1508F09DCE82E00E94DA0CC7
:1045E00099CEBB2039F0893309F40ECF802F0E9479
:1045F000B80B90CE812F8F7188CF85E0DE011196A8
:1046000001900D928A95E1F7F701228189819A81C3
:1046100021119CCB0E94210B082FA0CB2631FCE559
:104620003F0709F083CC8091020281117DCC89E2A1
:10463000E2EFF1E028EF31E09191891303C0DF014F
:1046400011971C922E173F07B9F76BCC1F93CF938E
:10465000DF9380911E02807FA9F480911B02882342
:1046600089F080915002D0911F02609119027091DF
:104670001A02A0911C02B0911D02C62FC72316E09A
:10468000D81304C0DF91CF911F91089590E0109747
:1046900011F0CF3F19F401968770F2CF189F900167
:1046A000199F300D1124F901E05EFD4F4181471340
:1046B000F2CF40814613EFCF42814111ECCF4381CD
:1046C00054814A1B5B0B483C510528F780911E0220
:1046D0008F70806180931E02F901EB5DFD4F808138
:1046E0008F708061808389E192E00E94721EDF9169
:1046F000CF911F910C94BA0AAF92BF92CF92DF92E2
:10470000EF92FF920F931F93CF93DF93CDB7DEB756
:1047100061970FB6F894DEBF0FBECDBF8C0185E068
:10472000F801DE011D9601900D928A95E1F7F801DE
:10473000E28089E1A82E82E0B82E60911C0270917F
:104740001D026115710509F432C190911902409161
:104750001A02892F84238F3F09F429C120813181D6
:10476000C380D480F0901B02F601E61BF70BFF20FC
:1047700009F4E8C080911E02582F507FE83CF105F3
:1047800008F0ABC0511177C0FE2C431321C0921327
:104790001FC0E1101DC08F70806180931E02C50193
:1047A0000E94721E80911E02F80185838F2D6196F2
:1047B0000FB6F894DEBF0FBECDBFDF91CF911F9132
:1047C0000F91FF90EF90DF90CF90BF90AF90089542
:1047D000CD2829F0822F83238F3F09F003C180E089
:1047E000F82FF170DF2E80FF3CC080915002409185
:1047F0001F0256E0841315C02D873E878D859E8548
:104800000E94060B292F22952F702230F0F02430C1
:1048100018F59F70F1F0F8019581907FD1F4D12CBB
:104820001EC090E0589FF001599FF00D1124E05EEA
:10483000FD4F6181361306C06081261303C062817B
:10484000E6120FC001968770D5CF9F7011F08823B4
:1048500031F3805E883018F3C8010E94721EFD2C6F
:10486000A5CFEE2009F4A2CF80911E028160809333
:104870001E02F12C9BCF431306C0921304C0F80113
:10488000EE2009F479C0C8010E94800B882309F149
:10489000EE20F9F080911E02803270F02091190212
:1048A00030911A0238872F831986DB86CA868C8757
:1048B000CE0107960E94721E86E0F801A9E1B2E0DF
:1048C00001900D928A95E1F70E942623FF24F3942C
:1048D0006DCFC8010E94721EF9CF51110AC089E143
:1048E00092E00E94721E86E0F50111928A95E9F726
:1048F000C0CF43130FC092130DC0E1100BC0F801DD
:104900008583C8010E94721E86E0F50111928A9586
:10491000E9F74CCFC8010E94800B8823D1F2EE202A
:10492000C1F280911E02803238F22091190230913A
:104930001A023A8329831B82DD82CC828E83CE01C8
:104940000196B8CFE83CF105F8F6FE2CEE2009F20E
:1049500043131FC092131DC080911E0280FD10C022
:10496000982F907F69F0F8018583903F31F0982F60
:10497000907F905F8F70892B8583C8010E94721E83
:1049800086E0F801A9E1B2E001900D928A95E1F785
:104990000DCFC8010E94800B81118ECF80911E0225
:1049A000816080931E02C8010E94721EFFCEEE201D
:1049B00009F48FCFC8010E94800BF82E882309F4D8
:1049C00088CF86E0F801A9E1B2E001900D928A95C6
:1049D000E1F78091190290911A020E94060B0E9441
:1049E0002623E4CE81E08E25FBCE1F93CF93DF9369
:1049F000CDB7DEB767970FB6F894DEBF0FBECDBF59
:104A00004B8B5C8B6D8B7E8B8F8B61111092530265
:104A10001A8A198A85E0FE017396DE011D960190BF
:104A20000D928A95E1F786E0FE013D96DE0117962C
:104A300001900D928A95E1F7CE0107960E947C23A2
:104A4000882389F016E08091500290911F0289130B
:104A50004BC067960FB6F894DEBF0FBECDBFDF9197
:104A6000CF911F91089586E0FE013796DE011196E1
:104A700001900D928A95E1F78A859B85892B11F328
:104A80008F81988589238F3FE9F220911F0230E0C2
:104A9000C90101968770992740915002481719065D
:104AA00081F41092D4030E943F0D10921F021092C5
:104AB000500286E0E9E1F2E0DF011D928A95E9F714
:104AC000C1CF96E0929FD001939FB00D1124A05EBC
:104AD000BD4FFE01319601900D929A95E1F78093BA
:104AE0001F020E94BA0AAECF819FC0011124805ECE
:104AF0009D4F0E947C23882309F4ABCF8091500204
:104B000090E0019687709927809350029CCF7F9206
:104B10008F929F92AF92BF92CF92DF92EF92FF92CD
:104B20000F931F93CF93DF93CDB7DEB72C970FB6BC
:104B3000F894DEBF0FBECDBF8E010F5F1F4F88E020
:104B4000D8011D928A95E9F785EAC82E81E0D82E12
:104B5000F12CE12CAA24A394B12C23EB822E21E08A
:104B6000922EF60181916F018F3F09F443C0F894B2
:104B7000E82FE295EF70F0E021A18F70A50102C04F
:104B8000440F551F8A95E2F7CA01922F982B91A3E3
:104B900092A18095892382A30E949C0800C0EDEA1F
:104BA000F1E0712C31E021912F3F09F47DC0A22F5B
:104BB000A295AF70B0E090968C9190E02F7002C0FB
:104BC000959587952A95E2F780FD6EC0832F782A08
:104BD000330F8E169F0639F7F601319780818F3F8C
:104BE00011F00E94C00850EA5A95F1F7F801EE0D55
:104BF000FF1D70828FEFE81AF80A94E0E916F104BD
:104C000009F0AFCF48E050E0B8018CEC92E00E9490
:104C100076327C01892B41F088E0F801ACECB2E0FF
:104C200001900D928A95E1F71091D502E114F104FB
:104C3000E9F181E0809358020E94E11D90935702B0
:104C40008093560280915602909157020E94D21D85
:104C5000059790F0E12FF0E0E952FD4F8091CC02F2
:104C600080838091CD0281838091CE028283809166
:104C7000CF0283831092580281E090E0EF28D1F0B8
:104C80002C960FB6F894DEBF0FBECDBFDF91CF914B
:104C90001F910F91FF90EF90DF90CF90BF90AF905A
:104CA0009F908F907F90089580E091CF80915802DF
:104CB0008111C8CF0E949815F82EE091D502882363
:104CC00009F476C019861A861B861C860E2F10E002
:104CD00009521D4F8091C5028A30A0F54CE859E178
:104CE000BE01675F7F4FC8010E9454158823C9F138
:104CF0004AE359E1BE01675F7F4FC8010E94541526
:104D0000882379F147ED58E1BE01675F7F4FC80105
:104D10000E945415882329F11092C5028091D40273
:104D200090E044E050E0BE01675F7F4F89529D4FA5
:104D30000E94763221E020935F02892B59F5F12CF5
:104D40008F2D9ECF8091590290915A020E94D21DC0
:104D5000843F914018F680915F02811112C080E07B
:104D60008FCF8091C5028F3F29F08F5F8093C5025E
:104D70008A30A0F20E94E11D90935A02809359025A
:104D8000EACFFE01399684E0DF011D928A95E9F7AA
:104D900010925F02E091D402F0E0E952FD4F898564
:104DA0009A85AB85BC8580839183A283B383C8CF6A
:104DB000F0E0E952FD4FF89484E0A2E6B2E0019001
:104DC0000D928A95E1F782E692E00E9407068093B1
:104DD00061020E949C08F894C0906602D09067021D
:104DE000E0906802F090690280915B0290915C0211
:104DF000A0915D02B0915E02C816D906EA06FB06D4
:104E0000D1F0C0925B02D0925C02E0925D02F0921F
:104E10005E020E94981581110EC00E94AE07C61A4C
:104E2000D70AE80AF90AC092C602D092C702E092F5
:104E3000C802F092C9020E949C08F8948091710205
:104E4000882379F180FF0DC080916A029091C1039F
:104E500080FF2AC091609093C10360E086950E9414
:104E6000111E8091710281FF09C020E040916D0206
:104E700060916C0280916B020E9408178091710210
:104E800082FF06C080917002882321F10E94F61DE6
:104E90008091710283FF03C081E0809348031092E8
:104EA00071020E949C085BCF9E7F9093C1030E9479
:104EB000DA0780914D03816080934D03BFEFE0E7F7
:104EC000F2E0B150E040F040E1F700C000000E9485
:104ED0004912C7CF0E94DA07DBCF1F921FB61F927D
:104EE00011248F939F93AF93BF938091CE03811131
:104EF00013C08091CF039091D003A091D103B091C2
:104F0000D2034196A11DB11D8093CF039093D0038E
:104F1000A093D103B093D203BF91AF919F918F9192
:104F20001F901FBE1F901895CDB7DEB760970FB6C4
:104F3000F894DEBF0FBECDBF84B7877F84BF0FB6A6
:104F4000F894A89580916000886180936000109229
:104F500060000FBE80E890E00FB6F8948093610087
:104F6000909361000FBE85B7806885BF85B7806864
:104F700085BF8AE998E09093EF018093EE010E944B
:104F80001E060E94E9068091E20084608093E200A0
:104F900078948091E1038823A1F01091E9001F70BB
:104FA0009091EC00892F817090FD80E8182B109271
:104FB000E9008091E80083FD0E944C0D1F70109362
:104FC000E90082E084BD93E095BD9AEF97BD8093A0
:104FD0006E001092C6021092C7021092C802109280
:104FE000C9020E94E715809304018091040188237F
:104FF00009F41BC310929C0187E080939D010E94DD
:10500000981581110E94EC2F809104018091040178
:1050100094E0811190E09093D50284E0891B809305
:10502000D40284EF0E94C00885EF0E94C00886EF7A
:105030000E94C00887EF0E94C0080DEA11E0D80165
:105040008D918D018F3F11F00E94C008B1E0033BAC
:105050001B07A9F788E0E7EDF2E0DF01C82E1D92FB
:10506000CA94E9F7ECECF2E0DF011D928A95E9F7CA
:1050700090E080E00E949A32893E9E4F11F00E949B
:10508000221A82E090E00E948C328093080384E030
:1050900090E00E948C32182F82E290E00E948C32C5
:1050A000982F812F9093CB028093CA0283E090E0E7
:1050B0000E948C320E94780B8091E2020E94480C80
:1050C00091E0833009F090E0892F0E94A60C0E94A5
:1050D0009815811102C00E94EF2F0E949815882315
:1050E00009F4A7C280E08093030380E88093EB0378
:1050F0000E94842E6DE070E08AE592E00E948811A3
:10510000892BE9F58091030363E070E081FD93C290
:1051100087E592E00E948811892B89F56DE070E0A7
:1051200087E492E00E948811892B49F50E94AE071E
:10513000605A75418F4F9F4F6093C6037093C703AA
:105140008093C8039093C903EEEEF3E080E092E011
:10515000DF019C011D9221503040E1F7F093F505ED
:10516000E093F4058FEF9FEF9093ED038093EC03B2
:1051700081E08093CB038093CA0310920403809153
:10518000D60281113BC090E080E00E949A32893EB5
:105190009E4F21F00E94221A0E940F1888E090E092
:1051A0000E9494326093C1037093C2038093C3033F
:1051B0009093C40380914D03836080934D036E7F71
:1051C00071F40E940F1888E090E00E94943260937E
:1051D000C1037093C2038093C3039093C4030E94DE
:1051E000E1070E94DA078091C10380FF04C060E0FC
:1051F00086950E94111E81E08093D6020E94481C71
:105200000E94981581112EC08AE090E190935E0172
:1052100080935D0124E130E03093590120935801DF
:1052200084E390E090935C0180935B0146E858E052
:1052300050936801409367013093630120936201AA
:10524000909366018093650148E15CE1509372019F
:105250004093710130936D0120936C019093700124
:1052600080936F0190E080E00E949A32893E9E4FC9
:1052700089F48FE090E00E9494328B01862F8F7723
:105280000E94FF1B001F0027001F1370110F102B1F
:1052900010932A0383E791E09093CD038093CC038E
:1052A00048E1842E912C8091E10312E1853009F4CC
:1052B00003C20E948725D82E81110E94AE0727EDD8
:1052C00032E0A6E8B1E049E053E010E000E0B02EA3
:1052D000F901F1909F018D91F822FA018191AF01BE
:1052E0008F1509F4FAC18F25C12CEE24E394982F71
:1052F0009E2109F4EDC10E949815882399F0C98276
:10530000BA82FE2081E009F480E08B830E94E11DD7
:105310008160782F9D838C8349815A816B818D8137
:105320000E94F524F801E75FFC4F8081E826E082C7
:1053300080914C03882309F464C080914B03E09171
:10534000C103E695E81BE0934703823009F0DCC116
:10535000F0E0E858FD4FE4910E2F10E030E4E32E2A
:1053600035E1F32E80914803882361F010924803C1
:105370000E94ED1D909346038093450310924A03CB
:10538000109249030E94ED1DE0914503F091460300
:105390009C012E1B3F0B2F3F3F4798F52091E102C8
:1053A0002223B1F01092E1022091DF023091E0025D
:1053B000821B930B8F3F9F4758F4205D3A483093F0
:1053C000E0022093DF0280914D03886080934D03BB
:1053D000A0904903B0904A03E00FF11FF0934603F9
:1053E000E093450385E493E0F70109958091490333
:1053F00090914A03892B29F4AB2819F081E080931E
:10540000E1028091CB03882351F1809105039091B3
:1054100006030E94D21DC29708F0E2C12091EC035E
:105420003091ED032115310509F0A6C28091CA0320
:105430008823A9F00E94AE070091C6031091C7030C
:105440002091C8033091C903601B710B820B930B31
:105450006F3F7F4F8F4F9F4710F40E94B811D110BC
:105460000E94D3110E94D0100E94BC159091070396
:10547000891721F00E94BC15809307030E9498159C
:10548000882309F410CF0E94AE0720911703211141
:1054900067C00091130310911403209115033091FC
:1054A00016036B017C01C01AD10AE20AF30A9701C4
:1054B0008601043F11402105310508F451C0609375
:1054C0001303709314038093150390931603809134
:1054D000110390911203019690931203809311038C
:1054E0001B868E01055F1F4F21E050E040E060E029
:1054F00088E00E947718811106C080911103909175
:1055000012030A976CF181E08093170380931D03C7
:105510009B85911101C080E080931E030E94E715D6
:1055200026E030E0882311F022E030E0E0911C0317
:1055300091E0E9272A573E4FE20FF32FF11D9FE339
:1055400090838111EBC282E090E0E0911E0321E0A4
:10555000E2278A579E4FE80FF92FF11D8FE38083D2
:1055600080911E03882309F49ECE0E94AE076B0132
:105570007C018091180390911903A0911A03B091B6
:105580001B03A7019601281B390B4A0B5B0BDA01A1
:10559000C9010497A105B10580F11B861C861D86F3
:1055A0001E868E01055F1F4F24E050E040E060E062
:1055B00089E00E9477188823C1F06B857C858091F3
:1055C0002303909124030E942C0D90932403809335
:1055D00023036D857E8580912503909126030E948B
:1055E0002C0D9093260380932503C0921803D0922C
:1055F0001903E0921A03F0921B0380912803882379
:1056000009F451CE809127038B8710E000E020E061
:10561000AE01455F5F4F61E08AE00E947718882302
:1056200009F441CE109228033ECE87E080939C017E
:10563000E4CC82E058CD84E592E06CCD8091E1032A
:10564000843031F10E94B8110E94D0101092CE0324
:1056500050E40FB6F894A895809260000FBE509366
:10566000600083B7817F846083BF83B7816083BF1D
:105670007894889583B78E7F83BF0FB6F894A895EA
:1056800080916000886180936000109260000FBE7E
:105690008091E003882381F00E948725E7EDF2E006
:1056A000A6E8B1E081919D91892309F03AC28FED7E
:1056B00092E08E179F07B1F78091E103853009F4DE
:1056C000BDCF1092D4030E943F0D0E94BC15F1CDB6
:1056D000C394EE0CF6E0CF120ACE0F5F1F4F0830D6
:1056E000110509F0F4CD8FEF8E838F8318860E9409
:1056F000E11D8160782F9A8789874E815F81688557
:105700008A850E94F52414CE863059F4F0E0EB58D7
:10571000FD4FE4910E2F10E020E3E22E25E1F22E62
:1057200021CE893061F4E695F0E0EE58FD4FE4912A
:105730000E2F10E091E8E92E94E1F92E13CE8F3070
:1057400061F4E695F0E0E159FD4FE4910E2F10E091
:1057500088EEE82E83E1F82E05CE853159F4F0E08D
:10576000E459FD4FE4910E2F10E0B1E6EB2EB3E1CA
:10577000FB2EF8CD883169F1833249F4EAE6F2E094
:1057800005911491A7EDEA2EA4E1FA2EEBCD04EFDA
:1057900011E074E9E72E72E1F72E843209F4E2CDCC
:1057A00000ED17E069EDE62E67E0F62E853209F090
:1057B000D9CD8E2F63E00E94C131E92FF0E0E95985
:1057C000FD4FE4910E2F10E0F8E1EF2EF6E1FF2EF1
:1057D000C9CD08E210E0E1EDEE2EE2E1FE2EC2CDF1
:1057E0000E94E11D90930603809305038EEE93E0E3
:1057F0009093F5058093F4050E949815882309F489
:10580000B6C010912F03012F8CEB92E00E949010F4
:10581000809132038F708A3008F09BC0805D0E94B7
:105820000F1088EB92E00E949010809131038F70EE
:105830008A3008F090C0805D0E940F10002309F4A8
:1058400090C085EB92E00E949010812F82958F701E
:105850008A3008F082C0805D0E940F10812F8F7007
:105860008A3008F07CC0805D0E940F108CEF810FA1
:10587000853308F076C081EB92E00E949010212FD2
:105880002450330BF901E458FD4F84910E940F100E
:1058900088ED92E00E949010809135030E94010DE6
:1058A0000E947011809136030E94010D0E947011B8
:1058B000809138030E94010D0E947011809137037E
:1058C0000E94010D0E9470118FEC92E00E949010D6
:1058D00080912703811101C085E00E94010D01968E
:1058E0000E94701189EC92E00E949010809129032F
:1058F00081113BC080E30E940F1085EC92E00E9472
:10590000901080912A03811101C084E0805D0E9483
:105910000F108091E2020E94480C06EE12E08430E3
:1059200040F4E82FF0E0EE0FFF1FED54FE4F008132
:1059300011818EED92E00E949010C8010E9490109B
:1059400081E00E949E108091CB03882309F46ECDE4
:1059500065CD895A64CF895A6FCF895A7DCF895ACC
:1059600083CF81E00E949E1093CF81E3C4CF80EF6C
:1059700092E00E949010E7CF8091040361E070E014
:10598000811154CD082F10E07B01082E02C0EE0CCF
:10599000FF1C0A94E2F7A9014E215F21452B09F46F
:1059A00047C09091030390FD45C08295880F807693
:1059B00080938101980136952795369527952093F8
:1059C0008401815E809382011092850124E630E09B
:1059D00047E050E06FE771E088E70E94332F892BA2
:1059E00009F024CDA80125E0440F551F2A95E1F7C1
:1059F0008091030380FD2CC042515C4F04E610E00F
:105A000020E230E060E488E70E945A2F892B09F0F9
:105A10000DCD0E94D311E094F0948091EC0390910D
:105A2000ED03E822F922F092ED03E092EC03FECCC4
:105A30008F5FA8CF880F880F880F80938101109205
:105A40008401895F8093820183E080938501BECFCA
:105A5000E3EEF2E080E2DF011D928A95E9F7EFEBD9
:105A6000F1E0F88BEF870BEB11E093EC292E91E03E
:105A7000392EAF85B8892D91B88BAF87F801419049
:105A80008F01440E552E511CC20182519C4F2C0196
:105A9000E22FF0E0ED51FD4F30E020E087E0682E8E
:105AA000621ACC24C394022E01C0CC0C0A94EAF7EB
:105AB000520190E0D5018D915D018C21662D691B0D
:105AC0006770762E062E000C770BB82F01C0BB0F27
:105AD0007A94EAF77B2E7195619571096770772743
