:100000000C9433060C947A060C947A060C943A32CB
:100010000C947A060C947A060C947A060C947A0660
:100020000C947A060C947A060C94E81B0C94A41B8E
:100030000C9497270C947A060C947A060C947A0602
:100040000C947A060C947A060C947A060C947A0630
:100050000C947A060C94C11C0C947A060C947A06C3
:100060000C947A060C947A060C947A060C947A0610
:100070000C947A060C947A060C947A060C947A0600
:100080000C947A060C947A060C947A060C947A06F0
:100090000C947A060C947A060C947A060C947A06E0
:1000A0000C947A060C947A060C947A0641646A756C
:1000B0007374005261697365004C6F776572004418
:1000C000656661756C740005010902A1018502096C
:1000D00001A10005091901290815002501950875D8
:1000E0000181020501093009311581257F950275CD
:1000F00008810609381581257F9501750881060557
:100100000C0A38021581257F950175088106C0C04B
:100110000660FF0961A1010962150026FF00952014
:10012000750881020963150026FF00952075089166
:1001300002C005010906A101050719E029E715001C
:100140002501950875018102950175088101050752
:10015000190029FF150026FF009506750881000586
:1001600008190129059505750191029501750391FD
:1001700001C00000000000000000000000000000BE
:10018000000000000000000000000000000000006F
:100190000000000000007E0F00D4FFFFFFC700003A
:1001A000007800000000000000002A2B280000005A
:1001B0000000000000000000000000000029000016
:1001C00000002C1E3420212224342627252E362DF3
:1001D0003738271E1F202122232425263333362E8D
:1001E00037381F0405060708090A0B0C0D0E0F10FF
:1001F0001112131415161718191A1B1C1D2F313044
:10020000232D350405060708090A0B0C0D0E0F10E7
:100210001112131415161718191A1B1C1D2F313023
:10022000354C00DA0281FFD9F1DB20A4A62EAF0005
:10023000A0C000A1C800AED580A81FD300408D1477
:1002400020007F3F1F643214783C1E1E140A056193
:1002500062636465666768696A6B6C6D6E6F707106
:1002600072737475767778797A31323334353637FC
:10027000383930524542545F2D3D5B5D5C233B274E
:10028000602C2E2F20202700204B00202043004BE5
:100290006579203A20205200202044003030202070
:1002A000530020202020204350490042616C6C3ACA
:1002B000004C617965723A2000556E646566696E1E
:1002C000656400808182838485868788898A8B8C97
:1002D0008D8E8F9091929394A0A1A2A3A4A5A6A77E
:1002E000A8A9AAABACADAEAFB0B1B2B3B4C0C1C2F5
:1002F000C3C4C5C6C7C8C9CACBCCCDCECFD0D1D256
:10030000D3D4000001010101010101010102020237
:1003100002020202020203030303030303030404B1
:10032000040404040405050505050606060606077B
:100330000707070708080808090909090A0A0A0B34
:100340000B0B0C0C0C0D0D0D0E0E0E0F0F0F1010D5
:10035000111111121213131414151516161717185C
:100360001819191A1A1B1B1C1D1D1E1E1F202021C7
:100370002222232424252626272829292A2B2C2D0E
:100380002D2E2F30313232333435363738393A3B2F
:100390003C3D3E3F404142434445464748494A4C24
:1003A0004D4E4F50515354555658595A5B5D5E5FF0
:1003B000616264656668696B6C6D6F707273757786
:1003C000787A7B7D7E8082838587888A8C8E8F91E8
:1003D000939596989A9C9EA0A2A3A5A7A9ABADAF12
:1003E000B1B3B5B7BABCBEC0C2C4C6C9CBCDCFD1FC
:1003F000D4D6D8DBDDDFE2E4E7E9EBEEF0F3F5F8A5
:10040000FAFDFFFFAA7F55402223252628292A2C02
:100410002D2F3032333536383A3B3D3E404243454E
:1004200047494A4C4E5051535557595A5C5E606289
:10043000646668696B6D6F71737577797B7D7F8199
:10044000838587898A8C8E90929496989A9C9E9F99
:10045000A1A3A5A7A8AAACAEAFB1B3B4B6B8B9BBB7
:10046000BCBEBFC1C2C3C5C6C7C9CACBCCCDCED026
:10047000D1D2D2D3D4D5D6D7D7D8D9D9DADADBDB13
:10048000DBDCDCDCDCDCDDDDDDDDDCDCDCDCDCDBAA
:10049000DBDBDADAD9D9D8D7D7D6D5D4D3D2D2D1F3
:1004A000D0CECDCCCBCAC9C7C6C5C3C2C1BFBEBCE6
:1004B000BBB9B8B6B4B3B1AFAEACAAA8A7A5A3A157
:1004C0009F9E9C9A98969492908E8C8A8987858319
:1004D000817F7D7B79777573716F6D6B69686664F9
:1004E00062605E5C5A5957555351504E4C4A4947C9
:1004F000454342403E3D3B3A3836353332302F2D6E
:100500002C2A29282625232200AF00AE2B00140018
:100510001A00080015001700E0000400160007008C
:1005200009000A00E1001D001B000600190005007B
:1005300029003500E2002A002C4100002D001300A4
:1005400012000C0018001C00340033000F000E00D5
:100550000D000B00E50038003700360010001100D8
:10056000310030002F004C00284200002B003A00E0
:100570003B003C003D003E00E00001005000520006
:100580004F000100E10001000100510001000100E5
:1005900029003500E2000100010000004400430092
:1005A0004200410040003F004500F600F5004B00CE
:1005B000F4000100E500010001004E00010001000F
:1005C00031002702260290002A4300002B0020025F
:1005D0002400250026002E02E00025022100220032
:1005E00023003700E10038001E001F0020002E000D
:1005F00029003500270091004C43000044004300CF
:100600004200410040003F00450022023102240226
:100610001E021F02E50035022302340034023500B9
:10062000310027022602010001000000C25C010027
:100630000100010001000100C35CC55CC75CC95C2E
:1006400001000100C35CC65CC85CCA5C010001001B
:10065000005CDE5C0100010001000000D25CD15CA6
:10066000D05CCF5CCE5CCD5C010001005D5DD55CF3
:10067000D45CD35CA65DA95DA75DA85DAA5D010001
:10068000A55D0100AD5DAE5D0100000009025B00EB
:10069000030100A0FA09040000010301010009217F
:1006A000110100012240000705810308000A090426
:1006B00001000203000000092111010001222200B3
:1006C0000705820320000107050303200001090438
:1006D000020001030000000921110100012249006C
:1006E0000705840320000A120100020000000857D9
:1006F00059030001000102000114034B0065007959
:1007000000620061006C006C0034003600000010D4
:100710000359006F0077006B0065006500730000EF
:1007200000040309040000000000003E5B4F5B3E34
:10073000003E6B4F6B3E001C3E7C3E1C00183C7E16
:100740003C18001C577D571C001C5E7F5E1C00007F
:10075000183C180000FFE7C3E7FF0000182418004A
:1007600000FFE7DBE7FF0030483A060E0026297954
:10077000292600407F05050700407F05253F005AD8
:100780003CE73C5A007F3E1C1C0800081C1C3E7FB6
:100790000014227F2214005F5F005F5F0006097F64
:1007A000017F00006689956A006060606060009467
:1007B000A2FFA2940008047E04080010207E2010EE
:1007C0000008082A1C0800081C2A0808001E10102F
:1007D0001010000C1E0C1E0C0030383E3830000685
:1007E0000E3E0E060000000000000000005F00004A
:1007F00000000700070000147F147F1400242A7FE4
:100800002A12002313086462003649562050000063
:100810000807030000001C224100000041221C00C8
:10082000002A1C7F1C2A0008083E0808000080706F
:100830003000000808080808000000606000002080
:1008400010080402003E5149453E0000427F40002E
:10085000007249494946002141494D33001814129C
:100860007F10002745454539003C4A494931004140
:100870002111090700364949493600464949291ED0
:1008800000000014000000004034000000000814C4
:100890002241001414141414000041221408000210
:1008A00001590906003E415D594E007C1211127C2F
:1008B000007F49494936003E41414122007F414184
:1008C000413E007F49494941007F09090901003E35
:1008D00041415173007F0808087F0000417F4100BB
:1008E000002040413F01007F08142241007F40402A
:1008F0004040007F021C027F007F0408107F003E02
:100900004141413E007F09090906003E4151215EF7
:10091000007F091929460026494949320003017F11
:100920000103003F4040403F001F2040201F003F88
:100930004038403F00631408146300030478040344
:10094000006159494D4300007F41414100020408C4
:10095000102000004141417F0004020102040040D8
:1009600040404040000003070800002054547840F5
:10097000007F284444380038444444280038444424
:10098000287F0038545454180000087E09020018CB
:1009900024241C78007F080404780000447D400073
:1009A000002040403D00007F102844000000417FAF
:1009B0004000007C04780478007C08040478003847
:1009C00044444438007C1824241800182424187C3B
:1009D000007C080404080048545454240004043FD4
:1009E0004424003C4040207C001C2040201C003C53
:1009F0004030403C004428102844004C9090907CAB
:100A0000004464544C440000083641000000007764
:100A10000000000041360800000201020402003C10
:100A20002623263C0000000000000000000000001B
:100A300000000000000000000000000000C0F0F80E
:100A40008C86C6E7FFFFFFFFFFFFFEFCFCF8E0809F
:100A5000000000F0F0F00000C0E0F0707000000056
:100A60000000000000000000000000000000000086
:100A7000000000F8F8F8000000000000000000008E
:100A8000000000000000000000F8F8F80000F8F88E
:100A9000F80000000000000000000000000000005E
:100AA000000000E0F0F0F0E0ECEEF7F37020007CE6
:100AB0007C7C7E007E7E7E7F7F7F000080C0E07E2B
:100AC0005B4F5BFEC00000C000DCD7DEDEDED7DCA3
:100AD00000C0000000000000000000000000000056
:100AE0000000000000000000000000000000000006
:100AF00000000000000080E07078686C64C7C7C721
:100B0000C7C7C7E73F1F0F3FFFFFFFFFFFFF3F0FB5
:100B1000000000FFFFFF1E3FFFF3E1800000F8FC34
:100B2000FE3636363EBCB8000E3EFEF080F0FE3E8D
:100B30000E0000FFFFFF060606FEFEFC7000E6F654
:100B4000F63636FEFEFC000000FFFFFF0000FFFF50
:100B5000FF00000000000000000000000000000096
:100B60000000000F1F3F7F7F7F7F7F3F1E0C001F15
:100B70001F1F3F003F3F3F7F7F7F00307B7F7830EC
:100B8000202030787F3B0003000F7F0F0F0F7F0F77
:100B90000003000000000000000000000000000052
:100BA0000000000000000000000000000000000045
:100BB00000000000003C7F6360E0C0C0C0C0C0C057
:100BC000C0C0FFFFC06030180F0303030100000026
:100BD00000000003030300000003030303000103FC
:100BE00003030303030301007070393F1F07010073
:100BF00000000001030303030303030100000103DA
:100C000003030303030100000003030300000303C5
:100C100003000000000000000000000000000000D1
:100C200000000000000000000000000000000000C4
:100C300000000000000000000000000000000000B4
:100C400000000000000000000000000000000000A4
:100C50000000000000000000000000000000000094
:100C600000000000000011241FBECFEFDAE0DEBF5D
:100C7000CDBF04B603FE27C08091AC059091AD05B1
:100C8000A091AE05B091AF058730904BA740B04B17
:100C9000D1F41092AC051092AD051092AE051092F1
:100CA000AF0514BE84B7877F84BF0FB6F894A895AC
:100CB00080916000886180936000109260000FBE98
:100CC000E0E0F8E3099511E0A0E0B1E0E4E7F9E63F
:100CD00002C005900D92AA3EB107D9F725E0AAEE11
:100CE000B1E001C01D92AC3AB207E1F70E94BE2705
:100CF0000C9477340C940000FC01AC014C5F5F4F06
:100D00008FEF91E32191822728E030E087FF09C02F
:100D1000880F892721503109C9F7E417F50791F7A2
:100D20000895880FF7CFE8EDF0E080818E7F808313
:100D30001092E2001092DA001092E100A0EEB0E012
:100D40008C9181608C9380818F77808319BCA7ED13
:100D5000B0E08C918E7F8C9380818F7E8083109207
:100D6000860308952091E4003091E50095E6A901FD
:100D70002091EC00822F817020FF06C08091E80056
:100D800080FF06C080E008952091E80022FD1AC08F
:100D900080919403882389F0853089F08091EB005D
:100DA00085FD0FC02091E4003091E5004217530704
:100DB000F9F29150E1F684E0089582E0089583E02D
:100DC000089581E00895EF92FF920F931F93CF93C0
:100DD0007C018B010E94B206C82F811117C080913F
:100DE000E80085FD0BC08091E8008E778093E800D5
:100DF0000E94B206882399F3C82F08C0F701819199
:100E00007F018093F1000150110949F78C2FCF9198
:100E10001F910F91FF90EF9008958091960387FFA7
:100E200013C08091E80082FF06C08091E8008B77B4
:100E30008093E80004C0809194038111F2CF08955B
:100E4000809194038823D9F38091E80080FFF8CF44
:100E50008091E8008E77ECCF982F9093E900242FB3
:100E6000762F50E0891731F07091EC002091ED0061
:100E70005091F00021FD07C09F5F973071F780937C
:100E8000E90081E008953091EB003E7F3093EB0064
:100E90003091ED003D7F3093ED003091EB003160FB
:100EA0003093EB007093EC002093ED005093F00032
:100EB0002091EE0027FDE0CF80E00895CF92DF92F1
:100EC000EF92FF920F931F93CF93DF93C8EDD0E083
:100ED00088818F7E8883E7EDF0E080818160808368
:100EE00084E082BF81E08093860388818E7F88833F
:100EF00002EE10E0F80110821092DA0081EEC82EA6
:100F0000D12CF601108288818F7788838881806850
:100F1000888388818F7D888319BC109294031092F6
:100F20009503109293031092920390EEE92EF12C08
:100F3000F70180818B7F808388818160888342E094
:100F400060E080E00E942C07F60180818E7F808324
:100F5000F801808181608083808188608083F701CF
:100F600080818E7F8083888180618883DF91CF91AB
:100F70001F910F91FF90EF90DF90CF900895FC01AB
:100F800080919C0390919D0386179707A0F06115AF
:100F9000710529F49091E8009E779093E80090E025
:100FA0006115710551F4911108C08091E80082FF2C
:100FB00034C080E00895BC01F2CF8091940388236F
:100FC000C1F18530C1F18091E80083FD30C080918E
:100FD000E80082FDEACF8091E80080FFE1CF8091B8
:100FE000F3002091F200382F6115710519F02830B7
:100FF000310558F091E02830310509F090E020915A
:10100000E8002E772093E800CBCF81918093F10008
:10101000615071092F5F3F4FE7CF80919403882380
:1010200041F0853041F08091E80083FFBECF81E040
:10103000089582E0089583E008950895089508953D
:1010400080918903089587E797E79093010880933B
:10105000000888E19AE00FB6F894A89580936000A4
:101060000FBE90936000FFCF2FB7F894609182037A
:101070007091830380918403909185032FBF08951D
:101080009C01FC0132969FEF80E04191461751F0A0
:101090009F3F19F4411101C0982F8F5F8630A9F747
:1010A0009F3F09F40895290F311D97FD3A95F901E5
:1010B00062830895FA01811101C0FB01099408952A
:1010C000E6E4F3E011828281846082830895809156
:1010D0007403982F9E7F29F481708260809374033B
:1010E00008958833E8F381708663F8CFAF92BF929A
:1010F000DF92EF92FF920F931F93CF93DF93082F0E
:10110000162FE901E42FF0E0ED5FFC4F611110C0F4
:10111000E4915E2F4E2F4983E8835A83DF91CF916C
:101120001F910F91FF90EF90DF90BF90AF900895C7
:10113000E62EF12C4491D42EE42FF0E026E0829F9D
:10114000C00111242FEF30E0B9010E94B433802F89
:1011500090E0880F991F55E5569FD001579FB00D1D
:1011600011248A1B9B0B982F990F890F5901AE18D8
:10117000BF08AE9ED001AF9EB00DBE9EB00D112433
:101180005B2F189F80011124012F11275901A01AEC
:10119000B10AAE9E8001AF9E100DBE9E100D1124AF
:1011A0005901A81AB108AE9CC001AF9C900DBE9C1D
:1011B000900D1124892F9927281B390B2E9FC001D0
:1011C0002F9F900D3E9F900D1124E92F62307105E5
:1011D000A1F050F46115710509F49DCF61307105DE
:1011E00081F0EB2F512F97CF6430710569F080F0BB
:1011F0006630710509F48FCFF4CFE42F4B2F592FB0
:101200008ACFE42F412F87CFEB2F542F492F83CF45
:101210004B2F5D2DE12F7FCFCF93DF93E7E1F3E0FD
:1012200083819481A581B681E90188839983AA830A
:10123000BB831482138216821582DF91CF910895A9
:1012400080E0089578940895E0916E02EB30A4F464
:101250008AE0E802F0011124EF5FFE4F0084F1857F
:10126000E02D309749F021E932E04091700261E7CA
:1012700072E080916F0209940895EDE5F2E08289B1
:1012800080933501838980934C010895F894E82F69
:10129000E295EF70F0E031A1282F2F7081E090E00F
:1012A00001C0880F2A95EAF7982F9095932391A370
:1012B00092A1892B82A30C9422099091C60292FFDD
:1012C00006C0282F28712830F9F4877F846093FFA7
:1012D00006C0282F28712831F1F4877E846120917F
:1012E000C70220FF06C0382F38713830D9F4877F05
:1012F000816021FF06C0282F28712831D1F4877E14
:10130000816194FD877E0895282F24712430F9F699
:101310008B7F8860DCCF282F2471243101F78B7EEE
:101320008861DDCF382F3171313019F78E7F8860B9
:10133000E0CF282F2171213121F78E7E8861E1CF06
:10134000CF93DF93EC018238910589F1B8F58133B1
:10135000910509F492C028F58932910509F486C0F7
:101360008A9709F491C0C11523E5D20708F0ACC0F3
:10137000C11532E5D30708F011C1C11540E2D40709
:1013800008F090C0C11581E0D80730F5C53AD10505
:1013900008F081C0C430D105F8F4C130D105E1F0C6
:1013A00040C08533910509F45AC0C997E1F6809190
:1013B000C602837089F0C0EED0E00EC0833E910576
:1013C00099F170F4803E910501F1823E910559F644
:1013D0008091C60282FD21C0CE01DF91CF91089598
:1013E000863E910561F1873E910571F1843E91053C
:1013F00009F0B9CF8091C70281FFEECF8091C6027C
:10140000C7EED0E084FD0DC0E7CF8091C60280FD1D
:10141000F4C09091C70290FFDFCFC3EED0E084FF0D
:10142000DBCFD0E0C0E0D8CF8091C60282FDE8C01B
:101430009091C70290FDBFCF84FFCECFF2CF8091B5
:10144000C60283FDDDCFC8CF8091C60283FDDBC01D
:101450009091C70291FFF0CFC4EED0E0BDCF809154
:10146000C60285FFB9CFC9E2D0E0B6CF8091C602EF
:1014700085FFB2CFC5E3D0E0AFCF8091C60286FF33
:10148000ABCFCAE2D0E0A8CF8091C60286FFA4CF3E
:10149000C1E3D0E0A1CFCE01815E9109079708F4A6
:1014A0009BCFBFCFC11591E5D90708F072C0C11518
:1014B00020E5D20708F050C0C11530E4D30708F486
:1014C000B0CFDF70D06A88CFC11546E5D407F0F4FD
:1014D000C11585E5D80708F077C0C11594E5D9078F
:1014E00008F06DC0CE018370992721E030E002C082
:1014F000220F331F8A95E2F7C695C69590E2C99FE1
:10150000E0011124C22BD32BDA6866CFC1152AE57E
:10151000D20778F4C11539E5D30708F060C0C115CA
:1015200048E5D40708F47DCFDC2FCC27C06FD06A04
:1015300053CFCE0190568115904208F072CF8D2F77
:101540008F710E945D0990E0982F882788279F71EE
:101550009C012C2BE90141C0CE01E4E096958795D2
:10156000EA95E1F783702C2F26952695237040E2AB
:10157000249F90011124382B8C2F8370C1E0D0E080
:1015800002C0CC0FDD1F8A95E2F7C22BD32BDC689B
:1015900023CFDC2FCC27C16FD06A1ECFCE01837042
:1015A000992721E030E002C0220F331F8A95E2F72D
:1015B000C695C69580E2C89FE0011124E6CFDC2FD6
:1015C000CC27C46FD06A08CF8C2F0E945D09C82F2A
:1015D000D0E0DC2FCC27CC27DF71D062FDCE8C2F62
:1015E0008F700E945D0934E0D695C7953A95E1F772
:1015F000CF709C2FEC01D069EFCEC9E3D0E0ECCEE8
:10160000C2EED0E0E9CEC6EED0E0E6CE8091500248
:10161000811110925002089580959091870398232C
:101620009093870308958091870390914F02892BAF
:1016300090914E02892B8093EC0190915002992356
:1016400091F0892B8093EC0120E08EEE91E0FC017B
:101650003191CF0131112F5FF1E0843F9F07B9F73E
:1016600021110E94060BE0917F03F09180033097D7
:1016700031F00280F381E02D8CEE91E00994089521
:1016800080914C0290911B02981301C008958F5FC6
:101690008770FACFE92FEE0FE90FEE0F8E0F982F1C
:1016A000977086958695869523E0829FF001112498
:1016B000ED5FFD4F50E040E080E0219130E0092EE9
:1016C00002C0369527950A94E2F721703327042E3D
:1016D00001C0220F0A94EAF7822B4F5F5F4F43301D
:1016E000510559F70895E92FEE0FE90FEE0F8E0F10
:1016F000982F977041E001C0440F9A95EAF78695BC
:101700008695869593E0899FF0011124ED5FFD4F4A
:1017100030E020E070E05191DF011197CB01022E03
:1017200002C0969587950A94E2F781708195852786
:10173000842385278C932F5F3F4F2330310559F742
:1017400008958093510210924F0210924E020C9411
:10175000130B882321F00E940C0B0C94130B08959B
:10176000882339F090918703982B909387030C94EA
:10177000130B0895882309F452C09CEF980F913AF7
:1017800078F4EEEEF1E024EF31E09191891303C09B
:10179000DF0111971C922E173F07B9F70C94130B1A
:1017A00090E2980F983050F4877091E001C0990F43
:1017B0008A95EAF7892F0E940C0BF0CF9BE5980FD2
:1017C0009330B0F48091FF0190910002892B39F1A0
:1017D000109200021092FF01E0917F03F0918003CC
:1017E0003097E9F00680F781E02D90E080E00994E1
:1017F000885A8731A0F48091010290910202892BCE
:1018000071F01092020210920102E0917F03F091B8
:101810008003309721F00084F185E02DE6CF089514
:10182000CF93C82F8823A1F18CEF8C0F813AF8F465
:10183000EEEEF1E0DF018D91C81761F081E0A43F89
:10184000B807C9F76C2F8CEE91E00E944008CF9149
:101850000C94130B8191C81303C0DF0111971C92E4
:1018600081E0E43FF807B1F70E94130BEBCF80E271
:101870008C0F883068F4C77021E030E001C0220F7F
:10188000CA95EAF780918703822B80938703DFCF85
:10189000CF910895982F92959F7011F0892F94E021
:1018A000282F2695269511F09E5F822F869509F0A8
:1018B0009F5F892F0895CF93DF93FC0190912503BB
:1018C000911101C094E0208131819150A901092E2C
:1018D00002C0559547950A94E2F7DA01092E02C035
:1018E000AA0FBB1F0A94E2F72A1B3B0B318320830C
:1018F000A281B3819D01092E02C0359527950A94D6
:10190000E2F7E90102C0CC0FDD1F9A95E2F7AC1BAC
:10191000BD0BB383A2834138DFEF5D078CF0403805
:10192000510584F4FB0145832138FFEF3F0764F044
:10193000203831055CF4EB012C83DF91CF910895C1
:1019400041E8F0CF4FE7EECF21E8F5CF2FE7F3CF17
:10195000CF93C82F809124038C1751F00E94340834
:1019600060932603709327038093280390932903A1
:10197000C0932403CF910895CF93C82F0E944A0C9F
:1019800091E0833009F090E0892F0E94A80CC09369
:101990009E0310924F0210924E02CF910C94130BA3
:1019A00080919E03982F9670963019F488600C945D
:1019B000BC0C877FFCCF21E030E001C0220F8A956C
:1019C000EAF7209580919E0382230C94BC0C9091A1
:1019D0004D028095892380934D02282F277091F422
:1019E000282F082E000C330B9217130659F09091F4
:1019F000C70292FD07C08595859585950E94DB0CF1
:101A000010924D02089521E030E001C0220F8A9526
:101A1000EAF780919E03822B0C94BC0C382F20E2B5
:101A200087FF02C031952DE24AE0832F642F0E9488
:101A3000D433905D9093F80181110BC02093F7018E
:101A400020E22093F60120E22093F50185EF91E05A
:101A50000895642F0E94D433905D9093F701832FF3
:101A600064E60E94D433882361F3805D8093F6019D
:101A7000EBCF9C01860F971F37FD07C077FD04C091
:101A800097FF02C08FEF9FE7089577FFFDCF97FD87
:101A9000FBCF80E090E80895EEEEF1E086E0DF0114
:101AA0001D928A95E9F710924F0210924E020C9403
:101AB000130B1F93CF93DF93CDB7DEB7AA970FB663
:101AC000F894DEBF0FBECDBF86E993E02091F10010
:101AD000DC012D93CD01B3E08E399B07B9F78091DE
:101AE0009703833009F472C0B8F4813009F449C017
:101AF000823009F4B5C08091E80083FF8DC28091E7
:101B00009603909197039A3008F086C2E92FF0E08F
:101B1000E758FB4C0C94F6338A3009F490C08B30B4
:101B200009F471C0893039F780919603813219F731
:101B300080919A0390919B03009711F00297D9F638
:101B40008091E800877F8093E8008091E80082FF21
:101B500038C09091F3008091F200029731F48091A7
:101B6000F100813011F0863021F48091F1008093F2
:101B700089038091E8008B778093E8000E940D072D
:101B8000BACF80919603813A09F0B5CF8091E800F1
:101B9000877F8093E80080919A0390919B03892B23
:101BA00061F468E08AE893E070E00E94BF078091EA
:101BB000E8008B778093E8009ECF60E090E080E0C3
:101BC000F3CF809194038111C0CF95CF809196037C
:101BD000813A09F090CF80919A0390919B03892BD1
:101BE00009F089CF8091E800877F8093E800809199
:101BF000E80080FFFCCF80919C018093F1008091F0
:101C0000E8008E77B9CF80919603813209F073CFC7
:101C100080919A0390919B03892B09F06CCF80915E
:101C2000E800877F8093E8000E940D078091980369
:101C300080939C01109287030E944C0D5CCF809191
:101C40009603813209F057CF8091E800877F809317
:101C5000E8000E940D0780919903809388034BCF81
:101C600080919603813A09F046CF8091E800877F02
:101C70008093E8008091E80080FFFCCF809188038A
:101C8000BCCF803899F0823809F0C6C180919A03A0
:101C90008F70873008F0C0C18093E9008091EB001D
:101CA00085FB882780F91092E90006C08091920395
:101CB00090919303911182609091E800977F9093A7
:101CC000E8008093F1001092F1008091E8008E7797
:101CD0009FC1882309F48DC1823009F09DC1809194
:101CE0009803811190C180919A038F702FEF280F74
:101CF000263008F091C18093E9002091EB0020FF8D
:101D000082C1933031F48091EB0080628093EB00CC
:101D10007AC19091EB0090619093EB0021E030E06C
:101D200001C0220F8A95EAF72093EA001092EA0098
:101D30008091EB008860EACF81116EC11091980309
:101D40001F778091E3008078812B8093E30080915E
:101D5000E800877F8093E8000E940D078091E800EB
:101D600080FFFCCF8091E30080688093E30082E0F5
:101D7000111183E0809394034FC18058823008F0A2
:101D80004BC120919803309199032C3DE3E03E072D
:101D9000A1F583E08A838AE289834FB7F894DE0154
:101DA000139620E03EE051E2E32FF0E0509357001D
:101DB000E49120FF03C0E295EF703F5FEF708E2F3C
:101DC00090E0EA30C0F0C7968D939D932F5F243149
:101DD00059F74FBF8091E800877F8093E8006AE25F
:101DE00070E0CE0101960E94BF078091E8008B77DA
:101DF0008093E80011C1C096E7CF80919A0390913B
:101E00009B03432F55274330510509F44AC078F509
:101E10004130510509F47AC08BE590E0ECE8F6E03A
:101E20004230510509F0F8C02091E800277F209347
:101E3000E80020919C0330919D038217930708F4DA
:101E40009C0140E02115310509F065C0411163C0D6
:101E50008091E80082FDC9CF80919403882329F204
:101E6000853019F28091E80083FFF2CFBECF413276
:101E7000510509F43CC04232510509F0CDC0833010
:101E8000910508F0C9C0FC01EE0FFF1FE352FE4FA1
:101E90000190F081E02D86529E4FDC018C9190E004
:101EA0001AC0332721303105D1F02115310561F0F9
:101EB0002230310509F0B0C0E9EFF6E0E4918E2F51
:101EC00090E0E9EFF6E007C0E1E2F7E0E4918E2F61
:101ED00090E0E1E2F7E0009709F49EC0A5CFEFE0C3
:101EE000F7E0E4918E2F90E0EFE0F7E0F4CF83305D
:101EF000910508F091C0880F991FFC01ED51FE4F2C
:101F00000190F081E02D89E090E08ECF82E190E0B9
:101F1000E7EEF6E089CF80919403882309F465CF3A
:101F2000853009F462CF8091E80083FD5ECF809117
:101F3000E80082FD8DCF8091E80080FF83CF9091F3
:101F4000F3008091F2002115310519F088309105D8
:101F500050F041E0089709F040E08091E8008E776A
:101F60008093E8006FCF44914093F1003196215067
:101F700031090196E8CF803809F04EC08091E80021
:101F8000877F8093E800809195038093F1009DCE38
:101F9000811142C0109198031230F0F58091E80051
:101FA000877F8093E800109395030E940D0711230B
:101FB00011F084E005C08091E30087FDFACF81E055
:101FC0008093940342E061EC81E00E942C0742E29E
:101FD00061EC84E00E942C0742E261EC82E00E9406
:101FE0002C0742E260EC83E00E942C07809194036E
:101FF00013C080919803813079F481E0933009F027
:1020000080E0809393031092E9008091E800877F3D
:102010008093E8000E940D078091E80083FF0AC0CA
:102020008091E800877F8093E8008091EB008062D8
:102030008093EB00AA960FB6F894DEBF0FBECDBF1B
:10204000DF91CF911F91089580911703F90180834B
:102050000895CF93DF93682F81E06A3019F06D30D7
:1020600029F480E0DF91CF910C94B8108091A805FD
:102070009091A90526E0FC01A2EAB5E001900D923D
:102080002A95E1F7603E08F45AC026E0FC0111925F
:102090002A95E9F7C091A805D091A90546E050E03E
:1020A000BE0182EA95E00E9419349E01225A334013
:1020B000892B41F1C90145E0969587954A95E1F74D
:1020C00041E050E0BA0102C0660F771F8A95E2F73F
:1020D000CB016091A0037091A103862B972BB901CE
:1020E0006B5F7F4FE5E076956795EA95E1F702C073
:1020F000440F551F6A95E2F7842B952B9093A1030B
:102100008093A0032A5F3F4F40919F03642F70E0AC
:10211000C9010E94B433481B463010F4240F311D0E
:10212000211572E0370710F030E020E02E553C4FCB
:102130003093A9052093A805DF91CF910895F6E08B
:102140006F9FB00111246B5D784F46E050E00E9414
:102150000334A0CFCF93DF93EC01FE018491811172
:1021600003C0DF91CF9108950E9429102196F5CFE9
:10217000CF93382FE091A805F091A905E25AF340DA
:1021800020919F03622F70E0CF010E94B433281B7F
:10219000822F332361F066E00E94C833C82FC150FC
:1021A00010F4CF91089580E20E942910F8CF9F018A
:1021B000280F311D2115324018F080E0F0E0E0E0FA
:1021C0008E0F9F2F911D8E559C4F9093A905809344
:1021D000A805E7CFCF93DF93CDB7DEB768970FB6EB
:1021E000F894DEBF0FBECDBF40913A0350913B0340
:1021F00060913C0370913D0380913E0390913F03B9
:102200000E94BE1920933A0330933B0340933C0352
:1022100050933D0360933E0370933F0386E0EAE3EF
:10222000F3E0DE01179601900D928A95E1F786E0C2
:10223000FE013796DE01119601900D928A95E1F725
:1022400086E0FE013196DE011D9601900D928A9581
:10225000E1F786E0FE013D96DE01539601900D9276
:102260008A95E1F786E0FE017396DE0111960190F2
:102270000D928A95E1F786E0FE013196AAE3B3E07C
:1022800001900D928A95E1F786E0EAE3F3E0DE0142
:10229000179601900D928A95E1F786E0E4E3F3E06A
:1022A000DE01119601900D928A95E1F746E050E02B
:1022B000BE016F5F7F4FCE0107960E941934892BB4
:1022C00079F0E0917F03F0918003309749F082E04C
:1022D00080933A030480F581E02D8AE393E0099529
:1022E00010923C0310923D0310923E0310923F0364
:1022F00086E0EAE3F3E0A4E3B3E001900D928A956F
:10230000E1F768960FB6F894DEBF0FBECDBFDF9140
:10231000CF9108950F931F93CF93DF93EC01FC01AE
:1023200001900020E9F78F0101501109C017D10772
:1023300028F0DF91CF911F910F91089589910E940C
:102340002910F4CFCF92DF92EF92FF920F931F9359
:10235000CF93DF936C017B0164E670E088E70E9415
:102360009130EC0197FD12C010E000E0F601E00FA3
:10237000F11F849164E670E00E940B31EC01892B1F
:1023800029F40F5F1F4F0E151F0581F70E948E3134
:10239000CE01DF91CF911F910F91FF90EF90DF90D1
:1023A000CF90089580917D0390917E03911103C099
:1023B00091E089270895882369F062E070E08AE05F
:1023C00095E00E94A211892B19F080917D03089558
:1023D00010927D0380917D03EBCFCF93C0917D035D
:1023E00080917E038823D1F00E943408605A7541A1
:1023F0008F4F9F4F6093790370937A0380937B0391
:1024000090937C03C11108C062E070E088E095E021
:102410000E94A211892B29F0C0917D038C2FCF91AE
:10242000089581E080937D03F7CF9C0184E0809341
:10243000E9009FEF8091E800915085FD06C085ED91
:102440008A95F1F700009111F5CF8091E80085FFA2
:102450000CC050E040E066E070E0C9010E94E30675
:102460008091E8008E778093E8000895CF93DF9302
:10247000EC0181E08093E9008FEF9091E8008150BA
:1024800095FD06C095ED9A95F1F700008111F5CF05
:102490008091E80085FF14C050E040E068E070E003
:1024A000CE010E94E3068091E8008E778093E800D9
:1024B00088E0FE01AAE8B3E001900D928A95E1F769
:1024C000DF91CF910895609196018091740380FF10
:1024D00020C08091950143E0849FC0011124875B57
:1024E0009C4F539A2BB1277F3BB138605FB7F8946C
:1024F000FC01649FE00DF11D1124BF0168177907ED
:10250000D1F45FBF8FE594E00197F1F700C00000C0
:102510000895809197019091980123E0829FF001A6
:102520001124E75BFC4F8917A0F6118210821282FA
:102530008F5F3396F8CFFC014191CF01E8E03BB9C2
:10254000000000C047FF2BB9440F000000C000C0CE
:1025500000C02BB900C0EA9591F7D0CFEF92FF925F
:102560000F931F93CF93DF93EC018C81811109C0EE
:1025700081E08C831092730392E090939B0180938F
:102580009A01809197019091980123E0829FF00138
:102590001124E75BFC4F891768F110E003E06091BC
:1025A0009901161768F10E94631280919A01209197
:1025B0007303280F2093730390919B01980F9093BE
:1025C0009B01191654F4022E000C330B4091990113
:1025D0004150550B2417350734F0819580939A01AB
:1025E000813009F41C82DF91CF911F910F91FF90F0
:1025F000EF9008951182108212828F5F3396CBCFB5
:10260000E12EF12C70E0C7010E94E2332091970186
:10261000820F482F50E020917303022E000C330BE1
:10262000E216F306BCF020919B01022E000C330B46
:102630002E153F057CF0809F90011124275B3C4FB5
:102640004091770360917603809175030E9476082C
:102650001F5FA5CFFA01EE0FFF1FE40FF51FE75B29
:10266000FC4F118210821282F3CFEF92FF921F93E0
:10267000CF93DF93EC0110E0EE24EA94F12C60910B
:102680009901161770F00E9463129A818C8190FF55
:1026900027C08F5F8C83DF91CF911F91FF90EF90C8
:1026A000089520919701422F410F5527551FCA01C8
:1026B0009A01220F331F280F391F275B3C4F70E010
:1026C000C7010E94E233962F8C814091770360917D
:1026D0007603199F800D11240E9476081F5FCFCFCB
:1026E0008150D8CF9091740390FF14C090919701BE
:1026F0002091980133E0939FF0011124E75BFC4F98
:10270000921710F00C9463128183608342839F5F61
:102710003396F6CF0895CF93DF9300D00F92CDB7C5
:10272000DEB79091740390FF0AC09E012F5F3F4F68
:102730000E9476084B8169818A810E9472130F90F2
:102740000F900F90DF91CF910895CF93DF93EC011D
:10275000E4E7F3E0438162818C810E948B138C81DA
:102760008F5F8C83DF91CF910895CF93DF93EC013E
:10277000EC81F0E0E85FFB4F4491E4E7F3E0628135
:1027800081810E948B138C818F5F8C83DF91CF912D
:102790000895E4E7F3E080818E7F80830E946008E3
:1027A000E6E4F3E08281816082832FEF80E792E0AC
:1027B000215080409040E1F700C000000C9463126B
:1027C0009F92AF92BF92CF92DF92EF92FF920F93C0
:1027D0001F93CF93DF937C015B016A018091C1025B
:1027E00001E010E08A3010F40AE010E0C1E0D0E02F
:1027F000F894B501C701F6010995982E0E942209A7
:10280000911004C021960C171D076CF4892DDF91DF
:10281000CF911F910F91FF90EF90DF90CF90BF90DD
:10282000AF909F900895CC9F9001CD9F300D300DBB
:10283000112490E080E045E34A95F1F7000001960D
:1028400082179307C1F7D4CF80915C02811118C021
:1028500082E39091E30097FD10C0EFE3FCE931972C
:10286000F1F700C000008150A1F782E080935C0284
:102870000E9493061092940303C081E080935C024F
:1028800081E090915C02913011F080E0089508950C
:102890000E942414882351F0E0917F03F09180037B
:1028A000309721F00190F081E02D099480E00895A7
:1028B0000F931F930E942414882321F01F910F91DE
:1028C0000C9434080E9434080091C2021091C30293
:1028D0002091C4023091C502600F711F821F931FA7
:1028E0001F910F9108951F93CF93DF93182FEB0142
:1028F0000E94100C209731F4812FDF91CF911F910E
:102900000C94BA0B8FE99FE00197F1F700C000002B
:102910002197F0CF8091170381112BC086EF259866
:102920002D9A90B38F7021E030E001C0220F8A957C
:10293000EAF7892F822B80BB81B3322F3095832316
:1029400081BB85E08A95F1F7000083B190B39323B2
:1029500090BB91B3292B21BB90EA9A95F1F790E0B7
:1029600025E0959587952A95E1F78095909581705A
:10297000089587EFD4CFCF93DF93C7EAD1E060E02B
:10298000CE010E9443342196C11584E0D807B9F7DF
:10299000DF91CF9108956F927F928F929F92AF9225
:1029A000BF92CF92DF92EF92FF920F931F93CF933C
:1029B000DF938CE0C82E85E0D82E93E9E92EF12C28
:1029C000E701C056D10936011BC0F50185909490EE
:1029D000692DC8010E944334682DC80101960E94E8
:1029E000433482E0A80EB11C0E5F1F4FC017D10701
:1029F00061F78CE0680E711C2C96CE15DF0529F06E
:102A00008E010C5011095301E0CF7E0180E6E80EE3
:102A1000F11C80E6C80ED11C83E1E81682E0F806BE
:102A200079F6DF91CF911F910F91FF90EF90DF909A
:102A3000CF90BF90AF909F908F907F906F900895B0
:102A400086E290E00C944334CF93C82F6FEF81114E
:102A500062E283E290E00E9443346FEFC11162E0D2
:102A600084E290E00E9443346FEFC11167E185E298
:102A700090E0CF910C94433480E00E94241560E0F4
:102A800070E0CB010E9420150E94CB140E94BB1461
:102A900081E00C942415CF93C091C702C2FB992703
:102AA00090F9981799F080FBC2F9C093C702609122
:102AB000C60284E090E00E9443346C2F82E290E0F2
:102AC0000E94433482E0CF910C94E70CCF9108959B
:102AD0000F931F93CF93DF93C42FD0E0CC0FDD1F54
:102AE0002CE0629FC00DD11D112430E6839FC00DE4
:102AF000D11D1124CE0187960E942F34082F10E09B
:102B0000102F0027CE0188960E942F349801282B81
:102B1000C901DF91CF911F910F910895462F843005
:102B200038F4783028F4663018F4672F0C94681560
:102B300090E080E00895CF92DF92FF920F931F9371
:102B4000CF93DF936C0100919E0380915102082B7B
:102B5000C7E0D0E010E0FC2EC8010C2E02C0959515
:102B600087950A94E2F780FD0CC02197A0F7F12C1D
:102B70008F2DDF91CF911F910F91FF90DF90CF901C
:102B80000895B6018C2F0E948E150E94A00901970E
:102B900061F3EECFCF93DF93EC010E949B15BE0152
:102BA0000E948E15DF91CF910C94A009FC018081C9
:102BB00091810E94CA15292F2F7092959F70925073
:102BC0009E3078F4E92FF0E0ED57FB4C0C94F6338F
:102BD000803F19F020F4883E20F481E00895843F7E
:102BE000E1F380E00895883EC0F3813FD1F7F5CF4F
:102BF000822F869586958695089583E290E00E94BF
:102C00002F34823289F484E290E00E942F348230A3
:102C100059F485E290E00E942F3491E0873109F069
:102C200090E0892F8170089580E0FCCFCF92DF92F1
:102C3000EF92FF926B017C010E946708B701A60129
:102C400088E090E0FF90EF90DF90CF900C945534A7
:102C5000AF92BF92CF92DF92EF92FF920F931F93AA
:102C6000CF93DF9300D00F92CDB7DEB7182FF62E9B
:102C7000042FE22E9091740390FF3AC0E92FE6955D
:102C8000AE2FB0E0A254BE4F8C91809346039E7F3E
:102C90009230E1F59E012F5F3F4F812F0E94760811
:102CA0004B8169818A810E9472138091750381131F
:102CB00008C0809176038F1104C08091770380173C
:102CC00029F0809148038260809348031093750334
:102CD000F092760300937703EE2051F06091740335
:102CE0007091750380917603909177030E94161678
:102CF0000F900F900F90DF91CF911F910F91FF9048
:102D0000EF90DF90CF90BF90AF900895823019F48C
:102D100000917703CACF863019F410917503C5CF9F
:102D20008930D9F3823109F6E2518E2F8170D82E85
:102D3000E695F0E0ED5FFB4FA590B490C12CBB246D
:102D400060919901C61618F00E946312AECF2C2D27
:102D500030E0A29EC001A39E900DB29E900D112462
:102D600070E00E94B433812FD11013C0860F4091C0
:102D70009701420F532F511D9A01220F331F240F29
:102D8000351F275B3C4F402F6F2D0E947608C39460
:102D9000D7CF861BECCFE4E7F3E0438121E1421B70
:102DA00008F440E021E0628181810C942816E4E778
:102DB000F3E0438121E1420F08F44FEF21E062810B
:102DC00081810C942816E4E7F3E0628121E1621B23
:102DD00008F460E021E0438181810C942816E4E747
:102DE000F3E0628121E1620F08F46FEF21E043819B
:102DF00081810C942816E4E7F3E0818121E043818E
:102E0000628181510C942816E4E7F3E0818121E08E
:102E1000438162818F5E0C94281680917803882309
:102E200019F0815080937803609174037091750359
:102E300080917603909177030C9416168091780315
:102E4000833018F48F5F80937803609174037091DE
:102E5000750380917603909177030C941616E4E73E
:102E6000F3E083E0808311828FEF82838383148277
:102E7000A6E4B3E012968C911297836012968C931D
:102E800060817181828193810C94161669EE7EEFC8
:102E900090E080E00E94613460E082E090E00E9477
:102EA000433460E083E090E00E944334109251028A
:102EB00060E084E090E00E94433460E082E290E0D1
:102EC0000E94433460E085E090E00E94433460E07B
:102ED00086E090E00E9443346FEF87E090E00E942C
:102EE000433440E050E0BA0188E090E00E9455345D
:102EF00060E08DE090E00E94433440E050E0BA0191
:102F000088E190E00E94553460E087E190E00E9403
:102F1000433440E050E0BA018CE190E00E94553427
:102F200070E060E080E290E00E94613440E050E0B8
:102F3000BA0188E190E00E94553480E00E94241597
:102F40000E943C1540E050E0BA018FE090E00E9402
:102F5000553440E050E0BA0183E190E00C945534E0
:102F6000EF92FF920F931F93CF93DF937901C82FB6
:102F7000880FDD0B41155105A9F08AE08C9FF00107
:102F80008D9FF00D1124EF5FFE4F83819481835A52
:102F90009D4F228130E04217530708F49A01A9019E
:102FA0000E942634CE010E940033892B11F50115B1
:102FB0001105E9F08AE08C9FF0018D9FF00D11243E
:102FC000EF5FFE4F458150E00417150708F4A80194
:102FD0008AE08C9FF0018D9FF00D1124EF5FFE4F72
:102FE00066817781635A7D4FC7010E94263481E054
:102FF00001C080E0DF91CF911F910F91FF90EF9082
:103000000895AF92BF92CF92DF92EF92FF920F930B
:103010001F93CF93DF9300D000D0CDB7DEB78C8362
:10302000E62E5A01F22E68018091C1028A3080F0AA
:1030300080E00F900F900F900F90DF91CF911F9134
:103040000F91FF90EF90DF90CF90BF90AF900895D9
:103050008C8188306CF389836A832B83609335017C
:1030600020934C0110E000E030E020E043E050E02D
:10307000BE016F5F7F4F84E00E94B0178823C1F2CA
:103080004E2D50E030E020E0B50185E00E94B01701
:10309000882371F230E020E041E050E0BE016C5F37
:1030A0007F4F86E00E94B017882311F20F2D10E0A9
:1030B000960150E040E070E060E087E00E94B017C9
:1030C000B8CF0F931F93CF93DF93CDB7DEB7289779
:1030D0000FB6F894DEBF0FBECDBF85E0E4E7F3E0A6
:1030E000DE01119601900D928A95E1F780914603D9
:1030F00090914703A09148038E839F83A8872885DA
:103100004091BD025091BE026091BF027091C00219
:103110003FB7F8948091820390918303A091840338
:10312000B09185033FBF841B950BA60BB70B84366C
:103130009105A105B10510F42223C1F010E000E0D3
:1031400030E020E048E050E0BE016F5F7F4F83E059
:103150000E94B017882369F00E9434086093BD0272
:103160007093BE028093BF029093C00210924803F6
:1031700081E028960FB6F894DEBF0FBECDBFDF9179
:10318000CF911F910F9108950F931F93CF93DF93CA
:1031900000D000D0CDB7DEB74091B9025091BA024D
:1031A0006091BB027091BC022FB7F89480918203AA
:1031B00090918303A0918403B09185032FBF841B5A
:1031C000950BA60BB70B11E084369105A105B1054F
:1031D00018F10E9458146E5F7F4F8F4F9F4F698385
:1031E0007A838B839C8310E000E030E020E044E0B1
:1031F00050E0BE016F5F7F4F82E00E94B017182F32
:10320000882351F00E9434086093B9027093BA0287
:103210008093BB029093BC02812F0F900F900F9070
:103220000F90DF91CF911F910F910895EF92FF9230
:103230000F931F93CF93DF9300D000D00F92CDB7A1
:10324000DEB77B0101E010E09E012B5F3F4F50E0B5
:1032500040E070E060E080E00E94B017182F882303
:1032600009F452C04091B5025091B6026091B70284
:103270007091B8022FB7F8948091820390918303E4
:10328000A0918403B09185032FBF841B950BA60BDF
:10329000B70B84369105A105B10538F48EE592E0AF
:1032A0000E947C069D81891779F104E010E09E015F
:1032B0002F5F3F4F50E040E070E060E081E00E940F
:1032C000B017082F8EE592E00E947C0611E09D81E8
:1032D000981310E0102331F10E9434086093B50276
:1032E0007093B6028093B7029093B80289819A8155
:1032F000AB81BC818093B1029093B202A093B302E0
:10330000B093B40211E00EC080915E0290915F0212
:10331000A0916002B091610289839A83AB83BC83E0
:103320001111E4CF8091B1029091B202A091B30249
:10333000B091B402F70180839183A283B383812F7C
:103340000F900F900F900F900F90DF91CF911F91E2
:103350000F91FF90EF90089590E080E00E943D343F
:10336000893E9E4F11F40C94FD1580E0089530E0E5
:1033700020E043E060E086E30C94B92FCF92DF9227
:10338000EF92FF920F931F93CF93DF93CDB7DEB7EA
:103390002C970FB6F894DEBF0FBECDBF4F83588772
:1033A00069877A878B879C8780911703882399F098
:1033B0000E94B71980E50E9431302AEB2A95F1F777
:1033C00000C00E944930887899278038910509F417
:1033D0008FC00E9461300E942414882309F468C0C1
:1033E0000E9434080091FA011091FB012091FC0128
:1033F0003091FD016B017C01C01AD10AE20AF30A87
:1034000097018601083011052105310508F450C0E7
:103410006093FA017093FB018093FC019093FD018E
:10342000009126031091270320912803309129034E
:10343000601B710B820B930B623371058105910543
:1034400080F410921B0310921A0310921D03109225
:103450001C0310921F0310921E031092210310925E
:103460002003109124030E948A14112309F46EC0D2
:10347000BE01695F7F4F8AE193E00E945B0C00917F
:103480002403109117030E948A14011709F488C0BD
:10349000BE01695F7F4F8EE193E00E945B0C86E086
:1034A000FE013796AEE2B3E001900D928A95E1F706
:1034B00086E0FE013796DE01119601900D928A9505
:1034C000E1F729813A814B815C816D817E8180E0C9
:1034D00090E02C960FB6F894DEBF0FBECDBFDF9103
:1034E000CF911F910F91FF90EF90DF90CF900895B3
:1034F0000E9449300E9449307C010E94493020E0FE
:10350000E22AF82A0E9449308C010E94493020E0CA
:10351000022B182B0E946130F894B70180911A0396
:1035200090911B030E94390D90931B0380931A0303
:10353000B80180911C0390911D030E94390D909356
:103540001D0380931C030E94220945CF80911A031A
:1035500090911B0381382FEF9207D4F080389105AA
:10356000CCF4898780911C0390911D0381382FEF43
:10357000920794F0803891058CF481958A87109297
:103580001B0310921A0310921D0310921C0377CF95
:1035900081E8E7CF8FE7E5CF81E8EFCF8FE7EDCF89
:1035A00080911E0390911F0381382FEF9207D4F072
:1035B00080389105CCF48987809120039091210374
:1035C00081382FEF920794F0803891058CF4819523
:1035D0008A8710921F0310921E03109221031092EB
:1035E00020035DCF81E8E7CF8FE7E5CF81E8EFCF1C
:1035F0008FE7EDCFCF93DF93D82FC62F0E94B71957
:103600008D2F80680E9431308C2F0E9431300E94B3
:1036100061308FEC92E00197F1F700C00000DF917C
:10362000CF910895682F893708F068E760932203E7
:1036300091E09093230390911703992359F06150DF
:10364000811101C064E08FE00E94FA1A60E080E519
:103650000C94FA1A0895FB0180810C94121B90912E
:103660002203911101C095E0282F880F330BA90187
:10367000490F511DCA011816190614F081E090E097
:103680000C94121BCF93C82F0E94B7198C2F0E9445
:1036900031308FE792E00197F1F700C000000E94FF
:1036A0004930C82F0E9461309AE69A95F1F700C020
:1036B0008C2FCF910895CF93DF930E94B12F269A3C
:1036C0000E94B7196AE58AE30E94FA1A2FEF80E791
:1036D00092E0215080409040E1F700C0000082E07D
:1036E0000E94421B83E00E94421B84E00E94421B16
:1036F00085E00E94421B86E00E94421B60E080E160
:103700000E94FA1A80E00E94421BD82F81E00E949A
:10371000421BC82F0E946130D23419F481E0C130BD
:1037200009F080E0817080931703882351F064E0F2
:103730008FE00E94FA1A60E080E5DF91CF910C944F
:10374000FA1ADF91CF9108951F920F920FB60F9240
:1037500011242F933F934F935F936F937F938F9396
:103760009F93AF93BF93CF93DF93EF93FF93D0914A
:10377000E900DF708091EC00C82FC17080FDC0E8C7
:103780001092E9008091F000877F8093F000789498
:103790000E94590D1092E9008091F000886080939A
:1037A000F000CD2BCF70C093E900FF91EF91DF9136
:1037B000CF91BF91AF919F918F917F916F915F91C9
:1037C0004F913F912F910F900FBE0F901F90189522
:1037D0001F920F920FB60F9211242F933F934F9386
:1037E0005F936F937F938F939F93AF93BF93EF9369
:1037F000FF938091E10082FF09C08091E20082FF87
:1038000005C08091E1008B7F8093E1008091DA0018
:1038100080FF24C08091D80080FF20C08091DA0012
:103820008E7F8093DA008091D90080FF9DC080E177
:1038300089BD82E189BD09B400FEFDCF81E080939E
:10384000940380918603811109C00E9493060E940F
:103850005E078091E20084608093E2008091E10045
:1038600080FF17C08091E20080FF13C08091E200CA
:103870008E7F8093E2008091E20080618093E2007D
:103880008091D80080628093D80019BC85E0809335
:1038900094038091E10084FF2BC08091E20084FFBB
:1038A00027C080E189BD82E189BD89B5982F9170DB
:1038B00080FFFBCF8091D8008F7D8093D8008091CE
:1038C000E1008F7E8093E1008091E2008F7E809303
:1038D000E2008091E20081608093E2008091950394
:1038E000882309F447C084E0809394038091940373
:1038F0008091E10083FF27C08091E20083FF23C015
:103900008091E100877F8093E10082E080939403BF
:10391000109295038091E1008E7F8093E100809169
:10392000E2008E7F8093E2008091E20080618093CC
:10393000E20042E060E080E00E942C078091F0000D
:1039400088608093F000FF91EF91BF91AF919F91BC
:103950008F917F916F915F914F913F912F910F9038
:103960000FBE0F901F90189519BC109294031092DF
:10397000860374CF8091E30087FD93E090939403D6
:10398000B5CF78941F921FB61F9211248F939F93E7
:10399000AF93BF938091820390918303A09184039E
:1039A000B09185030196A11DB11D80938203909370
:1039B0008303A0938403B0938503BF91AF919F913C
:1039C0008F911F901FBE1F9018959C014FB7F894C0
:1039D0008091820390918303A0918403B091850329
:1039E0004FBF821B930B08952FB7F89480918203E9
:1039F00090918303A0918403B09185032FBF089514
:103A00000E94241481110C94F41C0E945814CB01C0
:103A1000089560917403669570E04BE050E08AE889
:103A200091E00E940C34892B19F481E080934703C4
:103A30000E94001D909341038093400380914803AE
:103A400084608093480308959091740390FF3BC075
:103A5000917081112EC092609093740380914803FD
:103A6000816080934803662351F0609174037091E4
:103A7000750380917603909177030E9416166091EA
:103A80007403669570E04BE050E08AE891E00E9494
:103A90000C34892BA9F00E94600881E080934303D5
:103AA00020E04091770360917603809175030C9438
:103AB00028168C3110F09663CFCF880F982BCCCF7F
:103AC0000E94091DEACF0895809174038695815064
:103AD00009F48BE161E00C94241D809174038695B8
:103AE0008F5F8C3108F081E061E00C94241D90918F
:103AF000740390FF07C09695981720F0961710F45E
:103B00000C946D1D61E00C94241D3F924F925F92C6
:103B10006F927F928F929F92AF92BF92CF92DF92DD
:103B2000EF92FF920F931F93CF93DF93CDB7DEB742
:103B300062970FB6F894DEBF0FBECDBF8C01FC01BB
:103B400083819481892B31F08081918189238F3FFA
:103B500009F08FC562960FB6F894DEBF0FBECDBFD9
:103B6000DF91CF911F910F91FF90EF90DF90CF9059
:103B7000BF90AF909F908F907F906F905F904F908D
:103B80003F9008950E949B15F82E682F89819A8195
:103B90000E94730B69817A818F2D0E948E157C01A2
:103BA000F8018281882309F457C5C70182519F45D6
:103BB000409708F01CC58FEF93E00E942F34FEEE73
:103BC000EF0E57EA852E992493948823A9F18091CA
:103BD0004D02877009F4BECFF8018281882309F471
:103BE000B9CF8091C70282FDB5CF82E062960FB651
:103BF000F894DEBF0FBECDBFDF91CF911F910F9123
:103C0000FF90EF90DF90CF90BF90AF909F908F90FC
:103C10007F906F905F904F903F900C94E70C8114D1
:103C200024E09206A1F2C4010E942F34811101C048
:103C3000EA943FEF831A930AE110F1CF1C821B82B2
:103C4000442443944AE0342E74018FEFE81AF80AB2
:103C5000C4010E942F3489831A82882309F4B7CFC4
:103C60009FEF980F933030F58A83498292E0890E56
:103C7000911CC7010E942F348B83882309F4A7CF9E
:103C8000FE0131967F01F70120812223E9F22130E4
:103C900009F04FC091818281913071F4F2E0EF0E12
:103CA000F11C70E060E0893311F460E570E00E947F
:103CB000731409C04701E4CF923049F422E0E20EC8
:103CC000F11C0E94100C8FEFE81AF80ADCCF933039
:103CD00031F432E0E30EF11C0E94BA0BF4CF9430C1
:103CE00021F08FEFE81AF80AEECF92E0E90EF11C0E
:103CF00030E020E0B7016F5F7F4FF70141818053D3
:103D0000990B8A30910550F021503109E0F28FE98A
:103D10009FE00197F1F700C00000F6CF329EF0015E
:103D2000339EF00D11249C012E0F3F1F842F7B0129
:103D3000E1CFE22FF0E0EE55FE4F5490822F8695B2
:103D40008695869590E0FC01EE56FE4F64902770B4
:103D5000712C022E02C0759467940A94E2F7E1E098
:103D60006E227724FC01EE57FE4FA490B12C022E58
:103D700002C0B594A7940A94E2F7F1E0AF22BB2405
:103D8000FC01EE58FE4FC490D12C02C0D594C794CC
:103D90002A95E2F721E0C222DD246114710419F0B2
:103DA00081EE0E94100CA114B10419F086EE0E945D
:103DB000100C39E370E060E0531202C060E570E07F
:103DC000852D0E947314AB2819F086EE0E94BA0B61
:103DD000672819F081EE0E94BA0BCD2809F473CF41
:103DE00070E060E08CE263CF81E00E94030D0E94EE
:103DF000D00CEDCE81E00E94DB0CF9CF82E0F5CF54
:103E000084EFE81AF10881E090E001C0880FEA949D
:103E1000EAF7F801328126E0EAE3F3E0DE011796E3
:103E200001900D922A95E1F726E0FE013796DE011A
:103E30001D9601900D922A95E1F728853323A9F06C
:103E4000822B8E8786E0FE013D96DE011196019061
:103E50000D928A95E1F786E0FE013196AAE3B3E080
:103E600001900D928A95E1F7B2CE80958223E9CF39
:103E7000F80182810E94A80CAACE80E00E94121B49
:103E800010922503A4CE409122035091250350FBAC
:103E900047F95695537060E070E08FE090E00E9423
:103EA000553495CE81E00E942F1B91CE8FEFFBCF32
:103EB0008AE0F9CF86EFF7CF9091240381E089273C
:103EC000D9CF80912503811101C084E08F5F18163E
:103ED0000CF081E0883008F087E08093250377CEEE
:103EE00080912503811101C084E08150F0CFF6E17B
:103EF000EF16FCE5FF0609F055C1809187038A7A29
:103F000091E009F490E09093FE0169E2811165E38C
:103F10008CEE91E00E9440080E94130B58CE85E37E
:103F2000C4C38091870382722CECE2162CE5F20662
:103F300009F424C108F098C096ECE9169CE5F9064E
:103F400009F408C108F069C0F3ECEF16FCE5FF06C0
:103F500009F4F6C008F04EC032ECE3163CE5F30677
:103F600009F4C2C0F8018281E080F180882309F45D
:103F700054C1C7010E949B15D82E682FC7010E940B
:103F8000730BB7018D2D0E948E150E94A0097C0134
:103F9000882EF801C280B580B2943FE0B3228091B0
:103FA0004D028770C1F0AC2CCC20B1F08F2D807FFA
:103FB000803421F080E28E0D883068F08091C70255
:103FC00082FD09C082E00E94E70C80914D0287705B
:103FD000AA24A3948111A12C9F2C92942FE09222C9
:103FE000FBE0F91508F489C1E92DF0E0EF56FB4C30
:103FF0000C94F63394ECE9169CE5F90609F4A5C097
:104000004BEF56E164E077E1E5ECEE16ECE5FE06F9
:1040100009F0A8CF0E945A08DACDF9ECEF16FCE5BA
:10402000FF0609F4A1C080F437ECE3163CE5F30683
:1040300009F495C04FEE56E163EE76E198ECE9168F
:104040009CE5F90639F38ECFEAECEE16ECE5FE06B8
:1040500009F48FC04DE057E16EE177E1FBECEF161C
:10406000FCE5FF06B9F27ECF21EDE2162CE5F20663
:1040700009F4ADCDC8F48EECE8168CE5F80609F429
:1040800085C008F480C0EFECEE16ECE5FE0609F4FE
:1040900080C06EE089E0F0EDEF16FCE5FF0609F068
:1040A00061CF0E94771D93CD24EDE2162CE5F20638
:1040B00009F475C068F482EDE8168CE5F80609F499
:1040C0006BC093EDE9169CE5F90609F480CD4ACF63
:1040D000E5EDEE16ECE5FE0609F479CDFDE5EF160B
:1040E000FF0609F474CD3ECF8091740380FF20C099
:1040F0008E7F809374036091740370917503809137
:104100007603909177030E9416160E9460088091B2
:1041100048038160809348032FEF30E782E021500D
:1041200030408040E1F700C000000E9463124FCD94
:1041300081608093740361E086950E94241D47CDC1
:1041400044E65DE16DE67DE165CF4DE65DE164E667
:104150007DE160CF44E057E16BEF76E15BCF43EE6A
:1041600056E16FEE76E156CF4BEC56E167ED76E126
:1041700051CF47ED56E16BEC76E14CCF4EE157E184
:104180006DE077E147CF61E081E0D7CF65E082E085
:1041900088CF68E086E085CF61E18FE082CF6BE178
:1041A00082E17FCF9AE5E9169DE5F90691F168F481
:1041B000E114FCE5FF06F1F02EEDE2162CE5F20627
:1041C00009F0D0CE0E94461702CD3BE5E3163DE54F
:1041D000F30609F18CE5E8168DE5F80609F0C2CE84
:1041E0008091C70282FB882780F991E089270E948D
:1041F0004B15B8CE109287030E944C0D9FEFE4E35D
:10420000FCE09150E040F040E1F700C000000E9467
:10421000230881E0ECCF80E0EACFC7010E944A0B7F
:10422000D82EAFCE2F2D2F70D22E8F2D807F19F04C
:10423000D29490EFD922CC20B9F0DD2069F080E251
:104240008E0D883010F0811009C080918703D82A24
:10425000D09287030E94130B8E2D4DC080914F0288
:10426000D82AD0924F02F6CF8E2D0E94BA0BDD20B5
:1042700009F443C080E28E0D883010F0811004C034
:104280008D2D0E940C0B06C0D09480914F02D82235
:10429000D0924F020E94130B30C03F2D3F70D32E9F
:1042A0008F2D807F803219F0D29480EFD822882021
:1042B00089F081E0881609F480C0CC2009F48AC016
:1042C000BB2009F480C0F801858180FFC5CF8F70C5
:1042D000858379C02091C70222FF4CC0CC2009F40D
:1042E00043C0DD2039F080918703D82AD09287031C
:1042F0000E94130B80E00E94100C292D2850330BD4
:104300002430310510F40E944814AA2009F422CC6C
:1043100080914D0280FD1ECCF80112828595859515
:1043200085950E94030DC8010E94851D80914D0254
:1043300085958595859562960FB6F894DEBF0FBE7C
:10434000CDBFDF91CF911F910F91FF90EF90DF9044
:10435000CF90BF90AF909F908F907F906F905F9025
:104360004F903F900C94DB0C80E00E94BA0BDD2054
:1043700021F286CFCC20A1F0909150028D2D892B77
:10438000B11003C00E94B00BB8CFE1E0BE12FACF6B
:1043900022FDB3CF981709F4B0CF80935002ADCF70
:1043A000B11006C00E94060B8D2D0E94A90BA5CF4F
:1043B000F1E0BF1609F4A1CFF5CFCC2031F025E014
:1043C0002B1508F49ACF8D2DDDCF34E03B1508F482
:1043D00094CFEACFBB2041F3F9E38F1209C02FEF4E
:1043E00037EE83E0215030408040E1F700C000000C
:1043F0008E2D0E94BA0B81CF8F2D837091F5C11045
:104400007CCF4E2D429546954770440F440F8E2D1C
:104410008F70042E01C0880F0A94EAF72E2D2071A8
:10442000E4FE07C02FE030E001C0220F4A95EAF712
:1044300020953F2D369536953370323069F050F423
:1044400040915102313029F0822B84230E94A10B2C
:1044500054CF842B822BFACF282B809151028227B4
:10446000F5CF8695CC2011F08F2D8170882309F42B
:1044700044CF4E2D429546954770440F440F8E2DE4
:104480008F70042E01C0880F0A94EAF72E2D207138
:10449000E4FE07C02FE030E001C0220F4A95EAF7A2
:1044A00020953F2D369536953370323069F050F4B3
:1044B00040919E03313029F0822B84230E94BC0C52
:1044C0001CCF842B822BFACF282B80919E0382272E
:1044D000F5CF9F2D9F70F92ECC2029F0892F0E94B7
:1044E000030D8E2D4FCF8E2D0E94A90B8F2D0E9474
:1044F000DB0C03CF8E2DE2EF8E16B1F1E81570F0D4
:10450000F0EF8F16D1F021EF821691F0CC2009F454
:104510005EC0B110A1CE8F2D8F712AC033EF8316EC
:1045200051F194EF8912F2CF8091C70282FF2FC020
:104530008F2D8F71CC20D9F21BC0CC2081F0E4E00C
:10454000EB1508F4DACE2F2D2F7181E090E001C039
:10455000880F2A95EAF790919E038927AFCFF5E05F
:10456000FB1508F4CACEEFCF8F2D8F71C110BFCFCE
:104570000E94030DC2CE80E0CC2009F49FCF9F2D76
:104580009F7181E001C0880F9A95EAF797CFCC2000
:1045900099F02F2D2F71F22E822F0E94030D809102
:1045A000C70282FD07C038E0F39EC001112483607A
:1045B00080934D028F2DDCCF81E00E94E70C81E0DB
:1045C0008B1508F09ACE82E00E94E70C96CEBB20B5
:1045D00059F0893309F00CCF9FEFE7EEF3E09150EB
:1045E000E040F040E1F702CF8F2D8F7180CFF0E1F6
:1045F000EF16FFE5FF0609F4F7CB21E1E2162FE500
:10460000F20609F4FBCBF0922B03E0922A03F801A7
:104610008081918190932D0380932C03F4EFEF160A
:10462000F10458F029EFE216F10408F4E9CB3CEA72
:10463000E3163DE5F30609F41BCCF80182818823DB
:1046400049F1F701E55AFD45EA30F10508F04FCC94
:10465000E356FB4C0C94F63330E1E3163FE5F306EA
:1046600009F4C8CB81E1E8168FE5F80661F682E02F
:10467000C2CB85E0DE01119601900D928A95E1F79B
:10468000F801228189819A8121117CCA0E944A0BFA
:10469000F82E80CAF6E1EF16FCE5FF0609F041CCE2
:1046A0008091FE0181113BCC89E2EEEEF1E024EF36
:1046B00031E09191891303C0DF0111971C922E17ED
:1046C0003F07B9F729CC1F93CF93DF9380911A024C
:1046D000807FA9F480911702882389F080914C0291
:1046E000D0911B026091150270911602A0911802E0
:1046F000B0911902C62FC72316E0D81304C0DF916A
:10470000CF911F91089590E0109711F0CF3F19F4C9
:1047100001968770F2CF189F9001199F300D1124D8
:10472000F901E45EFD4F41814713F2CF408146130A
:10473000EFCF42814111ECCF438154814A1B5B0B87
:10474000483C510528F780911A028F708061809350
:104750001A02F901EF5DFD4F80818F7080618083C7
:1047600085E192E00E94851DDF91CF911F910C940D
:10477000400BAF92BF92CF92DF92EF92FF920F93D6
:104780001F93CF93DF93CDB7DEB761970FB6F89441
:10479000DEBF0FBECDBF8C0185E0F801DE011D96A6
:1047A00001900D928A95E1F7F801E28085E1A82E4B
:1047B00082E0B82E6091180270911902611571059E
:1047C00009F432C19091150240911602892F842379
:1047D0008F3F09F429C120813181C380D480F090BA
:1047E0001702F601E61BF70BFF2009F4E8C08091E1
:1047F0001A02582F507FE83CF10508F0ABC0511168
:1048000077C0FE2C431321C092131FC0E1101DC0BE
:104810008F70806180931A02C5010E94851D80916E
:104820001A02F80185838F2D61960FB6F894DEBFCA
:104830000FBECDBFDF91CF911F910F91FF90EF90F1
:10484000DF90CF90BF90AF900895CD2829F0822FB0
:1048500083238F3F09F003C180E0F82FF170DF2E32
:1048600080FF3CC080914C0240911B0256E08413B3
:1048700015C02D873E878D859E850E94CA15292FDC
:1048800022952F702230F0F0243018F59F70F1F04F
:10489000F8019581907FD1F4D12C1EC090E0589FF3
:1048A000F001599FF00D1124E45EFD4F6181361334
:1048B00006C06081261303C06281E6120FC0019614
:1048C0008770D5CF9F7011F0882331F3805E8830D8
:1048D00018F3C8010E94851DFD2CA5CFEE2009F418
:1048E000A2CF80911A02816080931A02F12C9BCF93
:1048F000431306C0921304C0F801EE2009F479C0F6
:10490000C8010E94D615882309F1EE20F9F08091A4
:104910001A02803270F02091150230911602388709
:104920002F831986DB86CA868C87CE0107960E9464
:10493000851D86E0F801A5E1B2E001900D928A950F
:10494000E1F70E946323FF24F3946DCFC8010E9416
:10495000851DF9CF51110AC085E192E00E94851DA5
:1049600086E0F50111928A95E9F7C0CF43130FC095
:1049700092130DC0E1100BC0F8018583C8010E949D
:10498000851D86E0F50111928A95E9F74CCFC801A3
:104990000E94D6158823D1F2EE20C1F280911A022E
:1049A000803238F220911502309116023A83298321
:1049B0001B82DD82CC828E83CE010196B8CFE83C8B
:1049C000F105F8F6FE2CEE2009F243131FC09213F6
:1049D0001DC080911A0280FD10C0982F907F69F051
:1049E000F8018583903F31F0982F907F905F8F7012
:1049F000892B8583C8010E94851D86E0F801A5E109
:104A0000B2E001900D928A95E1F70DCFC8010E94A6
:104A1000D61581118ECF80911A02816080931A027F
:104A2000C8010E94851DFFCEEE2009F48FCFC8017A
:104A30000E94D615F82E882309F488CF86E0F80165
:104A4000A5E1B2E001900D928A95E1F780911502FF
:104A5000909116020E94CA150E946323E4CE81E061
:104A60008E25FBCE1F93CF93DF93CDB7DEB767972D
:104A70000FB6F894DEBF0FBECDBF4B8B5C8B6D8B3A
:104A80007E8B8F8B611110924F021A8A198A85E0F2
:104A9000FE017396DE011D9601900D928A95E1F755
:104AA00086E0FE013D96DE01179601900D928A95F3
:104AB000E1F7CE0107960E94B923882389F016E01A
:104AC00080914C0290911B0289134BC067960FB6E0
:104AD000F894DEBF0FBECDBFDF91CF911F91089537
:104AE00086E0FE013796DE01119601900D928A95BF
:104AF000E1F78A859B85892B11F38F81988589231E
:104B00008F3FE9F220911B0230E0C90101968770C6
:104B1000992740914C024817190681F41092870397
:104B20000E944C0D10921B0210924C0286E0E5E1AF
:104B3000F2E0DF011D928A95E9F7C1CF96E0929FDE
:104B4000D001939FB00D1124A45EBD4FFE0131969C
:104B500001900D929A95E1F780931B020E94400B01
:104B6000AECF819FC0011124845E9D4F0E94B92366
:104B7000882309F4ABCF80914C0290E001968770B6
:104B8000992780934C029CCF7F928F929F92AF92F5
:104B9000BF92CF92DF92EF92FF920F931F93CF932A
:104BA000DF93CDB7DEB72C970FB6F894DEBF0FBEFC
:104BB000CDBF8E010F5F1F4F88E0D8011D928A95EF
:104BC000E9F780EAC82E81E0D82EF12CE12CAA2446
:104BD000A394B12C2EEA822E21E0922EF60181912F
:104BE0006F018F3F09F443C0F894E82FE295EF700E
:104BF000F0E021A18F70A50102C0440F551F8A95D6
:104C0000E2F7CA01922F982B91A392A18095892354
:104C100082A30E94220900C0E8EAF1E0712C31E091
:104C200021912F3F09F47DC0A22FA295AF70B0E073
:104C300090968C9190E02F7002C0959587952A955B
:104C4000E2F780FD6EC0832F782A330F8E169F0601
:104C500039F7F601319780818F3F11F00E944609A4
:104C600050EA5A95F1F7F801EE0DFF1D70828FEFB3
:104C7000E81AF80AA4E0EA16F10409F0AFCF48E018
:104C800050E0B80188EC92E00E9419347C01892B35
:104C900041F088E0F801A8ECB2E001900D928A950D
:104CA000E1F71091D102E114F104E9F181E0809380
:104CB00054020E94F41C90935302809352028091FC
:104CC0005202909153020E94E51C059790F0E12F4B
:104CD000F0E0EC5FFC4F8091C80280838091C902B4
:104CE00081838091CA0282838091CB028383109258
:104CF000540281E090E0EF28D1F02C960FB6F894A2
:104D0000DEBF0FBECDBFDF91CF911F910F91FF90FE
:104D1000EF90DF90CF90BF90AF909F908F907F905B
:104D2000089580E091CF809154028111C8CF0E94F4
:104D30002414F82EE091D102882309F476C0198654
:104D40001A861B861C860E2F10E00C5F1C4F80916C
:104D5000C1028A30A0F546E159E1BE01675F7F4F8D
:104D6000C8010E94E0138823C9F144EC58E1BE0158
:104D7000675F7F4FC8010E94E013882379F141E605
:104D800058E1BE01675F7F4FC8010E94E01388238E
:104D900029F11092C1028091D00290E044E050E0ED
:104DA000BE01675F7F4F8C5F9C4F0E94193421E0EA
:104DB00020935B02892B59F5F12C8F2D9ECF80918A
:104DC0005502909156020E94E51C843F914018F6CE
:104DD00080915B02811112C080E08FCF8091C1026F
:104DE0008F3F29F08F5F8093C1028A30A0F20E942A
:104DF000F41C9093560280935502EACFFE01399637
:104E000084E0DF011D928A95E9F710925B02E09140
:104E1000D002F0E0EC5FFC4F89859A85AB85BC85BC
:104E200080839183A283B383C8CFF0E0EC5FFC4F13
:104E3000F89484E0AEE5B2E001900D928A95E1F736
:104E40008EE592E00E947C0680935D020E9422091A
:104E5000F894C0906202D0906302E0906402F090F7
:104E600065028091570290915802A0915902B09129
:104E70005A02C816D906EA06FB06D1F0C0925702BC
:104E8000D0925802E0925902F0925A020E942414E1
:104E900081110EC00E943408C61AD70AE80AF90A1E
:104EA000C092C202D092C302E092C402F092C50244
:104EB0000E942209F89480916D02882379F180FF85
:104EC0000DC08091660280FF2CC0909174039160A8
:104ED0009093740360E086950E94241D80916D027A
:104EE00081FF09C020E040916902609168028091D1
:104EF00067020E94281680916D0282FF06C0809191
:104F00006C02882389F00E94091D80916D0283FF45
:104F100003C081E08093430310926D020E94220936
:104F20005BCF0E94C913DACF0E946008EECF1F92B8
:104F30001FB61F9211248F939F93AF93BF938091BD
:104F40008103811113C08091820390918303A0910A
:104F50008403B09185034196A11DB11D8093820306
:104F600090938303A0938403B0938503BF91AF9183
:104F70009F918F911F901FBE1F901895CDB7DEB7E0
:104F8000AE970FB6F894DEBF0FBECDBF84B7877F54
:104F900084BF0FB6F894A8958091600088618093D3
:104FA0006000109260000FBE80E890E00FB6F894A9
:104FB00080936100909361000FBE85B7806885BFC4
:104FC00085B7806885BF80E299E09093EB0180937C
:104FD000EA010E9493060E945E078091E2008460CD
:104FE0008093E2007894809194038823A1F010913B
:104FF000E9001F709091EC00892F817090FD80E88E
:10500000182B1092E9008091E80083FD0E94590D51
:105010001F701093E90082E084BD93E095BD9AEF84
:1050200097BD80936E001092C2021092C30210923C
:10503000C4021092C5020E94FD15811102C00E9497
:105040003C150E948A1480930001809100018823FE
:1050500009F472C01092950187E0809396010E9436
:10506000241481110E94F33180910001809100018C
:1050700094E0811190E09093D10284E0891B8093A9
:10508000D00284EF0E94460985EF0E94460986EF10
:105090000E94460987EF0E94460908EA11E0D801FC
:1050A0008D918D018F3F11F00E944609B1E00E3ABB
:1050B0001B07A9F788E0E4E0F3E0DF01C82E1D92AA
:1050C000CA94E9F7E8ECF2E0DF011D928A95E9F76E
:1050D0000E94AC19811102C00E94461782E090E044
:1050E0000E942F348093FB0284E090E00E942F34D2
:1050F000182F82E290E00E942F34982F812F9093F6
:10510000C7028093C6020E94C425EFE3FCE93197F1
:10511000F1F700C000000E94C42580910403909123
:105120008201892380FF0CC06FEF7FEF90E080E069
:105130000E9461340E94230887E0809395018DCFFF
:1051400083E090E00E942F340E94A10B80919E0387
:105150000E944A0C91E0833009F090E0892F0E9470
:10516000A80C0E942414811102C00E94F6310E94F2
:105170002414882309F4D2C280E08093F60280E8E8
:1051800080939F030E948B306DE070E085E392E096
:105190000E94A211892BE9F58091F60263E070E08C
:1051A00081FDBEC282E392E00E94A211892B89F5A3
:1051B0006DE070E082E292E00E94A211892B49F535
:1051C0000E943408605A75418F4F9F4F6093790356
:1051D00070937A0380937B0390937C03E2EAF3E07D
:1051E00080E092E0DF019C011D9221503040E1F708
:1051F000F093A905E093A8058FEF9FEF9093A1038B
:105200008093A00381E080937E0380937D031092BE
:10521000F7028091D202811138C00E94AC1981112D
:1052200004C00E9446170E942F1788E090E00E9459
:10523000373460937403709375038093760390936F
:105240007703809148038360809348036E7F71F4F5
:105250000E942F1788E090E00E9437346093740317
:105260007093750380937603909377030E94670889
:105270000E9460088091740380FF04C060E08695FE
:105280000E94241D81E08093D2020E945B1B0E9439
:10529000241481112EC084E290E190935A018093EE
:1052A000590124E130E0309355012093540184E307
:1052B00090E090935801809357014CE059E050934F
:1052C00064014093630130935F0120935E019093EA
:1052D0006201809361014BE25BE150936E01409368
:1052E0006D01309369012093680190936C01809364
:1052F0006B010E94AC19882389F08FE090E00E9436
:1053000037348B01862F8F770E94121B001F0027D6
:10531000001F1370110F102B109325038FE691E0DF
:105320009093800380937F035CE0452E53E0552EDD
:105330008091940300E112E1853009F432C20E94A9
:10534000C425B82E81110E94340844E0C42E43E0E5
:10535000D42EA2E8B1E0BCA7ABA74CEF52E0960177
:1053600010E000E0902EF901F1909F018D91F8225C
:10537000FA018191AF018F1509F424C28F25A12C68
:10538000EE24E394982F9E2109F417C20E9424145E
:10539000882399F0A9A29AA2FE2081E009F480E076
:1053A0008BA30E94F41C8160782F9DA38CA349A13C
:1053B0005AA16BA18DA10E943225F801E450FD4F46
:1053C0008081E826E08280914703882309F464C045
:1053D00080914603E0917403E695E81BE093420355
:1053E000823009F006C2F0E0E55BFD4FE4910E2F3C
:1053F00010E035EB832E33E1932E80914303882315
:1054000061F0109243030E94001D9093410380932A
:10541000400310924503109244030E94001DE09146
:105420004003F09141039C012E1B3F0B2F3F3F4750
:1054300098F52091D5022223B1F01092D502209147
:10544000D3023091D402821B930B8F3F9F4758F4B5
:10545000205D3A483093D4022093D30280914803D0
:10546000886080934803E0904403F0904503E00F88
:10547000F11FF0934103E093400380E493E0F401D3
:1054800009958091440390914503892B29F4EF28D5
:1054900019F081E08093D50280917E03882351F139
:1054A0008091F8029091F9020E94E51CC29708F0E1
:1054B000CFC12091A0033091A1032115310509F03E
:1054C00093C280917D038823A9F00E943408009143
:1054D000790310917A0320917B0330917C03601B48
:1054E000710B820B930B6F3F7F4F8F4F9F4710F4D1
:1054F0000E94D211B1100E94ED110E94EA100E9488
:1055000048149091FA02891721F00E944814809360
:10551000FA0280919403843009F436C30E94241463
:10552000882309F405CF0E94340820911203211129
:1055300090C000910E0310910F0320911003309141
:1055400011036B017C01C01AD10AE20AF30A970128
:105550008601043F11402105310508F47AC06093AB
:105560000E0370930F0380931003909311038091A7
:105570000C0390910D03019690930D0380930C03FF
:1055800019828E010F5F1F4F21E050E040E060E084
:1055900088E00E940118811107C080910C0390914E
:1055A0000D030A970CF455C081E080931203809399
:1055B00018039981911101C080E0809319038091B3
:1055C000170310E0882329F00E948A1411E081114A
:1055D00012E080911903882309F49BC40E948A1465
:1055E000811199C482E0182B86E290E00E942F344A
:1055F000C82ED12CF12CE12CC701B6016C7F612B98
:105600006C157D058E059F0511F00E9420150E94E6
:105610008A1426E030E0882311F022E030E0E091A7
:10562000170391E0E9272E573E4FE20FF32FF11DAC
:105630009FE39083811171C482E090E0E0911903AF
:1056400021E0E2278E579E4FE80FF92FF11D8FE3DF
:10565000808380911903882309F46ACE0E9434085C
:105660006B017C018091130390911403A0911503A9
:10567000B0911603A7019601281B390B4A0B5B0B4F
:10568000DA01C9010497A105B10580F119821A82D6
:105690001B821C828E010F5F1F4F24E050E040E010
:1056A00060E089E00E9401188823C1F069817A8155
:1056B00080911E0390911F030E94390D90931F0348
:1056C00080931E036B817C81809120039091210344
:1056D0000E94390D9093210380932003C0921303FD
:1056E000D0921403E0921503F092160380912303E5
:1056F000882309F41DCE80912203898310E000E005
:1057000020E0AE014F5F5F4F61E08AE00E94011828
:10571000882309F40DCE109223030ACE82E02DCD0A
:105720008FE292E041CD80919403843041F10E9458
:10573000D2110E94EA101092810348E150E080E407
:105740000FB6F894A895409360000FBE8093600058
:1057500083B7817F846083BF83B7816083BF789480
:10576000889583B78E7F83BF0FB6F894A8958091F4
:105770006000886180936000109260000FBE80918D
:105780009303882371F00E94C425E4E0F3E0A2E8CB
:10579000B1E081919D91892309F0C2C34E165F0645
:1057A000C1F780919403853009F4BDCF109287032F
:1057B0000E944C0D0E944814C2CDA394EE0CF6E05A
:1057C000AF12E0CD0F5F1F4F0830110509F0CACDB1
:1057D0008FEF8EA38FA318A60E94F41C8160782FF0
:1057E0009AA789A74EA15FA168A58AA50E94322524
:1057F000EACD863059F4F0E0E85BFD4FE4910E2FDE
:1058000010E025EA822E23E1922EF7CD893061F453
:10581000E695F0E0EB5BFD4FE4910E2F10E095E391
:10582000892E93E1992EE9CD00ED17E0BFE58B2E8F
:10583000B8E09B2E8F3009F0E0CDF0E0EE5BFD4F3D
:10584000E4910E2F10E08EEA882E82E1982ED5CDBD
:105850000E94F41C9093F9028093F80282EA93E08C
:105860009093A9058093A8050E942414882309F425
:10587000B6C010912A03012F8FE892E00E94AA106F
:1058800080912D038F708A3008F09BC0805D0E944C
:1058900029108BE892E00E94AA1080912C038F704F
:1058A0008A3008F090C0805D0E942910002309F41E
:1058B00090C088E892E00E94AA10812F82958F7094
:1058C0008A3008F082C0805D0E942910812F8F707D
:1058D0008A3008F07CC0805D0E9429108CEF810F17
:1058E000853308F076C084E892E00E94AA10212F48
:1058F0002450330BF901E15BFD4F84910E94291084
:105900008BEA92E00E94AA10809130030E940E0D53
:105910000E948A11809131030E940E0D0E948A110B
:10592000809133030E940E0D0E948A1180913203F0
:105930000E940E0D0E948A1182EA92E00E94AA1033
:1059400080912203811101C085E00E940E0D019615
:105950000E948A118CE992E00E94AA10809124038F
:1059600081113BC080E30E94291088E992E00E94E7
:10597000AA1080912503811101C084E0805D0E94FE
:10598000291080919E030E944A0C09EB12E084309A
:1059900040F4E82FF0E0EE0FFF1FE255FE4F0081CC
:1059A000118181EB92E00E94AA10C8010E94AA1006
:1059B00081E00E94B81080917E03882309F481CD94
:1059C00078CD895A64CF895A6FCF895A7DCF895A49
:1059D00083CF81E00E94B81093CF81E3C4CF83ECE2
:1059E00092E00E94AA10E7CF8091F70261E070E098
:1059F000811167CD082F10E07B01082E02C0EE0C4C
:105A0000FF1C0A94E2F7A9014E215F21452B09F4FE
:105A100047C09091F60290FD45C08295880F807630
:105A200080937D019801369527953695279520938B
:105A30008001815E80937E011092810124E630E036
:105A400047E050E06BE771E088E70E943A31892B2C
:105A500009F037CDA80175E0440F551F7A95E1F79D
:105A60008091F60280FD2CC04E555C4F04E610E09C
:105A700020E230E060E488E70E946131892B09F080
:105A800020CD0E94ED11E094F0948091A0039091BC
:105A9000A103E822F922F092A103E092A00311CD24
:105AA0008F5FA8CF880F880F880F80937D01109299
:105AB0008001895F80937E0183E080938101BECF66
:105AC000E6EDF2E080E2DF011D928A95E9F7EAEB6C
:105AD000F1E0FEA7EDA706EB11E0ADA5BEA52D9167
