:100000000C948B040C94D2040C94D2040C94792A92
:100010000C94D2040C94D2040C94D2040C94D20408
:100020000C94D2040C94D2040C94F1170C94AD17D8
:100030000C9434220C94D2040C94D2040C94D20468
:100040000C94D2040C94D2040C94D2040C94D204D8
:100050000C94D2040C94CA180C94D2040C94D204BC
:100060000C94D2040C94D2040C94D2040C94D204B8
:100070000C94D2040C94D2040C94D2040C94D204A8
:100080000C94D2040C94D2040C94D2040C94D20498
:100090000C94D2040C94D2040C94D2040C94D20488
:1000A0000C94D2040C94D2040C94D20414001A00C0
:1000B0000800150017002F000400160007000900B3
:1000C0000A0030001D001B0006001900050000009A
:1000D000E000E2002A002C00E300290029001300C0
:1000E00012000C0018001C0033002D000F000E0041
:1000F0000D000B00310038003700360010001100F1
:10010000E5002B001E024C002800000000DA0281EE
:10011000FFD9F1DB20A4A62EAF00A0C000A1C8002B
:10012000AED580A81FD300408D142000000461626A
:10013000636465666768696A6B6C6D6E6F70717217
:10014000737475767778797A313233343536373857
:100150003930524542545F2D3D5B5D5C233B276047
:100160002C2E2F20202700204B00202043004B6501
:1001700079203A20205200202044003030202053A3
:100180000020202020204350490042616C6C3A003E
:10019000808182838485868788898A8B8C8D8E8FE7
:1001A0009091929394A0A1A2A3A4A5A6A7A8A9AA5E
:1001B000ABACADAEAFB0B1B2B3B4C0C1C2C3C4C5D5
:1001C000C6C7C8C9CACBCCCDCECFD0D1D2D3D4002C
:1001D000000101010101010101010202020202020A
:1001E00002020203030303030303030404040404DD
:1001F00004040505050505060606060607070707A4
:100200000708080808090909090A0A0A0B0B0B0C58
:100210000C0C0D0D0D0E0E0E0F0F0F1010111111F5
:100220001212131314141515161617171818191976
:100230001A1A1B1B1C1D1D1E1E1F202021222223DB
:100240002424252626272829292A2B2C2D2D2E2F1C
:1002500030313232333435363738393A3B3C3D3E33
:100260003F404142434445464748494A4C4D4E4F22
:1002700050515354555658595A5B5D5E5F616264E4
:10028000656668696B6C6D6F7072737577787A7B71
:100290007D7E8082838587888A8C8E8F91939596C8
:1002A000989A9C9EA0A2A3A5A7A9ABADAFB1B3B5E8
:1002B000B7BABCBEC0C2C4C6C9CBCDCFD1D4D6D8C4
:1002C000DBDDDFE2E4E7E9EBEEF0F3F5F8FAFDFF62
:1002D00000AF00AE05010902A10185020901A100DC
:1002E00005091901290815002501950875018102E4
:1002F0000501093009311581257F950275088106B0
:1003000009381581257F950175088106050C0A3885
:10031000021581257F950175088106C0C005010978
:1003200006A101050719E029E715002501950875C3
:100330000181029501750881010507190029FF1542
:100340000026FF009506750881000508190129059A
:10035000950575019102950175039101C009023B54
:1003600000020100A0FA09040000010301010009D4
:1003700021110100012240000705810308000A093C
:1003800004010001030000000921110100012249BC
:10039000000705820320000A120100020000000885
:1003A0005759010001000102000114034B006500D0
:1003B0007900620061006C006C00340036000000BF
:1003C000100359006F0077006B0065006500730033
:1003D0000000040309040000000000003E5B4F5BC6
:1003E0003E003E6B4F6B3E001C3E7C3E1C00183CAA
:1003F0007E3C18001C577D571C001C5E7F5E1C0055
:1004000000183C180000FFE7C3E7FF00001824189D
:100410000000FFE7DBE7FF0030483A060E00262920
:1004200079292600407F05050700407F05253F000C
:100430005A3CE73C5A007F3E1C1C0800081C1C3E2E
:100440007F0014227F2214005F5F005F5F000609B7
:100450007F017F00006689956A00606060606000CF
:1004600094A2FFA2940008047E04080010207E20BD
:10047000100008082A1C0800081C2A0808001E1082
:10048000101010000C1E0C1E0C0030383E383000CE
:10049000060E3E0E060000000000000000005F0097
:1004A0000000000700070000147F147F1400242AB6
:1004B0007F2A120023130864620036495620500038
:1004C000000807030000001C224100000041221C1C
:1004D00000002A1C7F1C2A0008083E080800008033
:1004E0007030000008080808080000006060000084
:1004F0002010080402003E5149453E0000427F4062
:1005000000007249494946002141494D3300181401
:10051000127F10002745454539003C4A49493100C2
:100520004121110907003649494936004649492900
:100530001E0000001400000000403400000000080D
:100540001422410014141414140000412214080051
:100550000201590906003E415D594E007C121112FC
:100560007C007F49494936003E41414122007F419C
:1005700041413E007F49494941007F090909010085
:100580003E41415173007F0808087F0000417F41D0
:1005900000002040413F01007F08142241007F40BD
:1005A000404040007F021C027F007F0408107F0053
:1005B0003E4141413E007F09090906003E4151216B
:1005C0005E007F0919294600264949493200030186
:1005D0007F0103003F4040403F001F2040201F009C
:1005E0003F4038403F00631408146300030478045C
:1005F00003006159494D4300007F4141410002041D
:1006000008102000004141417F0004020102040063
:100610004040404040000003070800002054547848
:1006200040007F284444380038444444280038447B
:1006300044287F0038545454180000087E090200F2
:100640001824241C78007F080404780000447D40AE
:1006500000002040403D00007F1028440000004181
:100660007F4000007C04780478007C080404780053
:100670003844444438007C182424180018242418D2
:100680007C007C08040408004854545424000404EA
:100690003F4424003C4040207C001C2040201C00A3
:1006A0003C4030403C004428102844004C9090903E
:1006B0007C004464544C44000008364100000000B3
:1006C0007700000000413608000002010204020029
:1006D0003C2623263C000000000000000000000033
:1006E0000000000000000000000000000000C0F05A
:1006F000F88C86C6E7FFFFFFFFFFFFFEFCFCF8E07B
:1007000080000000F0F0F00000C0E0F07070000029
:1007100000000000000000000000000000000000D9
:1007200000000000F8F8F8000000000000000000E1
:1007300000000000000000000000F8F8F80000F8D9
:10074000F8F80000000000000000000000000000B9
:1007500000000000E0F0F0F0E0ECEEF7F3702000B5
:100760007C7C7C7E007E7E7E7F7F7F000080C0E080
:100770007E5B4F5BFEC00000C000DCD7DEDEDED754
:10078000DC00C000000000000000000000000000CD
:100790000000000000000000000000000000000059
:1007A0000000000000000080E07078686C64C7C73B
:1007B000C7C7C7C7E73F1F0F3FFFFFFFFFFFFF3F51
:1007C0000F000000FFFFFF1E3FFFF3E1800000F875
:1007D000FCFE3636363EBCB8000E3EFEF080F0FE23
:1007E0003E0E0000FFFFFF060606FEFEFC7000E660
:1007F000F6F63636FEFEFC000000FFFFFF0000FFAD
:10080000FFFF0000000000000000000000000000EA
:10081000000000000F1F3F7F7F7F7F7F3F1E0C0087
:100820001F1F1F3F003F3F3F7F7F7F00307B7F7850
:1008300030202030787F3B0003000F7F0F0F0F7FA9
:100840000F00030000000000000000000000000096
:100850000000000000000000000000000000000098
:100860000000000000003C7F6360E0C0C0C0C0C06A
:10087000C0C0C0FFFFC06030180F030303010000B9
:100880000000000003030300000003030303000152
:100890000303030303030301007070393F1F0701C3
:1008A0000000000001030303030303030100000130
:1008B0000303030303030100000003030300000319
:1008C0000303000000000000000000000000000022
:1008D0000000000000000000000000000000000018
:1008E0000000000000000000000000000000000008
:1008F00000000000000000000000000000000000F8
:1009000000000000000000000000000000000000E7
:1009100000000000000011241FBECFEFDAE0DEBFB0
:10092000CDBF04B603FE27C080917005909171057C
:10093000A0917205B09173058730904BA740B04BE2
:10094000D1F41092700510927105109272051092F8
:10095000730514BE84B7877F84BF0FB6F894A8953B
:1009600080916000886180936000109260000FBEEB
:10097000E0E0F8E3099511E0A0E0B1E0EEEBF9E585
:1009800002C005900D92AE3AB107D9F725E0AEEA64
:10099000B1E001C01D92A037B207E1F70E945B22CF
:1009A0000C94AF2C0C940000FC01AC014C5F5F4F29
:1009B0008FEF91E32191822728E030E087FF09C083
:1009C000880F892721503109C9F7E417F50791F7F6
:1009D0000895880FF7CFE8EDF0E080818E7F808367
:1009E0001092E2001092DA001092E100A0EEB0E066
:1009F0008C9181608C9380818F77808319BCA7ED67
:100A0000B0E08C918E7F8C9380818F7E808310925A
:100A10004B0308952091E4003091E50095E6A9018B
:100A20002091EC00822F817020FF06C08091E800A9
:100A300080FF06C080E008952091E80022FD1AC0E2
:100A400080915903882389F0853089F08091EB00EB
:100A500085FD0FC02091E4003091E5004217530757
:100A6000F9F29150E1F684E0089582E0089583E080
:100A7000089581E00895EF92FF920F931F93CF9313
:100A80007C018B010E940A05C82F811117C080913B
:100A9000E80085FD0BC08091E8008E778093E80028
:100AA0000E940A05882399F3C82F08C0F701819195
:100AB0007F018093F1000150110949F78C2FCF91EC
:100AC0001F910F91FF90EF90089580915B0387FF36
:100AD00013C08091E80082FF06C08091E8008B7708
:100AE0008093E80004C0809159038111F2CF0895EA
:100AF000809159038823D9F38091E80080FFF8CFD3
:100B00008091E8008E77ECCF982F9093E900242F06
:100B1000762F50E0891731F07091EC002091ED00B4
:100B20005091F00021FD07C09F5F973071F78093CF
:100B3000E90081E008953091EB003E7F3093EB00B7
:100B40003091ED003D7F3093ED003091EB0031604E
:100B50003093EB007093EC002093ED005093F00085
:100B60002091EE0027FDE0CF80E00895CF92DF9244
:100B7000EF92FF920F931F93CF93DF93C8EDD0E0D6
:100B800088818F7E8883E7EDF0E0808181608083BB
:100B900084E082BF81E080934B0388818E7F8883CD
:100BA00002EE10E0F80110821092DA0081EEC82EF9
:100BB000D12CF601108288818F77888388818068A4
:100BC000888388818F7D888319BC10925903109285
:100BD0005A03109258031092570390EEE92EF12C0D
:100BE000F70180818B7F808388818160888342E0E8
:100BF00060E080E00E948405F60180818E7F808322
:100C0000F801808181608083808188608083F70122
:100C100080818E7F8083888180618883DF91CF91FE
:100C20001F910F91FF90EF90DF90CF900895FC01FE
:100C3000809161039091620386179707A0F0611578
:100C4000710529F49091E8009E779093E80090E078
:100C50006115710551F4911108C08091E80082FF7F
:100C600034C080E00895BC01F2CF809159038823FD
:100C7000C1F18530C1F18091E80083FD30C08091E1
:100C8000E80082FDEACF8091E80080FFE1CF80910B
:100C9000F3002091F200382F6115710519F028300A
:100CA000310558F091E02830310509F090E02091AD
:100CB000E8002E772093E800CBCF81918093F1005C
:100CC000615071092F5F3F4FE7CF8091590388230F
:100CD00041F0853041F08091E80083FFBECF81E094
:100CE000089582E0089583E0089508950895089591
:100CF00080914E0308952FB7F89460914703709147
:100D000048038091490390914A032FBF08959C01A5
:100D1000FC0132969FEF80E04191461751F09F3FD2
:100D200019F4411101C0982F8F5F8630A9F79F3FBA
:100D300009F40895290F311D97FD3A95F901628351
:100D40000895FA01811101C0FB0109940895EAE3B5
:100D5000F3E011828281846082830895809135035B
:100D6000982F9E7F29F481708260809335030895C7
:100D70008630E8F381708460F8CFAF92BF92DF9243
:100D8000EF92FF920F931F93CF93DF93082F162FAD
:100D9000E901E42FF0E0E053FE4F611110C0E4914F
:100DA0005E2F4E2F4983E8835A83DF91CF911F91A5
:100DB0000F91FF90EF90DF90BF90AF900895E62ED7
:100DC000F12C4491D42EE42FF0E026E0829FC00164
:100DD00011242FEF30E0B9010E94F32B802F90E017
:100DE000880F991F55E5569FD001579FB00D1124CC
:100DF0008A1B9B0B982F990F890F5901AE18BF08BA
:100E0000AE9ED001AF9EB00DBE9EB00D11245B2FE3
:100E1000189F80011124012F11275901A01AB10A2E
:100E2000AE9E8001AF9E100DBE9E100D1124590183
:100E3000A81AB108AE9CC001AF9C900DBE9C900D4D
:100E40001124892F9927281B390B2E9FC0012F9F12
:100E5000900D3E9F900D1124E92F62307105A1F095
:100E600050F46115710509F49DCF6130710581F071
:100E7000EB2F512F97CF6430710569F080F0663009
:100E8000710509F48FCFF4CFE42F4B2F592F8ACF60
:100E9000E42F412F87CFEB2F542F492F83CF4B2F98
:100EA0005D2DE12F7FCFCF93DF93ECEDF2E08381D7
:100EB0009481A581B681E90188839983AA83BB8344
:100EC0001482138216821582DF91CF91089580E0FB
:100ED000089578940895E0913202EB30A4F48AE00A
:100EE000E802F0011124EF5FFE4F0084F185E02D50
:100EF000309749F025E532E04091340265E372E035
:100F00008091330209940895E1E2F2E082898093AE
:100F10003501838980934C010895F894E82FE29578
:100F2000EF70F0E031A1282F2F7081E090E001C038
:100F3000880F2A95EAF7982F9095932391A392A171
:100F4000892B82A30C94690790918B0292FF06C0B3
:100F5000282F28712830F9F4877F846093FF06C01A
:100F6000282F28712831F1F4877E846120918C022A
:100F700020FF06C0382F38713830D9F4877F816060
:100F800021FF06C0282F28712831D1F4877E816186
:100F900094FD877E0895282F24712430F9F68B7FE5
:100FA0008860DCCF282F2471243101F78B7E886183
:100FB000DDCF382F3171313019F78E7F8860E0CF67
:100FC000282F2171213121F78E7E8861E1CFCF93C7
:100FD000DF93EC018238910589F1B8F581339105F1
:100FE00009F492C028F58932910509F486C08A97E0
:100FF00009F491C0C11523E5D20708F0ACC0C115B2
:1010000032E5D30708F011C1C11540E2D40708F05A
:1010100090C0C11581E0D80730F5C53AD10508F078
:1010200081C0C430D105F8F4C130D105E1F040C031
:101030008533910509F45AC0C997E1F680918B0276
:10104000837089F0C0EED0E00EC0833E910599F127
:1010500070F4803E910501F1823E910559F6809130
:101060008B0282FD21C0CE01DF91CF910895863E93
:10107000910561F1873E910571F1843E910509F07A
:10108000B9CF80918C0281FFEECF80918B02C7EEA9
:10109000D0E084FD0DC0E7CF80918B0280FDF4C0CD
:1010A00090918C0290FFDFCFC3EED0E084FFDBCFC6
:1010B000D0E0C0E0D8CF80918B0282FDE8C0909153
:1010C0008C0290FDBFCF84FFCECFF2CF80918B02F8
:1010D00083FDDDCFC8CF80918B0283FDDBC0909173
:1010E0008C0291FFF0CFC4EED0E0BDCF80918B0297
:1010F00085FFB9CFC9E2D0E0B6CF80918B0285FFE2
:10110000B2CFC5E3D0E0AFCF80918B0286FFABCFEB
:10111000CAE2D0E0A8CF80918B0286FFA4CFC1E3C2
:10112000D0E0A1CFCE01815E9109079708F49BCF53
:10113000BFCFC11591E5D90708F072C0C11520E5F0
:10114000D20708F050C0C11530E4D30708F4B0CF7F
:10115000DF70D06A88CFC11546E5D407F0F4C11519
:1011600085E5D80708F077C0C11594E5D90708F0E0
:101170006DC0CE018370992721E030E002C0220FBC
:10118000331F8A95E2F7C695C69590E2C99FE001A4
:101190001124C22BD32BDA6866CFC1152AE5D207FA
:1011A00078F4C11539E5D30708F060C0C11548E5EA
:1011B000D40708F47DCFDC2FCC27C06FD06A53CF83
:1011C000CE0190568115904208F072CF8D2F8F710D
:1011D0000E94A40790E0982F882788279F719C0180
:1011E0002C2BE90141C0CE01E4E096958795EA9564
:1011F000E1F783702C2F26952695237040E2249FDB
:1012000090011124382B8C2F8370C1E0D0E002C0F4
:10121000CC0FDD1F8A95E2F7C22BD32BDC6823CFDE
:10122000DC2FCC27C16FD06A1ECFCE0183709927E7
:1012300021E030E002C0220F331F8A95E2F7C69505
:10124000C69580E2C89FE0011124E6CFDC2FCC27B1
:10125000C46FD06A08CF8C2F0E94A407C82FD0E09B
:10126000DC2FCC27CC27DF71D062FDCE8C2F8F7086
:101270000E94A40734E0D695C7953A95E1F7CF7060
:101280009C2FEC01D069EFCEC9E3D0E0ECCEC2EEEA
:10129000D0E0E9CEC6EED0E0E6CE80911402811116
:1012A000109214020895809590914C039823909386
:1012B0004C03089580914C0390911302892B9091D7
:1012C0001202892B8093B00190911402992391F01E
:1012D000892B8093B00120E082EB91E0FC013191F9
:1012E000CF0131112F5FF1E0883B9F07B9F7211142
:1012F0000E944D09E0914403F0914503309731F08D
:101300000280F381E02D80EB91E0099408958091B3
:1013100010029091DF01981301C008958F5F8770CC
:10132000FACFCF92DF92EF92FF920F931F93CF935A
:10133000DF93E0908A0220911502E22AC7E0D0E014
:10134000F12C082F10E026E0929F000D111D1124B2
:1013500090E3C92EDC2EC7010C2E02C0959587950F
:101360000A94E2F780FD0DC02197A0F7D12C8D2DB6
:10137000DF91CF911F910F91FF90EF90DF90CF9071
:101380000895CC9EF001CD9EF00D1124E00FF11FC9
:10139000EE0FFF1FE455FF4F859194910E94E707E0
:1013A000019711F3E4CFCF93DF93EC010E949109F1
:1013B000EC2FF0E096E0D99FE00DF11D112490E3B1
:1013C000899FE00DF11D1124EE0FFF1FE455FF4F23
:1013D00085919491DF91CF910C94E707E92FEE0F5F
:1013E000E90FEE0F8E0F982F97708695869586954C
:1013F00023E0829FF0011124E953FE4F50E040E0CA
:1014000080E0219130E0092E02C0369527950A949C
:10141000E2F721703327042E01C0220F0A94EAF765
:10142000822B4F5F5F4F4330510559F70895E92FE5
:10143000EE0FE90FEE0F8E0F982F977041E001C06D
:10144000440F9A95EAF786958695869593E0899F4D
:10145000F0011124E953FE4F30E020E070E051919B
:10146000DF011197CB01022E02C0969587950A9451
:10147000E2F7817081958527842385278C932F5FE0
:101480003F4F2330310559F7089580938A02109217
:101490001302109212020C945A0921E030E001C0AC
:1014A000220F8A95EAF7209580918A0282230C9474
:1014B000450A909111028095892380931102282F6B
:1014C000277091F4282F082E000C330B9217130667
:1014D00059F090918C0292FD07C085958595859570
:1014E0000E944D0A10921102089521E030E001C0DF
:1014F000220F8A95EAF780918A02822B0C94450A82
:101500008093150210921302109212020C945A0941
:10151000FC01808191810E94D309292F2F7092951F
:101520009F7092509E3078F4E92FF0E0EF54F34D25
:101530000C94352C803F19F020F4883E20F481E093
:101540000895843FE1F380E00895883EC0F3813F31
:10155000D1F7F5CF822F86958695869508958823B5
:1015600021F00E9453090C945A090895882339F0F8
:1015700090914C03982B90934C030C945A09089526
:10158000882309F452C09CEF980F913A78F4E2EB6B
:10159000F1E028EB31E09191891303C0DF0111974D
:1015A0001C922E173F07B9F70C945A0990E2980F36
:1015B000983050F4877091E001C0990F8A95EAF74E
:1015C000892F0E945309F0CF9BE5980F9330B0F418
:1015D0008091C3019091C401892B39F11092C4010B
:1015E0001092C301E0914403F09145033097E9F074
:1015F0000680F781E02D90E080E00994885A8731D9
:10160000A0F48091C5019091C601892B71F01092D0
:10161000C6011092C501E0914403F0914503309753
:1016200021F00084F185E02DE6CF0895CF93C82FF7
:101630008823A1F18CEF8C0F813AF8F4E2EBF1E012
:10164000DF018D91C81761F081E0A83BB807C9F7A9
:101650006C2F80EB91E00E948706CF910C945A0981
:101660008191C81303C0DF0111971C9281E0E83B10
:10167000F807B1F70E945A09EBCF80E28C0F88304F
:1016800068F4C77021E030E001C0220FCA95EAF784
:1016900080914C03822B80934C03DFCFCF91089530
:1016A000CF93DF93FC019091EA02911101C094E085
:1016B000208131819150A901092E02C0559547958D
:1016C0000A94E2F7DA01092E02C0AA0FBB1F0A949E
:1016D000E2F72A1B3B0B31832083A281B3819D015A
:1016E000092E02C0359527950A94E2F7E90102C058
:1016F000CC0FDD1F9A95E2F7AC1BBD0BB383A28321
:101700004138DFEF5D078CF04038510584F4FB0170
:1017100045832138FFEF3F0764F0203831055CF442
:10172000EB012C83DF91CF91089541E8F0CF4FE793
:10173000EECF21E8F5CF2FE7F3CFCF93C82F8091DD
:10174000E9028C1751F00E947B066093EB027093C4
:10175000EC028093ED029093EE02C093E902CF91E8
:101760000895382F20E287FF02C031952DE24AE02C
:10177000832F642F0E94132C905D9093BC018111E4
:101780000BC02093BB0120E22093BA0120E22093FA
:10179000B90189EB91E00895642F0E94132C905DAC
:1017A0009093BB01832F64E60E94132C882361F37E
:1017B000805D8093BA01EBCF9C01860F971F37FDA8
:1017C00007C077FD04C097FF02C08FEF9FE7089521
:1017D00077FFFDCF97FDFBCF80E090E80895E2EB27
:1017E000F1E086E0DF011D928A95E9F7109213027D
:1017F000109212020C945A091F93CF93DF93CDB726
:10180000DEB7AA970FB6F894DEBF0FBECDBF8BE54B
:1018100093E02091F100FC012193CF01F3E08336A6
:101820009F07B9F780915C03833009F470C0B8F466
:10183000813009F447C0823009F4B3C08091E800D8
:1018400083FF80C280915B0390915C039A3008F023
:1018500079C2E92FF0E0E154F34D0C94352C8A3035
:1018600009F48EC08B3009F46FC0893039F780914C
:101870005B03813219F780915F03909160030297B7
:10188000E8F68091E800877F8093E8008091E80087
:1018900082FF38C09091F3008091F200029731F4FA
:1018A0008091F100813011F0863021F48091F100B7
:1018B00080934E038091E8008B778093E8000E942C
:1018C0006505BCCF80915B03813A09F0B7CF809169
:1018D000E800877F8093E80080915F039091600328
:1018E000892B61F468E08FE493E070E00E941706B2
:1018F0008091E8008B778093E800A0CF60E090E0D3
:1019000080E0F3CF809159038111C0CF97CF8091B0
:101910005B03813A09F092CF80915F03909160035D
:10192000892B09F08BCF8091E800877F8093E800B6
:101930008091E80080FFFCCF809190018093F100BE
:101940008091E8008E77B9CF80915B03813209F0F6
:1019500075CF80915F0390916003892B09F06ECF62
:101960008091E800877F8093E8000E946505809160
:101970005D038093900110924C030E94EF0B5ECFA9
:1019800080915B03813209F059CF8091E800877F15
:101990008093E8000E94650580915E0380934D036B
:1019A0004DCF80915B03813A09F048CF8091E800E8
:1019B000877F8093E8008091E80080FFFCCF8091D2
:1019C0004D03BCCF803899F0823809F0BBC18091BB
:1019D0005F038F70873008F0B5C18093E900809174
:1019E000EB0085FB882780F91092E90006C0809102
:1019F000570390915803911182609091E800977F6E
:101A00009093E8008093F1001092F1008091E8003B
:101A10008E7794C1882309F482C1823009F092C183
:101A200080915D03811185C180915F038F702FEFDD
:101A3000280F263008F086C18093E9002091EB0042
:101A400020FF77C1933031F48091EB008062809366
:101A5000EB006FC19091EB0090619093EB0021E05F
:101A600030E001C0220F8A95EAF72093EA00109235
:101A7000EA008091EB008860EACF811163C1109188
:101A80005D031F778091E3008078812B8093E300D2
:101A90008091E800877F8093E8000E94650580912F
:101AA000E80080FFFCCF8091E30080688093E30032
:101AB00082E0111183E08093590344C18058823041
:101AC00008F040C180915D0390915E038C3D23E05E
:101AD0009207A1F583E08A838AE289834FB7F8945D
:101AE000DE01139620E03EE051E2E32FF0E0509358
:101AF0005700E49120FF03C0E295EF703F5FEF7065
:101B00008E2F90E0EA30C0F0C7968D939D932F5FA3
:101B1000243159F74FBF8091E800877F8093E80018
:101B20006AE270E0CE0101960E9417068091E800FB
:101B30008B778093E80006C1C096E7CF40915F03A2
:101B400050916003292F33272330310509F444C015
:101B500078F52130310509F46FC08BE390E0EDE5B5
:101B6000F3E02230310509F0EDC02091E800277F35
:101B70002093E8002091610330916203821793075C
:101B800008F49C0140E02115310509F064C04111C1
:101B900062C08091E80082FDC9CF809159038823FB
:101BA00029F2853019F28091E80083FFF2CFBECF91
:101BB00021323105A9F12232310509F0C3C04115A6
:101BC000510509F443C04130510509F0BBC089E417
:101BD00090E0E4EDF2E0C9CF992781309105C1F0A2
:101BE000009759F0029709F0ADC0EAEAF3E0E491FA
:101BF0008E2F90E0EAEAF3E007C0E2EDF3E0E49133
:101C00008E2F90E0E2EDF3E0009709F49BC0ADCF9A
:101C1000E0ECF3E0E4918E2F90E0E0ECF3E0F4CF21
:101C20004115510571F04130510509F08BC089E033
:101C300090E0E8E8F3E099CF82E190E0E8E9F3E0B2
:101C400094CF89E090E0EFE6F3E08FCF80E490E07E
:101C5000EDE1F3E08ACF80915903882309F466CF40
:101C6000853009F463CF8091E80083FD5FCF8091D8
:101C7000E80082FD8ECF8091E80080FF84CF9091B4
:101C8000F3008091F2002115310519F0883091059B
:101C900050F041E0089709F040E08091E8008E772D
:101CA0008093E80070CF44914093F1003196215029
:101CB00031090196E8CF803809F044C08091E800EE
:101CC000877F8093E80080915A038093F1009ECE35
:101CD000811138C010915D031230A0F58091E800A9
:101CE000877F8093E80010935A030E9465051123B3
:101CF00011F084E005C08091E30087FDFACF81E018
:101D00008093590342E061EC81E00E94840542E245
:101D100061EC82E00E9484058091590313C0809198
:101D20005D03813079F481E0933009F080E08093A5
:101D300058031092E9008091E800877F8093E800C3
:101D40000E9465058091E80083FF0AC08091E80049
:101D5000877F8093E8008091EB0080628093EB00A6
:101D6000AA960FB6F894DEBF0FBECDBFDF91CF911C
:101D70001F9108958091DC02F90180830895CF932B
:101D8000DF93682F81E06A3019F06D3029F480E02C
:101D9000DF91CF910C944E0F80916C0590916D0561
:101DA00026E0FC01A6E6B5E001900D922A95E1F748
:101DB000603E08F45AC026E0FC0111922A95E9F72A
:101DC000C0916C05D0916D0546E050E0BE0186E6FD
:101DD00095E00E94512C9E0126563340892B41F1FB
:101DE000C90145E0969587954A95E1F741E050E0B5
:101DF000BA0102C0660F771F8A95E2F7CB016091A6
:101E0000640370916503862B972BB9016B5F7F4F3D
:101E1000E5E076956795EA95E1F702C0440F551F16
:101E20006A95E2F7842B952B909365038093640366
:101E30002A5F3F4F40916303642F70E0C9010E9405
:101E4000F32B481B463010F4240F311D211572E08E
:101E5000370710F030E020E02A593C4F30936D05F1
:101E600020936C05DF91CF910895F6E06F9FB0014C
:101E700011246A527C4F46E050E00E943B2CA0CFD8
:101E8000CF93DF93EC01FE018491811103C0DF91B8
:101E9000CF9108950E94BF0E2196F5CFCF93382F92
:101EA000E0916C05F0916D05E656F34020916303D7
:101EB000622F70E0CF010E94F32B281B822F332367
:101EC00061F066E00E94072CC82FC15010F4CF913A
:101ED000089580E20E94BF0EF8CF9F01280F311DA8
:101EE0002115324018F080E0F0E0E0E08E0F9F2FE7
:101EF000911D8A599C4F90936D0580936C05E7CF97
:101F0000CF93DF93CDB7DEB768970FB6F894DEBFF7
:101F10000FBECDBF4091FF025091000360910103BD
:101F20007091020380910303909104030E94C715EE
:101F30002093FF0230930003409301035093020368
:101F4000609303037093040386E0EFEFF2E0DE0199
:101F5000179601900D928A95E1F786E0FE0137967B
:101F6000DE01119601900D928A95E1F786E0FE015F
:101F70003196DE011D9601900D928A95E1F786E07B
:101F8000FE013D96DE01539601900D928A95E1F790
:101F900086E0FE017396DE01119601900D928A95FE
:101FA000E1F786E0FE013196AFEFB2E001900D92CD
:101FB0008A95E1F786E0EFEFF2E0DE0117960190F7
:101FC0000D928A95E1F786E0E9EFF2E0DE011196E5
:101FD00001900D928A95E1F746E050E0BE016F5FF7
:101FE0007F4FCE0107960E94512C892B79F0E0910A
:101FF0004403F0914503309749F082E08093FF025B
:102000000480F581E02D8FEF92E009951092010395
:1020100010920203109203031092040386E0EFEF84
:10202000F2E0A9EFB2E001900D928A95E1F768968F
:102030000FB6F894DEBF0FBECDBFDF91CF910895EC
:102040000F931F93CF93DF93EC01FC0101900020CD
:10205000E9F78F0101501109C017D10728F0DF916E
:10206000CF911F910F91089589910E94BF0EF4CFD7
:10207000CF92DF92EF92FF920F931F93CF93DF9354
:102080006C017B0164E670E088E70E94D028EC01D7
:1020900097FD12C010E000E0F601E00FF11F8491FF
:1020A00064E670E00E944A29EC01892B29F40F5F55
:1020B0001F4F0E151F0581F70E94CD29CE01DF911C
:1020C000CF911F910F91FF90EF90DF90CF900895E7
:1020D0008091420390914303911103C091E08927BD
:1020E0000895882369F062E070E082ED92E00E943A
:1020F0003810892B19F08091420308951092420301
:1021000080914203EBCFCF93C09142038091430370
:102110008823D1F00E947B06605A75418F4F9F4FF4
:1021200060933E0370933F03809340039093410379
:10213000C11108C062E070E080ED92E00E943810AA
:10214000892B29F0C09142038C2FCF91089581E013
:1021500080934203F7CF9C0182E08093E9009FEFD8
:102160008091E800915085FD06C085ED8A95F1F7D4
:1021700000009111F5CF8091E80085FF0CC050E080
:1021800040E066E070E0C9010E943B058091E800F4
:102190008E778093E8000895CF93DF93EC0181E080
:1021A0008093E9008FEF9091E800815095FD06C083
:1021B00095ED9A95F1F700008111F5CF8091E80037
:1021C00085FF14C050E040E068E070E0CE010E945E
:1021D0003B058091E8008E778093E80088E0FE015F
:1021E000AFE4B3E001900D928A95E1F7DF91CF91D2
:1021F000089560918B018091350380FF20C080910C
:102200008A0143E0849FC00111248B5F9C4F539A45
:102210002BB1277F3BB138605FB7F894FC01649F16
:10222000E00DF11D1124BF0168177907D1F45FBFDC
:102230008FE594E00197F1F700C0000008958091C8
:102240008C0190918D0123E0829FF0011124EB5FBE
:10225000FC4F8917A0F61182108212828F5F33968D
:10226000F8CFFC014191CF01E8E03BB9000000C08C
:1022700047FF2BB9440F000000C000C000C02BB9BD
:1022800000C0EA9591F7D0CF9091350390FF14C02C
:1022900090918C0120918D0133E0939FF0011124E6
:1022A000EB5FFC4F921710F00C94F9108183608360
:1022B00042839F5F3396F6CF08950F931F93CF937A
:1022C000DF9300D00F92CDB7DEB78C0180913D0334
:1022D00081110AC09E012F5F3F4F4FEF6FEF0E94A9
:1022E000BD068A8180933D03F8016481613069F005
:1022F00080913D0340E0662361F040E0623011F4DC
:1023000040913D0380E060E004C060913D0340E007
:1023100080E00E944411F801848190E0019663E01E
:1023200070E00E94212C84830F900F900F90DF911A
:10233000CF911F910F9108959F92AF92BF92CF922C
:10234000DF92EF92FF920F931F93CF93DF937C0165
:102350005B016A018091850201E010E08A3010F48F
:102360000AE010E0C1E0D0E0F894B501C701F60141
:102370000995982E0E946907911004C021960C17A8
:102380001D076CF4892DDF91CF911F910F91FF9064
:10239000EF90DF90CF90BF90AF909F900895CC9F2B
:1023A0009001CD9F300D300D112490E080E045E389
:1023B0004A95F1F70000019682179307C1F7D4CF31
:1023C00080912002811118C082E39091E30097FD73
:1023D00010C0EFE3FCE93197F1F700C00000815035
:1023E000A1F782E0809320020E94EB04109259032F
:1023F00003C081E08093200281E09091200291301F
:1024000011F080E0089508950E94E011882351F0B2
:10241000E0914403F0914503309721F00190F08161
:10242000E02D099480E008950F931F930E94E0111E
:10243000882321F01F910F910C947B060E947B064C
:1024400000918602109187022091880230918902C2
:10245000600F711F821F931F1F910F91089580912C
:10246000DC0281112BC086EF25982D9A90B38F70D6
:1024700021E030E001C0220F8A95EAF7892F822BF4
:1024800080BB81B3322F3095832381BB85E08A9551
:10249000F1F7000083B190B3932390BB91B3292B44
:1024A00021BB90EA9A95F1F790E025E09595879504
:1024B0002A95E1F7809590958170089587EFD4CFA4
:1024C000CF92DF92EF92FF926B017C010E94AE06E9
:1024D000B701A60188E090E0FF90EF90DF90CF90E9
:1024E0000C948D2CEF92FF920F931F93CF93DF9359
:1024F00000D00F92CDB7DEB7F82E062F142FE22EA4
:102500008091350380FF39C0E82FE695F0E0E6556D
:10251000FE4F908190933A038E7F823059F49E0152
:102520002F5F3F4F8F2D0E94BD064B8169818A81AD
:102530000E944411809136038F1108C080913703A7
:10254000801304C080913803811729F080913C03E7
:10255000826080933C03F09236030093370310931C
:102560003803EE2051F0609135037091360380916D
:102570003703909138030E9460120F900F900F90D4
:10258000DF91CF911F910F91FF90EF900895E5E3B8
:10259000F3E0438121E1421B08F440E021E0628145
:1025A00081810C947212E5E3F3E0438121E1420F53
:1025B00008F44FEF21E0628181810C947212E5E30F
:1025C000F3E0628121E1621B08F460E021E04381D5
:1025D00081810C947212E5E3F3E0628121E1620FE4
:1025E00008F46FEF21E0438181810C947212E5E3DE
:1025F000F3E0818121E04381628181510C94721268
:10260000E5E3F3E0818121E0438162818F5E0C94F8
:10261000721280913903882319F081508093390315
:1026200060913503709136038091370390913803A0
:102630000C94601280913903833018F48F5F80937B
:10264000390360913503709136038091370390917F
:1026500038030C946012E5E3F3E083E08083118299
:102660008FEF828383831482AAE3B3E012968C9166
:102670001297836012968C9360817181828193811D
:102680000C946012EF92FF920F931F93CF93DF93FE
:102690007901C82F880FDD0B41155105A9F08AE09B
:1026A0008C9FF0018D9FF00D1124EF5FFE4F838111
:1026B00094818F5D9D4F228130E04217530708F4CB
:1026C0009A01A9010E945E2CCE010E943F2B892B0A
:1026D00011F501151105E9F08AE08C9FF0018D9F3D
:1026E000F00D1124EF5FFE4F458150E004171507F0
:1026F00008F4A8018AE08C9FF0018D9FF00D112451
:10270000EF5FFE4F668177816F5D7D4FC7010E944D
:102710005E2C81E001C080E0DF91CF911F910F918D
:10272000FF90EF900895AF92BF92CF92DF92EF9219
:10273000FF920F931F93CF93DF9300D000D0CDB7BC
:10274000DEB78C83E62E5A01F22E68018091850255
:102750008A3080F080E00F900F900F900F90DF9103
:10276000CF911F910F91FF90EF90DF90CF90BF908E
:10277000AF9008958C8188306CF389836A832B83B2
:102780006093350120934C0110E000E030E020E040
:1027900043E050E0BE016F5F7F4F84E00E94421330
:1027A0008823C1F24E2D50E030E020E0B50185E0F5
:1027B0000E944213882371F230E020E041E050E0B3
:1027C000BE016C5F7F4F86E00E944213882311F2A6
:1027D0000F2D10E0960150E040E070E060E087E0EF
:1027E0000E944213B8CF0F931F93CF93DF93CDB7BF
:1027F000DEB728970FB6F894DEBF0FBECDBF85E0D9
:10280000E5E3F3E0DE01119601900D928A95E1F780
:1028100080913A0390913B03A0913C038E839F8368
:10282000A88728854091810250918202609183029D
:10283000709184023FB7F8948091470390914803C8
:10284000A0914903B0914A033FBF841B950BA60B8F
:10285000B70B84369105A105B10510F42223C1F010
:1028600010E000E030E020E048E050E0BE016F5FA3
:102870007F4F83E00E944213882369F00E947B0609
:10288000609381027093820280938302909384020A
:1028900010923C0381E028960FB6F894DEBF0FBE7D
:1028A000CDBFDF91CF911F910F9108950F931F938B
:1028B000CF93DF9300D000D0CDB7DEB740917D023B
:1028C00050917E0260917F02709180022FB7F89440
:1028D0008091470390914803A0914903B0914A0326
:1028E0002FBF841B950BA60BB70B11E08436910507
:1028F000A105B10518F10E9414126E5F7F4F8F4F32
:102900009F4F69837A838B839C8310E000E030E0E3
:1029100020E044E050E0BE016F5F7F4F82E00E9404
:102920004213182F882351F00E947B0660937D028A
:1029300070937E0280937F0290938002812F0F908C
:102940000F900F900F90DF91CF911F910F910895ED
:10295000EF92FF920F931F93CF93DF9300D000D09D
:102960000F92CDB7DEB77B0101E010E09E012B5F37
:102970003F4F50E040E070E060E080E00E94421392
:10298000182F882309F452C04091790250917A029D
:1029900060917B0270917C022FB7F894809147037D
:1029A00090914803A0914903B0914A032FBF841B23
:1029B000950BA60BB70B84369105A105B10538F42C
:1029C00082E292E00E94D4049D81891779F104E0AB
:1029D00010E09E012F5F3F4F50E040E070E060E06C
:1029E00081E00E944213082F82E292E00E94D40408
:1029F00011E09D81981310E0102331F10E947B06B5
:102A00006093790270937A0280937B0290937C02A8
:102A100089819A81AB81BC81809375029093760203
:102A2000A0937702B093780211E00EC08091220249
:102A300090912302A0912402B091250289839A8368
:102A4000AB83BC831111E4CF809175029091760223
:102A5000A0917702B0917802F70180839183A283DD
:102A6000B383812F0F900F900F900F900F90DF91F5
:102A7000CF911F910F91FF90EF90089569EE7EEF37
:102A800090E080E00E94992C60E082E090E00E945B
:102A90007B2C60E083E090E00E947B2C109215027A
:102AA00060E084E090E00E947B2C60E082E290E0B5
:102AB0000E947B2C60E085E090E00E947B2C60E02F
:102AC00086E090E00E947B2C6FEF87E090E00E9410
:102AD0007B2C40E050E0BA0188E090E00E948D2C11
:102AE00060E08DE090E00E947B2C40E050E0BA0175
:102AF00088E190E00E948D2C60E087E190E00E94E8
:102B00007B2C40E050E0BA018CE190E00E948D2CDB
:102B100070E060E080E290E00E94992C40E050E09C
:102B2000BA0188E190E00E948D2C40E050E0BA01AB
:102B30008FE090E00E948D2C40E050E0BA0183E1EC
:102B400090E00C948D2CCF93C0918C02C2FB9927FE
:102B500090F9981799F080FBC2F9C0938C026091AC
:102B60008B0284E090E00E947B2C6C2F82E290E04C
:102B70000E947B2C82E0CF910C94590ACF9108954A
:102B800030E020E043E060E086E30C94F827CF9249
:102B9000DF92EF92FF920F931F93CF93DF93CDB706
:102BA000DEB72C970FB6F894DEBF0FBECDBF4F83B4
:102BB000588769877A878B879C878091DC02882376
:102BC00099F00E94C01580E50E9470282AEB2A9592
:102BD000F1F700C00E9488288878992780389105ED
:102BE00009F48FC00E94A0280E94E011882309F4F4
:102BF00068C00E947B060091BE011091BF01209128
:102C0000C0013091C1016B017C01C01AD10AE20AF6
:102C1000F30A97018601083011052105310508F4F2
:102C200050C06093BE017093BF018093C001909328
:102C3000C1010091EB021091EC022091ED02309164
:102C4000EE02601B710B820B930B623371058105E1
:102C5000910580F41092E0021092DF021092E202DD
:102C60001092E1021092E4021092E3021092E60246
:102C70001092E5021091E9020E942F12112309F42B
:102C80006EC0BE01695F7F4F8FED92E00E94500BD6
:102C90000091E9021091DC020E942F12011709F441
:102CA00088C0BE01695F7F4F83EE92E00E94500BA7
:102CB00086E0FE013796A3EFB2E001900D928A956F
:102CC000E1F786E0FE013796DE01119601900D9244
:102CD0008A95E1F729813A814B815C816D817E8102
:102CE00080E090E02C960FB6F894DEBF0FBECDBF0B
:102CF000DF91CF911F910F91FF90EF90DF90CF90D8
:102D000008950E9488280E9488287C010E948828B3
:102D100020E0E22AF82A0E9488288C010E94882854
:102D200020E0022B182B0E94A028F894B701809174
:102D3000DF029091E0020E94DC0B9093E00280930E
:102D4000DF02B8018091E1029091E2020E94DC0B67
:102D50009093E2028093E1020E94690745CF80913F
:102D6000DF029091E00281382FEF9207D4F0803893
:102D70009105CCF489878091E1029091E20281383B
:102D80002FEF920794F0803891058CF481958A8713
:102D90001092E0021092DF021092E2021092E10221
:102DA00077CF81E8E7CF8FE7E5CF81E8EFCF8FE7F7
:102DB000EDCF8091E3029091E40281382FEF9207EA
:102DC000D4F080389105CCF489878091E502909108
:102DD000E60281382FEF920794F0803891058CF449
:102DE00081958A871092E4021092E3021092E60223
:102DF0001092E5025DCF81E8E7CF8FE7E5CF81E86C
:102E0000EFCF8FE7EDCFCF93DF93D82FC62F0E9460
:102E1000C0158D2F80680E9470288C2F0E9470280A
:102E20000E94A0288FEC92E00197F1F700C000000B
:102E3000DF91CF910895682F893708F068E7609394
:102E4000E70291E09093E8029091DC02992359F017
:102E50006150811101C064E08FE00E94031760E0BF
:102E600080E50C9403170895FB0180810C941B17D7
:102E70009091E702911101C095E0282F880F330B44
:102E8000A901490F511DCA011816190614F081E055
:102E900090E00C941B17CF93C82F0E94C0158C2F65
:102EA0000E9470288FE792E00197F1F700C00000C0
:102EB0000E948828C82F0E94A0289AE69A95F1F7C8
:102EC00000C08C2FCF910895CF93DF930E94F027FD
:102ED000269A0E94C0156AE58AE30E9403172FEF25
:102EE00080E792E0215080409040E1F700C0000070
:102EF00082E00E944B1783E00E944B1784E00E94FF
:102F00004B1785E00E944B1786E00E944B1760E04C
:102F100080E10E94031780E00E944B17D82F81E0C8
:102F20000E944B17C82F0E94A028D23419F481E0C8
:102F3000C13009F080E081708093DC02882351F079
:102F400064E08FE00E94031760E080E5DF91CF919D
:102F50000C940317DF91CF9108951F920F920FB633
:102F60000F9211242F933F934F935F936F937F930F
:102F70008F939F93AF93BF93CF93DF93EF93FF9381
:102F8000D091E900DF708091EC00C82FC17080FD06
:102F9000C0E81092E9008091F000877F8093F000F4
:102FA00078940E94FC0B1092E9008091F0008860F8
:102FB0008093F000CD2BCF70C093E900FF91EF918B
:102FC000DF91CF91BF91AF919F918F917F916F9141
:102FD0005F914F913F912F910F900FBE0F901F90D7
:102FE00018951F920F920FB60F9211242F933F93B3
:102FF0004F935F936F937F938F939F93AF93BF9301
:10300000EF93FF938091E10082FF09C08091E2007D
:1030100082FF05C08091E1008B7F8093E100809169
:10302000DA0080FF24C08091D80080FF20C080910A
:10303000DA008E7F8093DA008091D90080FF9DC0F6
:1030400080E189BD82E189BD09B400FEFDCF81E048
:103050008093590380914B03811109C00E94EB04B6
:103060000E94B6058091E20084608093E200809126
:10307000E10080FF17C08091E20080FF13C08091C3
:10308000E2008E7F8093E2008091E2008061809375
:10309000E2008091D80080628093D80019BC85E05E
:1030A000809359038091E10084FF2BC08091E2005E
:1030B00084FF27C080E189BD82E189BD89B5982F51
:1030C000917080FFFBCF8091D8008F7D8093D800D6
:1030D0008091E1008F7E8093E1008091E2008F7EFD
:1030E0008093E2008091E20081608093E200809111
:1030F0005A03882309F447C084E0809359038091E0
:1031000059038091E10083FF27C08091E20083FF93
:1031100023C08091E100877F8093E10082E080936B
:10312000590310925A038091E1008E7F8093E10051
:103130008091E2008E7F8093E2008091E2008061C6
:103140008093E20042E060E080E00E94840580918C
:10315000F00088608093F000FF91EF91BF91AF91F4
:103160009F918F917F916F915F914F913F912F919F
:103170000F900FBE0F901F90189519BC1092590315
:1031800010924B0374CF8091E30087FD93E09093FE
:103190005903B5CF78941F921FB61F9211248F93B5
:1031A0009F93AF93BF938091470390914803A09161
:1031B0004903B0914A030196A11DB11D80934703B5
:1031C00090934803A0934903B0934A03BF91AF91F2
:1031D0009F918F911F901FBE1F9018959C014FB714
:1031E000F8948091470390914803A0914903B091CE
:1031F0004A034FBF821B930B08952FB7F894809119
:10320000470390914803A0914903B0914A032FBF0F
:1032100008950E94E01181110C94FD180E9414126F
:10322000CB01089560913503669570E041E050E070
:103230008FE891E00E94442C892B19F481E080935F
:103240003B030E9409199093300380932F038091D0
:103250003C03846080933C0308959091350390FF74
:103260003BC0917081112EC0926090933503809184
:103270003C03816080933C03662351F060913503E9
:103280007091360380913703909138030E94601249
:1032900060913503669570E041E050E08FE891E081
:1032A0000E94442C892BA9F00E94A70681E08093FC
:1032B000320320E040913803609137038091360358
:1032C0000C947212833010F09460CFCF880F982B3B
:1032D000CCCF0E941219EACF0895809135038695CC
:1032E000815009F482E061E00C942D19809135033E
:1032F00086958F5F833008F081E061E00C942D1992
:103300008F929F92AF92BF92CF92DF92EF92FF92F5
:103310000F931F93CF93DF93CDB7DEB762970FB6AE
:10332000F894DEBF0FBECDBF7C01FC018381948188
:10333000892B39F01081D180812F8D218F3F09F0A9
:1033400023C462960FB6F894DEBF0FBECDBFDF91E7
:10335000CF911F910F91FF90EF90DF90CF90BF9092
:10336000AF909F908F9008950E949109082F682F29
:1033700089819A810E94170AE12FF0E026E0D29E0F
:10338000E00DF11D112430E3039FE00DF11D112428
:10339000EE0FFF1FE455FF4F259134913093F0025B
:1033A0002093EF02F701808191819093F202809344
:1033B000F102213F310540F0293F3105A8F02D3AB7
:1033C000FDE53F0709F468C0F7018281882309F40D
:1033D000ECC3F901E65AFD45EA30F10508F09BC05F
:1033E000E753F34D0C94352C215F310981E090E0D7
:1033F00001C0880F2A95EAF7328126E0EFEFF2E06C
:10340000DE01179601900D922A95E1F726E0FE0164
:103410003796DE011D9601900D922A95E1F72885D9
:103420003323B9F1822B8E8786E0FE013D96DE01C3
:10343000119601900D928A95E1F786E0FE01319692
:10344000AFEFB2E001900D928A95E1F78091110201
:10345000877009F476CFF7018281882309F471CF50
:1034600080918C0282FD6DCF82E062960FB6F89457
:10347000DEBF0FBECDBFDF91CF911F910F91FF90A7
:10348000EF90DF90CF90BF90AF909F908F900C9473
:10349000590A80958223C7CFF70182810E949D0B34
:1034A000D5CF80E00E941B171092EA02CFCF409147
:1034B000E7025091EA0250FB47F95695537060E0DD
:1034C00070E08FE090E00E948D2CC0CF81E00E94E0
:1034D0003817BCCF8FEFFBCF8AE0F9CF86EFF7CF5D
:1034E0009091E90281E08927D9CF8091EA02811188
:1034F00001C084E08F5F18160CF081E0883008F07E
:1035000087E08093EA02A2CF8091EA02811101C094
:1035100084E08150F0CF2631FCE53F0709F00EC171
:1035200080914C038A7A91E009F490E09093C20173
:1035300069E2811165E380EB91E00E9487060E94B9
:103540005A0984CF85E33BC380914C0382722A3CA5
:103550009CE5390709F4E7C008F080C0263CFCE58B
:103560003F0709F4DBC008F063C0243CECE53E07EC
:1035700009F4C8C008F0CDC0233C3C4509F496C00E
:10358000F701828110810181882309F41CC1812FF8
:10359000902F0E949109D82E682F812F902F0E9482
:1035A000170AE12FF0E026E0029FE00DF11D112443
:1035B00030E3D39EE00DF11D1124EE0FFF1FE45503
:1035C000FF4F859194910E94E7078C01882EF701A7
:1035D000C280B580B2945FE0B522809111028770FD
:1035E000C1F0AC2CCC20B1F0812F807F803421F051
:1035F00080E2800F883068F080918C0282FD09C0E3
:1036000082E00E94590A809111028770AA24A39433
:103610008111A12C912E92943FE09322FBE0F915A9
:1036200008F43FC1E92DF0E0ED52F34D0C94352C38
:103630004FED52E16BEE72E1283C9CE5390709F44D
:1036400065C040E053E167EF72E1293C3C4508F476
:103650005DC04BEE52E16FED72E158C02E3CFCE5CF
:103660003F0709F465C0B0F449E053E16AE173E152
:103670002C3CECE53E0709F449C043ED52E167EC10
:1036800072E12D3C3C4508F441C04AE153E169E058
:1036900073E13CC0263D8CE5380709F44CC008F4C2
:1036A000D5CE2E353D4509F4D1CE6ACF8091350374
:1036B00080FF20C08E7F8093350360913503709129
:1036C000360380913703909138030E9460120E9464
:1036D000A70680913C03816080933C03FFEF20E7C5
:1036E00032E0F15020403040E1F700C000000E947D
:1036F000F910ACCE81608093350361E086950E941D
:103700002D19A4CE4DE659E166E779E10E94A106A4
:103710009DCE46E759E16DE679E1F8CF47EF52E1FA
:1037200060E073E1F3CF47EC52E163ED72E1EECF7D
:1037300061E081E0E4CF61E082E0E1CF2B358DE50F
:10374000380709F43CC058F42115ECE53E07C9F0F0
:103750002F3D3C4509F014CF0E943E1577CE2C3505
:103760008DE5380771F12D353D4509F009CF809180
:103770008C0282FB882780F991E089270E94A3159B
:10378000FFCE10924C030E94EF0BEFEFF4E32CE01E
:10379000E150F0402040E1F700C0000087E797E7E4
:1037A000909301088093000888E19AE00FB6F8949E
:1037B000A895809360000FBE90936000FFCF81E0DA
:1037C000DDCF80E0DBCF812F902F0E94EE09D82E35
:1037D000E8CE212F2F70D22E107F19F0D29420EF37
:1037E000D222CC20B9F0DD2069F080E2800F883051
:1037F00010F0811009C080914C03D82AD0924C035C
:103800000E945A09802F4BC080911302D82AD0926F
:103810001302F6CF802F0E94C00ADD2009F441C0B8
:10382000005E083010F0811004C08D2D0E945309F5
:1038300006C0D09480911302D822D09213020E9425
:103840005A092FC0312F3F70D32E107F103219F03C
:10385000D29490EFD922882089F081E0881609F46B
:1038600088C0CC2009F492C0BB2009F488C0F701BD
:10387000858180FFC7CF8F70858381C020918C02A6
:1038800022FF54C0CC2009F44AC0DD2039F08091D9
:103890004C03D82AD0924C030E945A0980E00E941F
:1038A000160BE92DE850FF0B349710F40E94041218
:1038B000AA20A9F08091110280FD11C0F7011282A7
:1038C0008595859585950E94750AC7010E94801986
:1038D000809111028595859585950E944D0A85E018
:1038E000F701DE01119601900D928A95E1F7898129
:1038F0009A810E94EE099A81E981F0E026E0929F88
:10390000E00DF11D112430E3839FE00DF11D112422
:10391000EE0FFF1FE455FF4F8591949112CD80E08B
:103920000E94C00ADD2009F4BCCF7FCFCC20A1F0DB
:10393000909114028D2D892BB11003C00E94B60AFC
:10394000B0CFE1E0BE12FACF22FDABCF891709F468
:10395000A8CF80931402A5CFB11006C00E944D09D4
:103960008D2D0E94AF0A9DCFF1E0BF1609F499CFCB
:10397000F5CFCC2031F025E02B1508F492CF8D2D1A
:10398000DDCF34E03B1508F48CCFEACFBB2041F308
:10399000F9E38F12F2C02FEF37EE83E02150304071
:1039A0008040E1F700C00000E8C0812F837089F5F6
:1039B000C11077CF402F429546954770440F440F72
:1039C000802F8F70042E01C0880F0A94EAF7202FF1
:1039D000207104FF07C02FE030E001C0220F4A959C
:1039E000EAF72095169516951370123069F050F489
:1039F00030911502113029F0822B83230E94800A16
:103A000050CF832B822BFACF282B8091150282274F
:103A1000F5CF8695CC2011F0812F8170882309F491
:103A200040CF402F429546954770440F440F802F5A
:103A30008F70042E01C0880F0A94EAF7202F20719E
:103A400004FF07C02FE030E001C0220F4A95EAF7DB
:103A50002095169516951370123069F050F4309138
:103A60008A02113029F0822B83230E94450A19CF44
:103A7000832B822BFACF282B80918A028227F5CFC5
:103A80001F70CC2029F0812F0E94750A802F56CFFD
:103A9000802F0E94AF0A812F0E944D0A02CF802FF3
:103AA00092EF8916A9F1981570F0E0EF8E16D1F01B
:103AB000F1EF8F1691F0CC2009F45AC0B110A2CECC
:103AC000812F8F7129C023EF821649F134EF8312C1
:103AD000F2CF80918C0282FF2DC0812F8F71CC207C
:103AE000D9F21AC0CC2079F084E08B1508F4D9CE35
:103AF0001F7181E090E001C0880F1A95EAF790915C
:103B00008A028927B2CF95E09B1508F4CACEF0CF80
:103B1000812F8F71C110C0CF0E94750AC2CE80E084
:103B2000CC2009F4A2CF1F7181E001C0880F1A9543
:103B3000EAF79BCFCC2089F01F71812F0E94750A74
:103B400080918C0282FD07C0E8E01E9FC001112415
:103B5000836080931102812FDFCF81E00E94590A98
:103B6000F1E0FB1508F09DCE82E00E94590A99CE43
:103B7000BB2039F0893309F40ECF802F0E94C00A90
:103B800090CE812F8F7188CF85E0DE011196019054
:103B90000D928A95E1F7F701228189819A8121119D
:103BA000E3CB0E94EE09082FE7CB2631FCE53F0767
:103BB00009F0CACC8091C2018111C4CC89E2E2EB48
:103BC000F1E028EB31E09191891303C0DF011197F7
:103BD0001C922E173F07B9F7B2CC1F93CF93DF93F8
:103BE0008091DE01807FA9F48091DB01882389F038
:103BF00080911002D091DF016091D9017091DA01BA
:103C0000A091DC01B091DD01C62FC72316E0D813C7
:103C100004C0DF91CF911F91089590E0109711F0AB
:103C2000CF3F19F401968770F2CF189F9001199F2A
:103C3000300D1124F901E052FE4F41814713F2CFBC
:103C400040814613EFCF42814111ECCF4381548133
:103C50004A1B5B0B483C510528F78091DE018F70B1
:103C600080618093DE01F901EB51FE4F80818F70FE
:103C70008061808389ED91E00E948019DF91CF916E
:103C80001F910C948709AF92BF92CF92DF92EF926F
:103C9000FF920F931F93CF93DF93CDB7DEB761975A
:103CA0000FB6F894DEBF0FBECDBF8C0185E0F801E2
:103CB000DE011D9601900D928A95E1F7F801E280F0
:103CC00089EDA82E81E0B82E6091DC017091DD01B4
:103CD0006115710509F432C19091D9014091DA0161
:103CE000892F84238F3F09F429C120813181C3802A
:103CF000D480F090DB01F601E61BF70BFF2009F4FE
:103D0000E8C08091DE01582F507FE83CF10508F0B3
:103D1000ABC0511177C0FE2C431321C092131FC0BA
:103D2000E1101DC08F7080618093DE01C5010E948B
:103D300080198091DE01F80185838F2D61960FB681
:103D4000F894DEBF0FBECDBFDF91CF911F910F91D1
:103D5000FF90EF90DF90CF90BF90AF900895CD2867
:103D600029F0822F83238F3F09F003C180E0F82FD1
:103D7000F170DF2E80FF3CC0809110024091DF0186
:103D800056E0841315C02D873E878D859E850E9441
:103D9000D309292F22952F702230F0F0243018F506
:103DA0009F70F1F0F8019581907FD1F4D12C1EC065
:103DB00090E0589FF001599FF00D1124E052FE4F02
:103DC0006181361306C06081261303C06281E6124A
:103DD0000FC001968770D5CF9F7011F0882331F303
:103DE000805E883018F3C8010E948019FD2CA5CF91
:103DF000EE2009F4A2CF8091DE0181608093DE0184
:103E0000F12C9BCF431306C0921304C0F801EE209F
:103E100009F479C0C8010E94880A882309F1EE20BC
:103E2000F9F08091DE01803270F02091D90130915B
:103E3000DA0138872F831986DB86CA868C87CE0104
:103E400007960E94801986E0F801A9EDB1E0019083
:103E50000D928A95E1F70E94ED1DFF24F3946DCF3A
:103E6000C8010E948019F9CF51110AC089ED91E073
:103E70000E94801986E0F50111928A95E9F7C0CF7A
:103E800043130FC092130DC0E1100BC0F8018583DE
:103E9000C8010E94801986E0F50111928A95E9F720
:103EA0004CCFC8010E94880A8823D1F2EE20C1F2CB
:103EB0008091DE01803238F22091D9013091DA010F
:103EC0003A8329831B82DD82CC828E83CE010196C8
:103ED000B8CFE83CF105F8F6FE2CEE2009F24313CA
:103EE0001FC092131DC08091DE0180FD10C0982F6D
:103EF000907F69F0F8018583903F31F0982F907F93
:103F0000905F8F70892B8583C8010E94801986E09D
:103F1000F801A9EDB1E001900D928A95E1F70DCF7E
:103F2000C8010E94880A81118ECF8091DE018160D4
:103F30008093DE01C8010E948019FFCEEE2009F4B3
:103F40008FCFC8010E94880AF82E882309F488CFF1
:103F500086E0F801A9EDB1E001900D928A95E1F7B4
:103F60008091D9019091DA010E94D3090E94ED1D40
:103F7000E4CE81E08E25FBCE1F93CF93DF93CDB7A8
:103F8000DEB767970FB6F894DEBF0FBECDBF4B8B81
:103F90005C8B6D8B7E8B8F8B6111109213021A8A52
:103FA000198A85E0FE017396DE011D9601900D923F
:103FB0008A95E1F786E0FE013D96DE0117960190B5
:103FC0000D928A95E1F7CE0107960E94431E882341
:103FD00089F016E0809110029091DF0189134BC0A7
:103FE00067960FB6F894DEBF0FBECDBFDF91CF91BD
:103FF0001F91089586E0FE013796DE01119601902B
:104000000D928A95E1F78A859B85892B11F38F8123
:10401000988589238F3FE9F22091DF0130E0C901C3
:10402000019687709927409110024817190681F46C
:1040300010924C030E94EF0B1092DF0110921002BD
:1040400086E0E9EDF1E0DF011D928A95E9F7C1CF45
:1040500096E0929FD001939FB00D1124A052BE4FC5
:10406000FE01319601900D929A95E1F78093DF0160
:104070000E948709AECF819FC001112480529E4FBC
:104080000E94431E882309F4ABCF8091100290E078
:10409000019687709927809310029CCF7F928F9210
:1040A0009F92AF92BF92CF92DF92EF92FF920F93C7
:1040B0001F93CF93DF93CDB7DEB72C970FB6F8944D
:1040C000DEBF0FBECDBF8E010F5F1F4F88E0D8014E
:1040D0001D928A95E9F784E9C82E81E0D82EF12C4B
:1040E000E12CAA24A394B12C22EA822E21E0922E64
:1040F000F60181916F018F3F09F443C0F894E82FD6
:10410000E295EF70F0E021A18F70A50102C0440F8D
:10411000551F8A95E2F7CA01922F982B91A392A17D
:104120008095892382A30E94690700C0ECE9F1E031
:10413000712C31E021912F3F09F47DC0A22FA2956F
:10414000AF70B0E090968C9190E02F7002C0959582
:1041500087952A95E2F780FD6EC0832F782A330F6A
:104160008E169F0639F7F601319780818F3F11F047
:104170000E948D0750EA5A95F1F7F801EE0DFF1DE8
:1041800070828FEFE81AF80A94E0E916F10409F05A
:10419000AFCF48E050E0B8018DE892E00E94512C8A
:1041A0007C01892B41F088E0F801ADE8B2E0019094
:1041B0000D928A95E1F710919602E114F104E9F16C
:1041C00081E0809318020E94FD189093170280935B
:1041D000160280911602909117020E94EE18059720
:1041E00090F0E12FF0E0E856FD4F80918D02808342
:1041F00080918E02818380918F02828380919002D0
:1042000083831092180281E090E0EF28D1F02C9681
:104210000FB6F894DEBF0FBECDBFDF91CF911F91D7
:104220000F91FF90EF90DF90CF90BF90AF909F9055
:104230008F907F90089580E091CF80911802811136
:10424000C8CF0E94E011F82EE0919602882309F46D
:1042500076C019861A861B861C860E2F10E008561B
:104260001D4F809185028A30A0F548EA54E1BE01D5
:10427000675F7F4FC8010E949C118823C9F146E502
:1042800054E1BE01675F7F4FC8010E949C118823E3
:1042900079F143EF53E1BE01675F7F4FC8010E9490
:1042A0009C11882329F1109285028091950290E05B
:1042B00044E050E0BE01675F7F4F88569D4F0E94EB
:1042C000512C21E020931F02892B59F5F12C8F2DC1
:1042D0009ECF8091190290911A020E94EE18843F9D
:1042E000914018F680911F02811112C080E08FCF9B
:1042F000809185028F3F29F08F5F809385028A30FD
:10430000A0F20E94FD1890931A0280931902EACF3E
:10431000FE01399684E0DF011D928A95E9F710923B
:104320001F02E0919502F0E0E856FD4F89859A85DD
:10433000AB85BC8580839183A283B383C8CFF0E033
:10434000E856FD4FF89484E0A2E2B2E001900D92AD
:104350008A95E1F782E292E00E94D40480932102E0
:104360000E946907F894C0902602D0902702E0903E
:104370002802F090290280911B0290911C02A091CA
:104380001D02B0911E02C816D906EA06FB06D1F03E
:10439000C0921B02D0921C02E0921D02F0921E02FB
:1043A0000E94E01181110EC00E947B06C61AD70A36
:1043B000E80AF90AC0928602D0928702E092880247
:1043C000F09289020E946907F89480913102882353
:1043D00079F180FF0DC080912A029091350380FF12
:1043E0002AC091609093350360E086950E942D1954
:1043F0008091310281FF09C020E040912D0260913F
:104400002C0280912B020E9472128091310282FF55
:1044100006C080913002882321F10E9412198091F8
:10442000310283FF03C081E0809332031092310296
:104430000E9469075BCF9E7F909335030E94A70679
:1044400080913C03816080933C03BFEFE0E7F2E0A2
:10445000B150E040F040E1F700C000000E94F910C8
:10446000C7CF0E94A706DBCF1F921FB61F92112451
:104470008F939F93AF93BF9380914603811113C095
:104480008091470390914803A0914903B0914A035A
:104490004196A11DB11D8093470390934803A093BB
:1044A0004903B0934A03BF91AF919F918F911F90A1
:1044B0001FBE1F901895CDB7DEB760970FB6F89462
:1044C000DEBF0FBECDBF84B7877F84BF0FB6F89421
:1044D000A8958091600088618093600010926000D0
:1044E0000FBE80E890E00FB6F8948093610090933F
:1044F00061000FBE85B7806885BF85B7806885BFBE
:1045000087E697E09093AF018093AE010E94EB04A1
:104510000E94B6058091E20084608093E200789466
:10452000809159038823A1F01091E9001F709091A8
:10453000EC00892F817090FD80E8182B1092E90023
:104540008091E80083FD0E94FC0B1F701093E9002E
:1045500082E084BD93E095BD9AEF97BD80936E0095
:10456000109286021092870210928802109289029D
:104570000E942F128093000180910001882309F48A
:1045800020C310928A0187E080938B010E94E01182
:1045900081110E94322A809100018091000194E0F3
:1045A000811190E09093960284E0891B809395029C
:1045B00084EF0E948D0785EF0E948D0786EF0E9491
:1045C0008D0787EF0E948D070CE911E0D8018D91CE
:1045D0008D018F3F11F00E948D07B1E0023A1B0759
:1045E000A9F788E0E8E9F2E0DF01C82E1D92CA943D
:1045F000E9F7EDE8F2E0DF011D928A95E9F790E036
:1046000080E00E94752C893E9E4F11F00E943E155D
:1046100082E090E00E94672C8093C80284E090E0E2
:104620000E94672C182F82E290E00E94672C982F3E
:10463000812F90938C0280938B0283E090E00E9404
:10464000672C0E94800A0E94E011811102C00E9422
:10465000352A0E94E011882309F4B7C280E08093D4
:10466000C30280E8809363030E94CA286DE070E073
:104670008FE191E00E943810892BE9F58091C30207
:1046800063E070E081FDA3C28CE191E00E943810EC
:10469000892B89F56DE070E08CE091E00E94381084
:1046A000892B49F50E947B06605A75418F4F9F4FB9
:1046B00060933E0370933F038093400390934103C4
:1046C000E6E6F3E080E092E0DF019C011D922150DC
:1046D0003040E1F7F0936D05E0936C058FEF9FEFAD
:1046E000909365038093640381E0809343038093F8
:1046F00042031092C4028091970281113BC090E066
:1047000080E00E94752C893E9E4F21F00E943E154C
:104710000E942B1388E090E00E946F2C6093350379
:1047200070933603809337039093380380913C0352
:10473000836080933C036E7F71F40E942B1388E0AA
:1047400090E00E946F2C6093350370933603809342
:104750003703909338030E94AE060E94A70680910B
:10476000350380FF04C060E086950E942D1981E02A
:10477000809397020E9464170E94E01181112EC05D
:104780008AEB9EE090935A018093590124E130E036
:10479000309355012093540184E390E090935801A5
:1047A0008093570143E557E05093640140936301C0
:1047B00030935F0120935E019093620180936101C9
:1047C00044E357E150936E0140936D0130936901CA
:1047D0002093680190936C0180936B0190E080E0DE
:1047E0000E94752C893E9E4F89F48FE090E00E94D4
:1047F0006F2C8B01862F8F770E941B17001F0027BD
:10480000001F1370110F102B1093EA0280913503D3
:1048100081608093350360E086950E942D1960E0E9
:1048200082E00E942D198FE691E0909345038093DA
:10483000440378E1872E912C8091590312E1853051
:1048400009F406C20E944E20D82E81110E947B06D8
:1048500028E932E0A2E8B1E049EC52E010E000E0E3
:10486000B02EF901F1909F018D91F822FA0181910A
:10487000AF018F1509F4FDC18F25C12CEE24E394FF
:10488000982F9E2109F4F0C10E94E011882399F02D
:10489000C982BA82FE2081E009F480E08B830E9405
:1048A000FD188160782F9D838C8349815A816B81AB
:1048B0008D810E94BC1FF801E753FD4F8081E826DF
:1048C000E08280913B03882309F467C090913A030A
:1048D000809135038695891B8093310300ED17E0A5
:1048E00056EAE52E56E0F52E923041F4ECE2F1E086
:1048F000059114916DE5E62E61E1F62E809132036B
:10490000882361F0109232030E94091990933003BA
:1049100080932F0310923403109233030E940919DD
:1049200020912F0330913003AC01421B530B4F3FBA
:104930005F4798F54091A2024423B1F01092A20281
:104940004091A0025091A102841B950B8F3F9F477D
:1049500058F4405D5A485093A1024093A0028091C0
:104960003C03886080933C03A0903303B0903403F1
:10497000020F131F1093300300932F038FE293E075
:10498000F70109958091330390913403892B29F421
:10499000AB2819F081E08093A20280914303882321
:1049A00051F18091C5029091C6020E94EE18C29703
:1049B00008F076C12091640330916503211531051B
:1049C00009F020C2809142038823A9F00E947B064F
:1049D00000913E0310913F03209140033091410329
:1049E000601B710B820B930B6F3F7F4F8F4F9F4765
:1049F00010F40E946810D1100E9483100E94800F52
:104A00000E9404129091C702891721F00E9404129B
:104A10008093C7020E94E011882309F40DCF0E9401
:104A20007B062091D702211167C00091D30210911B
:104A3000D4022091D5023091D6026B017C01C01ABC
:104A4000D10AE20AF30A97018601043F11402105C9
:104A5000310508F451C06093D3027093D40280935F
:104A6000D5029093D6028091D1029091D202019604
:104A70009093D2028093D1021B868E01055F1F4F57
:104A800021E050E040E060E088E00E949313811153
:104A900006C08091D1029091D2020A976CF181E018
:104AA0008093D7028093DD029B85911101C080E045
:104AB0008093DE020E942F1226E030E0882311F05E
:104AC00022E030E0E091DC0291E0E9272E573E4FF2
:104AD000E20FF32FF11D9FE39083811165C282E005
:104AE00090E0E091DE0221E0E2278E579E4FE80F32
:104AF000F92FF11D8FE380838091DE02882309F472
:104B00009BCE0E947B066B017C018091D802909124
:104B1000D902A091DA02B091DB02A7019601281B0D
:104B2000390B4A0B5B0BDA01C9010497A105B105EA
:104B300080F11B861C861D861E868E01055F1F4F19
:104B400024E050E040E060E089E00E949313882375
:104B5000C1F06B857C858091E3029091E4020E9414
:104B6000DC0B9093E4028093E3026D857E85809157
:104B7000E5029091E6020E94DC0B9093E60280939E
:104B8000E502C092D802D092D902E092DA02F09205
:104B9000DB028091E802882309F44ECE8091E7027F
:104BA0008B8710E000E020E0AE01455F5F4F61E0E1
:104BB0008AE00E949313882309F43ECE1092E80203
:104BC0003BCE87E080938A01DFCC82E048CD89E14B
:104BD00091E05CCD80915903843031F10E946810DE
:104BE0000E94800F1092460350E40FB6F894A895E7
:104BF000809260000FBE5093600083B7817F846015
:104C000083BF83B7816083BF7894889583B78E7F95
:104C100083BF0FB6F894A895809160008861809357
:104C20006000109260000FBE80915803882381F0CD
:104C30000E944E20E8E9F2E0A2E8B1E081919D9166
:104C4000892309F0B4C180EA92E08E179F07B1F77B
:104C500080915903853009F4BDCF10924C030E9416
:104C6000EF0B0E940412EECDC394EE0CF6E0CF12CF
:104C700007CE0F5F1F4F0830110509F0F1CD8FEF00
:104C80008E838F8318860E94FD188160782F9A8703
:104C900089874E815F8168858A850E94BC1F11CEFD
:104CA0000E94FD189093C6028093C50286E693E0A9
:104CB00090936D0580936C050E94E011882309F4A0
:104CC0009CC01091EF02012F8EE691E00E94400FF0
:104CD0008091F2028F708A3008F081C0805D0E945E
:104CE000BF0E8AE691E00E94400F8091F1028F7022
:104CF0008A3008F076C0805D0E94BF0E002309F460
:104D000076C087E691E00E94400F812F82958F70D8
:104D10008A3008F068C0805D0E94BF0E812F8F70BE
:104D20008A3008F062C0805D0E94BF0E8CEF810F58
:104D3000853308F05CC083E691E00E94400F212F8C
:104D40002450330BF901E25DFE4F84910E94BF0EA7
:104D50008AE891E00E94400F8091F5020E94B10B19
:104D60000E9420108091F6020E94B10B0E94201038
:104D70008091F8020E94B10B0E9420108091F702EE
:104D80000E94B10B0E94201081E891E00E94400F28
:104D90008091E702811101C085E00E94B10B01966C
:104DA0000E9420108BE791E00E94400F8091E90261
:104DB000811121C080E30E94BF0E87E791E00E942D
:104DC000400F8091EA02811101C084E0805D0E9461
:104DD000BF0E80914303882309F4F4CDEBCD895AAB
:104DE0007ECF895A89CF895A97CF895A9DCF81E042
:104DF0000E944E0FADCF81E3DECF80E991E00E94AB
:104E0000400FE7CF8091C40261E070E08111DACDFC
:104E1000082F10E07B01082E02C0EE0CFF1C0A9444
:104E2000E2F7A9014E215F21452B09F447C090917B
:104E3000C30290FD45C08295880F807680937D01E6
:104E40009801369527953695279520938001815EA8
:104E500080937E011092810124E630E047E050E02B
:104E60006BE771E088E70E947929892B09F0AACDC8
:104E7000A80125E0440F551F2A95E1F78091C30250
:104E800080FD2CC04A595C4F04E610E020E230E07F
:104E900060E488E70E94A029892B09F093CD0E9445
:104EA0008310E094F0948091640390916503E8226C
:104EB000F922F0926503E092640384CD8F5FA8CF5E
:104EC000880F880F880F80937D0110928001895F81
:104ED00080937E0183E080938101BECFE3EAF2E01C
:104EE00080E2DF011D928A95E9F7E6EAF1E0F88BAE
:104EF000EF8702EA11E09AEA292E91E0392EAF8578
:104F0000B8892D91B88BAF87F80141908F01440E7D
:104F1000552E511CC2018A599C4F2C01E22FF0E002
:104F2000ED55FD4F30E020E087E0682E621ACC247A
:104F3000C394022E01C0CC0C0A94EAF7520190E00F
:104F4000D5018D915D018C21662D691B6770762ED0
:104F5000062E000C770BB82F01C0BB0F7A94EAF72E
:104F60007B2E7195619571096770772701C08695D1
:104F70006A95EAF7782A8081782A70829F5F983054
:104F8000F9F62F5F3F4F31962830310569F6EF85EE
:104F9000F8892E163F0609F0B2CF04E610E020E2B1
:104FA00030E043EA52E074CF86E090E09ACD30E101
:104FB00039BD19BD09B400FEFDCF8091D8008F7DA9
:104FC0008093D8008091E00082608093E00080911F
:104FD000E00081FDFCCF10924C030E94EF0B38CE15
:104FE000289A219A229A23982B9880E58CBD0895BF
:104FF000909191019F3F09F071C08F3F09F46EC0FD
:10500000611144C010926F0590916F05423009F410
:1050100041C0433009F442C094604130E1F141E0C5
:1050200050E042175307E0F190916F054031510570
:1050300009F452C0C0F54230510509F446C0483069
:10504000510509F446C09CB520916F05922B9CBD7B
:1050500090916E05992319F09DB591609DBD809347
:105060009101E82FE295EF70F0E031A1282F2F7029
:1050700081E090E001C0880F2A95EAF7382B31A330
:1050800092A18095892382A381E0089590E2909374
:105090006F05BACF986090936F05C1CF9C60FBCF2E
:1050A000440F551FBECF4034510549F040385105DB
:1050B00041F04032510539F621E020936E059260AF
:1050C00001C0936090936F05BECF91E090936E0501
:1050D000BACF21E020936E059160F4CF80E008956F
:1050E000CF93DF938EBD0E94FD18EC010DB407FE37
:1050F00005C08EB590E0DF91CF9108950E94FD1814
:105100008C1B9D0B8436910588F38EEF9FEFF3CFB8
:10511000CF93DF931EBC0E94FD18EC010DB407FE77
:1051200005C08EB590E0DF91CF9108950E94FD18E3
:105130008C1B9D0B8436910588F38EEF9FEFF3CF88
:10514000809191018F3F29F1E82FE295EF70F0E017
:1051500041A18F7021E030E0B90102C0660F771FD6
:105160008A95E2F7CB01942F982B91A392A1892BDA
:1051700082A38FEF809391018DB58E7F8DBD9CB5FD
:1051800080916F05809589238CBD10926F051092D8
:105190006E0508951092B9008CE08093B8000895D0
:1051A0009F92AF92BF92CF92DF92EF92FF920F93B6
:1051B0001F93CF93DF93B82EEB010E94FD186C0173
:1051C000EE24E394F12CC431D10560F025E0E22E09
:1051D000F12CCF3FDC0731F0CE0164E170E00E949A
:1051E000F32B7B0184EAA82E94E8992E1092BC0040
:1051F000A092BC000E94FD188C018091BC0087FF2A
:105200000DC08091B900887F883039F18091B90054
:10521000887F803111F10FEF1FEF09C00E94FD1848
:10522000801B910B8E159F0540F30EEF1FEFCF3FB4
:10523000DC07E1F2C6010E94EE188C179D07B0F260
:10524000C801DF91CF911F910F91FF90EF90DF90F8
:10525000CF90BF90AF909F900895B092BB00909276
:10526000BC000E94FD188C018091BC0087FF0AC021
:105270008091B900887F883111F0803461F610E0A8
:1052800000E0DECF0E94FD18801B910B8E159F055C
:1052900058F3CBCF0F931F93CF93DF93EB01809302
:1052A000BB0084E88093BC000E94FD188C018091B3
:1052B000BC0087FF11C02091B900287F81E090E0F9
:1052C000283211F490E080E0919581959109DF9169
:1052D000CF911F910F910895CF3FDC0741F30E94BA
:1052E000FD18801B910B8C179D0708F38EEF9FEF25
:1052F000EECFCF92DF92EF92FF920F931F93CF9357
:10530000DF936B018A017901B9010E94D028E6017F
:105310000C0D1D1DC017D10761F424E92093BC00BA
:10532000DF91CF911F910F91FF90EF90DF90CF9081
:10533000089597FDF2CFB70189910E944A29EACFDB
:10534000CF92DF92EF92FF920F931F93CF93DF9351
:10535000C62F6A017901B8010E94D02897FD0CC0C0
:10536000B8018C2F0E944A29E601EC0CFD1CCE15D9
:10537000DF0511F097FF0CC024E92093BC00DF91FA
:10538000CF911F910F91FF90EF90DF90CF900895F4
:10539000B80189910E944A29EACF84E98093BC0030
:1053A00008958EE14A9B02C08150E1F74A9BFECFEF
:1053B00008955A9880E28A95F1F75A9A0895FC0167
:1053C0003BE03A95F1F798E020E080E031E040E101
:1053D0004A95F1F7880F4A9B02C08160232742E07B
:1053E0004A95F1F7000040E14A95F1F7915079F7BD
:1053F00090E19A95F1F799B132E03A95F1F7000012
:1054000040E14A95F1F792FB992790F99227208184
:10541000920F90830895EF92FF920F931F93CF9373
:10542000DF930F92CDB7DEB719828C017C01E60EB7
:10543000F11C0E151F0561F481E09981911180E046
:105440000F90DF91CF911F910F91FF90EF900895F2
:105450000E94D129CE0101960E94DF29F801819393
:105460008F01E7CF529A5A9A089552985A9AEA9A17
:10547000E9E6F0E080818F7C808308956150770BAE
:1054800091E001C0990F6A95EAF720E031E09111AF
:1054900008C0222391F05A9A80E28A95F1F75A982F
:1054A0000895492F482339F05A9A232740E24A9514
:1054B000F1F79695ECCF5A98F9CF5A98EDCFFF9225
:1054C0000F931F93CF93DF93EC018C01060F111DF7
:1054D000C017D10731F4DF91CF911F910F91FF9049
:1054E0000895F9900E94D92968E08F2D0E943E2AE4
:1054F000EFCF1F920F920FB60F921124EF92FF92EF
:105500000F931F932F933F934F935F936F937F93CB
:105510008F939F93AF93BF93EF93FF93CF93DF93BB
:105520000F92CDB7DEB719820E94D129CE01019624
:105530000E94DF29A82FA695A695A695282F22952B
:1055400025709A2F9570290F922F93702695269586
:10555000920F982797708981982B09F075C0AC300D
:1055600008F072C080E18A95F1F75A9A529AB2E037
:10557000BA95F1F700C05A98EA2EF12CEAE0AE9FF6
:10558000D0011124AF5FBE4F1896ED91FC91199791
:105590003097B1F0609192017091930116962D9120
:1055A0003C911797260F371F13968D919C91149756
:1055B000680F791F15964C91159712968C91099545
:1055C0008AE08E9DF0018F9DF00D1124EF5FFE4F5C
:1055D0006581662351F0209192013091930186817B
:1055E0009781820F931F0E945F2A0E94D929F0E1C0
:1055F000FA95F1F75A9852985A9A80E18A95F1F7FC
:105600008AE08E9D80018F9D100D11240F5F1E4F2B
:10561000D80112966C911297662371F12091920134
:105620003091930113968D919C91820F931F0E944C
:105630000B2AD801ED91FC91882311F088E001C07C
:1056400082E080830E94D1290F90DF91CF91FF915A
:10565000EF91BF91AF919F918F917F916F915F91EA
:105660004F913F912F911F910F91FF90EF900F90CD
:105670000FBE0F901F901895ED91FC91DFCF0F9307
:105680001F93CF93DF93EC010C970CF0A9C08AE035
:105690008C9FF0018D9FF00D1124EF5FFE4F8081F4
:1056A0009181892B09F49CC0F894529A5A9885E00C
:1056B0008A95F1F700008C2F869585709C2F957048
:1056C000890F982F937086958695890F8E0193E0A8
:1056D000000F111F9A95E1F7082B0E94D92900C0ED
:1056E00068E0802F0E943E2AA0E1AA95F1F7529827
:1056F0005A9A4A9B27C087E090E04A9925C08AE0E1
:105700008C9F80018D9F100D11240F5F1E4FF8019B
:1057100065816623A1F120919201309193018681E8
:105720009781820F931F0E940B2A811128C0529AE1
:105730005A9AD801ED91FC9182E08083789482E0BE
:1057400090E016C000C0D5CF0197B9F4529A5A9A8A
:105750008AE08C9FF0018D9FF00D1124EF5FFE4FCA
:105760000190F081E02D81E08083789481E090E0E9
:10577000DF91CF911F910F91089500C0BECF0E947D
:10578000D129B0E2BA95F1F75A98529AE0E1EA9538
:10579000F1F78AE08C9FF0018D9FF00D1124EF5FEF
:1057A000FE4F6281662351F0209192013091930166
:1057B00083819481820F931F0E945F2A0E94D929BE
:1057C0008AE08C9FF0018D9FF00D1124EF5FFE4F5A
:1057D0000190F081E02D1082789490E080E0C8CFB5
:1057E00084E090E0C5CFAA1BBB1B51E107C0AA1FF4
:1057F000BB1FA617B70710F0A61BB70B881F991F72
:105800005A95A9F780959095BC01CD010895991BF3
:1058100079E004C0991F961708F0961B881F7A95A7
:10582000C9F78095089587FB082E062687FD819588
:1058300067FD61950E94072C0EF4919507FC8195F8
:10584000089597FB072E16F4009407D077FD09D032
:105850000E94F32B07FC05D03EF4909581959F4F55
:105860000895709561957F4F0895EE0FFF1F059085
:10587000F491E02D0994FB01DC0102C005900D922A
:1058800041505040D8F70895FC014150504030F04D
:1058900001900616D1F73197CF01089588279927EF
:1058A0000895FB01DC0104C08D910190801921F461
:1058B00041505040C8F7881B990B0895FB01DC014B
:1058C00002C001900D9241505040D8F70895F999C7
:1058D000FECF92BD81BDF89A992780B50895A6E1C3
:1058E000B0E044E050E00C94A12CA8E1B0E042E02C
:1058F00050E00C94A12C262FF999FECF92BD81BDCA
:10590000F89A019700B4021639F01FBA20BD0FB6FD
:10591000F894FA9AF99A0FBE08950396272F0E94D9
:105920007C2C0E947B2C252F0E947C2C242F0C94F5
:105930007C2C0196272F0E947C2C0C947B2CDC0164
:10594000CB01FC01F999FECF06C0F2BDE1BDF89A8A
:10595000319600B40D9241505040B8F70895F89434
:10596000FFCF9A0A9A0AA30AA30AA50AA30AA30ABE
:10597000A30A9A0A9A0AAA0AA30AA30AAA0AE20C82
:105980000A0DA20E0A0DA20E3D0D5E0DA20E5B0EBB
:10599000680E511A571A661A6A1A6C1A6E1A701A19
:1059A0008B1A751A841AE91BE91B221C221C511C34
:0E59B000511C511C511CD51C401D4F1D4F1D7C
:1059BE0001B8010000000100000000B80100000065
:1059CE000401000000B8010405000000000000B84A
:1059DE00010809000000000000B8010311000000DA
:1059EE00008407B8012014000000000000B8010177
:1059FE0011000000006B07B8010000002034000009
:105A0E000000000000000000000000000000000088
:105A1E000000000000000000000000000000007800
:105A2E0006CC10AB107606770675060021007F2295
:105A3E0000033F3F1F1F3F3F1F1F000E000E0E01B2
:105A4E0001FF2102F4F5F6F700000000946697C6F8
:0E5A5E0034350008101818100800000102006E
:00000001FF
