:100000000C94AB040C94F2040C94F2040C94972A14
:100010000C94F2040C94F2040C94F2040C94F20488
:100020000C94F2040C94F2040C9421180C94DD1737
:100030000C9474220C94F2040C94F2040C94F204C8
:100040000C94F2040C94F2040C94F2040C94F20458
:100050000C94F2040C94FA180C94F2040C94F2042C
:100060000C94F2040C94F2040C94F2040C94F20438
:100070000C94F2040C94F2040C94F2040C94F20428
:100080000C94F2040C94F2040C94F2040C94F20418
:100090000C94F2040C94F2040C94F2040C94F20408
:1000A0000C94F2040C94F2040C94F20429001E0047
:1000B0001F00000020002100220000003500140075
:1000C0001A0000000800150017000000E0000400FE
:1000D00016000000070009000A000000E1001D00F2
:1000E0001B0000000600190005002F00E30065005A
:1000F0004A0000004D00E2002C002B002D002700DC
:100100002600000025002400230000002E0013001C
:10011000120000000C0018001C0000003400330026
:100120000F0000000E000D000B000000E50038007D
:10013000370000003600100011003000E7003100E9
:100140004E0000004B00E60028002A0000DA028181
:10015000FFD9F1DB20A4A62EAF00A0C000A1C800EB
:10016000AED580A81FD300408D142000000461622A
:10017000636465666768696A6B6C6D6E6F707172D7
:10018000737475767778797A313233343536373817
:100190003930524542545F2D3D5B5D5C233B276007
:1001A0002C2E2F20202700204B00202043004B65C1
:1001B00079203A2020520020204400303020205363
:1001C0000020202020204350490042616C6C3A00FE
:1001D000808182838485868788898A8B8C8D8E8FA7
:1001E0009091929394A0A1A2A3A4A5A6A7A8A9AA1E
:1001F000ABACADAEAFB0B1B2B3B4C0C1C2C3C4C595
:10020000C6C7C8C9CACBCCCDCECFD0D1D2D3D400EB
:1002100000010101010101010101020202020202C9
:10022000020202030303030303030304040404049C
:100230000404050505050506060606060707070763
:100240000708080808090909090A0A0A0B0B0B0C18
:100250000C0C0D0D0D0E0E0E0F0F0F1010111111B5
:100260001212131314141515161617171818191936
:100270001A1A1B1B1C1D1D1E1E1F2020212222239B
:100280002424252626272829292A2B2C2D2D2E2FDC
:1002900030313232333435363738393A3B3C3D3EF3
:1002A0003F404142434445464748494A4C4D4E4FE2
:1002B00050515354555658595A5B5D5E5F616264A4
:1002C000656668696B6C6D6F7072737577787A7B31
:1002D0007D7E8082838587888A8C8E8F9193959688
:1002E000989A9C9EA0A2A3A5A7A9ABADAFB1B3B5A8
:1002F000B7BABCBEC0C2C4C6C9CBCDCFD1D4D6D884
:10030000DBDDDFE2E4E7E9EBEEF0F3F5F8FAFDFF21
:1003100000AF00AE05010902A10185020901A1009B
:1003200005091901290815002501950875018102A3
:100330000501093009311581257F9502750881066F
:1003400009381581257F950175088106050C0A3845
:10035000021581257F950175088106C0C005010938
:1003600006A101050719E029E71500250195087583
:100370000181029501750881010507190029FF1502
:100380000026FF009506750881000508190129055A
:10039000950575019102950175039101C009023B14
:1003A00000020100A0FA0904000001030101000994
:1003B00021110100012240000705810308000A09FC
:1003C000040100010300000009211101000122497C
:1003D000000705820320000A120100020000000845
:1003E0005759000101000102000114034B00650090
:1003F0007900620061006C006C0036003100000082
:10040000100359006F0077006B00650065007300F2
:100410000000040309040000000000003E5B4F5B85
:100420003E003E6B4F6B3E001C3E7C3E1C00183C69
:100430007E3C18001C577D571C001C5E7F5E1C0014
:1004400000183C180000FFE7C3E7FF00001824185D
:100450000000FFE7DBE7FF0030483A060E002629E0
:1004600079292600407F05050700407F05253F00CC
:100470005A3CE73C5A007F3E1C1C0800081C1C3EEE
:100480007F0014227F2214005F5F005F5F00060977
:100490007F017F00006689956A006060606060008F
:1004A00094A2FFA2940008047E04080010207E207D
:1004B000100008082A1C0800081C2A0808001E1042
:1004C000101010000C1E0C1E0C0030383E3830008E
:1004D000060E3E0E060000000000000000005F0057
:1004E0000000000700070000147F147F1400242A76
:1004F0007F2A1200231308646200364956205000F8
:10050000000807030000001C224100000041221CDB
:1005100000002A1C7F1C2A0008083E0808000080F2
:100520007030000008080808080000006060000043
:100530002010080402003E5149453E0000427F4021
:1005400000007249494946002141494D33001814C1
:10055000127F10002745454539003C4A4949310082
:1005600041211109070036494949360046494929C0
:100570001E000000140000000040340000000008CD
:100580001422410014141414140000412214080011
:100590000201590906003E415D594E007C121112BC
:1005A0007C007F49494936003E41414122007F415C
:1005B00041413E007F49494941007F090909010045
:1005C0003E41415173007F0808087F0000417F4190
:1005D00000002040413F01007F08142241007F407D
:1005E000404040007F021C027F007F0408107F0013
:1005F0003E4141413E007F09090906003E4151212B
:100600005E007F0919294600264949493200030145
:100610007F0103003F4040403F001F2040201F005B
:100620003F4038403F00631408146300030478041B
:1006300003006159494D4300007F414141000204DC
:1006400008102000004141417F0004020102040023
:100650004040404040000003070800002054547808
:1006600040007F284444380038444444280038443B
:1006700044287F0038545454180000087E090200B2
:100680001824241C78007F080404780000447D406E
:1006900000002040403D00007F1028440000004141
:1006A0007F4000007C04780478007C080404780013
:1006B0003844444438007C18242418001824241892
:1006C0007C007C08040408004854545424000404AA
:1006D0003F4424003C4040207C001C2040201C0063
:1006E0003C4030403C004428102844004C909090FE
:1006F0007C004464544C4400000836410000000073
:1007000077000000004136080000020102040200E8
:100710003C2623263C0000000000000000000000F2
:100720000000000000000000000000000000C0F019
:10073000F88C86C6E7FFFFFFFFFFFFFEFCFCF8E03A
:1007400080000000F0F0F00000C0E0F070700000E9
:100750000000000000000000000000000000000099
:1007600000000000F8F8F8000000000000000000A1
:1007700000000000000000000000F8F8F80000F899
:10078000F8F8000000000000000000000000000079
:1007900000000000E0F0F0F0E0ECEEF7F370200075
:1007A0007C7C7C7E007E7E7E7F7F7F000080C0E040
:1007B0007E5B4F5BFEC00000C000DCD7DEDEDED714
:1007C000DC00C0000000000000000000000000008D
:1007D0000000000000000000000000000000000019
:1007E0000000000000000080E07078686C64C7C7FB
:1007F000C7C7C7C7E73F1F0F3FFFFFFFFFFFFF3F11
:100800000F000000FFFFFF1E3FFFF3E1800000F834
:10081000FCFE3636363EBCB8000E3EFEF080F0FEE2
:100820003E0E0000FFFFFF060606FEFEFC7000E61F
:10083000F6F63636FEFEFC000000FFFFFF0000FF6C
:10084000FFFF0000000000000000000000000000AA
:10085000000000000F1F3F7F7F7F7F7F3F1E0C0047
:100860001F1F1F3F003F3F3F7F7F7F00307B7F7810
:1008700030202030787F3B0003000F7F0F0F0F7F69
:100880000F00030000000000000000000000000056
:100890000000000000000000000000000000000058
:1008A0000000000000003C7F6360E0C0C0C0C0C02A
:1008B000C0C0C0FFFFC06030180F03030301000079
:1008C0000000000003030300000003030303000112
:1008D0000303030303030301007070393F1F070183
:1008E00000000000010303030303030301000001F0
:1008F00003030303030301000000030303000003D9
:1009000003030000000000000000000000000000E1
:1009100000000000000000000000000000000000D7
:1009200000000000000000000000000000000000C7
:1009300000000000000000000000000000000000B7
:1009400000000000000000000000000000000000A7
:1009500000000000000011241FBECFEFDAE0DEBF70
:10096000CDBF04B603FE27C08091340690913506B2
:10097000A0913606B09137068730904BA740B04B18
:10098000D1F4109234061092350610923606109269
:10099000370614BE84B7877F84BF0FB6F894A89536
:1009A00080916000886180936000109260000FBEAB
:1009B000E0E0F8E3099511E0A0E0B1E0EAEFF9E545
:1009C00002C005900D92AA3AB107D9F726E0AAEA2B
:1009D000B1E001C01D92A433B207E1F70E949B224F
:1009E0000C94CD2C0C940000FC01AC014B5F5F4FCC
:1009F0008FEF91E32191822728E030E087FF09C043
:100A0000880F892721503109C9F7E417F50791F7B5
:100A10000895880FF7CFE8EDF0E080818E7F808326
:100A20001092E2001092DA001092E100A0EEB0E025
:100A30008C9181608C9380818F77808319BCA7ED26
:100A4000B0E08C918E7F8C9380818F7E808310921A
:100A5000E70308952091E4003091E50095E6A901AF
:100A60002091EC00822F817020FF06C08091E80069
:100A700080FF06C080E008952091E80022FD1AC0A2
:100A80008091F503882389F0853089F08091EB000F
:100A900085FD0FC02091E4003091E5004217530717
:100AA000F9F29150E1F684E0089582E0089583E040
:100AB000089581E00895EF92FF920F931F93CF93D3
:100AC0007C018B010E942A05C82F811117C08091DB
:100AD000E80085FD0BC08091E8008E778093E800E8
:100AE0000E942A05882399F3C82F08C0F701819135
:100AF0007F018093F1000150110949F78C2FCF91AC
:100B00001F910F91FF90EF9008958091F70387FF59
:100B100013C08091E80082FF06C08091E8008B77C7
:100B20008093E80004C08091F5038111F2CF08950D
:100B30008091F5038823D9F38091E80080FFF8CFF6
:100B40008091E8008E77ECCF982F9093E900242FC6
:100B5000762F50E0891731F07091EC002091ED0074
:100B60005091F00021FD07C09F5F973071F780938F
:100B7000E90081E008953091EB003E7F3093EB0077
:100B80003091ED003D7F3093ED003091EB0031600E
:100B90003093EB007093EC002093ED005093F00045
:100BA0002091EE0027FDE0CF80E00895CF92DF9204
:100BB000EF92FF920F931F93CF93DF93C8EDD0E096
:100BC00088818F7E8883E7EDF0E08081816080837B
:100BD00084E082BF81E08093E70388818E7F8883F1
:100BE00002EE10E0F80110821092DA0081EEC82EB9
:100BF000D12CF601108288818F7788838881806864
:100C0000888388818F7D888319BC1092F5031092A8
:100C1000F6031092F4031092F30390EEE92EF12CF8
:100C2000F70180818B7F808388818160888342E0A7
:100C300060E080E00E94A405F60180818E7F8083C1
:100C4000F801808181608083808188608083F701E2
:100C500080818E7F8083888180618883DF91CF91BE
:100C60001F910F91FF90EF90DF90CF900895FC01BE
:100C70008091FD039091FE0386179707A0F0611500
:100C8000710529F49091E8009E779093E80090E038
:100C90006115710551F4911108C08091E80082FF3F
:100CA00034C080E00895BC01F2CF8091F503882321
:100CB000C1F18530C1F18091E80083FD30C08091A1
:100CC000E80082FDEACF8091E80080FFE1CF8091CB
:100CD000F3002091F200382F6115710519F02830CA
:100CE000310558F091E02830310509F090E020916D
:100CF000E8002E772093E800CBCF81918093F1001C
:100D0000615071092F5F3F4FE7CF8091F503882332
:100D100041F0853041F08091E80083FFBECF81E053
:100D2000089582E0089583E0089508950895089550
:100D30008091EA0308952FB7F8946091E3037091CE
:100D4000E4038091E5039091E6032FBF08959C0191
:100D5000FC0132969FEF80E04191461751F09F3F92
:100D600019F4411101C0982F8F5F8630A9F79F3F7A
:100D700009F40895290F311D97FD3A95F901628311
:100D80000895FA01811101C0FB0109940895E6ED6F
:100D9000F3E0118282818460828308958091D1037F
:100DA000982F9E7F61F4817082608093D10380913F
:100DB000D403893718F088E78093D40308958630E8
:100DC000B0F381708460F1CFAF92BF92DF92EF9267
:100DD000FF920F931F93CF93DF93082F162FE901F4
:100DE000E42FF0E0E05FFD4F611110C0E4915E2F51
:100DF0004E2F4983E8835A83DF91CF911F910F9142
:100E0000FF90EF90DF90BF90AF900895E62EF12C09
:100E10004491D42EE42FF0E026E0829FC0011124FB
:100E20002FEF30E0B9010E94112C802F90E0880F45
:100E3000991F55E5569FD001579FB00D11248A1B6D
:100E40009B0B982F990F890F5901AE18BF08AE9EC2
:100E5000D001AF9EB00DBE9EB00D11245B2F189F28
:100E600080011124012F11275901A01AB10AAE9E49
:100E70008001AF9E100DBE9E100D11245901A81ABD
:100E8000B108AE9CC001AF9C900DBE9C900D11248A
:100E9000892F9927281B390B2E9FC0012F9F900D5A
:100EA0003E9F900D1124E92F62307105A1F050F49E
:100EB0006115710509F49DCF6130710581F0EB2F4B
:100EC000512F97CF6430710569F080F0663071055D
:100ED00009F48FCFF4CFE42F4B2F592F8ACFE42F73
:100EE000412F87CFEB2F542F492F83CF4B2F5D2DD1
:100EF000E12F7FCFCF93DF93EFEFF3E083819481F6
:100F0000A581B681E90188839983AA83BB83148272
:100F1000138216821582DF91CF91089580E00895A3
:100F2000E0913B02EB30A4F48AE0E802F0011124E6
:100F3000E65FFE4F0084F185E02D309749F02EE505
:100F400032E040913D026EE372E080913C020994F0
:100F50000895E9E2F2E0838980933E0184898093D9
:100F6000550108959091960292FF06C0282F28718E
:100F70002830F9F4877F846093FF06C0282F2871FA
:100F80002831F1F4877E84612091970220FF06C00A
:100F9000382F38713830D9F4877F816021FF06C03F
:100FA000282F28712831D1F4877E816194FD877EB6
:100FB0000895282F24712430F9F68B7F8860DCCFC8
:100FC000282F2471243101F78B7E8861DDCF382FE3
:100FD0003171313019F78E7F8860E0CF282F217171
:100FE000213121F78E7E8861E1CFCF93DF93EC0131
:100FF0008238910589F1B8F58133910509F492C0E1
:1010000028F58932910509F486C08A9709F491C0C0
:10101000C11523E5D20708F0ACC0C11532E5D307EE
:1010200008F011C1C11540E2D40708F090C0C11505
:1010300081E0D80730F5C53AD10508F081C0C43049
:10104000D105F8F4C130D105E1F040C085339105F8
:1010500009F45AC0C997E1F680919602837089F02D
:10106000C0EED0E00EC0833E910599F170F4803E51
:10107000910501F1823E910559F68091960282FD1B
:1010800021C0CE01DF91CF910895863E910561F197
:10109000873E910571F1843E910509F0B9CF8091A9
:1010A000970281FFEECF80919602C7EED0E084FDDB
:1010B0000DC0E7CF8091960280FDF4C09091970219
:1010C00090FFDFCFC3EED0E084FFDBCFD0E0C0E005
:1010D000D8CF8091960282FDE8C09091970290FD52
:1010E000BFCF84FFCECFF2CF8091960283FDDDCFBC
:1010F000C8CF8091960283FDDBC09091970291FF4B
:10110000F0CFC4EED0E0BDCF8091960285FFB9CF7D
:10111000C9E2D0E0B6CF8091960285FFB2CFC5E399
:10112000D0E0AFCF8091960286FFABCFCAE2D0E08D
:10113000A8CF8091960286FFA4CFC1E3D0E0A1CFD3
:10114000CE01815E9109079708F49BCFBFCFC115EF
:1011500091E5D90708F072C0C11520E5D20708F063
:1011600050C0C11530E4D30708F4B0CFDF70D06AA7
:1011700088CFC11546E5D407F0F4C11585E5D80739
:1011800008F077C0C11594E5D90708F06DC0CE010D
:101190008370992721E030E002C0220F331F8A9527
:1011A000E2F7C695C69590E2C99FE0011124C22BD3
:1011B000D32BDA6866CFC1152AE5D20778F4C115BA
:1011C00039E5D30708F060C0C11548E5D40708F435
:1011D0007DCFDC2FCC27C06FD06A53CFCE01905685
:1011E0008115904208F072CF8D2F8F710E94B20747
:1011F00090E0982F882788279F719C012C2BE9016C
:1012000041C0CE01E4E096958795EA95E1F78370B9
:101210002C2F26952695237040E2249F90011124BF
:10122000382B8C2F8370C1E0D0E002C0CC0FDD1FC3
:101230008A95E2F7C22BD32BDC6823CFDC2FCC2797
:10124000C16FD06A1ECFCE018370992721E030E0B4
:1012500002C0220F331F8A95E2F7C695C69580E239
:10126000C89FE0011124E6CFDC2FCC27C46FD06AE1
:1012700008CF8C2F0E94B207C82FD0E0DC2FCC27DC
:10128000CC27DF71D062FDCE8C2F8F700E94B20709
:1012900034E0D695C7953A95E1F7CF709C2FEC01D5
:1012A000D069EFCEC9E3D0E0ECCEC2EED0E0E9CE1B
:1012B000C6EED0E0E6CE8091260281111092260281
:1012C000089580959091E80398239093E8030895FA
:1012D0008091E80390912502892B90912402892B1B
:1012E0008093AC0190912602992391F0892B8093F1
:1012F000AC0120E08EEA91E0FC013191CF01311187
:101300002F5FF1E0843B9F07B9F721110E945B0931
:10131000E091E003F091E103309731F00280F38136
:10132000E02D8CEA91E00994089580912202909139
:10133000F101981301C008958F5F8770FACFAF92C3
:10134000BF92CF92DF92EF92FF920F931F93CF93B2
:10135000DF930091950220912702022BC7E0D0E095
:1013600010E0C92ED12C2AE0A22EE82EF12CBC2EA2
:10137000C8010C2E02C0959587950A94E2F780FD6E
:101380000FC02197A0F7B12C8B2DDF91CF911F912A
:101390000F91FF90EF90DF90CF90BF90AF900895A6
:1013A000AC9EF001AD9EF00D1124EC0DFD1D83E00F
:1013B000EE0FFF1F8A95E1F7EE0DFF1DEE0FFF1FE9
:1013C000E455FF4F859194910E94F5070197C9F26A
:1013D000DBCFCF93DF93EC010E949F099AE0899FB6
:1013E000F0011124ED0FF11D83E0EE0FFF1F8A9530
:1013F000E1F7EC0FF11DEE0FFF1FE455FF4F859154
:101400009491DF91CF910C94F507990F990F990F53
:10141000890F982F977086958695869523E0829FF1
:10142000F0011124E353FE4F50E040E080E02191B1
:1014300030E0092E02C0369527950A94E2F7217014
:101440003327042E01C0220F0A94EAF7822B4F5F44
:101450005F4F4330510559F70895990F990F990F30
:10146000890F982F977041E001C0440F9A95EAF7D1
:1014700086958695869593E0899FF0011124E35324
:10148000FE4F30E020E070E05191DF011197CB0179
:10149000022E02C0969587950A94E2F78170819595
:1014A0008527842385278C932F5F3F4F2330310579
:1014B00059F7089580939502109225021092240204
:1014C0000C94680921E030E001C0220F8A95EAF708
:1014D00020958091950282230C945A0A90912302C0
:1014E0008095892380932302282F277091F4282F39
:1014F000082E000C330B9217130659F090919702A7
:1015000092FD07C08595859585950E94620A109287
:101510002302089521E030E001C0220F8A95EAF706
:1015200080919502822B0C945A0A80932702109284
:101530002502109224020C946809FC01808191819B
:101540000E94E909292F2F7092959F7092509E302A
:1015500078F4E92FF0E0E153F34D0C94532C803FE5
:1015600019F020F4883E20F481E00895843FE1F3EF
:1015700080E00895883EC0F3813FD1F7F5CF822FF8
:101580008695869586950895882321F00E946109A5
:101590000C9468090895882339F09091E803982BFA
:1015A0009093E8030C9468090895882309F452C0C5
:1015B0009CEF980F913A78F4EEEAF1E024EB31E0F9
:1015C0009191891303C0DF0111971C922E173F07D9
:1015D000B9F70C94680990E2980F983050F487702E
:1015E00091E001C0990F8A95EAF7892F0E9461095D
:1015F000F0CF9BE5980F9330B0F48091C9019091A2
:10160000CA01892B39F11092CA011092C901E091E7
:10161000E003F091E1033097E9F00680F781E02DD7
:1016200090E080E00994885A8731A0F48091CB0142
:101630009091CC01892B71F01092CC011092CB01CA
:10164000E091E003F091E103309721F00084F1850F
:10165000E02DE6CF0895CF93C82F8823A1F18CEF1A
:101660008C0F813AF8F4EEEAF1E0DF018D91C817B2
:1016700061F081E0A43BB807C9F76C2F8CEA91E0D8
:101680000E94A706CF910C9468098191C81303C0EA
:10169000DF0111971C9281E0E43BF807B1F70E944B
:1016A0006809EBCF80E28C0F883068F4C77021E0C6
:1016B00030E001C0220FCA95EAF78091E803822B3F
:1016C0008093E803DFCFCF910895CF93C82F809107
:1016D0000C048C1751F00E949B0660930E047093CB
:1016E0000F048093100490931104C0930C04CF91C5
:1016F00008950F931F93CF93DF93EC01DB0190913B
:101700000D04911101C094E06881798191509B0191
:10171000092E02C0359527950A94E2F7F901092EA2
:1017200002C0EE0FFF1F0A94E2F76E1B7F0B798356
:1017300068836A817B81FB01092E02C0F595E795DC
:101740000A94E2F78F0102C0000F111F9A95E2F789
:10175000601B710B7B836A83E1381FEFF107F4F0A4
:10176000E038F105ECF41596EC93159721388FEFDE
:101770003807C4F020383105BCF414962C93149724
:10178000411107C0E1951596EC9315972195149694
:101790002C93DF91CF911F910F910895E1E8E3CF52
:1017A000EFE7E1CF21E8E9CF2FE7E7CFFC01DB014D
:1017B0002281338191E821388FEF38072CF0922F66
:1017C000203831050CF09FE712969C9312972081E8
:1017D000318121388FEF3807A4F0203831059CF48F
:1017E00013962C931397442339F0919512969C935A
:1017F0001297219513962C931182108213821282D4
:10180000089521E8EDCF2FE7EBCF382F20E287FFB7
:1018100002C031952DE24AE0832F642F0E94312CC3
:10182000905D9093C20181110BC02093C10120E211
:101830002093C00120E22093BF018FEB91E0089537
:10184000642F0E94312C905D9093C101832F64E638
:101850000E94312C882361F3805D8093C001EBCF1F
:101860009C01860F971F37FD07C077FD04C097FFC7
:1018700002C08FEF9FE7089577FFFDCF97FDFBCF65
:1018800080E090E80895E82FE295EF70F0E031A154
:10189000282F2F7081E090E001C0880F2A95EAF789
:1018A000382B31A392A18095892382A30895E82F34
:1018B000E295EF70F0E031A1282F2F7081E090E0E9
:1018C00001C0880F2A95EAF7982F9095932391A34A
:1018D00092A1892B82A30895CF92DF92EF92FF927B
:1018E0000F931F93CF93DF937C016B0180912706A9
:1018F00001E010E08A3010F40AE010E0C1E0D0E02E
:10190000F8946DE276E0C701F601099578948111AB
:1019100004C021960C171D074CF4DF91CF911F9145
:101920000F91FF90EF90DF90CF900895CC9F9001A2
:10193000CD9F300D300D112490E080E045E34A95B5
:10194000F1F70000019682179307C1F7D9CF9C01E8
:1019500082E08093E9009FEF8091E800915085FD3F
:1019600006C085ED8A95F1F700009111F5CF8091C1
:10197000E80085FF0CC050E040E066E070E0C9017F
:101980000E945B058091E8008E778093E8000895BF
:10199000CF93DF93EC0181E08093E9008FEF90918A
:1019A000E800815095FD06C095ED9A95F1F700008D
:1019B0008111F5CF8091E80085FF14C050E040E030
:1019C00068E070E0CE010E945B058091E8008E77B0
:1019D0008093E80088E0FE01ABEEB3E001900D9249
:1019E0008A95E1F7DF91CF91089560918E01809102
:1019F000D10380FF20C080918D0143E0849FC0010E
:101A0000112483519D4F539A2BB1277F3BB13860EE
:101A10005FB7F894FC01649FE00DF11D1124BF0134
:101A200068177907D1F45FBF8FE594E00197F1F76C
:101A300000C00000089580918F019091900123E0F3
:101A4000829FF0011124E351FD4F8917A0F6118206
:101A5000108212828F5F3396F8CFFC014191CF0143
:101A6000E8E03BB9000000C047FF2BB9440F00007D
:101A700000C000C000C02BB900C0EA9591F7D0CFDC
:101A80009091D10390FF14C090918F01209190010B
:101A900033E0939FF0011124E351FD4F921710F0B2
:101AA0000C94F50C8183608342839F5F3396F6CF5D
:101AB00008950F931F93CF93DF9300D00F92CDB76C
:101AC000DEB78C018091D90381110AC09E012F5F7E
:101AD0003F4F48E76FEF0E94E4068A818093D90365
:101AE000F8016481613069F08091D90340E0662398
:101AF00061F040E0623011F44091D90380E060E091
:101B000004C06091D90340E080E00E94400DF801DC
:101B1000848190E0019663E070E00E943F2C848312
:101B20000F900F900F90DF91CF911F910F9108951B
:101B300080912802811118C082E39091E30097FD03
:101B400010C0EFE3FCE93197F1F700C000008150CD
:101B5000A1F782E0809328020E940B051092F50302
:101B600003C081E08093280281E0909128029130A7
:101B700011F080E0089508950E94980D882351F097
:101B8000E091E003F091E103309721F00190F081C2
:101B9000E02D099480E008950F931F930E94980D03
:101BA000882321F01F910F910C949B060E949B06A5
:101BB00000918F0210919002209191023091920237
:101BC000600F711F821F931F1F910F9108955798E7
:101BD0005F9A879A8F9825E02A95F1F7000089B1DE
:101BE00087988F9A90EA9A95F1F790E0880F892F5D
:101BF000881F990B21E0822781700895CF93DF938E
:101C00008091FF03C5E28111C2E280910004D0E01F
:101C1000882329F080910104D5E28111D2E20E944B
:101C2000E70D81110FC08D2F80938D01C0938E0120
:101C3000CD0F10928F01C0939001C0939101DF915D
:101C4000CF91089580E0F0CF8091FF03F901808368
:101C50000C94FE0DEEEAF1E086E0DF011D928A951C
:101C6000E9F710922502109224020C9468091F9340
:101C7000CF93DF93CDB7DEB7AA970FB6F894DEBF48
:101C80000FBECDBF87EF93E02091F100FC012193BF
:101C9000CF01F3E08F3F9F07B9F78091F8038330BE
:101CA00009F470C0B8F4813009F447C0823009F4F7
:101CB000B3C08091E80083FF80C28091F7039091C8
:101CC000F8039A3008F079C2E92FF0E0E352F34DBF
:101CD0000C94532C8A3009F48EC08B3009F46FC0F9
:101CE000893039F78091F703813219F78091FB032E
:101CF0009091FC030297E8F68091E800877F80933B
:101D0000E8008091E80082FF38C09091F300809154
:101D1000F200029731F48091F100813011F08630A9
:101D200021F48091F1008093EA038091E8008B77A1
:101D30008093E8000E948505BCCF8091F703813A2B
:101D400009F0B7CF8091E800877F8093E800809109
:101D5000FB039091FC03892B61F468E08BEE93E028
:101D600070E00E9437068091E8008B778093E8004E
:101D7000A0CF60E090E080E0F3CF8091F503811187
:101D8000C0CF97CF8091F703813A09F092CF80912D
:101D9000FB039091FC03892B09F08BCF8091E80025
:101DA000877F8093E8008091E80080FFFCCF8091DE
:101DB0008C018093F1008091E8008E77B9CF8091FB
:101DC000F703813209F075CF8091FB039091FC03FA
:101DD000892B09F06ECF8091E800877F8093E8001F
:101DE0000E9485058091F90380938C011092E8038D
:101DF0000E942A0E5ECF8091F703813209F059CFFD
:101E00008091E800877F8093E8000E94850580919B
:101E1000FA038093E9034DCF8091F703813A09F0EB
:101E200048CF8091E800877F8093E8008091E800A8
:101E300080FFFCCF8091E903BCCF803899F08238D5
:101E400009F0BBC18091FB038F70873008F0B5C1EA
:101E50008093E9008091EB0085FB882780F9109240
:101E6000E90006C08091F3039091F4039111826020
:101E70009091E800977F9093E8008093F100109292
:101E8000F1008091E8008E7794C1882309F482C123
:101E9000823009F092C18091F903811185C180914E
:101EA000FB038F702FEF280F263008F086C1809338
:101EB000E9002091EB0020FF77C1933031F480914D
:101EC000EB0080628093EB006FC19091EB0090611A
:101ED0009093EB0021E030E001C0220F8A95EAF7F1
:101EE0002093EA001092EA008091EB008860EACF2C
:101EF000811163C11091F9031F778091E30080780D
:101F0000812B8093E3008091E800877F8093E80035
:101F10000E9485058091E80080FFFCCF8091E3005E
:101F200080688093E30082E0111183E08093F503E1
:101F300044C18058823008F040C18091F9039091EB
:101F4000FA038C3D23E09207A1F583E08A838AE2BD
:101F500089834FB7F894DE01139620E03EE051E20A
:101F6000E32FF0E050935700E49120FF03C0E29587
:101F7000EF703F5FEF708E2F90E0EA30C0F0C796B1
:101F80008D939D932F5F243159F74FBF8091E800C7
:101F9000877F8093E8006AE270E0CE0101960E949C
:101FA00037068091E8008B778093E80006C1C096E1
:101FB000E7CF4091FB035091FC03292F33272330B7
:101FC000310509F444C078F52130310509F46FC0BA
:101FD0008BE390E0EDE9F3E02230310509F0EDC04C
:101FE0002091E800277F2093E8002091FD033091A5
:101FF000FE038217930708F49C0140E02115310588
:1020000009F064C0411162C08091E80082FDC9CF2F
:102010008091F503882329F2853019F28091E80038
:1020200083FFF2CFBECF21323105A9F12232310533
:1020300009F0C3C04115510509F443C041305105B1
:1020400009F0BBC089E490E0E4E1F3E0C9CF99274F
:1020500081309105C1F0009759F0029709F0ADC0A9
:10206000EAEEF3E0E4918E2F90E0EAEEF3E007C0B1
:10207000E2E1F4E0E4918E2F90E0E2E1F4E00097F9
:1020800009F49BC0ADCFE0E0F4E0E4918E2F90E046
:10209000E0E0F4E0F4CF4115510571F04130510515
:1020A00009F08BC089E090E0E8ECF3E099CF82E1A1
:1020B00090E0E8EDF3E094CF89E090E0EFEAF3E020
:1020C0008FCF80E490E0EDE5F3E08ACF8091F503D7
:1020D000882309F466CF853009F463CF8091E80046
:1020E00083FD5FCF8091E80082FD8ECF8091E80074
:1020F00080FF84CF9091F3008091F200211531058B
:1021000019F08830910550F041E0089709F040E05F
:102110008091E8008E778093E80070CF44914093DF
:10212000F1003196215031090196E8CF803809F04D
:1021300044C08091E800877F8093E8008091F60397
:102140008093F1009ECE811138C01091F9031230B6
:10215000A0F58091E800877F8093E8001093F60354
:102160000E948505112311F084E005C08091E300F1
:1021700087FDFACF81E08093F50342E061EC81E0D6
:102180000E94A40542E261EC82E00E94A4058091D5
:10219000F50313C08091F903813079F481E0933025
:1021A00009F080E08093F4031092E9008091E80048
:1021B000877F8093E8000E9485058091E80083FF77
:1021C0000AC08091E800877F8093E8008091EB004F
:1021D00080628093EB00AA960FB6F894DEBF0FBE24
:1021E000CDBFDF91CF911F910895CF93DF93682FDB
:1021F00081E06A3019F06D3029F480E0DF91CF91F1
:102200000C948411809125069091260626E0FC010D
:10221000AFE1B6E001900D922A95E1F7603E08F437
:102220005AC026E0FC0111922A95E9F7C0912506D3
:10223000D091260646E050E0BE018FE196E00E9474
:102240006F2C9E012F513440892B41F1C90145E08B
:10225000969587954A95E1F741E050E0BA0102C0B2
:10226000660F771F8A95E2F7CB0160911D0470918C
:102270001E04862B972BB9016B5F7F4FE5E07695A7
:102280006795EA95E1F702C0440F551F6A95E2F79A
:10229000842B952B90931E0480931D042A5F3F4F3F
:1022A00040911C04642F70E0C9010E94112C481B4E
:1022B000463010F4240F311D211572E0370710F05D
:1022C00030E020E0215E3B4F309326062093250628
:1022D000DF91CF910895F6E06F9FB00111246A5EFF
:1022E0007B4F46E050E00E94592CA0CFCF93DF9364
:1022F000EC01FE018491811103C0DF91CF9108951B
:102300000E94F5102196F5CFCF93382FE091250646
:10231000F0912606EF51F44020911C04622F70E0EA
:10232000CF010E94112C281B822F332361F066E01D
:102330000E94252CC82FC15010F4CF91089580E23F
:102340000E94F510F8CF9F01280F311D2115324052
:1023500018F080E0F0E0E0E08E0F9F2F911D815E8D
:102360009B4F9093260680932506E7CFCF93DF936C
:10237000CDB7DEB768970FB6F894DEBF0FBECDBFFE
:102380004091E7025091E8026091E9027091EA02FF
:102390008091EB029091EC020E9443162093E70299
:1023A0003093E8024093E9025093EA026093EB0213
:1023B0007093EC0286E0E7EEF2E0DE011796019002
:1023C0000D928A95E1F786E0FE013796DE011196BF
:1023D00001900D928A95E1F786E0FE013196DE01CB
:1023E0001D9601900D928A95E1F786E0FE013D96DB
:1023F000DE01539601900D928A95E1F786E0FE0189
:102400007396DE01119601900D928A95E1F786E0B0
:10241000FE013196A7EEB2E001900D928A95E1F7A8
:1024200086E0E7EEF2E0DE01179601900D928A95C4
:10243000E1F786E0E1EEF2E0DE01119601900D9207
:102440008A95E1F746E050E0BE016F5F7F4FCE0115
:1024500007960E946F2C892B79F0E091E003F091B0
:10246000E103309749F082E08093E7020480F58130
:10247000E02D87EE92E009951092E9021092EA02AF
:102480001092EB021092EC0286E0E7EEF2E0A1EE91
:10249000B2E001900D928A95E1F768960FB6F89434
:1024A000DEBF0FBECDBFDF91CF9108950F931F9375
:1024B000CF93DF93EC01FC0101900020E9F78F013D
:1024C00001501109C017D10728F0DF91CF911F915A
:1024D0000F91089589910E94F510F4CFCF92DF9269
:1024E000EF92FF920F931F93CF93DF936C017B01C9
:1024F00064E670E088E70E94EE28EC0197FD12C0C8
:1025000010E000E0F601E00FF11F849164E670E056
:102510000E946829EC01892B29F40F5F1F4F0E15CB
:102520001F0581F70E94EB29CE01DF91CF911F910A
:102530000F91FF90EF90DF90CF9008958091DE0390
:102540009091DF03911103C091E0892708958823BA
:1025500069F062E070E082E193E00E946E12892BE4
:1025600019F08091DE0308951092DE038091DE035E
:10257000EBCFCF93C091DE038091DF038823D1F0AE
:102580000E949B06605A75418F4F9F4F6093DA03FC
:102590007093DB038093DC039093DD03C11108C0CB
:1025A00062E070E080E193E00E946E12892B29F0D6
:1025B000C091DE038C2FCF91089581E08093DE03DC
:1025C000F7CFCF92DF92EF92FF926B017C010E94D6
:1025D000CE06B701A60188E090E0FF90EF90DF9073
:1025E000CF900C94AB2CEF92FF920F931F93CF934D
:1025F000DF9300D00F92CDB7DEB7F82E062F142F41
:10260000E22E8091D10380FF3DC0E82FE695F0E0F7
:10261000E955FE4F90819093D6038E7F823079F4F6
:10262000493708F048E79E012F5F3F4F602F8F2DFD
:102630000E94E4064B8169818A810E94400D80914D
:10264000D2038F1108C08091D303801304C08091FE
:10265000D403811729F08091D80382608093D80336
:10266000F092D2030093D3031093D403EE2051F0E1
:102670006091D1037091D2038091D3039091D403E0
:102680000E94E1120F900F900F90DF91CF911F9158
:102690000F91FF90EF900895E1EDF3E043812CE07E
:1026A000421B08F440E021E0628181810C94F31226
:1026B000E1EDF3E043812CE0420F08F44FEF21E01D
:1026C000628181810C94F312E1EDF3E0628121E1FA
:1026D000621B08F460E021E0438181810C94F312D5
:1026E000E1EDF3E0628121E1620F08F46FEF21E098
:1026F000438181810C94F312E1EDF3E0818121E0CB
:102700004381628181510C94F312E1EDF3E0818108
:1027100021E0438162818F5E0C94F3128091D50396
:10272000882319F081508093D5036091D103709173
:10273000D2038091D3039091D4030C94E112809141
:10274000D503833018F48F5F8093D5036091D10354
:102750007091D2038091D3039091D4030C94E11231
:10276000E1EDF3E083E0808311828FEF828388E7DD
:1027700083831482A6EDB3E012968C911297836046
:1027800012968C9360817181828193810C94E11205
:10279000EF92FF920F931F93CF93DF937901C82F8E
:1027A000880FDD0B41155105A9F08AE08C9FF001DF
:1027B0008D9FF00D1124E65FFE4F83819481875D2C
:1027C0009D4F228130E04217530708F49A01A90176
:1027D0000E947C2CCE010E945D2B892B11F50115E6
:1027E0001105E9F08AE08C9FF0018D9FF00D112416
:1027F000E65FFE4F458150E00417150708F4A80175
:102800008AE08C9FF0018D9FF00D1124E65FFE4F52
:1028100066817781675D7D4FC7010E947C2C81E0D6
:1028200001C080E0DF91CF911F910F91FF90EF9059
:102830000895AF92BF92CF92DF92EF92FF920F93E3
:102840001F93CF93DF9300D000D0CDB7DEB78C833A
:10285000E62E5A01F22E6801809127068A3080F018
:1028600080E00F900F900F900F90DF91CF911F910C
:102870000F91FF90EF90DF90CF90BF90AF900895B1
:102880008C8188306CF389836A832B8360933E014B
:102890002093550110E000E030E020E043E050E0FC
:1028A000BE016F5F7F4F84E00E94C8138823C1F28E
:1028B0004E2D50E030E020E0B50185E00E94C813C5
:1028C000882371F230E020E041E050E0BE016C5F0F
:1028D0007F4F86E00E94C813882311F20F2D10E06D
:1028E000960150E040E070E060E087E00E94C8138D
:1028F000B8CF0F931F93CF93DF93CDB7DEB7289751
:102900000FB6F894DEBF0FBECDBF85E0E1EDF3E07A
:10291000DE01119601900D928A95E1F78091D60320
:102920009091D703A091D8038E839F83A887288591
:1029300040918B0250918C0260918D0270918E02B9
:102940003FB7F8948091E3039091E403A091E503ED
:10295000B091E6033FBF841B950BA60BB70B8436E3
:102960009105A105B10510F42223C1F010E000E0AB
:1029700030E020E048E050E0BE016F5F7F4F83E031
:102980000E94C813882369F00E949B0660938B0203
:1029900070938C0280938D0290938E021092D803D4
:1029A00081E028960FB6F894DEBF0FBECDBFDF9151
:1029B000CF911F910F9108950F931F93CF93DF93A2
:1029C00000D000D0CDB7DEB7409187025091880289
:1029D0006091890270918A022FB7F8948091E30385
:1029E0009091E403A091E503B091E6032FBF841B0F
:1029F000950BA60BB70B11E084369105A105B10527
:102A000018F10E94CC0D6E5F7F4F8F4F9F4F6983EF
:102A10007A838B839C8310E000E030E020E044E088
:102A200050E0BE016F5F7F4F82E00E94C813182FF5
:102A3000882351F00E949B0660938702709388025E
:102A40008093890290938A02812F0F900F900F90AC
:102A50000F90DF91CF911F910F910895EF92FF9208
:102A60000F931F93CF93DF9300D000D000D0CDB74A
:102A7000DEB77B0101E010E09E012A5F3F4F50E08E
:102A800040E070E060E080E00E94C813182F8823C7
:102A900009F44FC0409183025091840260918502F5
:102AA000709186022FB7F8948091E3039091E4032C
:102AB000A091E503B091E6032FBF841B950BA60BF5
:102AC000B70B84369105A105B10538F48AE292E08E
:102AD0000E94F4049E81891761F105E010E09E01D7
:102AE0002F5F3F4F50E040E070E060E081E00E94E7
:102AF000C813082F8AE292E00E94F40411E09E813C
:102B0000981310E0102301F10E949B06609383024A
:102B100070938402809385029093860285E0FE0183
:102B20003196AEE7B2E001900D928A95E1F711E09F
:102B30000BC085E0EAE2F2E0DE01119601900D9211
:102B40008A95E1F71111EACF85E0EEE7F2E0D701CF
:102B500001900D928A95E1F7812F26960FB6F89491
:102B6000DEBF0FBECDBFDF91CF911F910F91FF90C0
:102B7000EF90089569EE7EEF90E080E00E94B72C20
:102B800060E082E090E00E94992C60E083E090E0B9
:102B90000E94992C1092270260E084E090E00E944D
:102BA000992C60E082E290E00E94992C60E085E040
:102BB00090E00E94992C60E086E090E00E94992CC1
:102BC0006FEF87E090E00E94992C40E050E0BA015E
:102BD00088E090E00E94AB2C60E08DE090E00E94E5
:102BE000992C40E050E0BA0188E190E00E94AB2CC3
:102BF00060E087E190E00E94992C40E050E0BA014B
:102C00008CE190E00E94AB2C70E060E080E290E00C
:102C10000E94B72C40E050E0BA0188E190E00E94A9
:102C2000AB2C40E050E0BA018FE090E00E94AB2C6A
:102C300040E050E0BA0183E190E00C94AB2CCF93DC
:102C4000C0919702C2FB992790F9981799F080FBE1
:102C5000C2F9C09397026091960284E090E00E94CE
:102C6000992C6C2F82E290E00E94992C82E0CF9107
:102C70000C946E0ACF91089530E020E043E060E0CC
:102C800086E30C941628CF92DF92EF92FF920F9377
:102C90001F93CF93DF93CDB7DEB72C970FB6F89481
:102CA000DEBF0FBECDBF4F83588769877A878B877A
:102CB0009C878091FF03882399F00E943C1680E551
:102CC0000E948E288AEB8A95F1F700C00E94A62800
:102CD000887899278038910509F492C00E94BE280F
:102CE0000E94980D882309F46BC00E949B060091F6
:102CF000C4011091C5012091C6013091C7016B013B
:102D00007C01C01AD10AE20AF30A97018601083051
:102D100011052105310508F453C06093C401709377
:102D2000C5018093C6019093C70100910E041091D4
:102D30000F042091100430911104601B710B820B61
:102D4000930B623371058105910580F410920304A1
:102D500010920204109205041092040410920704C9
:102D600010920604109209041092080410910C04A9
:102D70000E94E70D482FBE01695F7F4F82E094E01B
:102D8000112309F46AC00E94790B00910C04109180
:102D9000FF030E94E70D41E04827BE01695F7F4FB6
:102DA00086E094E0011709F45BC00E94790B86E08D
:102DB000FE013796A6E1B4E001900D928A95E1F705
:102DC00086E0FE013796DE01119601900D928A95FC
:102DD000E1F729813A814B815C816D817E8180E0C0
:102DE00090E02C960FB6F894DEBF0FBECDBFDF91FA
:102DF000CF911F910F91FF90EF90DF90CF900895AA
:102E00000E94A6280E94A6287C010E94A62820E0F5
:102E1000E22AF82A0E94A6288C010E94A62820E017
:102E2000022B182B0E94BE28F894B701809102044F
:102E3000909103040E94300C909303048093020449
:102E4000B80180910404909105040E94300C909385
:102E5000050480930404789443CF0E94D60B95CF49
:102E60000E94D60BA4CFCF93DF93D82FC62F0E94FA
:102E70003C168D2F80680E948E288C2F0E948E28F1
:102E80000E94BE288FEC92E00197F1F700C000008D
:102E9000DF91CF910895682F893708F068E7609334
:102EA0000A0491E090930B049091FF03992359F049
:102EB0006150811101C064E08FE00E94331760E02F
:102EC00080E50C9433170895FB0180810C944B1717
:102ED00090910A04911101C095E0282F880F330BBF
:102EE000A901490F511DCA011816190614F081E0F5
:102EF00090E00C944B17CF93C82F0E943C168C2F58
:102F00000E948E288FE792E00197F1F700C0000041
:102F10000E94A628C82F0E94BE289AE69A95F1F72B
:102F200000C08C2FCF910895CF93DF930E940E287D
:102F3000269A0E943C166AE58AE30E9433172FEF17
:102F400080E792E0215080409040E1F700C000000F
:102F500082E00E947B1783E00E947B1784E00E943E
:102F60007B1785E00E947B1786E00E947B1760E05C
:102F700080E10E94331780E00E947B17D82F81E008
:102F80000E947B17C82F0E94BE28D23419F481E01A
:102F9000C13009F080E081708093FF03882351F0F5
:102FA00064E08FE00E94331760E080E5DF91CF910D
:102FB0000C943317DF91CF9108951F920F920FB6A3
:102FC0000F9211242F933F934F935F936F937F93AF
:102FD0008F939F93AF93BF93CF93DF93EF93FF9321
:102FE000D091E900DF708091EC00C82FC17080FDA6
:102FF000C0E81092E9008091F000877F8093F00094
:1030000078940E94370E1092E9008091F000886059
:103010008093F000CD2BCF70C093E900FF91EF912A
:10302000DF91CF91BF91AF919F918F917F916F91E0
:103030005F914F913F912F910F900FBE0F901F9076
:1030400018951F920F920FB60F9211242F933F9352
:103050004F935F936F937F938F939F93AF93BF93A0
:10306000EF93FF938091E10082FF09C08091E2001D
:1030700082FF05C08091E1008B7F8093E100809109
:10308000DA0080FF24C08091D80080FF20C08091AA
:10309000DA008E7F8093DA008091D90080FF9DC096
:1030A00080E189BD82E189BD09B400FEFDCF81E0E8
:1030B0008093F5038091E703811109C00E940B05FD
:1030C0000E94D6058091E20084608093E2008091A6
:1030D000E10080FF17C08091E20080FF13C0809163
:1030E000E2008E7F8093E2008091E2008061809315
:1030F000E2008091D80080628093D80019BC85E0FE
:103100008093F5038091E10084FF2BC08091E20061
:1031100084FF27C080E189BD82E189BD89B5982FF0
:10312000917080FFFBCF8091D8008F7D8093D80075
:103130008091E1008F7E8093E1008091E2008F7E9C
:103140008093E2008091E20081608093E2008091B0
:10315000F603882309F447C084E08093F503809147
:10316000F5038091E10083FF27C08091E20083FF97
:1031700023C08091E100877F8093E10082E080930B
:10318000F5031092F6038091E1008E7F8093E100B9
:103190008091E2008E7F8093E2008091E200806166
:1031A0008093E20042E060E080E00E94A40580910C
:1031B000F00088608093F000FF91EF91BF91AF9194
:1031C0009F918F917F916F915F914F913F912F913F
:1031D0000F900FBE0F901F90189519BC1092F50319
:1031E0001092E70374CF8091E30087FD93E0909302
:1031F000F503B5CF78941F921FB61F9211248F93B9
:103200009F93AF93BF938091E3039091E403A091C8
:10321000E503B091E6030196A11DB11D8093E30380
:103220009093E403A093E503B093E603BF91AF91BD
:103230009F918F911F901FBE1F9018959C014FB7B3
:10324000F8948091E3039091E403A091E503B09199
:10325000E6034FBF821B930B08952FB7F89480911C
:10326000E3039091E403A091E503B091E6032FBF3F
:1032700008950E94980D81110C942D190E94CC0D77
:10328000CB0108956091D103669570E041E050E074
:103290008BE891E00E94622C892B19F481E08093E5
:1032A000D7030E9439199093CC038093CB0380916C
:1032B000D80384608093D80308959091D10390FF40
:1032C0003BC0917081112EC092609093D103809188
:1032D000D80381608093D803662351F06091D103B5
:1032E0007091D2038091D3039091D4030E94E11294
:1032F0006091D103669570E041E050E08BE891E089
:103300000E94622C892BA9F00E94C70681E080935D
:10331000CE0320E04091D4036091D3038091D20387
:103320000C94F312833010F09460CFCF880F982B59
:10333000CCCF0E944219EACF08958091D10386959F
:10334000815009F482E061E00C945D198091D10311
:1033500086958F5F833008F081E061E00C945D1901
:103360008F929F92AF92BF92CF92DF92EF92FF9295
:103370000F931F93CF93DF93CDB7DEB762970FB64E
:10338000F894DEBF0FBECDBF7C01FC018381948128
:10339000892B39F010810181812F80238F3F09F023
:1033A00029C462960FB6F894DEBF0FBECDBFDF9181
:1033B000CF911F910F91FF90EF90DF90CF90BF9032
:1033C000AF909F908F9008950E949F09D82E682FEC
:1033D00089819A810E942D0AE02FF0E02AE0D29E96
:1033E000E00DF11D112403E0EE0FFF1F0A95E1F738
:1033F000E10FF11DEE0FFF1FE455FF4F25913491B2
:103400003093130420931204F701808191819093EB
:10341000150480931404213F310540F0293F310504
:10342000A8F02D3AFDE53F0709F468C0F701828155
:10343000882309F4F0C3F901E65AFD45EA30F105A5
:1034400008F09BC0E951F34D0C94532C215F3109D6
:1034500081E090E001C0880F2A95EAF7328126E0EA
:10346000E7EEF2E0DE01179601900D922A95E1F762
:1034700026E0FE013796DE011D9601900D922A95F9
:10348000E1F728853323B9F1822B8E8786E0FE0190
:103490003D96DE01119601900D928A95E1F786E046
:1034A000FE013196A7EEB2E001900D928A95E1F708
:1034B00080912302877009F474CFF70182818823F9
:1034C00009F46FCF8091970282FD6BCF82E0629604
:1034D0000FB6F894DEBF0FBECDBFDF91CF911F9125
:1034E0000F91FF90EF90DF90CF90BF90AF909F90A3
:1034F0008F900C946E0A80958223C7CFF70182814A
:103500000E94650BD5CF80E00E944B1710920D04EE
:10351000CFCF40910A0450910D0450FB47F95695C6
:10352000537060E070E08FE090E00E94AB2CC0CF61
:1035300081E00E946817BCCF8FEFFBCF8AE0F9CF04
:1035400086EFF7CF90910C0481E08927D9CF809145
:103550000D04811101C084E08F5F18160CF081E02A
:10356000883008F087E080930D04A2CF80910D048D
:10357000811101C084E08150F0CF2631FCE53F0786
:1035800009F00FC18091E8038A7A91E009F490E094
:103590009093C80169E2811165E38CEA91E00E9491
:1035A000A7060E94680984CF85E33FC38091E803A2
:1035B00082722A3C9CE5390709F4E8C008F081C012
:1035C000263CFCE53F0709F4DCC008F064C0243C5D
:1035D000ECE53E0709F4C9C008F0CEC0233C3C45E9
:1035E00009F497C0F701828110810181882309F4D1
:1035F0001DC1812F902F0E949F09D82E682F812FE7
:10360000902F0E942D0A2AE0D29EF0011124E00F93
:10361000F11D73E0EE0FFF1F7A95E1F7E10FF11D49
:10362000EE0FFF1FE455FF4F859194910E94F5071F
:103630008C01882EF701C280B580B294BFE0BB2216
:10364000809123028770C1F0AC2CCC20B1F0812F87
:10365000807F803421F080E2800F883068F0809194
:10366000970282FD09C082E00E946E0A80912302C7
:103670008770AA24A3948111A12C912E92946FE0BB
:103680009622FBE0F91508F43FC1E92DF0E0EF5078
:10369000F34D0C94532C44E653E160E773E1283C6E
:1036A0009CE5390709F465C045E853E16CE773E12F
:1036B000293C3C4508F45DC040E753E164E673E112
:1036C00058C02E3CFCE53F0709F465C0B0F44EE855
:1036D00053E16FE973E12C3CECE53E0709F449C086
:1036E00048E553E16CE473E12D3C3C4508F441C0EE
:1036F0004FE953E16EE873E13CC0263D8CE53807A5
:1037000009F44CC008F4D4CE2E353D4509F4D0CE92
:1037100069CF8091D10380FF20C08E7F8093D10339
:103720006091D1037091D2038091D3039091D4031F
:103730000E94E1120E94C7068091D80381608093A5
:10374000D803FFEF20E732E0F15020403040E1F7AE
:1037500000C000000E94F50CABCE81608093D103C5
:1037600061E086950E945D19A3CE4DE959E166EAB4
:1037700079E10E94C1069CCE46EA59E16DE979E102
:10378000F8CF4CE753E165E873E1F3CF4CE453E144
:1037900068E573E1EECF61E081E0E4CF61E082E0D3
:1037A000E1CF2B358DE5380709F43CC058F42115DD
:1037B000ECE53E07C9F02F3D3C4509F013CF0E94D0
:1037C000BA1576CE2C358DE5380771F12D353D458E
:1037D00009F008CF8091970282FB882780F991E059
:1037E00089270E941F16FECE1092E8030E942A0E1F
:1037F000EFEFF4E32CE0E150F0402040E1F700C0AF
:10380000000087E797E7909301088093000888E11C
:103810009AE00FB6F894A895809360000FBE90933D
:103820006000FFCF81E0DDCF80E0DBCF812F902FE4
:103830000E94050AD82EE7CE212F2F70D22E107F9E
:1038400019F0D29450EFD522CC20B9F0DD2069F0E8
:1038500080E2800F883010F0811009C08091E80369
:10386000D82AD092E8030E946809802F4BC080912B
:103870002502D82AD0922502F6CF802F0E94D50AA1
:10388000DD2009F441C0005E083010F0811004C052
:103890008D2D0E94610906C0D09480912502D82206
:1038A000D09225020E9468092FC0312F3F70D32E7D
:1038B000107F103219F0D29440EFD422882089F082
:1038C00081E0881609F48BC0CC2009F495C0BB2098
:1038D00009F48BC0F701858180FFC7CF8F70858386
:1038E00084C02091970222FF57C0CC2009F44DC01C
:1038F000DD2039F08091E803D82AD092E8030E94B5
:10390000680980E00E942B0BE92DE850FF0B3497EB
:1039100010F40E94BC0DAA20A9F08091230280FD22
:1039200011C0F70112828595859585950E948A0AB6
:10393000C7010E94B01980912302859585958595D0
:103940000E94620A85E0F701DE01119601900D9256
:103950008A95E1F789819A810E94050AEA81FAE055
:103960008F9FC00111248E0F911D23E0880F991F96
:103970002A95E1F7E981E80FF92FF11DEE0FFF1FFE
:10398000E455FF4F859194910CCD80E00E94D50ABB
:10399000DD2009F4B9CF7CCFCC20A1F09091260294
:1039A0008D2D892BB11003C00E94CB0AADCFE1E071
:1039B000BE12FACF22FDA8CF891709F4A5CF8093B4
:1039C0002602A2CFB11006C00E945B098D2D0E9475
:1039D000C40A9ACFF1E0BF1609F496CFF5CFCC20F8
:1039E00031F025E02B1508F48FCF8D2DDDCF34E09D
:1039F0003B1508F489CFEACFBB2041F3F9E38F12DE
:103A0000F2C02FEF37EE83E0215030408040E1F7E5
:103A100000C00000E8C0812F837089F5C11074CF09
:103A2000402F429546954770440F440F802F8F706A
:103A3000042E01C0880F0A94EAF7202F207104FF9A
:103A400007C02FE030E001C0220F4A95EAF7209529
:103A5000169516951370123069F050F430912702C4
:103A6000113029F0822B83230E94950A4DCF832B9E
:103A7000822BFACF282B809127028227F5CF8695BB
:103A8000CC2011F0812F8170882309F43DCF402F85
:103A9000429546954770440F440F802F8F70042E37
:103AA00001C0880F0A94EAF7202F207104FF07C095
:103AB0002FE030E001C0220F4A95EAF720951695D5
:103AC00016951370123069F050F430919502113050
:103AD00029F0822B83230E945A0A16CF832B822B34
:103AE000FACF282B809195028227F5CF1F70CC202A
:103AF00029F0812F0E948A0A802F56CF802F0E94A2
:103B0000C40A812F0E94620AFFCE802F92EF89168D
:103B1000A9F1981570F0E0EF8E16D1F0F1EF8F1645
:103B200091F0CC2009F45AC0B1109FCE812F8F7133
:103B300029C023EF821649F134EF8312F2CF80912E
:103B4000970282FF2DC0812F8F71CC20D9F21AC02D
:103B5000CC2079F084E08B1508F4D6CE1F7181E07B
:103B600090E001C0880F1A95EAF790919502892795
:103B7000B2CF95E09B1508F4C7CEF0CF812F8F719F
:103B8000C110C0CF0E948A0ABFCE80E0CC2009F4C9
:103B9000A2CF1F7181E001C0880F1A95EAF79BCF71
:103BA000CC2089F01F71812F0E948A0A8091970290
:103BB00082FD07C0E8E01E9FC0011124836080934E
:103BC0002302812FDFCF81E00E946E0AF1E0FB1516
:103BD00008F09ACE82E00E946E0A96CEBB2039F0A1
:103BE000893309F40ECF802F0E94D50A8DCE812F04
:103BF0008F7188CF85E0DE01119601900D928A9534
:103C0000E1F7F701228189819A812111DDCB0E94A0
:103C1000050AD82EE1CB2631FCE53F0709F0C6CCDA
:103C20008091C8018111C0CC89E2EEEAF1E024EB79
:103C300031E09191891303C0DF0111971C922E1777
:103C40003F07B9F7AECC1F93CF93DF938091F0017C
:103C5000807FA9F48091ED01882389F08091220270
:103C6000D091F1016091EB017091EC01A091EE0116
:103C7000B091EF01C62FC72316E0D81304C0DF911F
:103C8000CF911F91089590E0109711F0CF3F19F454
:103C900001968770F2CF189F9001199F300D112463
:103CA000F901EE50FE4F41814713F2CF4081461398
:103CB000EFCF42814111ECCF438154814A1B5B0B12
:103CC000483C510528F78091F0018F708061809306
:103CD000F001F901E950FE4F80818F70806180838F
:103CE0008BEE91E00E94B019DF91CF911F910C945F
:103CF0009509AF92BF92CF92DF92EF92FF920F930E
:103D00001F93CF93DF93CDB7DEB761970FB6F894CB
:103D1000DEBF0FBECDBF8C0185E0F801DE011D9630
:103D200001900D928A95E1F7F801E2808BEEA82EC2
:103D300081E0B82E6091EE017091EF01611571057F
:103D400009F432C19091EB014091EC01892F842359
:103D50008F3F09F429C120813181C380D480F09044
:103D6000ED01F601E61BF70BFF2009F4E8C0809196
:103D7000F001582F507FE83CF10508F0ABC051111D
:103D800077C0FE2C431321C092131FC0E1101DC049
:103D90008F7080618093F001C5010E94B0198091FD
:103DA000F001F80185838F2D61960FB6F894DEBF80
:103DB0000FBECDBFDF91CF911F910F91FF90EF907C
:103DC000DF90CF90BF90AF900895CD2829F0822F3B
:103DD00083238F3F09F003C180E0F82FF170DF2EBD
:103DE00080FF3CC0809122024091F10156E0841393
:103DF00015C02D873E878D859E850E94E909292F54
:103E000022952F702230F0F0243018F59F70F1F0D9
:103E1000F8019581907FD1F4D12C1EC090E0589F7D
:103E2000F001599FF00D1124EE50FE4F61813613C1
:103E300006C06081261303C06281E6120FC001969E
:103E40008770D5CF9F7011F0882331F3805E883062
:103E500018F3C8010E94B019FD2CA5CFEE2009F47B
:103E6000A2CF8091F00181608093F001F12C9BCF73
:103E7000431306C0921304C0F801EE2009F479C080
:103E8000C8010E949D0A882309F1EE20F9F0809173
:103E9000F001803270F02091EB013091EC01388715
:103EA0002F831986DB86CA868C87CE0107960E94EF
:103EB000B01986E0F801ABEEB1E001900D928A9561
:103EC000E1F70E94231EFF24F3946DCFC8010E94E6
:103ED000B019F9CF51110AC08BEE91E00E94B019D0
:103EE00086E0F50111928A95E9F7C0CF43130FC020
:103EF00092130DC0E1100BC0F8018583C8010E9428
:103F0000B01986E0F50111928A95E9F74CCFC80106
:103F10000E949D0A8823D1F2EE20C1F28091F00127
:103F2000803238F22091EB013091EC013A83298301
:103F30001B82DD82CC828E83CE010196B8CFE83C15
:103F4000F105F8F6FE2CEE2009F243131FC0921380
:103F50001DC08091F00180FD10C0982F907F69F006
:103F6000F8018583903F31F0982F907F905F8F709C
:103F7000892B8583C8010E94B01986E0F801ABEE59
:103F8000B1E001900D928A95E1F70DCFC8010E9432
:103F90009D0A81118ECF8091F00181608093F001A4
:103FA000C8010E94B019FFCEEE2009F48FCFC801DE
:103FB0000E949D0AF82E882309F488CF86E0F80134
:103FC000ABEEB1E001900D928A95E1F78091EB01A3
:103FD0009091EC010E94E9090E94231EE4CE81E049
:103FE0008E25FBCE1F93CF93DF93CDB7DEB76797B8
:103FF0000FB6F894DEBF0FBECDBF4B8B5C8B6D8BC5
:104000007E8B8F8B6111109225021A8A198A85E0A6
:10401000FE017396DE011D9601900D928A95E1F7DF
:1040200086E0FE013D96DE01179601900D928A957D
:10403000E1F7CE0107960E94791E882389F016E0E9
:10404000809122029091F10189134BC067960FB6BF
:10405000F894DEBF0FBECDBFDF91CF911F910895C1
:1040600086E0FE013796DE01119601900D928A9549
:10407000E1F78A859B85892B11F38F8198858923A8
:104080008F3FE9F22091F10130E0C901019687707C
:104090009927409122024817190681F41092E803EB
:1040A0000E942A0E1092F1011092220286E0EBEE9D
:1040B000F1E0DF011D928A95E9F7C1CF96E0929F6A
:1040C000D001939FB00D1124AE50BE4FFE0131962A
:1040D00001900D929A95E1F78093F1010E94950964
:1040E000AECF819FC00111248E509E4F0E94791E39
:1040F000882309F4ABCF8091220290E0019687706B
:104100009927809322029CCF4F925F926F927F9269
:104110008F929F92AF92BF92CF92DF92EF92FF92D7
:104120000F931F93CF93DF9338E2E32E36E0F32E05
:1041300046E0642E41E0742E470101E011E0512C6D
:10414000AA24A394B12CD8018D918D010E94430C17
:1041500000C0E401488026E0C22E21E0D22EF60104
:10416000D0E0C0E04191A42FA295AF70B0E090964E
:104170008C9195010C2E01C0220F0A94EAF790E071
:104180004F7002C0959587954A95E2F780FD87C0EC
:10419000422A2196C430D10529F7F8013197808150
:1041A0000E94570CA0EAAA95F1F7F40180818415CA
:1041B00019F0408255245394FFEF8F1A9F0A60161E
:1041C000710609F601E010E0D6018D916D010E94A3
:1041D000430C00C0C8010C2E01C0880F0A94EAF7F6
:1041E000782FE8E2F6E091E0A92E91E0B92E682F51
:1041F0006095D5012D915D01822F82958F7090E0A1
:10420000DC0190968C91AF01308190E02F7002C05C
:10421000959587952A95E2F780FD44C0872F832BDB
:1042200080833196DA018C91381711F0552453941C
:10423000B6E0AB16B1E0BB06E1F6F601319780813E
:104240000E94570CE0EAEA95F1F72196C830D105B3
:1042500009F0BACFC0919402552039F181E08093E2
:10426000B7010E942D199093B6018093B5018091FA
:10427000B5019091B6010E941E190597D0F0EC2F60
:10428000F0E0E756FD4F8DE296E0D7012D917D01DC
:1042900021938A179B07C9F71092B7010AC020958E
:1042A000422277CF862F8323BBCF8091B701811124
:1042B000DECF0E94980D182FE09194028111A3C0C7
:1042C000F0E0E756FD4FF89485E0AAE2B2E00190F5
:1042D0000D928A95E1F78AE292E00E94F4048093BD
:1042E00029027894F894C0902F02D0903002E09088
:1042F0003102F09032028091B8019091B901A09101
:10430000BA01B091BB01C816D906EA06FB06D1F086
:10431000C092B801D092B901E092BA01F092BB010B
:104320000E94980D81110EC00E949B06C61AD70AE2
:10433000E80AF90AC0928F02D0929002E0929102AC
:10434000F09292027894F89480913A02882379F15D
:1043500080FF0DC0809133029091D10380FF3AC05D
:1043600091609093D10360E086950E945D198091E1
:104370003A0281FF09C020E0409136026091350287
:10438000809134020E94F31280913A0282FF06C0AB
:10439000809139028823A1F10E94421980913A024A
:1043A00083FF03C081E08093CE0310923A02789499
:1043B000852DDF91CF911F910F91FF90EF90DF90AE
:1043C000CF90BF90AF909F908F907F906F905F90B5
:1043D0004F9008959E7F9093D1030E94C7068091CD
:1043E000D80381608093D803BFEFC0E7D2E0B1501B
:1043F000C040D040E1F700C000000E94F50CB7CFEC
:104400000E94C706CBCFADE2B6E085E0ED01199280
:104410008A95E9F7CE2FD0E0C756DD4F8091270669
:104420008A30A8F56EE275E1CE010E946C0C8823FB
:1044300009F449C06CED74E1CE010E946C0C882334
:1044400009F441C069E774E1CE010E946C0C882335
:10445000D1F11092270681E08093BE01C0919302B2
:10446000D0E0C756DD4F45E050E06DE276E0CE018A
:104470000E946F2C892B09F49BCF85E0EDE2F6E0DA
:10448000DE0101900D928A95E1F7512E91CF809136
:10449000BC019091BD010E941E19843F914010F60D
:1044A0008091BE01882309F483CF1092BE01E09170
:1044B0009302F0E0E756FD4F95E0DF011D929A95DB
:1044C000E9F7582E75CF809127068F3F31F08F5F27
:1044D000809327068A3008F4BECF0E942D1990934E
:1044E000BD018093BC01DCCF1F921FB61F92112427
:1044F0008F939F93AF93BF938091E203811113C079
:104500008091E3039091E403A091E503B091E60369
:104510004196A11DB11D8093E3039093E403A09302
:10452000E503B093E603BF91AF919F918F911F90E8
:104530001FBE1F901895CDB7DEB760970FB6F894E1
:10454000DEBF0FBECDBF84B7877F84BF0FB6F894A0
:10455000A89580916000886180936000109260004F
:104560000FBE80E890E00FB6F894809361009093BE
:1045700061000FBE85B7806885BF85B7806885BF3D
:104580008EE897E09093AB018093AA010E940B05FF
:104590000E94D6058091E20084608093E2007894C6
:1045A0008091F5038823A1F01091E9001F7090918C
:1045B000EC00892F817090FD80E8182B1092E900A3
:1045C0008091E80083FD0E94370E1F701093E90070
:1045D00082E084BD93E095BD9AEF97BD80936E0015
:1045E00010928F02109290021092910210929202F9
:1045F0000E94E70D8093000180910001882309F457
:1046000001C310928D0185E280938E010E94980D66
:1046100081110E94502A809106010E94570C8091BE
:1046200007010E94570C809108010E94570C80914D
:1046300009010E94570C01E011E0E6E0EE2EE1E0F6
:10464000FE2ED8018D918D010E94570CE016F106C7
:10465000C1F78091000195E0811190E09093940260
:1046600085E0891B809393020E94980D811102C0FE
:104670000E94532AE8E2F6E082E396E0A9E9B2E07C
:1046800011921D928E179F07D9F790E080E00E944B
:10469000932C893E9E4F11F00E94BA1582E090E063
:1046A0000E94852C8093CB0284E090E00E94852CB0
:1046B000182F82E290E00E94852C982F812F9093F2
:1046C00097028093960283E090E00E94852C0E94DE
:1046D000950A0E94980D882309F498C280E080937F
:1046E000C60280E880931C040E94E8286DE070E018
:1046F0008FE591E00E946E12892BE9F58091C60248
:1047000063E070E081FD84C28CE591E00E946E124E
:10471000892B89F56DE070E08CE491E00E946E12C7
:10472000892B49F50E949B06605A75418F4F9F4F18
:104730006093DA037093DB038093DC039093DD03D3
:10474000EFE1F4E080E092E0DF019C011D92215056
:104750003040E1F7F0932606E09325068FEF9FEFB8
:1047600090931E0480931D0481E08093DF03809367
:10477000DE031092C7028091980281113BC090E045
:1047800080E00E94932C893E9E4F21F00E94BA1532
:104790000E94B01388E090E00E948D2C6093D103BA
:1047A0007093D2038093D3039093D4038091D80362
:1047B00083608093D8036E7F71F40E94B01388E009
:1047C00090E00E948D2C6093D1037093D20380936C
:1047D000D3039093D4030E94CE060E94C706809113
:1047E000D10380FF04C060E086950E945D1981E0DE
:1047F000809398020E9494170E94980D81112EC0F8
:1048000084E29EE0909363018093620125E130E0B1
:1048100030935E0120935D0185E390E09093610108
:10482000809360014AE757E050936D0140936C011B
:10483000309368012093670190936B0180936A0124
:1048400044E657E15093770140937601309372012B
:1048500020937101909375018093740190E080E042
:104860000E94932C893E9E4F89F48FE090E00E9435
:104870008D2C8B01862F8F770E944B17001F0027EE
:10488000001F1370110F102B10930D040E94FE0DCA
:104890008091D10381608093D10360E086950E946E
:1048A0005D1960E082E00E945D1988E791E09093D5
:1048B000E1038093E00378E1872E912C8091F5034A
:1048C00012E1853009F4E5C10E948420D82E8111BF
:1048D0000E949B06A5E9B1E04CEC52E029E932E0E8
:1048E00010E000E0B02EF901F1909F018D91F822C7
:1048F000FA018191AF018F1509F4DCC18F25C12C1C
:10490000EE24E394982F9E2109F4CFC10E94980DC4
:10491000882399F0C982BA82FE2081E009F480E000
:104920008B830E942D198160782F9D838C83498110
:104930005A816B818D810E94F21FF801E453FD4F73
:104940008081E826E0828091D703882309F467C03C
:104950009091D6038091D1038695891B8093CD03D6
:1049600000ED17E056ECE52E56E0F52E923041F4BE
:10497000ECE6F1E00591149169E5E62E6DE0F62E86
:104980008091CE03882361F01092CE030E943919E2
:104990009093CC038093CB031092D0031092CF035B
:1049A0000E9439192091CB033091CC03AC01421BFA
:1049B000530B4F3F5F4798F54091A5024423B1F058
:1049C0001092A5024091A3025091A402841B950B62
:1049D0008F3F9F4758F4405D5A485093A40240933C
:1049E000A3028091D80388608093D803A090CF035E
:1049F000B090D003020F131F1093CC030093CB038E
:104A00008BEC93E0F70109958091CF039091D0034F
:104A1000892B29F4AB2819F081E08093A5028091BD
:104A2000DF03882351F18091C8029091C9020E944E
:104A30001E19C29708F055C120911D0430911E0423
:104A40002115310509F0FFC18091DE038823A9F00B
:104A50000E949B060091DA031091DB032091DC0396
:104A60003091DD03601B710B820B930B6F3F7F4F07
:104A70008F4F9F4710F40E949E12D1100E94B912CE
:104A80000E94B6110E94BC0D9091CA02891721F0B4
:104A90000E94BC0D8093CA020E94980D882309F4DD
:104AA0000DCF0E949B062091DC02211146C000918F
:104AB000D8021091D9022091DA023091DB026B0109
:104AC0007C01C01AD10AE20AF30A97018601043F69
:104AD00011402105310588F16093D8027093D90205
:104AE0008093DA029093DB028091D6029091D702F4
:104AF00001969093D7028093D6021B868E01055FA4
:104B00001F4F21E050E040E060E088E00E9419146F
:104B1000811106C08091D6029091D7020A976CF05D
:104B200081E08093DC02809300049B85911101C099
:104B300080E0809301040E94FE0D8091010488238F
:104B400009F4BCCE0E949B066B017C018091DD02C2
:104B50009091DE02A091DF02B091E002A7019601E0
:104B6000281B390B4A0B5B0BDA01C9010497A1051D
:104B7000B10580F11B861C861D861E868E01055F91
:104B80001F4F24E050E040E060E089E00E941914EB
:104B90008823C1F06B857C85809106049091070481
:104BA0000E94300C90930704809306046D857E85E7
:104BB00080910804909109040E94300C909309049C
:104BC00080930804C092DD02D092DE02E092DF0200
:104BD000F092E00280910B04882309F46FCE80915B
:104BE0000A048B8710E000E020E0AE01455F5F4FD4
:104BF00061E08AE00E941914882309F45FCE1092C4
:104C00000B045CCE85E280938D01FECC82E067CD03
:104C100089E591E07BCD8091F503843031F10E94EC
:104C20009E120E94B6111092E20350E40FB6F8945F
:104C3000A895809260000FBE5093600083B7817F7B
:104C4000846083BF83B7816083BF7894889583B77E
:104C50008E7F83BF0FB6F894A8958091600088611D
:104C600080936000109260000FBE8091F40388234F
:104C700081F00E948420A5E9B1E0E9E9F2E08191A8
:104C80009D91892309F0B1C183EA92E08E179F07B5
:104C9000B1F78091F503853009F4BDCF1092E80398
:104CA0000E942A0E0E94BC0D0FCEC394EE0CF8E0B9
:104CB000CF1228CE0F5F1F4F0A30110509F012CE18
:104CC0008FEF8E838F8318860E942D198160782F35
:104CD0009A8789874E815F8168858A850E94F21F45
:104CE00032CE0E942D199093C9028093C8028FE1A1
:104CF00094E090932606809325060E94980D8823C1
:104D000009F49CC010911204012F8EEA91E00E94D8
:104D10007611809115048F708A3008F081C0805D13
:104D20000E94F5108AEA91E00E94761180911404A5
:104D30008F708A3008F076C0805D0E94F5100023E5
:104D400009F476C087EA91E00E947611812F82955E
:104D50008F708A3008F068C0805D0E94F510812F46
:104D60008F708A3008F062C0805D0E94F5108CEF71
:104D7000810F853308F05CC083EA91E00E947611D0
:104D8000212F2450330BF901E259FE4F84910E94E8
:104D9000F5108AEC91E00E947611809118040E942F
:104DA000050C0E945612809119040E94050C0E9465
:104DB000561280911B040E94050C0E94561280918D
:104DC0001A040E94050C0E94561281EC91E00E9488
:104DD000761180910A04811101C085E00E94050CC2
:104DE00001960E9456128BEB91E00E947611809101
:104DF0000C04811121C080E30E94F51087EB91E043
:104E00000E94761180910D04811101C084E0805DC3
:104E10000E94F5108091DF03882309F415CE0CCE93
:104E2000895A7ECF895A89CF895A97CF895A9DCF7F
:104E300081E00E948411ADCF81E3DECF80ED91E06F
:104E40000E947611E7CF8091C70261E070E0811186
:104E5000FBCD082F10E07B01082E02C0EE0CFF1CDA
:104E60000A94E2F7A9014E215F21452B09F447C0BE
:104E70009091C60290FD45C08295880F8076809300
:104E800086019801369527953695279520938901B7
:104E9000815E8093870110928A0124E630E047E02A
:104EA00050E064E871E088E70E949729892B09F0B7
:104EB000CBCDA80125E0440F551F2A95E1F780913D
:104EC000C60280FD2CC0415E5B4F04E610E020E28C
:104ED00030E060E488E70E94BE29892B09F0B4CD58
:104EE0000E94B912E094F09480911D0490911E04E8
:104EF000E822F922F0921E04E0921D04A5CD8F5FF6
:104F0000A8CF880F880F880F80938601109289019F
:104F1000895F8093870183E080938A01BECFE6EAB0
:104F2000F2E080E2DF011D928A95E9F7E3EAF1E021
:104F3000F88BEF870FE911E097EA292E91E0392EDF
:104F4000AF85B8892D91B88BAF87F80141908F015B
:104F5000440E552E511CC201815E9B4F2C01E22F45
:104F6000F0E0EA55FD4F30E020E087E0682E621A5D
:104F7000CC24C394022E01C0CC0C0A94EAF752014F
:104F800090E0D5018D915D018C21662D691B6770C4
:104F9000762E062E000C770BB82F01C0BB0F7A942B
:104FA000EAF77B2E7195619571096770772701C0CB
:104FB00086956A95EAF7782A8081782A70829F5FC1
:104FC0009830F9F62F5F3F4F31962830310569F65A
:104FD000EF85F8892E163F0609F0B2CF04E610E0FF
:104FE00020E230E046EA52E074CF30E139BD19BD2D
:104FF00009B400FEFDCF8091D8008F7D8093D8004A
:105000008091E00082608093E0008091E00081FD6B
:10501000FCCF1092E8030E942A0E3BCE289A219AD8
:10502000229A23982B9880E58CBD08959091920147
:105030009F3F09F071C08F3F09F46EC0611144C0F9
:105040001092330690913306423009F441C0433048
:1050500009F442C094604130E1F141E050E0421770
:105060005307E0F1909133064031510509F452C0E5
:10507000C0F54230510509F446C04830510509F4E5
:1050800046C09CB520913306922B9CBD9091320670
:10509000992319F09DB591609DBD80939201E82FF1
:1050A000E295EF70F0E031A1282F2F7081E090E0C1
:1050B00001C0880F2A95EAF7382B31A392A1809579
:1050C000892382A381E0089590E290933306BACFBA
:1050D000986090933306C1CF9C60FBCF440F551F5F
:1050E000BECF4034510549F04038510541F04032BF
:1050F000510539F621E020933206926001C0936099
:1051000090933306BECF91E090933206BACF21E060
:10511000209332069160F4CF80E00895CF93DF931F
:105120008EBD0E942D19EC010DB407FE05C08EB591
:1051300090E0DF91CF9108950E942D198C1B9D0B5B
:105140008436910588F38EEF9FEFF3CFCF93DF93F3
:105150001EBC0E942D19EC010DB407FE05C08EB5D2
:1051600090E0DF91CF9108950E942D198C1B9D0B2B
:105170008436910588F38EEF9FEFF3CF80919201F3
:105180008F3F29F1E82FE295EF70F0E041A18F7099
:1051900021E030E0B90102C0660F771F8A95E2F77F
:1051A000CB01942F982B91A392A1892B82A38FEFEF
:1051B000809392018DB58E7F8DBD9CB58091330615
:1051C000809589238CBD1092330610923206089583
:1051D0001092B9008CE08093B80008959F92AF922E
:1051E000BF92CF92DF92EF92FF920F931F93CF93D4
:1051F000DF93B82EEB010E942D196C01EE24E3948D
:10520000F12CC431D10560F025E0E22EF12CCF3F26
:10521000DC0731F0CE0164E170E00E94112C7B01CB
:1052200084EAA82E94E8992E1092BC00A092BC00AB
:105230000E942D198C018091BC0087FF0DC08091C8
:10524000B900887F883039F18091B900887F80313A
:1052500011F10FEF1FEF09C00E942D19801B910B58
:105260008E159F0540F30EEF1FEFCF3FDC07E1F2F5
:10527000C6010E941E198C179D07B0F2C801DF916C
:10528000CF911F910F91FF90EF90DF90CF90BF9043
:10529000AF909F900895B092BB009092BC000E9486
:1052A0002D198C018091BC0087FF0AC08091B90044
:1052B000887F883111F0803461F610E000E0DECFA5
:1052C0000E942D19801B910B8E159F0558F3CBCF93
:1052D0000F931F93CF93DF93EB018093BB0084E880
:1052E0008093BC000E942D198C018091BC0087FF27
:1052F00011C02091B900287F81E090E0283211F49C
:1053000090E080E0919581959109DF91CF911F9177
:105310000F910895CF3FDC0741F30E942D19801BA8
:10532000910B8C179D0708F38EEF9FEFEECFCF9276
:10533000DF92EF92FF920F931F93CF93DF936B0156
:105340008A017901B9010E94EE28E6010C0D1D1DAC
:10535000C017D10761F424E92093BC00DF91CF91FD
:105360001F910F91FF90EF90DF90CF90089597FDE0
:10537000F2CFB70189910E946829EACFCF92DF92DC
:10538000EF92FF920F931F93CF93DF93C62F6A0183
:105390007901B8010E94EE2897FD0CC0B8018C2F4E
:1053A0000E946829E601EC0CFD1CCE15DF0511F00A
:1053B00097FF0CC024E92093BC00DF91CF911F918F
:1053C0000F91FF90EF90DF90CF900895B8018991F1
:1053D0000E946829EACF84E98093BC0008958EE199
:1053E0004A9B02C08150E1F74A9BFECF08955A982C
:1053F00080E28A95F1F75A9A0895FC013BE03A95CC
:10540000F1F798E020E080E031E040E14A95F1F7E3
:10541000880F4A9B02C08160232742E04A95F1F73A
:10542000000040E14A95F1F7915079F790E19A95A3
:10543000F1F799B132E03A95F1F7000040E14A9571
:10544000F1F792FB992790F992272081920F908390
:105450000895EF92FF920F931F93CF93DF930F92D4
:10546000CDB7DEB719828C017C01E60EF11C0E155A
:105470001F0561F481E09981911180E00F90DF9127
:10548000CF911F910F91FF90EF9008950E94EF2907
:10549000CE0101960E94FD29F80181938F01E7CF8B
:1054A000529A5A9A089552985A9AEA9AE9E6F0E07E
:1054B00080818F7C808308956150770B91E001C0DB
:1054C000990F6A95EAF720E031E0911108C0222394
:1054D00091F05A9A80E28A95F1F75A980895492FE7
:1054E000482339F05A9A232740E24A95F1F79695D6
:1054F000ECCF5A98F9CF5A98EDCFFF920F931F93A4
:10550000CF93DF93EC018C01060F111DC017D1075B
:1055100031F4DF91CF911F910F91FF900895F99091
:105520000E94F72968E08F2D0E945C2AEFCF1F921E
:105530000F920FB60F921124EF92FF920F931F93C9
:105540002F933F934F935F936F937F938F939F938B
:10555000AF93BF93EF93FF93CF93DF930F92CDB7AA
:10556000DEB719820E94EF29CE0101960E94FD2923
:10557000A82FA695A695A695282F229525709A2F37
:105580009570290F922F937026952695920F982744
:1055900097708981982B09F075C0AC3008F072C003
:1055A00080E18A95F1F75A9A529AB2E0BA95F1F7EA
:1055B00000C05A98EA2EF12CEAE0AE9FD0011124E7
:1055C000A65FBE4F1896ED91FC9119973097B1F0F8
:1055D000609193017091940116962D913C911797CB
:1055E000260F371F13968D919C911497680F791F82
:1055F00015964C91159712968C9109958AE08E9D7F
:10560000F0018F9DF00D1124E65FFE4F658166234A
:1056100051F0209193013091940186819781820FFE
:10562000931F0E947D2A0E94F729F0E1FA95F1F775
:105630005A9852985A9A80E18A95F1F78AE08E9D9D
:1056400080018F9D100D1124065F1E4FD801129608
:105650006C911297662371F120919301309194011E
:1056600013968D919C91820F931F0E94292AD80135
:10567000ED91FC91882311F088E001C082E08083E5
:105680000E94EF290F90DF91CF91FF91EF91BF9191
:10569000AF919F918F917F916F915F914F913F91CA
:1056A0002F911F910F91FF90EF900F900FBE0F90D1
:1056B0001F901895ED91FC91DFCF0F931F93CF931F
:1056C000DF93EC010C970CF0A9C08AE08C9FF001ED
:1056D0008D9FF00D1124E65FFE4F80819181892B13
:1056E00009F49CC0F894529A5A9885E08A95F1F78B
:1056F00000008C2F869585709C2F9570890F982FB0
:10570000937086958695890F8E0193E0000F111F87
:105710009A95E1F7082B0E94F72900C068E0802FD6
:105720000E945C2AA0E1AA95F1F752985A9A4A9BE6
:1057300027C087E090E04A9925C08AE08C9F8001CD
:105740008D9F100D1124065F1E4FF80165816623A1
:10575000A1F1209193013091940186819781820F6C
:10576000931F0E94292A811128C0529A5A9AD8015F
:10577000ED91FC9182E08083789482E090E016C005
:1057800000C0D5CF0197B9F4529A5A9A8AE08C9FFB
:10579000F0018D9FF00D1124E65FFE4F0190F08126
:1057A000E02D81E08083789481E090E0DF91CF91DB
:1057B0001F910F91089500C0BECF0E94EF29B0E263
:1057C000BA95F1F75A98529AE0E1EA95F1F78AE032
:1057D0008C9FF0018D9FF00D1124E65FFE4F6281DA
:1057E000662351F02091930130919401838194813B
:1057F000820F931F0E947D2A0E94F7298AE08C9FC6
:10580000F0018D9FF00D1124E65FFE4F0190F081B5
:10581000E02D1082789490E080E0C8CF84E090E0A2
:10582000C5CFAA1BBB1B51E107C0AA1FBB1FA617F0
:10583000B70710F0A61BB70B881F991F5A95A9F739
:1058400080959095BC01CD010895991B79E004C025
:10585000991F961708F0961B881F7A95C9F78095AF
:10586000089587FB082E062687FD819567FD6195C3
:105870000E94252C0EF4919507FC8195089597FBC5
:10588000072E16F4009407D077FD09D00E94112C42
:1058900007FC05D03EF4909581959F4F0895709533
:1058A00061957F4F0895EE0FFF1F0590F491E02D55
:1058B0000994FB01DC0102C005900D92415050405B
:1058C000D8F70895FC014150504030F00190061681
:1058D000D1F73197CF010895882799270895FB01C3
:1058E000DC0104C08D910190801921F44150504099
:1058F000C8F7881B990B0895FB01DC0102C00190D9
:105900000D9241505040D8F70895F999FECF92BDBD
:1059100081BDF89A992780B50895A6E1B0E044E0EA
:1059200050E00C94BF2CA8E1B0E042E050E00C94B1
:10593000BF2C262FF999FECF92BD81BDF89A019711
:1059400000B4021639F01FBA20BD0FB6F894FA9AC7
:10595000F99A0FBE08950396272F0E949A2C0E9451
:10596000992C252F0E949A2C242F0C949A2C019666
:10597000272F0E949A2C0C94992CDC01CB01FC015E
:10598000F999FECF06C0F2BDE1BDF89A319600B498
:105990000D9241505040B8F70895F894FFCFAF0AE8
:1059A000AF0AB80AB80ABA0AB80AB80AB80AAF0AF7
:1059B000AF0ABF0AB80AB80ABF0A1D0F450FDD10AB
:1059C000450FDD10780F990FDD109610A310831A84
:1059D000891A981A9C1A9E1AA01AA21ABD1AA71AF6
:1059E000B61A1C1C1C1C551C551C841C841C841CB5
:0A59F000841C0B1D761D851D851D0E
:1059FA0001946697C634F4F5F6F7B4010000000185
:105A0A0000000000B4010000000501000000B4011C
:105A1A000406000000000000B401080A00000000AB
:105A2A000000B401031200000000A907B401201508
:105A3A00000000000000B4010112000000009007FD
:105A4A00B401000000203500000000000000000042
:105A5A00000000000000000000000000000000003C
:105A6A0000000000000000009806C80CA70C96066B
:105A7A00970695060021007F2200030101004A00D3
:105A8A004A4AFF2902777777F7F7777777F7F700A8
:0A5A9A00081018181008000001029F
:00000001FF
